{"contracts/DebtLents.sol":{"DebtLens":{"abi":[{"inputs":[],"name":"MORPHO_ADDRESS","outputs":[{"internalType":"address","name":"","type":"address"}],"stateMutability":"view","type":"function"},{"inputs":[{"internalType":"bytes32","name":"marketId","type":"bytes32"},{"internalType":"address","name":"user","type":"address"}],"name":"getAccruedDebt","outputs":[{"internalType":"uint256","name":"","type":"uint256"}],"stateMutability":"view","type":"function"}],"evm":{"bytecode":{"linkReferences":{},"object":"608060405234801561001057600080fd5b50610c33806100206000396000f3fe608060405234801561001057600080fd5b50600436106100365760003560e01c806363d0a6de1461003b5780638d78ac9414610059575b600080fd5b610043610089565b60405161005091906104d9565b60405180910390f35b610073600480360381019061006e9190610565565b6100a1565b60405161008091906105be565b60405180910390f35b73bbbbbbbbbb9cc5e90e3b3af64bdaf62c37eeffcb81565b60008073bbbbbbbbbb9cc5e90e3b3af64bdaf62c37eeffcb905060008173ffffffffffffffffffffffffffffffffffffffff16632c3c9157866040518263ffffffff1660e01b81526004016100f691906105e8565b60a060405180830381865afa158015610113573d6000803e3d6000fd5b505050506040513d601f19601f820116820180604052508101906101379190610761565b905060008273ffffffffffffffffffffffffffffffffffffffff16635c60e39a876040518263ffffffff1660e01b815260040161017491906105e8565b60c060405180830381865afa158015610191573d6000803e3d6000fd5b505050506040513d601f19601f820116820180604052508101906101b59190610876565b905060008373ffffffffffffffffffffffffffffffffffffffff166393c5206288886040518363ffffffff1660e01b81526004016101f49291906108a3565b606060405180830381865afa158015610211573d6000803e3d6000fd5b505050506040513d601f19601f820116820180604052508101906102359190610930565b905060008160200151036102505760009450505050506103fb565b600082608001516fffffffffffffffffffffffffffffffff1642610274919061098c565b9050600083604001516fffffffffffffffffffffffffffffffff1690506000821180156102a15750600081115b80156102de5750600073ffffffffffffffffffffffffffffffffffffffff16856060015173ffffffffffffffffffffffffffffffffffffffff1614155b156103a4576000856060015173ffffffffffffffffffffffffffffffffffffffff16638c00bf6b87876040518363ffffffff1660e01b8152600401610324929190610ad0565b602060405180830381865afa158015610341573d6000803e3d6000fd5b505050506040513d601f19601f820116820180604052508101906103659190610afa565b90506000670de0b6b3a764000061037c8386610401565b846103879190610b27565b6103919190610b98565b9050808361039f9190610bc9565b925050505b600084606001516fffffffffffffffffffffffffffffffff169050806001828487602001516103d39190610b27565b6103dd9190610bc9565b6103e7919061098c565b6103f19190610b98565b9750505050505050505b92915050565b60008082846104109190610b27565b905060008190506000670de0b6b3a7640000600261042e9190610b27565b838461043a9190610b27565b6104449190610b98565b90506000670de0b6b3a7640000600361045d9190610b27565b84836104699190610b27565b6104739190610b98565b90508082846104829190610bc9565b61048c9190610bc9565b94505050505092915050565b600073ffffffffffffffffffffffffffffffffffffffff82169050919050565b60006104c382610498565b9050919050565b6104d3816104b8565b82525050565b60006020820190506104ee60008301846104ca565b92915050565b6000604051905090565b600080fd5b6000819050919050565b61051681610503565b811461052157600080fd5b50565b6000813590506105338161050d565b92915050565b610542816104b8565b811461054d57600080fd5b50565b60008135905061055f81610539565b92915050565b6000806040838503121561057c5761057b6104fe565b5b600061058a85828601610524565b925050602061059b85828601610550565b9150509250929050565b6000819050919050565b6105b8816105a5565b82525050565b60006020820190506105d360008301846105af565b92915050565b6105e281610503565b82525050565b60006020820190506105fd60008301846105d9565b92915050565b600080fd5b6000601f19601f8301169050919050565b7f4e487b7100000000000000000000000000000000000000000000000000000000600052604160045260246000fd5b61065182610608565b810181811067ffffffffffffffff821117156106705761066f610619565b5b80604052505050565b60006106836104f4565b905061068f8282610648565b919050565b6000815190506106a381610539565b92915050565b6106b2816105a5565b81146106bd57600080fd5b50565b6000815190506106cf816106a9565b92915050565b600060a082840312156106eb576106ea610603565b5b6106f560a0610679565b9050600061070584828501610694565b600083015250602061071984828501610694565b602083015250604061072d84828501610694565b604083015250606061074184828501610694565b6060830152506080610755848285016106c0565b60808301525092915050565b600060a08284031215610777576107766104fe565b5b6000610785848285016106d5565b91505092915050565b60006fffffffffffffffffffffffffffffffff82169050919050565b6107b38161078e565b81146107be57600080fd5b50565b6000815190506107d0816107aa565b92915050565b600060c082840312156107ec576107eb610603565b5b6107f660c0610679565b90506000610806848285016107c1565b600083015250602061081a848285016107c1565b602083015250604061082e848285016107c1565b6040830152506060610842848285016107c1565b6060830152506080610856848285016107c1565b60808301525060a061086a848285016107c1565b60a08301525092915050565b600060c0828403121561088c5761088b6104fe565b5b600061089a848285016107d6565b91505092915050565b60006040820190506108b860008301856105d9565b6108c560208301846104ca565b9392505050565b6000606082840312156108e2576108e1610603565b5b6108ec6060610679565b905060006108fc848285016106c0565b6000830152506020610910848285016106c0565b6020830152506040610924848285016106c0565b60408301525092915050565b600060608284031215610946576109456104fe565b5b6000610954848285016108cc565b91505092915050565b7f4e487b7100000000000000000000000000000000000000000000000000000000600052601160045260246000fd5b6000610997826105a5565b91506109a2836105a5565b92508282039050818111156109ba576109b961095d565b5b92915050565b6109c9816104b8565b82525050565b6109d8816105a5565b82525050565b60a0820160008201516109f460008501826109c0565b506020820151610a0760208501826109c0565b506040820151610a1a60408501826109c0565b506060820151610a2d60608501826109c0565b506080820151610a4060808501826109cf565b50505050565b610a4f8161078e565b82525050565b60c082016000820151610a6b6000850182610a46565b506020820151610a7e6020850182610a46565b506040820151610a916040850182610a46565b506060820151610aa46060850182610a46565b506080820151610ab76080850182610a46565b5060a0820151610aca60a0850182610a46565b50505050565b600061016082019050610ae660008301856109de565b610af360a0830184610a55565b9392505050565b600060208284031215610b1057610b0f6104fe565b5b6000610b1e848285016106c0565b91505092915050565b6000610b32826105a5565b9150610b3d836105a5565b9250828202610b4b816105a5565b91508282048414831517610b6257610b6161095d565b5b5092915050565b7f4e487b7100000000000000000000000000000000000000000000000000000000600052601260045260246000fd5b6000610ba3826105a5565b9150610bae836105a5565b925082610bbe57610bbd610b69565b5b828204905092915050565b6000610bd4826105a5565b9150610bdf836105a5565b9250828201905080821115610bf757610bf661095d565b5b9291505056fea26469706673582212205d0e5cb0a9e5ff24a2151709d71842724bc5ab6afedecbfc6ff4ab5712ce012964736f6c63430008140033","opcodes":"PUSH1 0x80 PUSH1 0x40 MSTORE CALLVALUE DUP1 ISZERO PUSH2 0x10 JUMPI PUSH1 0x0 DUP1 REVERT JUMPDEST POP PUSH2 0xC33 DUP1 PUSH2 0x20 PUSH1 0x0 CODECOPY PUSH1 0x0 RETURN INVALID PUSH1 0x80 PUSH1 0x40 MSTORE CALLVALUE DUP1 ISZERO PUSH2 0x10 JUMPI PUSH1 0x0 DUP1 REVERT JUMPDEST POP PUSH1 0x4 CALLDATASIZE LT PUSH2 0x36 JUMPI PUSH1 0x0 CALLDATALOAD PUSH1 0xE0 SHR DUP1 PUSH4 0x63D0A6DE EQ PUSH2 0x3B JUMPI DUP1 PUSH4 0x8D78AC94 EQ PUSH2 0x59 JUMPI JUMPDEST PUSH1 0x0 DUP1 REVERT JUMPDEST PUSH2 0x43 PUSH2 0x89 JUMP JUMPDEST PUSH1 0x40 MLOAD PUSH2 0x50 SWAP2 SWAP1 PUSH2 0x4D9 JUMP JUMPDEST PUSH1 0x40 MLOAD DUP1 SWAP2 SUB SWAP1 RETURN JUMPDEST PUSH2 0x73 PUSH1 0x4 DUP1 CALLDATASIZE SUB DUP2 ADD SWAP1 PUSH2 0x6E SWAP2 SWAP1 PUSH2 0x565 JUMP JUMPDEST PUSH2 0xA1 JUMP JUMPDEST PUSH1 0x40 MLOAD PUSH2 0x80 SWAP2 SWAP1 PUSH2 0x5BE JUMP JUMPDEST PUSH1 0x40 MLOAD DUP1 SWAP2 SUB SWAP1 RETURN JUMPDEST PUSH20 0xBBBBBBBBBB9CC5E90E3B3AF64BDAF62C37EEFFCB DUP2 JUMP JUMPDEST PUSH1 0x0 DUP1 PUSH20 0xBBBBBBBBBB9CC5E90E3B3AF64BDAF62C37EEFFCB SWAP1 POP PUSH1 0x0 DUP2 PUSH20 0xFFFFFFFFFFFFFFFFFFFFFFFFFFFFFFFFFFFFFFFF AND PUSH4 0x2C3C9157 DUP7 PUSH1 0x40 MLOAD DUP3 PUSH4 0xFFFFFFFF AND PUSH1 0xE0 SHL DUP2 MSTORE PUSH1 0x4 ADD PUSH2 0xF6 SWAP2 SWAP1 PUSH2 0x5E8 JUMP JUMPDEST PUSH1 0xA0 PUSH1 0x40 MLOAD DUP1 DUP4 SUB DUP2 DUP7 GAS STATICCALL ISZERO DUP1 ISZERO PUSH2 0x113 JUMPI RETURNDATASIZE PUSH1 0x0 DUP1 RETURNDATACOPY RETURNDATASIZE PUSH1 0x0 REVERT JUMPDEST POP POP POP POP PUSH1 0x40 MLOAD RETURNDATASIZE PUSH1 0x1F NOT PUSH1 0x1F DUP3 ADD AND DUP3 ADD DUP1 PUSH1 0x40 MSTORE POP DUP2 ADD SWAP1 PUSH2 0x137 SWAP2 SWAP1 PUSH2 0x761 JUMP JUMPDEST SWAP1 POP PUSH1 0x0 DUP3 PUSH20 0xFFFFFFFFFFFFFFFFFFFFFFFFFFFFFFFFFFFFFFFF AND PUSH4 0x5C60E39A DUP8 PUSH1 0x40 MLOAD DUP3 PUSH4 0xFFFFFFFF AND PUSH1 0xE0 SHL DUP2 MSTORE PUSH1 0x4 ADD PUSH2 0x174 SWAP2 SWAP1 PUSH2 0x5E8 JUMP JUMPDEST PUSH1 0xC0 PUSH1 0x40 MLOAD DUP1 DUP4 SUB DUP2 DUP7 GAS STATICCALL ISZERO DUP1 ISZERO PUSH2 0x191 JUMPI RETURNDATASIZE PUSH1 0x0 DUP1 RETURNDATACOPY RETURNDATASIZE PUSH1 0x0 REVERT JUMPDEST POP POP POP POP PUSH1 0x40 MLOAD RETURNDATASIZE PUSH1 0x1F NOT PUSH1 0x1F DUP3 ADD AND DUP3 ADD DUP1 PUSH1 0x40 MSTORE POP DUP2 ADD SWAP1 PUSH2 0x1B5 SWAP2 SWAP1 PUSH2 0x876 JUMP JUMPDEST SWAP1 POP PUSH1 0x0 DUP4 PUSH20 0xFFFFFFFFFFFFFFFFFFFFFFFFFFFFFFFFFFFFFFFF AND PUSH4 0x93C52062 DUP9 DUP9 PUSH1 0x40 MLOAD DUP4 PUSH4 0xFFFFFFFF AND PUSH1 0xE0 SHL DUP2 MSTORE PUSH1 0x4 ADD PUSH2 0x1F4 SWAP3 SWAP2 SWAP1 PUSH2 0x8A3 JUMP JUMPDEST PUSH1 0x60 PUSH1 0x40 MLOAD DUP1 DUP4 SUB DUP2 DUP7 GAS STATICCALL ISZERO DUP1 ISZERO PUSH2 0x211 JUMPI RETURNDATASIZE PUSH1 0x0 DUP1 RETURNDATACOPY RETURNDATASIZE PUSH1 0x0 REVERT JUMPDEST POP POP POP POP PUSH1 0x40 MLOAD RETURNDATASIZE PUSH1 0x1F NOT PUSH1 0x1F DUP3 ADD AND DUP3 ADD DUP1 PUSH1 0x40 MSTORE POP DUP2 ADD SWAP1 PUSH2 0x235 SWAP2 SWAP1 PUSH2 0x930 JUMP JUMPDEST SWAP1 POP PUSH1 0x0 DUP2 PUSH1 0x20 ADD MLOAD SUB PUSH2 0x250 JUMPI PUSH1 0x0 SWAP5 POP POP POP POP POP PUSH2 0x3FB JUMP JUMPDEST PUSH1 0x0 DUP3 PUSH1 0x80 ADD MLOAD PUSH16 0xFFFFFFFFFFFFFFFFFFFFFFFFFFFFFFFF AND TIMESTAMP PUSH2 0x274 SWAP2 SWAP1 PUSH2 0x98C JUMP JUMPDEST SWAP1 POP PUSH1 0x0 DUP4 PUSH1 0x40 ADD MLOAD PUSH16 0xFFFFFFFFFFFFFFFFFFFFFFFFFFFFFFFF AND SWAP1 POP PUSH1 0x0 DUP3 GT DUP1 ISZERO PUSH2 0x2A1 JUMPI POP PUSH1 0x0 DUP2 GT JUMPDEST DUP1 ISZERO PUSH2 0x2DE JUMPI POP PUSH1 0x0 PUSH20 0xFFFFFFFFFFFFFFFFFFFFFFFFFFFFFFFFFFFFFFFF AND DUP6 PUSH1 0x60 ADD MLOAD PUSH20 0xFFFFFFFFFFFFFFFFFFFFFFFFFFFFFFFFFFFFFFFF AND EQ ISZERO JUMPDEST ISZERO PUSH2 0x3A4 JUMPI PUSH1 0x0 DUP6 PUSH1 0x60 ADD MLOAD PUSH20 0xFFFFFFFFFFFFFFFFFFFFFFFFFFFFFFFFFFFFFFFF AND PUSH4 0x8C00BF6B DUP8 DUP8 PUSH1 0x40 MLOAD DUP4 PUSH4 0xFFFFFFFF AND PUSH1 0xE0 SHL DUP2 MSTORE PUSH1 0x4 ADD PUSH2 0x324 SWAP3 SWAP2 SWAP1 PUSH2 0xAD0 JUMP JUMPDEST PUSH1 0x20 PUSH1 0x40 MLOAD DUP1 DUP4 SUB DUP2 DUP7 GAS STATICCALL ISZERO DUP1 ISZERO PUSH2 0x341 JUMPI RETURNDATASIZE PUSH1 0x0 DUP1 RETURNDATACOPY RETURNDATASIZE PUSH1 0x0 REVERT JUMPDEST POP POP POP POP PUSH1 0x40 MLOAD RETURNDATASIZE PUSH1 0x1F NOT PUSH1 0x1F DUP3 ADD AND DUP3 ADD DUP1 PUSH1 0x40 MSTORE POP DUP2 ADD SWAP1 PUSH2 0x365 SWAP2 SWAP1 PUSH2 0xAFA JUMP JUMPDEST SWAP1 POP PUSH1 0x0 PUSH8 0xDE0B6B3A7640000 PUSH2 0x37C DUP4 DUP7 PUSH2 0x401 JUMP JUMPDEST DUP5 PUSH2 0x387 SWAP2 SWAP1 PUSH2 0xB27 JUMP JUMPDEST PUSH2 0x391 SWAP2 SWAP1 PUSH2 0xB98 JUMP JUMPDEST SWAP1 POP DUP1 DUP4 PUSH2 0x39F SWAP2 SWAP1 PUSH2 0xBC9 JUMP JUMPDEST SWAP3 POP POP POP JUMPDEST PUSH1 0x0 DUP5 PUSH1 0x60 ADD MLOAD PUSH16 0xFFFFFFFFFFFFFFFFFFFFFFFFFFFFFFFF AND SWAP1 POP DUP1 PUSH1 0x1 DUP3 DUP5 DUP8 PUSH1 0x20 ADD MLOAD PUSH2 0x3D3 SWAP2 SWAP1 PUSH2 0xB27 JUMP JUMPDEST PUSH2 0x3DD SWAP2 SWAP1 PUSH2 0xBC9 JUMP JUMPDEST PUSH2 0x3E7 SWAP2 SWAP1 PUSH2 0x98C JUMP JUMPDEST PUSH2 0x3F1 SWAP2 SWAP1 PUSH2 0xB98 JUMP JUMPDEST SWAP8 POP POP POP POP POP POP POP POP JUMPDEST SWAP3 SWAP2 POP POP JUMP JUMPDEST PUSH1 0x0 DUP1 DUP3 DUP5 PUSH2 0x410 SWAP2 SWAP1 PUSH2 0xB27 JUMP JUMPDEST SWAP1 POP PUSH1 0x0 DUP2 SWAP1 POP PUSH1 0x0 PUSH8 0xDE0B6B3A7640000 PUSH1 0x2 PUSH2 0x42E SWAP2 SWAP1 PUSH2 0xB27 JUMP JUMPDEST DUP4 DUP5 PUSH2 0x43A SWAP2 SWAP1 PUSH2 0xB27 JUMP JUMPDEST PUSH2 0x444 SWAP2 SWAP1 PUSH2 0xB98 JUMP JUMPDEST SWAP1 POP PUSH1 0x0 PUSH8 0xDE0B6B3A7640000 PUSH1 0x3 PUSH2 0x45D SWAP2 SWAP1 PUSH2 0xB27 JUMP JUMPDEST DUP5 DUP4 PUSH2 0x469 SWAP2 SWAP1 PUSH2 0xB27 JUMP JUMPDEST PUSH2 0x473 SWAP2 SWAP1 PUSH2 0xB98 JUMP JUMPDEST SWAP1 POP DUP1 DUP3 DUP5 PUSH2 0x482 SWAP2 SWAP1 PUSH2 0xBC9 JUMP JUMPDEST PUSH2 0x48C SWAP2 SWAP1 PUSH2 0xBC9 JUMP JUMPDEST SWAP5 POP POP POP POP POP SWAP3 SWAP2 POP POP JUMP JUMPDEST PUSH1 0x0 PUSH20 0xFFFFFFFFFFFFFFFFFFFFFFFFFFFFFFFFFFFFFFFF DUP3 AND SWAP1 POP SWAP2 SWAP1 POP JUMP JUMPDEST PUSH1 0x0 PUSH2 0x4C3 DUP3 PUSH2 0x498 JUMP JUMPDEST SWAP1 POP SWAP2 SWAP1 POP JUMP JUMPDEST PUSH2 0x4D3 DUP2 PUSH2 0x4B8 JUMP JUMPDEST DUP3 MSTORE POP POP JUMP JUMPDEST PUSH1 0x0 PUSH1 0x20 DUP3 ADD SWAP1 POP PUSH2 0x4EE PUSH1 0x0 DUP4 ADD DUP5 PUSH2 0x4CA JUMP JUMPDEST SWAP3 SWAP2 POP POP JUMP JUMPDEST PUSH1 0x0 PUSH1 0x40 MLOAD SWAP1 POP SWAP1 JUMP JUMPDEST PUSH1 0x0 DUP1 REVERT JUMPDEST PUSH1 0x0 DUP2 SWAP1 POP SWAP2 SWAP1 POP JUMP JUMPDEST PUSH2 0x516 DUP2 PUSH2 0x503 JUMP JUMPDEST DUP2 EQ PUSH2 0x521 JUMPI PUSH1 0x0 DUP1 REVERT JUMPDEST POP JUMP JUMPDEST PUSH1 0x0 DUP2 CALLDATALOAD SWAP1 POP PUSH2 0x533 DUP2 PUSH2 0x50D JUMP JUMPDEST SWAP3 SWAP2 POP POP JUMP JUMPDEST PUSH2 0x542 DUP2 PUSH2 0x4B8 JUMP JUMPDEST DUP2 EQ PUSH2 0x54D JUMPI PUSH1 0x0 DUP1 REVERT JUMPDEST POP JUMP JUMPDEST PUSH1 0x0 DUP2 CALLDATALOAD SWAP1 POP PUSH2 0x55F DUP2 PUSH2 0x539 JUMP JUMPDEST SWAP3 SWAP2 POP POP JUMP JUMPDEST PUSH1 0x0 DUP1 PUSH1 0x40 DUP4 DUP6 SUB SLT ISZERO PUSH2 0x57C JUMPI PUSH2 0x57B PUSH2 0x4FE JUMP JUMPDEST JUMPDEST PUSH1 0x0 PUSH2 0x58A DUP6 DUP3 DUP7 ADD PUSH2 0x524 JUMP JUMPDEST SWAP3 POP POP PUSH1 0x20 PUSH2 0x59B DUP6 DUP3 DUP7 ADD PUSH2 0x550 JUMP JUMPDEST SWAP2 POP POP SWAP3 POP SWAP3 SWAP1 POP JUMP JUMPDEST PUSH1 0x0 DUP2 SWAP1 POP SWAP2 SWAP1 POP JUMP JUMPDEST PUSH2 0x5B8 DUP2 PUSH2 0x5A5 JUMP JUMPDEST DUP3 MSTORE POP POP JUMP JUMPDEST PUSH1 0x0 PUSH1 0x20 DUP3 ADD SWAP1 POP PUSH2 0x5D3 PUSH1 0x0 DUP4 ADD DUP5 PUSH2 0x5AF JUMP JUMPDEST SWAP3 SWAP2 POP POP JUMP JUMPDEST PUSH2 0x5E2 DUP2 PUSH2 0x503 JUMP JUMPDEST DUP3 MSTORE POP POP JUMP JUMPDEST PUSH1 0x0 PUSH1 0x20 DUP3 ADD SWAP1 POP PUSH2 0x5FD PUSH1 0x0 DUP4 ADD DUP5 PUSH2 0x5D9 JUMP JUMPDEST SWAP3 SWAP2 POP POP JUMP JUMPDEST PUSH1 0x0 DUP1 REVERT JUMPDEST PUSH1 0x0 PUSH1 0x1F NOT PUSH1 0x1F DUP4 ADD AND SWAP1 POP SWAP2 SWAP1 POP JUMP JUMPDEST PUSH32 0x4E487B7100000000000000000000000000000000000000000000000000000000 PUSH1 0x0 MSTORE PUSH1 0x41 PUSH1 0x4 MSTORE PUSH1 0x24 PUSH1 0x0 REVERT JUMPDEST PUSH2 0x651 DUP3 PUSH2 0x608 JUMP JUMPDEST DUP2 ADD DUP2 DUP2 LT PUSH8 0xFFFFFFFFFFFFFFFF DUP3 GT OR ISZERO PUSH2 0x670 JUMPI PUSH2 0x66F PUSH2 0x619 JUMP JUMPDEST JUMPDEST DUP1 PUSH1 0x40 MSTORE POP POP POP JUMP JUMPDEST PUSH1 0x0 PUSH2 0x683 PUSH2 0x4F4 JUMP JUMPDEST SWAP1 POP PUSH2 0x68F DUP3 DUP3 PUSH2 0x648 JUMP JUMPDEST SWAP2 SWAP1 POP JUMP JUMPDEST PUSH1 0x0 DUP2 MLOAD SWAP1 POP PUSH2 0x6A3 DUP2 PUSH2 0x539 JUMP JUMPDEST SWAP3 SWAP2 POP POP JUMP JUMPDEST PUSH2 0x6B2 DUP2 PUSH2 0x5A5 JUMP JUMPDEST DUP2 EQ PUSH2 0x6BD JUMPI PUSH1 0x0 DUP1 REVERT JUMPDEST POP JUMP JUMPDEST PUSH1 0x0 DUP2 MLOAD SWAP1 POP PUSH2 0x6CF DUP2 PUSH2 0x6A9 JUMP JUMPDEST SWAP3 SWAP2 POP POP JUMP JUMPDEST PUSH1 0x0 PUSH1 0xA0 DUP3 DUP5 SUB SLT ISZERO PUSH2 0x6EB JUMPI PUSH2 0x6EA PUSH2 0x603 JUMP JUMPDEST JUMPDEST PUSH2 0x6F5 PUSH1 0xA0 PUSH2 0x679 JUMP JUMPDEST SWAP1 POP PUSH1 0x0 PUSH2 0x705 DUP5 DUP3 DUP6 ADD PUSH2 0x694 JUMP JUMPDEST PUSH1 0x0 DUP4 ADD MSTORE POP PUSH1 0x20 PUSH2 0x719 DUP5 DUP3 DUP6 ADD PUSH2 0x694 JUMP JUMPDEST PUSH1 0x20 DUP4 ADD MSTORE POP PUSH1 0x40 PUSH2 0x72D DUP5 DUP3 DUP6 ADD PUSH2 0x694 JUMP JUMPDEST PUSH1 0x40 DUP4 ADD MSTORE POP PUSH1 0x60 PUSH2 0x741 DUP5 DUP3 DUP6 ADD PUSH2 0x694 JUMP JUMPDEST PUSH1 0x60 DUP4 ADD MSTORE POP PUSH1 0x80 PUSH2 0x755 DUP5 DUP3 DUP6 ADD PUSH2 0x6C0 JUMP JUMPDEST PUSH1 0x80 DUP4 ADD MSTORE POP SWAP3 SWAP2 POP POP JUMP JUMPDEST PUSH1 0x0 PUSH1 0xA0 DUP3 DUP5 SUB SLT ISZERO PUSH2 0x777 JUMPI PUSH2 0x776 PUSH2 0x4FE JUMP JUMPDEST JUMPDEST PUSH1 0x0 PUSH2 0x785 DUP5 DUP3 DUP6 ADD PUSH2 0x6D5 JUMP JUMPDEST SWAP2 POP POP SWAP3 SWAP2 POP POP JUMP JUMPDEST PUSH1 0x0 PUSH16 0xFFFFFFFFFFFFFFFFFFFFFFFFFFFFFFFF DUP3 AND SWAP1 POP SWAP2 SWAP1 POP JUMP JUMPDEST PUSH2 0x7B3 DUP2 PUSH2 0x78E JUMP JUMPDEST DUP2 EQ PUSH2 0x7BE JUMPI PUSH1 0x0 DUP1 REVERT JUMPDEST POP JUMP JUMPDEST PUSH1 0x0 DUP2 MLOAD SWAP1 POP PUSH2 0x7D0 DUP2 PUSH2 0x7AA JUMP JUMPDEST SWAP3 SWAP2 POP POP JUMP JUMPDEST PUSH1 0x0 PUSH1 0xC0 DUP3 DUP5 SUB SLT ISZERO PUSH2 0x7EC JUMPI PUSH2 0x7EB PUSH2 0x603 JUMP JUMPDEST JUMPDEST PUSH2 0x7F6 PUSH1 0xC0 PUSH2 0x679 JUMP JUMPDEST SWAP1 POP PUSH1 0x0 PUSH2 0x806 DUP5 DUP3 DUP6 ADD PUSH2 0x7C1 JUMP JUMPDEST PUSH1 0x0 DUP4 ADD MSTORE POP PUSH1 0x20 PUSH2 0x81A DUP5 DUP3 DUP6 ADD PUSH2 0x7C1 JUMP JUMPDEST PUSH1 0x20 DUP4 ADD MSTORE POP PUSH1 0x40 PUSH2 0x82E DUP5 DUP3 DUP6 ADD PUSH2 0x7C1 JUMP JUMPDEST PUSH1 0x40 DUP4 ADD MSTORE POP PUSH1 0x60 PUSH2 0x842 DUP5 DUP3 DUP6 ADD PUSH2 0x7C1 JUMP JUMPDEST PUSH1 0x60 DUP4 ADD MSTORE POP PUSH1 0x80 PUSH2 0x856 DUP5 DUP3 DUP6 ADD PUSH2 0x7C1 JUMP JUMPDEST PUSH1 0x80 DUP4 ADD MSTORE POP PUSH1 0xA0 PUSH2 0x86A DUP5 DUP3 DUP6 ADD PUSH2 0x7C1 JUMP JUMPDEST PUSH1 0xA0 DUP4 ADD MSTORE POP SWAP3 SWAP2 POP POP JUMP JUMPDEST PUSH1 0x0 PUSH1 0xC0 DUP3 DUP5 SUB SLT ISZERO PUSH2 0x88C JUMPI PUSH2 0x88B PUSH2 0x4FE JUMP JUMPDEST JUMPDEST PUSH1 0x0 PUSH2 0x89A DUP5 DUP3 DUP6 ADD PUSH2 0x7D6 JUMP JUMPDEST SWAP2 POP POP SWAP3 SWAP2 POP POP JUMP JUMPDEST PUSH1 0x0 PUSH1 0x40 DUP3 ADD SWAP1 POP PUSH2 0x8B8 PUSH1 0x0 DUP4 ADD DUP6 PUSH2 0x5D9 JUMP JUMPDEST PUSH2 0x8C5 PUSH1 0x20 DUP4 ADD DUP5 PUSH2 0x4CA JUMP JUMPDEST SWAP4 SWAP3 POP POP POP JUMP JUMPDEST PUSH1 0x0 PUSH1 0x60 DUP3 DUP5 SUB SLT ISZERO PUSH2 0x8E2 JUMPI PUSH2 0x8E1 PUSH2 0x603 JUMP JUMPDEST JUMPDEST PUSH2 0x8EC PUSH1 0x60 PUSH2 0x679 JUMP JUMPDEST SWAP1 POP PUSH1 0x0 PUSH2 0x8FC DUP5 DUP3 DUP6 ADD PUSH2 0x6C0 JUMP JUMPDEST PUSH1 0x0 DUP4 ADD MSTORE POP PUSH1 0x20 PUSH2 0x910 DUP5 DUP3 DUP6 ADD PUSH2 0x6C0 JUMP JUMPDEST PUSH1 0x20 DUP4 ADD MSTORE POP PUSH1 0x40 PUSH2 0x924 DUP5 DUP3 DUP6 ADD PUSH2 0x6C0 JUMP JUMPDEST PUSH1 0x40 DUP4 ADD MSTORE POP SWAP3 SWAP2 POP POP JUMP JUMPDEST PUSH1 0x0 PUSH1 0x60 DUP3 DUP5 SUB SLT ISZERO PUSH2 0x946 JUMPI PUSH2 0x945 PUSH2 0x4FE JUMP JUMPDEST JUMPDEST PUSH1 0x0 PUSH2 0x954 DUP5 DUP3 DUP6 ADD PUSH2 0x8CC JUMP JUMPDEST SWAP2 POP POP SWAP3 SWAP2 POP POP JUMP JUMPDEST PUSH32 0x4E487B7100000000000000000000000000000000000000000000000000000000 PUSH1 0x0 MSTORE PUSH1 0x11 PUSH1 0x4 MSTORE PUSH1 0x24 PUSH1 0x0 REVERT JUMPDEST PUSH1 0x0 PUSH2 0x997 DUP3 PUSH2 0x5A5 JUMP JUMPDEST SWAP2 POP PUSH2 0x9A2 DUP4 PUSH2 0x5A5 JUMP JUMPDEST SWAP3 POP DUP3 DUP3 SUB SWAP1 POP DUP2 DUP2 GT ISZERO PUSH2 0x9BA JUMPI PUSH2 0x9B9 PUSH2 0x95D JUMP JUMPDEST JUMPDEST SWAP3 SWAP2 POP POP JUMP JUMPDEST PUSH2 0x9C9 DUP2 PUSH2 0x4B8 JUMP JUMPDEST DUP3 MSTORE POP POP JUMP JUMPDEST PUSH2 0x9D8 DUP2 PUSH2 0x5A5 JUMP JUMPDEST DUP3 MSTORE POP POP JUMP JUMPDEST PUSH1 0xA0 DUP3 ADD PUSH1 0x0 DUP3 ADD MLOAD PUSH2 0x9F4 PUSH1 0x0 DUP6 ADD DUP3 PUSH2 0x9C0 JUMP JUMPDEST POP PUSH1 0x20 DUP3 ADD MLOAD PUSH2 0xA07 PUSH1 0x20 DUP6 ADD DUP3 PUSH2 0x9C0 JUMP JUMPDEST POP PUSH1 0x40 DUP3 ADD MLOAD PUSH2 0xA1A PUSH1 0x40 DUP6 ADD DUP3 PUSH2 0x9C0 JUMP JUMPDEST POP PUSH1 0x60 DUP3 ADD MLOAD PUSH2 0xA2D PUSH1 0x60 DUP6 ADD DUP3 PUSH2 0x9C0 JUMP JUMPDEST POP PUSH1 0x80 DUP3 ADD MLOAD PUSH2 0xA40 PUSH1 0x80 DUP6 ADD DUP3 PUSH2 0x9CF JUMP JUMPDEST POP POP POP POP JUMP JUMPDEST PUSH2 0xA4F DUP2 PUSH2 0x78E JUMP JUMPDEST DUP3 MSTORE POP POP JUMP JUMPDEST PUSH1 0xC0 DUP3 ADD PUSH1 0x0 DUP3 ADD MLOAD PUSH2 0xA6B PUSH1 0x0 DUP6 ADD DUP3 PUSH2 0xA46 JUMP JUMPDEST POP PUSH1 0x20 DUP3 ADD MLOAD PUSH2 0xA7E PUSH1 0x20 DUP6 ADD DUP3 PUSH2 0xA46 JUMP JUMPDEST POP PUSH1 0x40 DUP3 ADD MLOAD PUSH2 0xA91 PUSH1 0x40 DUP6 ADD DUP3 PUSH2 0xA46 JUMP JUMPDEST POP PUSH1 0x60 DUP3 ADD MLOAD PUSH2 0xAA4 PUSH1 0x60 DUP6 ADD DUP3 PUSH2 0xA46 JUMP JUMPDEST POP PUSH1 0x80 DUP3 ADD MLOAD PUSH2 0xAB7 PUSH1 0x80 DUP6 ADD DUP3 PUSH2 0xA46 JUMP JUMPDEST POP PUSH1 0xA0 DUP3 ADD MLOAD PUSH2 0xACA PUSH1 0xA0 DUP6 ADD DUP3 PUSH2 0xA46 JUMP JUMPDEST POP POP POP POP JUMP JUMPDEST PUSH1 0x0 PUSH2 0x160 DUP3 ADD SWAP1 POP PUSH2 0xAE6 PUSH1 0x0 DUP4 ADD DUP6 PUSH2 0x9DE JUMP JUMPDEST PUSH2 0xAF3 PUSH1 0xA0 DUP4 ADD DUP5 PUSH2 0xA55 JUMP JUMPDEST SWAP4 SWAP3 POP POP POP JUMP JUMPDEST PUSH1 0x0 PUSH1 0x20 DUP3 DUP5 SUB SLT ISZERO PUSH2 0xB10 JUMPI PUSH2 0xB0F PUSH2 0x4FE JUMP JUMPDEST JUMPDEST PUSH1 0x0 PUSH2 0xB1E DUP5 DUP3 DUP6 ADD PUSH2 0x6C0 JUMP JUMPDEST SWAP2 POP POP SWAP3 SWAP2 POP POP JUMP JUMPDEST PUSH1 0x0 PUSH2 0xB32 DUP3 PUSH2 0x5A5 JUMP JUMPDEST SWAP2 POP PUSH2 0xB3D DUP4 PUSH2 0x5A5 JUMP JUMPDEST SWAP3 POP DUP3 DUP3 MUL PUSH2 0xB4B DUP2 PUSH2 0x5A5 JUMP JUMPDEST SWAP2 POP DUP3 DUP3 DIV DUP5 EQ DUP4 ISZERO OR PUSH2 0xB62 JUMPI PUSH2 0xB61 PUSH2 0x95D JUMP JUMPDEST JUMPDEST POP SWAP3 SWAP2 POP POP JUMP JUMPDEST PUSH32 0x4E487B7100000000000000000000000000000000000000000000000000000000 PUSH1 0x0 MSTORE PUSH1 0x12 PUSH1 0x4 MSTORE PUSH1 0x24 PUSH1 0x0 REVERT JUMPDEST PUSH1 0x0 PUSH2 0xBA3 DUP3 PUSH2 0x5A5 JUMP JUMPDEST SWAP2 POP PUSH2 0xBAE DUP4 PUSH2 0x5A5 JUMP JUMPDEST SWAP3 POP DUP3 PUSH2 0xBBE JUMPI PUSH2 0xBBD PUSH2 0xB69 JUMP JUMPDEST JUMPDEST DUP3 DUP3 DIV SWAP1 POP SWAP3 SWAP2 POP POP JUMP JUMPDEST PUSH1 0x0 PUSH2 0xBD4 DUP3 PUSH2 0x5A5 JUMP JUMPDEST SWAP2 POP PUSH2 0xBDF DUP4 PUSH2 0x5A5 JUMP JUMPDEST SWAP3 POP DUP3 DUP3 ADD SWAP1 POP DUP1 DUP3 GT ISZERO PUSH2 0xBF7 JUMPI PUSH2 0xBF6 PUSH2 0x95D JUMP JUMPDEST JUMPDEST SWAP3 SWAP2 POP POP JUMP INVALID LOG2 PUSH5 0x6970667358 0x22 SLT KECCAK256 0x5D 0xE 0x5C 0xB0 0xA9 0xE5 SELFDESTRUCT 0x24 LOG2 ISZERO OR MULMOD 0xD7 XOR TIMESTAMP PUSH19 0x4BC5AB6AFEDECBFC6FF4AB5712CE012964736F PUSH13 0x63430008140033000000000000 "},"methodIdentifiers":{"MORPHO_ADDRESS()":"63d0a6de","getAccruedDebt(bytes32,address)":"8d78ac94"}}}}}