{"contracts/WmusdcMxnbOracle.sol":{"WmusdcMxnbOracle":{"abi":[{"inputs":[],"name":"price","outputs":[{"internalType":"uint256","name":"","type":"uint256"}],"stateMutability":"pure","type":"function"},{"inputs":[],"name":"priceView","outputs":[{"internalType":"uint256","name":"","type":"uint256"}],"stateMutability":"pure","type":"function"}],"evm":{"bytecode":{"linkReferences":{},"object":"608060405234801561001057600080fd5b5060f78061001f6000396000f3fe6080604052348015600f57600080fd5b506004361060325760003560e01c8063172e1e52146037578063a035b1fe146051575b600080fd5b603d606b565b6040516048919060a8565b60405180910390f35b6057607e565b6040516062919060a8565b60405180910390f35b60006a0e0fe3d8bb9bc7b1000000905090565b60006a0e0fe3d8bb9bc7b1000000905090565b6000819050919050565b60a2816091565b82525050565b600060208201905060bb6000830184609b565b9291505056fea264697066735822122008b12b9fa19b0cfac53f18c5c348b9967aced56a0fd44a5f11ceb282533661ee64736f6c63430008140033","opcodes":"PUSH1 0x80 PUSH1 0x40 MSTORE CALLVALUE DUP1 ISZERO PUSH2 0x10 JUMPI PUSH1 0x0 DUP1 REVERT JUMPDEST POP PUSH1 0xF7 DUP1 PUSH2 0x1F PUSH1 0x0 CODECOPY PUSH1 0x0 RETURN INVALID PUSH1 0x80 PUSH1 0x40 MSTORE CALLVALUE DUP1 ISZERO PUSH1 0xF JUMPI PUSH1 0x0 DUP1 REVERT JUMPDEST POP PUSH1 0x4 CALLDATASIZE LT PUSH1 0x32 JUMPI PUSH1 0x0 CALLDATALOAD PUSH1 0xE0 SHR DUP1 PUSH4 0x172E1E52 EQ PUSH1 0x37 JUMPI DUP1 PUSH4 0xA035B1FE EQ PUSH1 0x51 JUMPI JUMPDEST PUSH1 0x0 DUP1 REVERT JUMPDEST PUSH1 0x3D PUSH1 0x6B JUMP JUMPDEST PUSH1 0x40 MLOAD PUSH1 0x48 SWAP2 SWAP1 PUSH1 0xA8 JUMP JUMPDEST PUSH1 0x40 MLOAD DUP1 SWAP2 SUB SWAP1 RETURN JUMPDEST PUSH1 0x57 PUSH1 0x7E JUMP JUMPDEST PUSH1 0x40 MLOAD PUSH1 0x62 SWAP2 SWAP1 PUSH1 0xA8 JUMP JUMPDEST PUSH1 0x40 MLOAD DUP1 SWAP2 SUB SWAP1 RETURN JUMPDEST PUSH1 0x0 PUSH11 0xE0FE3D8BB9BC7B1000000 SWAP1 POP SWAP1 JUMP JUMPDEST PUSH1 0x0 PUSH11 0xE0FE3D8BB9BC7B1000000 SWAP1 POP SWAP1 JUMP JUMPDEST PUSH1 0x0 DUP2 SWAP1 POP SWAP2 SWAP1 POP JUMP JUMPDEST PUSH1 0xA2 DUP2 PUSH1 0x91 JUMP JUMPDEST DUP3 MSTORE POP POP JUMP JUMPDEST PUSH1 0x0 PUSH1 0x20 DUP3 ADD SWAP1 POP PUSH1 0xBB PUSH1 0x0 DUP4 ADD DUP5 PUSH1 0x9B JUMP JUMPDEST SWAP3 SWAP2 POP POP JUMP INVALID LOG2 PUSH5 0x6970667358 0x22 SLT KECCAK256 ADDMOD 0xB1 0x2B SWAP16 LOG1 SWAP12 0xC STATICCALL 0xC5 EXTCODEHASH XOR 0xC5 0xC3 BASEFEE 0xB9 SWAP7 PUSH27 0xCED56A0FD44A5F11CEB282533661EE64736F6C6343000814003300 "},"methodIdentifiers":{"price()":"a035b1fe","priceView()":"172e1e52"}}}}}