{"contracts/DebtLents.sol":{"DebtLens":{"abi":[{"inputs":[],"name":"MORPHO_ADDRESS","outputs":[{"internalType":"address","name":"","type":"address"}],"stateMutability":"view","type":"function"},{"inputs":[{"internalType":"bytes32","name":"marketId","type":"bytes32"},{"internalType":"address","name":"user","type":"address"}],"name":"getAccruedDebt","outputs":[{"internalType":"uint256","name":"","type":"uint256"}],"stateMutability":"view","type":"function"},{"inputs":[{"internalType":"bytes32","name":"marketId","type":"bytes32"},{"internalType":"address","name":"user","type":"address"}],"name":"getAccruedInterest","outputs":[{"internalType":"uint256","name":"","type":"uint256"}],"stateMutability":"view","type":"function"}],"evm":{"bytecode":{"linkReferences":{},"object":"608060405234801561001057600080fd5b5061103b806100206000396000f3fe608060405234801561001057600080fd5b50600436106100415760003560e01c80633859a1a21461004657806363d0a6de146100765780638d78ac9414610094575b600080fd5b610060600480360381019061005b9190610943565b6100c4565b60405161006d919061099c565b60405180910390f35b61007e610491565b60405161008b91906109c6565b60405180910390f35b6100ae60048036038101906100a99190610943565b6104a9565b6040516100bb919061099c565b60405180910390f35b60008073bbbbbbbbbb9cc5e90e3b3af64bdaf62c37eeffcb905060008173ffffffffffffffffffffffffffffffffffffffff16632c3c9157866040518263ffffffff1660e01b815260040161011991906109f0565b60a060405180830381865afa158015610136573d6000803e3d6000fd5b505050506040513d601f19601f8201168201806040525081019061015a9190610b69565b905060008273ffffffffffffffffffffffffffffffffffffffff16635c60e39a876040518263ffffffff1660e01b815260040161019791906109f0565b60c060405180830381865afa1580156101b4573d6000803e3d6000fd5b505050506040513d601f19601f820116820180604052508101906101d89190610c7e565b905060008373ffffffffffffffffffffffffffffffffffffffff166393c5206288886040518363ffffffff1660e01b8152600401610217929190610cab565b606060405180830381865afa158015610234573d6000803e3d6000fd5b505050506040513d601f19601f820116820180604052508101906102589190610d38565b9050600081602001510361027357600094505050505061048b565b600082606001516fffffffffffffffffffffffffffffffff16905060008160018386604001516fffffffffffffffffffffffffffffffff1686602001516102ba9190610d94565b6102c49190610dd6565b6102ce9190610e0a565b6102d89190610e6d565b9050600084608001516fffffffffffffffffffffffffffffffff16426102fe9190610e0a565b9050600085604001516fffffffffffffffffffffffffffffffff16905060008211801561032b5750600081115b80156103685750600073ffffffffffffffffffffffffffffffffffffffff16876060015173ffffffffffffffffffffffffffffffffffffffff1614155b1561042e576000876060015173ffffffffffffffffffffffffffffffffffffffff16638c00bf6b89896040518363ffffffff1660e01b81526004016103ae929190610fae565b602060405180830381865afa1580156103cb573d6000803e3d6000fd5b505050506040513d601f19601f820116820180604052508101906103ef9190610fd8565b90506000670de0b6b3a76400006104068386610809565b846104119190610d94565b61041b9190610e6d565b905080836104299190610dd6565b925050505b6000846001868489602001516104449190610d94565b61044e9190610dd6565b6104589190610e0a565b6104629190610e6d565b905083811161047257600061047f565b838161047e9190610e0a565b5b99505050505050505050505b92915050565b73bbbbbbbbbb9cc5e90e3b3af64bdaf62c37eeffcb81565b60008073bbbbbbbbbb9cc5e90e3b3af64bdaf62c37eeffcb905060008173ffffffffffffffffffffffffffffffffffffffff16632c3c9157866040518263ffffffff1660e01b81526004016104fe91906109f0565b60a060405180830381865afa15801561051b573d6000803e3d6000fd5b505050506040513d601f19601f8201168201806040525081019061053f9190610b69565b905060008273ffffffffffffffffffffffffffffffffffffffff16635c60e39a876040518263ffffffff1660e01b815260040161057c91906109f0565b60c060405180830381865afa158015610599573d6000803e3d6000fd5b505050506040513d601f19601f820116820180604052508101906105bd9190610c7e565b905060008373ffffffffffffffffffffffffffffffffffffffff166393c5206288886040518363ffffffff1660e01b81526004016105fc929190610cab565b606060405180830381865afa158015610619573d6000803e3d6000fd5b505050506040513d601f19601f8201168201806040525081019061063d9190610d38565b90506000816020015103610658576000945050505050610803565b600082608001516fffffffffffffffffffffffffffffffff164261067c9190610e0a565b9050600083604001516fffffffffffffffffffffffffffffffff1690506000821180156106a95750600081115b80156106e65750600073ffffffffffffffffffffffffffffffffffffffff16856060015173ffffffffffffffffffffffffffffffffffffffff1614155b156107ac576000856060015173ffffffffffffffffffffffffffffffffffffffff16638c00bf6b87876040518363ffffffff1660e01b815260040161072c929190610fae565b602060405180830381865afa158015610749573d6000803e3d6000fd5b505050506040513d601f19601f8201168201806040525081019061076d9190610fd8565b90506000670de0b6b3a76400006107848386610809565b8461078f9190610d94565b6107999190610e6d565b905080836107a79190610dd6565b925050505b600084606001516fffffffffffffffffffffffffffffffff169050806001828487602001516107db9190610d94565b6107e59190610dd6565b6107ef9190610e0a565b6107f99190610e6d565b9750505050505050505b92915050565b60008082846108189190610d94565b905060008190506000670de0b6b3a764000060026108369190610d94565b83846108429190610d94565b61084c9190610e6d565b90506000670de0b6b3a764000060036108659190610d94565b84836108719190610d94565b61087b9190610e6d565b905080828461088a9190610dd6565b6108949190610dd6565b94505050505092915050565b6000604051905090565b600080fd5b6000819050919050565b6108c2816108af565b81146108cd57600080fd5b50565b6000813590506108df816108b9565b92915050565b600073ffffffffffffffffffffffffffffffffffffffff82169050919050565b6000610910826108e5565b9050919050565b61092081610905565b811461092b57600080fd5b50565b60008135905061093d81610917565b92915050565b6000806040838503121561095a576109596108aa565b5b6000610968858286016108d0565b92505060206109798582860161092e565b9150509250929050565b6000819050919050565b61099681610983565b82525050565b60006020820190506109b1600083018461098d565b92915050565b6109c081610905565b82525050565b60006020820190506109db60008301846109b7565b92915050565b6109ea816108af565b82525050565b6000602082019050610a0560008301846109e1565b92915050565b600080fd5b6000601f19601f8301169050919050565b7f4e487b7100000000000000000000000000000000000000000000000000000000600052604160045260246000fd5b610a5982610a10565b810181811067ffffffffffffffff82111715610a7857610a77610a21565b5b80604052505050565b6000610a8b6108a0565b9050610a978282610a50565b919050565b600081519050610aab81610917565b92915050565b610aba81610983565b8114610ac557600080fd5b50565b600081519050610ad781610ab1565b92915050565b600060a08284031215610af357610af2610a0b565b5b610afd60a0610a81565b90506000610b0d84828501610a9c565b6000830152506020610b2184828501610a9c565b6020830152506040610b3584828501610a9c565b6040830152506060610b4984828501610a9c565b6060830152506080610b5d84828501610ac8565b60808301525092915050565b600060a08284031215610b7f57610b7e6108aa565b5b6000610b8d84828501610add565b91505092915050565b60006fffffffffffffffffffffffffffffffff82169050919050565b610bbb81610b96565b8114610bc657600080fd5b50565b600081519050610bd881610bb2565b92915050565b600060c08284031215610bf457610bf3610a0b565b5b610bfe60c0610a81565b90506000610c0e84828501610bc9565b6000830152506020610c2284828501610bc9565b6020830152506040610c3684828501610bc9565b6040830152506060610c4a84828501610bc9565b6060830152506080610c5e84828501610bc9565b60808301525060a0610c7284828501610bc9565b60a08301525092915050565b600060c08284031215610c9457610c936108aa565b5b6000610ca284828501610bde565b91505092915050565b6000604082019050610cc060008301856109e1565b610ccd60208301846109b7565b9392505050565b600060608284031215610cea57610ce9610a0b565b5b610cf46060610a81565b90506000610d0484828501610ac8565b6000830152506020610d1884828501610ac8565b6020830152506040610d2c84828501610ac8565b60408301525092915050565b600060608284031215610d4e57610d4d6108aa565b5b6000610d5c84828501610cd4565b91505092915050565b7f4e487b7100000000000000000000000000000000000000000000000000000000600052601160045260246000fd5b6000610d9f82610983565b9150610daa83610983565b9250828202610db881610983565b91508282048414831517610dcf57610dce610d65565b5b5092915050565b6000610de182610983565b9150610dec83610983565b9250828201905080821115610e0457610e03610d65565b5b92915050565b6000610e1582610983565b9150610e2083610983565b9250828203905081811115610e3857610e37610d65565b5b92915050565b7f4e487b7100000000000000000000000000000000000000000000000000000000600052601260045260246000fd5b6000610e7882610983565b9150610e8383610983565b925082610e9357610e92610e3e565b5b828204905092915050565b610ea781610905565b82525050565b610eb681610983565b82525050565b60a082016000820151610ed26000850182610e9e565b506020820151610ee56020850182610e9e565b506040820151610ef86040850182610e9e565b506060820151610f0b6060850182610e9e565b506080820151610f1e6080850182610ead565b50505050565b610f2d81610b96565b82525050565b60c082016000820151610f496000850182610f24565b506020820151610f5c6020850182610f24565b506040820151610f6f6040850182610f24565b506060820151610f826060850182610f24565b506080820151610f956080850182610f24565b5060a0820151610fa860a0850182610f24565b50505050565b600061016082019050610fc46000830185610ebc565b610fd160a0830184610f33565b9392505050565b600060208284031215610fee57610fed6108aa565b5b6000610ffc84828501610ac8565b9150509291505056fea2646970667358221220b6b8b2b883dfb154c7b37fd142245bdf5a43c75451a8c8400391b170cee441a364736f6c63430008140033","opcodes":"PUSH1 0x80 PUSH1 0x40 MSTORE CALLVALUE DUP1 ISZERO PUSH2 0x10 JUMPI PUSH1 0x0 DUP1 REVERT JUMPDEST POP PUSH2 0x103B DUP1 PUSH2 0x20 PUSH1 0x0 CODECOPY PUSH1 0x0 RETURN INVALID PUSH1 0x80 PUSH1 0x40 MSTORE CALLVALUE DUP1 ISZERO PUSH2 0x10 JUMPI PUSH1 0x0 DUP1 REVERT JUMPDEST POP PUSH1 0x4 CALLDATASIZE LT PUSH2 0x41 JUMPI PUSH1 0x0 CALLDATALOAD PUSH1 0xE0 SHR DUP1 PUSH4 0x3859A1A2 EQ PUSH2 0x46 JUMPI DUP1 PUSH4 0x63D0A6DE EQ PUSH2 0x76 JUMPI DUP1 PUSH4 0x8D78AC94 EQ PUSH2 0x94 JUMPI JUMPDEST PUSH1 0x0 DUP1 REVERT JUMPDEST PUSH2 0x60 PUSH1 0x4 DUP1 CALLDATASIZE SUB DUP2 ADD SWAP1 PUSH2 0x5B SWAP2 SWAP1 PUSH2 0x943 JUMP JUMPDEST PUSH2 0xC4 JUMP JUMPDEST PUSH1 0x40 MLOAD PUSH2 0x6D SWAP2 SWAP1 PUSH2 0x99C JUMP JUMPDEST PUSH1 0x40 MLOAD DUP1 SWAP2 SUB SWAP1 RETURN JUMPDEST PUSH2 0x7E PUSH2 0x491 JUMP JUMPDEST PUSH1 0x40 MLOAD PUSH2 0x8B SWAP2 SWAP1 PUSH2 0x9C6 JUMP JUMPDEST PUSH1 0x40 MLOAD DUP1 SWAP2 SUB SWAP1 RETURN JUMPDEST PUSH2 0xAE PUSH1 0x4 DUP1 CALLDATASIZE SUB DUP2 ADD SWAP1 PUSH2 0xA9 SWAP2 SWAP1 PUSH2 0x943 JUMP JUMPDEST PUSH2 0x4A9 JUMP JUMPDEST PUSH1 0x40 MLOAD PUSH2 0xBB SWAP2 SWAP1 PUSH2 0x99C JUMP JUMPDEST PUSH1 0x40 MLOAD DUP1 SWAP2 SUB SWAP1 RETURN JUMPDEST PUSH1 0x0 DUP1 PUSH20 0xBBBBBBBBBB9CC5E90E3B3AF64BDAF62C37EEFFCB SWAP1 POP PUSH1 0x0 DUP2 PUSH20 0xFFFFFFFFFFFFFFFFFFFFFFFFFFFFFFFFFFFFFFFF AND PUSH4 0x2C3C9157 DUP7 PUSH1 0x40 MLOAD DUP3 PUSH4 0xFFFFFFFF AND PUSH1 0xE0 SHL DUP2 MSTORE PUSH1 0x4 ADD PUSH2 0x119 SWAP2 SWAP1 PUSH2 0x9F0 JUMP JUMPDEST PUSH1 0xA0 PUSH1 0x40 MLOAD DUP1 DUP4 SUB DUP2 DUP7 GAS STATICCALL ISZERO DUP1 ISZERO PUSH2 0x136 JUMPI RETURNDATASIZE PUSH1 0x0 DUP1 RETURNDATACOPY RETURNDATASIZE PUSH1 0x0 REVERT JUMPDEST POP POP POP POP PUSH1 0x40 MLOAD RETURNDATASIZE PUSH1 0x1F NOT PUSH1 0x1F DUP3 ADD AND DUP3 ADD DUP1 PUSH1 0x40 MSTORE POP DUP2 ADD SWAP1 PUSH2 0x15A SWAP2 SWAP1 PUSH2 0xB69 JUMP JUMPDEST SWAP1 POP PUSH1 0x0 DUP3 PUSH20 0xFFFFFFFFFFFFFFFFFFFFFFFFFFFFFFFFFFFFFFFF AND PUSH4 0x5C60E39A DUP8 PUSH1 0x40 MLOAD DUP3 PUSH4 0xFFFFFFFF AND PUSH1 0xE0 SHL DUP2 MSTORE PUSH1 0x4 ADD PUSH2 0x197 SWAP2 SWAP1 PUSH2 0x9F0 JUMP JUMPDEST PUSH1 0xC0 PUSH1 0x40 MLOAD DUP1 DUP4 SUB DUP2 DUP7 GAS STATICCALL ISZERO DUP1 ISZERO PUSH2 0x1B4 JUMPI RETURNDATASIZE PUSH1 0x0 DUP1 RETURNDATACOPY RETURNDATASIZE PUSH1 0x0 REVERT JUMPDEST POP POP POP POP PUSH1 0x40 MLOAD RETURNDATASIZE PUSH1 0x1F NOT PUSH1 0x1F DUP3 ADD AND DUP3 ADD DUP1 PUSH1 0x40 MSTORE POP DUP2 ADD SWAP1 PUSH2 0x1D8 SWAP2 SWAP1 PUSH2 0xC7E JUMP JUMPDEST SWAP1 POP PUSH1 0x0 DUP4 PUSH20 0xFFFFFFFFFFFFFFFFFFFFFFFFFFFFFFFFFFFFFFFF AND PUSH4 0x93C52062 DUP9 DUP9 PUSH1 0x40 MLOAD DUP4 PUSH4 0xFFFFFFFF AND PUSH1 0xE0 SHL DUP2 MSTORE PUSH1 0x4 ADD PUSH2 0x217 SWAP3 SWAP2 SWAP1 PUSH2 0xCAB JUMP JUMPDEST PUSH1 0x60 PUSH1 0x40 MLOAD DUP1 DUP4 SUB DUP2 DUP7 GAS STATICCALL ISZERO DUP1 ISZERO PUSH2 0x234 JUMPI RETURNDATASIZE PUSH1 0x0 DUP1 RETURNDATACOPY RETURNDATASIZE PUSH1 0x0 REVERT JUMPDEST POP POP POP POP PUSH1 0x40 MLOAD RETURNDATASIZE PUSH1 0x1F NOT PUSH1 0x1F DUP3 ADD AND DUP3 ADD DUP1 PUSH1 0x40 MSTORE POP DUP2 ADD SWAP1 PUSH2 0x258 SWAP2 SWAP1 PUSH2 0xD38 JUMP JUMPDEST SWAP1 POP PUSH1 0x0 DUP2 PUSH1 0x20 ADD MLOAD SUB PUSH2 0x273 JUMPI PUSH1 0x0 SWAP5 POP POP POP POP POP PUSH2 0x48B JUMP JUMPDEST PUSH1 0x0 DUP3 PUSH1 0x60 ADD MLOAD PUSH16 0xFFFFFFFFFFFFFFFFFFFFFFFFFFFFFFFF AND SWAP1 POP PUSH1 0x0 DUP2 PUSH1 0x1 DUP4 DUP7 PUSH1 0x40 ADD MLOAD PUSH16 0xFFFFFFFFFFFFFFFFFFFFFFFFFFFFFFFF AND DUP7 PUSH1 0x20 ADD MLOAD PUSH2 0x2BA SWAP2 SWAP1 PUSH2 0xD94 JUMP JUMPDEST PUSH2 0x2C4 SWAP2 SWAP1 PUSH2 0xDD6 JUMP JUMPDEST PUSH2 0x2CE SWAP2 SWAP1 PUSH2 0xE0A JUMP JUMPDEST PUSH2 0x2D8 SWAP2 SWAP1 PUSH2 0xE6D JUMP JUMPDEST SWAP1 POP PUSH1 0x0 DUP5 PUSH1 0x80 ADD MLOAD PUSH16 0xFFFFFFFFFFFFFFFFFFFFFFFFFFFFFFFF AND TIMESTAMP PUSH2 0x2FE SWAP2 SWAP1 PUSH2 0xE0A JUMP JUMPDEST SWAP1 POP PUSH1 0x0 DUP6 PUSH1 0x40 ADD MLOAD PUSH16 0xFFFFFFFFFFFFFFFFFFFFFFFFFFFFFFFF AND SWAP1 POP PUSH1 0x0 DUP3 GT DUP1 ISZERO PUSH2 0x32B JUMPI POP PUSH1 0x0 DUP2 GT JUMPDEST DUP1 ISZERO PUSH2 0x368 JUMPI POP PUSH1 0x0 PUSH20 0xFFFFFFFFFFFFFFFFFFFFFFFFFFFFFFFFFFFFFFFF AND DUP8 PUSH1 0x60 ADD MLOAD PUSH20 0xFFFFFFFFFFFFFFFFFFFFFFFFFFFFFFFFFFFFFFFF AND EQ ISZERO JUMPDEST ISZERO PUSH2 0x42E JUMPI PUSH1 0x0 DUP8 PUSH1 0x60 ADD MLOAD PUSH20 0xFFFFFFFFFFFFFFFFFFFFFFFFFFFFFFFFFFFFFFFF AND PUSH4 0x8C00BF6B DUP10 DUP10 PUSH1 0x40 MLOAD DUP4 PUSH4 0xFFFFFFFF AND PUSH1 0xE0 SHL DUP2 MSTORE PUSH1 0x4 ADD PUSH2 0x3AE SWAP3 SWAP2 SWAP1 PUSH2 0xFAE JUMP JUMPDEST PUSH1 0x20 PUSH1 0x40 MLOAD DUP1 DUP4 SUB DUP2 DUP7 GAS STATICCALL ISZERO DUP1 ISZERO PUSH2 0x3CB JUMPI RETURNDATASIZE PUSH1 0x0 DUP1 RETURNDATACOPY RETURNDATASIZE PUSH1 0x0 REVERT JUMPDEST POP POP POP POP PUSH1 0x40 MLOAD RETURNDATASIZE PUSH1 0x1F NOT PUSH1 0x1F DUP3 ADD AND DUP3 ADD DUP1 PUSH1 0x40 MSTORE POP DUP2 ADD SWAP1 PUSH2 0x3EF SWAP2 SWAP1 PUSH2 0xFD8 JUMP JUMPDEST SWAP1 POP PUSH1 0x0 PUSH8 0xDE0B6B3A7640000 PUSH2 0x406 DUP4 DUP7 PUSH2 0x809 JUMP JUMPDEST DUP5 PUSH2 0x411 SWAP2 SWAP1 PUSH2 0xD94 JUMP JUMPDEST PUSH2 0x41B SWAP2 SWAP1 PUSH2 0xE6D JUMP JUMPDEST SWAP1 POP DUP1 DUP4 PUSH2 0x429 SWAP2 SWAP1 PUSH2 0xDD6 JUMP JUMPDEST SWAP3 POP POP POP JUMPDEST PUSH1 0x0 DUP5 PUSH1 0x1 DUP7 DUP5 DUP10 PUSH1 0x20 ADD MLOAD PUSH2 0x444 SWAP2 SWAP1 PUSH2 0xD94 JUMP JUMPDEST PUSH2 0x44E SWAP2 SWAP1 PUSH2 0xDD6 JUMP JUMPDEST PUSH2 0x458 SWAP2 SWAP1 PUSH2 0xE0A JUMP JUMPDEST PUSH2 0x462 SWAP2 SWAP1 PUSH2 0xE6D JUMP JUMPDEST SWAP1 POP DUP4 DUP2 GT PUSH2 0x472 JUMPI PUSH1 0x0 PUSH2 0x47F JUMP JUMPDEST DUP4 DUP2 PUSH2 0x47E SWAP2 SWAP1 PUSH2 0xE0A JUMP JUMPDEST JUMPDEST SWAP10 POP POP POP POP POP POP POP POP POP POP JUMPDEST SWAP3 SWAP2 POP POP JUMP JUMPDEST PUSH20 0xBBBBBBBBBB9CC5E90E3B3AF64BDAF62C37EEFFCB DUP2 JUMP JUMPDEST PUSH1 0x0 DUP1 PUSH20 0xBBBBBBBBBB9CC5E90E3B3AF64BDAF62C37EEFFCB SWAP1 POP PUSH1 0x0 DUP2 PUSH20 0xFFFFFFFFFFFFFFFFFFFFFFFFFFFFFFFFFFFFFFFF AND PUSH4 0x2C3C9157 DUP7 PUSH1 0x40 MLOAD DUP3 PUSH4 0xFFFFFFFF AND PUSH1 0xE0 SHL DUP2 MSTORE PUSH1 0x4 ADD PUSH2 0x4FE SWAP2 SWAP1 PUSH2 0x9F0 JUMP JUMPDEST PUSH1 0xA0 PUSH1 0x40 MLOAD DUP1 DUP4 SUB DUP2 DUP7 GAS STATICCALL ISZERO DUP1 ISZERO PUSH2 0x51B JUMPI RETURNDATASIZE PUSH1 0x0 DUP1 RETURNDATACOPY RETURNDATASIZE PUSH1 0x0 REVERT JUMPDEST POP POP POP POP PUSH1 0x40 MLOAD RETURNDATASIZE PUSH1 0x1F NOT PUSH1 0x1F DUP3 ADD AND DUP3 ADD DUP1 PUSH1 0x40 MSTORE POP DUP2 ADD SWAP1 PUSH2 0x53F SWAP2 SWAP1 PUSH2 0xB69 JUMP JUMPDEST SWAP1 POP PUSH1 0x0 DUP3 PUSH20 0xFFFFFFFFFFFFFFFFFFFFFFFFFFFFFFFFFFFFFFFF AND PUSH4 0x5C60E39A DUP8 PUSH1 0x40 MLOAD DUP3 PUSH4 0xFFFFFFFF AND PUSH1 0xE0 SHL DUP2 MSTORE PUSH1 0x4 ADD PUSH2 0x57C SWAP2 SWAP1 PUSH2 0x9F0 JUMP JUMPDEST PUSH1 0xC0 PUSH1 0x40 MLOAD DUP1 DUP4 SUB DUP2 DUP7 GAS STATICCALL ISZERO DUP1 ISZERO PUSH2 0x599 JUMPI RETURNDATASIZE PUSH1 0x0 DUP1 RETURNDATACOPY RETURNDATASIZE PUSH1 0x0 REVERT JUMPDEST POP POP POP POP PUSH1 0x40 MLOAD RETURNDATASIZE PUSH1 0x1F NOT PUSH1 0x1F DUP3 ADD AND DUP3 ADD DUP1 PUSH1 0x40 MSTORE POP DUP2 ADD SWAP1 PUSH2 0x5BD SWAP2 SWAP1 PUSH2 0xC7E JUMP JUMPDEST SWAP1 POP PUSH1 0x0 DUP4 PUSH20 0xFFFFFFFFFFFFFFFFFFFFFFFFFFFFFFFFFFFFFFFF AND PUSH4 0x93C52062 DUP9 DUP9 PUSH1 0x40 MLOAD DUP4 PUSH4 0xFFFFFFFF AND PUSH1 0xE0 SHL DUP2 MSTORE PUSH1 0x4 ADD PUSH2 0x5FC SWAP3 SWAP2 SWAP1 PUSH2 0xCAB JUMP JUMPDEST PUSH1 0x60 PUSH1 0x40 MLOAD DUP1 DUP4 SUB DUP2 DUP7 GAS STATICCALL ISZERO DUP1 ISZERO PUSH2 0x619 JUMPI RETURNDATASIZE PUSH1 0x0 DUP1 RETURNDATACOPY RETURNDATASIZE PUSH1 0x0 REVERT JUMPDEST POP POP POP POP PUSH1 0x40 MLOAD RETURNDATASIZE PUSH1 0x1F NOT PUSH1 0x1F DUP3 ADD AND DUP3 ADD DUP1 PUSH1 0x40 MSTORE POP DUP2 ADD SWAP1 PUSH2 0x63D SWAP2 SWAP1 PUSH2 0xD38 JUMP JUMPDEST SWAP1 POP PUSH1 0x0 DUP2 PUSH1 0x20 ADD MLOAD SUB PUSH2 0x658 JUMPI PUSH1 0x0 SWAP5 POP POP POP POP POP PUSH2 0x803 JUMP JUMPDEST PUSH1 0x0 DUP3 PUSH1 0x80 ADD MLOAD PUSH16 0xFFFFFFFFFFFFFFFFFFFFFFFFFFFFFFFF AND TIMESTAMP PUSH2 0x67C SWAP2 SWAP1 PUSH2 0xE0A JUMP JUMPDEST SWAP1 POP PUSH1 0x0 DUP4 PUSH1 0x40 ADD MLOAD PUSH16 0xFFFFFFFFFFFFFFFFFFFFFFFFFFFFFFFF AND SWAP1 POP PUSH1 0x0 DUP3 GT DUP1 ISZERO PUSH2 0x6A9 JUMPI POP PUSH1 0x0 DUP2 GT JUMPDEST DUP1 ISZERO PUSH2 0x6E6 JUMPI POP PUSH1 0x0 PUSH20 0xFFFFFFFFFFFFFFFFFFFFFFFFFFFFFFFFFFFFFFFF AND DUP6 PUSH1 0x60 ADD MLOAD PUSH20 0xFFFFFFFFFFFFFFFFFFFFFFFFFFFFFFFFFFFFFFFF AND EQ ISZERO JUMPDEST ISZERO PUSH2 0x7AC JUMPI PUSH1 0x0 DUP6 PUSH1 0x60 ADD MLOAD PUSH20 0xFFFFFFFFFFFFFFFFFFFFFFFFFFFFFFFFFFFFFFFF AND PUSH4 0x8C00BF6B DUP8 DUP8 PUSH1 0x40 MLOAD DUP4 PUSH4 0xFFFFFFFF AND PUSH1 0xE0 SHL DUP2 MSTORE PUSH1 0x4 ADD PUSH2 0x72C SWAP3 SWAP2 SWAP1 PUSH2 0xFAE JUMP JUMPDEST PUSH1 0x20 PUSH1 0x40 MLOAD DUP1 DUP4 SUB DUP2 DUP7 GAS STATICCALL ISZERO DUP1 ISZERO PUSH2 0x749 JUMPI RETURNDATASIZE PUSH1 0x0 DUP1 RETURNDATACOPY RETURNDATASIZE PUSH1 0x0 REVERT JUMPDEST POP POP POP POP PUSH1 0x40 MLOAD RETURNDATASIZE PUSH1 0x1F NOT PUSH1 0x1F DUP3 ADD AND DUP3 ADD DUP1 PUSH1 0x40 MSTORE POP DUP2 ADD SWAP1 PUSH2 0x76D SWAP2 SWAP1 PUSH2 0xFD8 JUMP JUMPDEST SWAP1 POP PUSH1 0x0 PUSH8 0xDE0B6B3A7640000 PUSH2 0x784 DUP4 DUP7 PUSH2 0x809 JUMP JUMPDEST DUP5 PUSH2 0x78F SWAP2 SWAP1 PUSH2 0xD94 JUMP JUMPDEST PUSH2 0x799 SWAP2 SWAP1 PUSH2 0xE6D JUMP JUMPDEST SWAP1 POP DUP1 DUP4 PUSH2 0x7A7 SWAP2 SWAP1 PUSH2 0xDD6 JUMP JUMPDEST SWAP3 POP POP POP JUMPDEST PUSH1 0x0 DUP5 PUSH1 0x60 ADD MLOAD PUSH16 0xFFFFFFFFFFFFFFFFFFFFFFFFFFFFFFFF AND SWAP1 POP DUP1 PUSH1 0x1 DUP3 DUP5 DUP8 PUSH1 0x20 ADD MLOAD PUSH2 0x7DB SWAP2 SWAP1 PUSH2 0xD94 JUMP JUMPDEST PUSH2 0x7E5 SWAP2 SWAP1 PUSH2 0xDD6 JUMP JUMPDEST PUSH2 0x7EF SWAP2 SWAP1 PUSH2 0xE0A JUMP JUMPDEST PUSH2 0x7F9 SWAP2 SWAP1 PUSH2 0xE6D JUMP JUMPDEST SWAP8 POP POP POP POP POP POP POP POP JUMPDEST SWAP3 SWAP2 POP POP JUMP JUMPDEST PUSH1 0x0 DUP1 DUP3 DUP5 PUSH2 0x818 SWAP2 SWAP1 PUSH2 0xD94 JUMP JUMPDEST SWAP1 POP PUSH1 0x0 DUP2 SWAP1 POP PUSH1 0x0 PUSH8 0xDE0B6B3A7640000 PUSH1 0x2 PUSH2 0x836 SWAP2 SWAP1 PUSH2 0xD94 JUMP JUMPDEST DUP4 DUP5 PUSH2 0x842 SWAP2 SWAP1 PUSH2 0xD94 JUMP JUMPDEST PUSH2 0x84C SWAP2 SWAP1 PUSH2 0xE6D JUMP JUMPDEST SWAP1 POP PUSH1 0x0 PUSH8 0xDE0B6B3A7640000 PUSH1 0x3 PUSH2 0x865 SWAP2 SWAP1 PUSH2 0xD94 JUMP JUMPDEST DUP5 DUP4 PUSH2 0x871 SWAP2 SWAP1 PUSH2 0xD94 JUMP JUMPDEST PUSH2 0x87B SWAP2 SWAP1 PUSH2 0xE6D JUMP JUMPDEST SWAP1 POP DUP1 DUP3 DUP5 PUSH2 0x88A SWAP2 SWAP1 PUSH2 0xDD6 JUMP JUMPDEST PUSH2 0x894 SWAP2 SWAP1 PUSH2 0xDD6 JUMP JUMPDEST SWAP5 POP POP POP POP POP SWAP3 SWAP2 POP POP JUMP JUMPDEST PUSH1 0x0 PUSH1 0x40 MLOAD SWAP1 POP SWAP1 JUMP JUMPDEST PUSH1 0x0 DUP1 REVERT JUMPDEST PUSH1 0x0 DUP2 SWAP1 POP SWAP2 SWAP1 POP JUMP JUMPDEST PUSH2 0x8C2 DUP2 PUSH2 0x8AF JUMP JUMPDEST DUP2 EQ PUSH2 0x8CD JUMPI PUSH1 0x0 DUP1 REVERT JUMPDEST POP JUMP JUMPDEST PUSH1 0x0 DUP2 CALLDATALOAD SWAP1 POP PUSH2 0x8DF DUP2 PUSH2 0x8B9 JUMP JUMPDEST SWAP3 SWAP2 POP POP JUMP JUMPDEST PUSH1 0x0 PUSH20 0xFFFFFFFFFFFFFFFFFFFFFFFFFFFFFFFFFFFFFFFF DUP3 AND SWAP1 POP SWAP2 SWAP1 POP JUMP JUMPDEST PUSH1 0x0 PUSH2 0x910 DUP3 PUSH2 0x8E5 JUMP JUMPDEST SWAP1 POP SWAP2 SWAP1 POP JUMP JUMPDEST PUSH2 0x920 DUP2 PUSH2 0x905 JUMP JUMPDEST DUP2 EQ PUSH2 0x92B JUMPI PUSH1 0x0 DUP1 REVERT JUMPDEST POP JUMP JUMPDEST PUSH1 0x0 DUP2 CALLDATALOAD SWAP1 POP PUSH2 0x93D DUP2 PUSH2 0x917 JUMP JUMPDEST SWAP3 SWAP2 POP POP JUMP JUMPDEST PUSH1 0x0 DUP1 PUSH1 0x40 DUP4 DUP6 SUB SLT ISZERO PUSH2 0x95A JUMPI PUSH2 0x959 PUSH2 0x8AA JUMP JUMPDEST JUMPDEST PUSH1 0x0 PUSH2 0x968 DUP6 DUP3 DUP7 ADD PUSH2 0x8D0 JUMP JUMPDEST SWAP3 POP POP PUSH1 0x20 PUSH2 0x979 DUP6 DUP3 DUP7 ADD PUSH2 0x92E JUMP JUMPDEST SWAP2 POP POP SWAP3 POP SWAP3 SWAP1 POP JUMP JUMPDEST PUSH1 0x0 DUP2 SWAP1 POP SWAP2 SWAP1 POP JUMP JUMPDEST PUSH2 0x996 DUP2 PUSH2 0x983 JUMP JUMPDEST DUP3 MSTORE POP POP JUMP JUMPDEST PUSH1 0x0 PUSH1 0x20 DUP3 ADD SWAP1 POP PUSH2 0x9B1 PUSH1 0x0 DUP4 ADD DUP5 PUSH2 0x98D JUMP JUMPDEST SWAP3 SWAP2 POP POP JUMP JUMPDEST PUSH2 0x9C0 DUP2 PUSH2 0x905 JUMP JUMPDEST DUP3 MSTORE POP POP JUMP JUMPDEST PUSH1 0x0 PUSH1 0x20 DUP3 ADD SWAP1 POP PUSH2 0x9DB PUSH1 0x0 DUP4 ADD DUP5 PUSH2 0x9B7 JUMP JUMPDEST SWAP3 SWAP2 POP POP JUMP JUMPDEST PUSH2 0x9EA DUP2 PUSH2 0x8AF JUMP JUMPDEST DUP3 MSTORE POP POP JUMP JUMPDEST PUSH1 0x0 PUSH1 0x20 DUP3 ADD SWAP1 POP PUSH2 0xA05 PUSH1 0x0 DUP4 ADD DUP5 PUSH2 0x9E1 JUMP JUMPDEST SWAP3 SWAP2 POP POP JUMP JUMPDEST PUSH1 0x0 DUP1 REVERT JUMPDEST PUSH1 0x0 PUSH1 0x1F NOT PUSH1 0x1F DUP4 ADD AND SWAP1 POP SWAP2 SWAP1 POP JUMP JUMPDEST PUSH32 0x4E487B7100000000000000000000000000000000000000000000000000000000 PUSH1 0x0 MSTORE PUSH1 0x41 PUSH1 0x4 MSTORE PUSH1 0x24 PUSH1 0x0 REVERT JUMPDEST PUSH2 0xA59 DUP3 PUSH2 0xA10 JUMP JUMPDEST DUP2 ADD DUP2 DUP2 LT PUSH8 0xFFFFFFFFFFFFFFFF DUP3 GT OR ISZERO PUSH2 0xA78 JUMPI PUSH2 0xA77 PUSH2 0xA21 JUMP JUMPDEST JUMPDEST DUP1 PUSH1 0x40 MSTORE POP POP POP JUMP JUMPDEST PUSH1 0x0 PUSH2 0xA8B PUSH2 0x8A0 JUMP JUMPDEST SWAP1 POP PUSH2 0xA97 DUP3 DUP3 PUSH2 0xA50 JUMP JUMPDEST SWAP2 SWAP1 POP JUMP JUMPDEST PUSH1 0x0 DUP2 MLOAD SWAP1 POP PUSH2 0xAAB DUP2 PUSH2 0x917 JUMP JUMPDEST SWAP3 SWAP2 POP POP JUMP JUMPDEST PUSH2 0xABA DUP2 PUSH2 0x983 JUMP JUMPDEST DUP2 EQ PUSH2 0xAC5 JUMPI PUSH1 0x0 DUP1 REVERT JUMPDEST POP JUMP JUMPDEST PUSH1 0x0 DUP2 MLOAD SWAP1 POP PUSH2 0xAD7 DUP2 PUSH2 0xAB1 JUMP JUMPDEST SWAP3 SWAP2 POP POP JUMP JUMPDEST PUSH1 0x0 PUSH1 0xA0 DUP3 DUP5 SUB SLT ISZERO PUSH2 0xAF3 JUMPI PUSH2 0xAF2 PUSH2 0xA0B JUMP JUMPDEST JUMPDEST PUSH2 0xAFD PUSH1 0xA0 PUSH2 0xA81 JUMP JUMPDEST SWAP1 POP PUSH1 0x0 PUSH2 0xB0D DUP5 DUP3 DUP6 ADD PUSH2 0xA9C JUMP JUMPDEST PUSH1 0x0 DUP4 ADD MSTORE POP PUSH1 0x20 PUSH2 0xB21 DUP5 DUP3 DUP6 ADD PUSH2 0xA9C JUMP JUMPDEST PUSH1 0x20 DUP4 ADD MSTORE POP PUSH1 0x40 PUSH2 0xB35 DUP5 DUP3 DUP6 ADD PUSH2 0xA9C JUMP JUMPDEST PUSH1 0x40 DUP4 ADD MSTORE POP PUSH1 0x60 PUSH2 0xB49 DUP5 DUP3 DUP6 ADD PUSH2 0xA9C JUMP JUMPDEST PUSH1 0x60 DUP4 ADD MSTORE POP PUSH1 0x80 PUSH2 0xB5D DUP5 DUP3 DUP6 ADD PUSH2 0xAC8 JUMP JUMPDEST PUSH1 0x80 DUP4 ADD MSTORE POP SWAP3 SWAP2 POP POP JUMP JUMPDEST PUSH1 0x0 PUSH1 0xA0 DUP3 DUP5 SUB SLT ISZERO PUSH2 0xB7F JUMPI PUSH2 0xB7E PUSH2 0x8AA JUMP JUMPDEST JUMPDEST PUSH1 0x0 PUSH2 0xB8D DUP5 DUP3 DUP6 ADD PUSH2 0xADD JUMP JUMPDEST SWAP2 POP POP SWAP3 SWAP2 POP POP JUMP JUMPDEST PUSH1 0x0 PUSH16 0xFFFFFFFFFFFFFFFFFFFFFFFFFFFFFFFF DUP3 AND SWAP1 POP SWAP2 SWAP1 POP JUMP JUMPDEST PUSH2 0xBBB DUP2 PUSH2 0xB96 JUMP JUMPDEST DUP2 EQ PUSH2 0xBC6 JUMPI PUSH1 0x0 DUP1 REVERT JUMPDEST POP JUMP JUMPDEST PUSH1 0x0 DUP2 MLOAD SWAP1 POP PUSH2 0xBD8 DUP2 PUSH2 0xBB2 JUMP JUMPDEST SWAP3 SWAP2 POP POP JUMP JUMPDEST PUSH1 0x0 PUSH1 0xC0 DUP3 DUP5 SUB SLT ISZERO PUSH2 0xBF4 JUMPI PUSH2 0xBF3 PUSH2 0xA0B JUMP JUMPDEST JUMPDEST PUSH2 0xBFE PUSH1 0xC0 PUSH2 0xA81 JUMP JUMPDEST SWAP1 POP PUSH1 0x0 PUSH2 0xC0E DUP5 DUP3 DUP6 ADD PUSH2 0xBC9 JUMP JUMPDEST PUSH1 0x0 DUP4 ADD MSTORE POP PUSH1 0x20 PUSH2 0xC22 DUP5 DUP3 DUP6 ADD PUSH2 0xBC9 JUMP JUMPDEST PUSH1 0x20 DUP4 ADD MSTORE POP PUSH1 0x40 PUSH2 0xC36 DUP5 DUP3 DUP6 ADD PUSH2 0xBC9 JUMP JUMPDEST PUSH1 0x40 DUP4 ADD MSTORE POP PUSH1 0x60 PUSH2 0xC4A DUP5 DUP3 DUP6 ADD PUSH2 0xBC9 JUMP JUMPDEST PUSH1 0x60 DUP4 ADD MSTORE POP PUSH1 0x80 PUSH2 0xC5E DUP5 DUP3 DUP6 ADD PUSH2 0xBC9 JUMP JUMPDEST PUSH1 0x80 DUP4 ADD MSTORE POP PUSH1 0xA0 PUSH2 0xC72 DUP5 DUP3 DUP6 ADD PUSH2 0xBC9 JUMP JUMPDEST PUSH1 0xA0 DUP4 ADD MSTORE POP SWAP3 SWAP2 POP POP JUMP JUMPDEST PUSH1 0x0 PUSH1 0xC0 DUP3 DUP5 SUB SLT ISZERO PUSH2 0xC94 JUMPI PUSH2 0xC93 PUSH2 0x8AA JUMP JUMPDEST JUMPDEST PUSH1 0x0 PUSH2 0xCA2 DUP5 DUP3 DUP6 ADD PUSH2 0xBDE JUMP JUMPDEST SWAP2 POP POP SWAP3 SWAP2 POP POP JUMP JUMPDEST PUSH1 0x0 PUSH1 0x40 DUP3 ADD SWAP1 POP PUSH2 0xCC0 PUSH1 0x0 DUP4 ADD DUP6 PUSH2 0x9E1 JUMP JUMPDEST PUSH2 0xCCD PUSH1 0x20 DUP4 ADD DUP5 PUSH2 0x9B7 JUMP JUMPDEST SWAP4 SWAP3 POP POP POP JUMP JUMPDEST PUSH1 0x0 PUSH1 0x60 DUP3 DUP5 SUB SLT ISZERO PUSH2 0xCEA JUMPI PUSH2 0xCE9 PUSH2 0xA0B JUMP JUMPDEST JUMPDEST PUSH2 0xCF4 PUSH1 0x60 PUSH2 0xA81 JUMP JUMPDEST SWAP1 POP PUSH1 0x0 PUSH2 0xD04 DUP5 DUP3 DUP6 ADD PUSH2 0xAC8 JUMP JUMPDEST PUSH1 0x0 DUP4 ADD MSTORE POP PUSH1 0x20 PUSH2 0xD18 DUP5 DUP3 DUP6 ADD PUSH2 0xAC8 JUMP JUMPDEST PUSH1 0x20 DUP4 ADD MSTORE POP PUSH1 0x40 PUSH2 0xD2C DUP5 DUP3 DUP6 ADD PUSH2 0xAC8 JUMP JUMPDEST PUSH1 0x40 DUP4 ADD MSTORE POP SWAP3 SWAP2 POP POP JUMP JUMPDEST PUSH1 0x0 PUSH1 0x60 DUP3 DUP5 SUB SLT ISZERO PUSH2 0xD4E JUMPI PUSH2 0xD4D PUSH2 0x8AA JUMP JUMPDEST JUMPDEST PUSH1 0x0 PUSH2 0xD5C DUP5 DUP3 DUP6 ADD PUSH2 0xCD4 JUMP JUMPDEST SWAP2 POP POP SWAP3 SWAP2 POP POP JUMP JUMPDEST PUSH32 0x4E487B7100000000000000000000000000000000000000000000000000000000 PUSH1 0x0 MSTORE PUSH1 0x11 PUSH1 0x4 MSTORE PUSH1 0x24 PUSH1 0x0 REVERT JUMPDEST PUSH1 0x0 PUSH2 0xD9F DUP3 PUSH2 0x983 JUMP JUMPDEST SWAP2 POP PUSH2 0xDAA DUP4 PUSH2 0x983 JUMP JUMPDEST SWAP3 POP DUP3 DUP3 MUL PUSH2 0xDB8 DUP2 PUSH2 0x983 JUMP JUMPDEST SWAP2 POP DUP3 DUP3 DIV DUP5 EQ DUP4 ISZERO OR PUSH2 0xDCF JUMPI PUSH2 0xDCE PUSH2 0xD65 JUMP JUMPDEST JUMPDEST POP SWAP3 SWAP2 POP POP JUMP JUMPDEST PUSH1 0x0 PUSH2 0xDE1 DUP3 PUSH2 0x983 JUMP JUMPDEST SWAP2 POP PUSH2 0xDEC DUP4 PUSH2 0x983 JUMP JUMPDEST SWAP3 POP DUP3 DUP3 ADD SWAP1 POP DUP1 DUP3 GT ISZERO PUSH2 0xE04 JUMPI PUSH2 0xE03 PUSH2 0xD65 JUMP JUMPDEST JUMPDEST SWAP3 SWAP2 POP POP JUMP JUMPDEST PUSH1 0x0 PUSH2 0xE15 DUP3 PUSH2 0x983 JUMP JUMPDEST SWAP2 POP PUSH2 0xE20 DUP4 PUSH2 0x983 JUMP JUMPDEST SWAP3 POP DUP3 DUP3 SUB SWAP1 POP DUP2 DUP2 GT ISZERO PUSH2 0xE38 JUMPI PUSH2 0xE37 PUSH2 0xD65 JUMP JUMPDEST JUMPDEST SWAP3 SWAP2 POP POP JUMP JUMPDEST PUSH32 0x4E487B7100000000000000000000000000000000000000000000000000000000 PUSH1 0x0 MSTORE PUSH1 0x12 PUSH1 0x4 MSTORE PUSH1 0x24 PUSH1 0x0 REVERT JUMPDEST PUSH1 0x0 PUSH2 0xE78 DUP3 PUSH2 0x983 JUMP JUMPDEST SWAP2 POP PUSH2 0xE83 DUP4 PUSH2 0x983 JUMP JUMPDEST SWAP3 POP DUP3 PUSH2 0xE93 JUMPI PUSH2 0xE92 PUSH2 0xE3E JUMP JUMPDEST JUMPDEST DUP3 DUP3 DIV SWAP1 POP SWAP3 SWAP2 POP POP JUMP JUMPDEST PUSH2 0xEA7 DUP2 PUSH2 0x905 JUMP JUMPDEST DUP3 MSTORE POP POP JUMP JUMPDEST PUSH2 0xEB6 DUP2 PUSH2 0x983 JUMP JUMPDEST DUP3 MSTORE POP POP JUMP JUMPDEST PUSH1 0xA0 DUP3 ADD PUSH1 0x0 DUP3 ADD MLOAD PUSH2 0xED2 PUSH1 0x0 DUP6 ADD DUP3 PUSH2 0xE9E JUMP JUMPDEST POP PUSH1 0x20 DUP3 ADD MLOAD PUSH2 0xEE5 PUSH1 0x20 DUP6 ADD DUP3 PUSH2 0xE9E JUMP JUMPDEST POP PUSH1 0x40 DUP3 ADD MLOAD PUSH2 0xEF8 PUSH1 0x40 DUP6 ADD DUP3 PUSH2 0xE9E JUMP JUMPDEST POP PUSH1 0x60 DUP3 ADD MLOAD PUSH2 0xF0B PUSH1 0x60 DUP6 ADD DUP3 PUSH2 0xE9E JUMP JUMPDEST POP PUSH1 0x80 DUP3 ADD MLOAD PUSH2 0xF1E PUSH1 0x80 DUP6 ADD DUP3 PUSH2 0xEAD JUMP JUMPDEST POP POP POP POP JUMP JUMPDEST PUSH2 0xF2D DUP2 PUSH2 0xB96 JUMP JUMPDEST DUP3 MSTORE POP POP JUMP JUMPDEST PUSH1 0xC0 DUP3 ADD PUSH1 0x0 DUP3 ADD MLOAD PUSH2 0xF49 PUSH1 0x0 DUP6 ADD DUP3 PUSH2 0xF24 JUMP JUMPDEST POP PUSH1 0x20 DUP3 ADD MLOAD PUSH2 0xF5C PUSH1 0x20 DUP6 ADD DUP3 PUSH2 0xF24 JUMP JUMPDEST POP PUSH1 0x40 DUP3 ADD MLOAD PUSH2 0xF6F PUSH1 0x40 DUP6 ADD DUP3 PUSH2 0xF24 JUMP JUMPDEST POP PUSH1 0x60 DUP3 ADD MLOAD PUSH2 0xF82 PUSH1 0x60 DUP6 ADD DUP3 PUSH2 0xF24 JUMP JUMPDEST POP PUSH1 0x80 DUP3 ADD MLOAD PUSH2 0xF95 PUSH1 0x80 DUP6 ADD DUP3 PUSH2 0xF24 JUMP JUMPDEST POP PUSH1 0xA0 DUP3 ADD MLOAD PUSH2 0xFA8 PUSH1 0xA0 DUP6 ADD DUP3 PUSH2 0xF24 JUMP JUMPDEST POP POP POP POP JUMP JUMPDEST PUSH1 0x0 PUSH2 0x160 DUP3 ADD SWAP1 POP PUSH2 0xFC4 PUSH1 0x0 DUP4 ADD DUP6 PUSH2 0xEBC JUMP JUMPDEST PUSH2 0xFD1 PUSH1 0xA0 DUP4 ADD DUP5 PUSH2 0xF33 JUMP JUMPDEST SWAP4 SWAP3 POP POP POP JUMP JUMPDEST PUSH1 0x0 PUSH1 0x20 DUP3 DUP5 SUB SLT ISZERO PUSH2 0xFEE JUMPI PUSH2 0xFED PUSH2 0x8AA JUMP JUMPDEST JUMPDEST PUSH1 0x0 PUSH2 0xFFC DUP5 DUP3 DUP6 ADD PUSH2 0xAC8 JUMP JUMPDEST SWAP2 POP POP SWAP3 SWAP2 POP POP JUMP INVALID LOG2 PUSH5 0x6970667358 0x22 SLT KECCAK256 0xB6 0xB8 0xB2 0xB8 DUP4 0xDF 0xB1 SLOAD 0xC7 0xB3 PUSH32 0xD142245BDF5A43C75451A8C8400391B170CEE441A364736F6C63430008140033 "},"methodIdentifiers":{"MORPHO_ADDRESS()":"63d0a6de","getAccruedDebt(bytes32,address)":"8d78ac94","getAccruedInterest(bytes32,address)":"3859a1a2"}}}}}