{"contracts/EthUsdcOracle.sol":{"EthUsdcOracle":{"abi":[{"inputs":[],"name":"price","outputs":[{"internalType":"uint256","name":"","type":"uint256"}],"stateMutability":"pure","type":"function"},{"inputs":[],"name":"priceView","outputs":[{"internalType":"uint256","name":"","type":"uint256"}],"stateMutability":"pure","type":"function"}],"evm":{"bytecode":{"linkReferences":{},"object":"608060405234801561001057600080fd5b5060f98061001f6000396000f3fe6080604052348015600f57600080fd5b506004361060325760003560e01c8063172e1e52146037578063a035b1fe146051575b600080fd5b603d606b565b6040516048919060aa565b60405180910390f35b6057607f565b6040516062919060aa565b60405180910390f35b60006b06c9144c1c690d4cb4000000905090565b60006b06c9144c1c690d4cb4000000905090565b6000819050919050565b60a4816093565b82525050565b600060208201905060bd6000830184609d565b9291505056fea2646970667358221220afb0ba8c4e11ff241c22424ca395d820e885bbfba7e9ba60593ab4b026abaa9864736f6c63430008140033","opcodes":"PUSH1 0x80 PUSH1 0x40 MSTORE CALLVALUE DUP1 ISZERO PUSH2 0x10 JUMPI PUSH1 0x0 DUP1 REVERT JUMPDEST POP PUSH1 0xF9 DUP1 PUSH2 0x1F PUSH1 0x0 CODECOPY PUSH1 0x0 RETURN INVALID PUSH1 0x80 PUSH1 0x40 MSTORE CALLVALUE DUP1 ISZERO PUSH1 0xF JUMPI PUSH1 0x0 DUP1 REVERT JUMPDEST POP PUSH1 0x4 CALLDATASIZE LT PUSH1 0x32 JUMPI PUSH1 0x0 CALLDATALOAD PUSH1 0xE0 SHR DUP1 PUSH4 0x172E1E52 EQ PUSH1 0x37 JUMPI DUP1 PUSH4 0xA035B1FE EQ PUSH1 0x51 JUMPI JUMPDEST PUSH1 0x0 DUP1 REVERT JUMPDEST PUSH1 0x3D PUSH1 0x6B JUMP JUMPDEST PUSH1 0x40 MLOAD PUSH1 0x48 SWAP2 SWAP1 PUSH1 0xAA JUMP JUMPDEST PUSH1 0x40 MLOAD DUP1 SWAP2 SUB SWAP1 RETURN JUMPDEST PUSH1 0x57 PUSH1 0x7F JUMP JUMPDEST PUSH1 0x40 MLOAD PUSH1 0x62 SWAP2 SWAP1 PUSH1 0xAA JUMP JUMPDEST PUSH1 0x40 MLOAD DUP1 SWAP2 SUB SWAP1 RETURN JUMPDEST PUSH1 0x0 PUSH12 0x6C9144C1C690D4CB4000000 SWAP1 POP SWAP1 JUMP JUMPDEST PUSH1 0x0 PUSH12 0x6C9144C1C690D4CB4000000 SWAP1 POP SWAP1 JUMP JUMPDEST PUSH1 0x0 DUP2 SWAP1 POP SWAP2 SWAP1 POP JUMP JUMPDEST PUSH1 0xA4 DUP2 PUSH1 0x93 JUMP JUMPDEST DUP3 MSTORE POP POP JUMP JUMPDEST PUSH1 0x0 PUSH1 0x20 DUP3 ADD SWAP1 POP PUSH1 0xBD PUSH1 0x0 DUP4 ADD DUP5 PUSH1 0x9D JUMP JUMPDEST SWAP3 SWAP2 POP POP JUMP INVALID LOG2 PUSH5 0x6970667358 0x22 SLT KECCAK256 0xAF 0xB0 0xBA DUP13 0x4E GT SELFDESTRUCT 0x24 SHR 0x22 TIMESTAMP 0x4C LOG3 SWAP6 0xD8 KECCAK256 0xE8 DUP6 0xBB 0xFB 0xA7 0xE9 0xBA PUSH1 0x59 GASPRICE 0xB4 0xB0 0x26 0xAB 0xAA SWAP9 PUSH5 0x736F6C6343 STOP ADDMOD EQ STOP CALLER "},"methodIdentifiers":{"price()":"a035b1fe","priceView()":"172e1e52"}}}}}