{
  "_format": "hh-sol-artifact-1",
  "contractName": "DebtLens",
  "sourceName": "contracts/DebtLents.sol",
  "abi": [
    {
      "inputs": [],
      "name": "MORPHO_ADDRESS",
      "outputs": [
        {
          "internalType": "address",
          "name": "",
          "type": "address"
        }
      ],
      "stateMutability": "view",
      "type": "function"
    },
    {
      "inputs": [
        {
          "internalType": "bytes32",
          "name": "marketId",
          "type": "bytes32"
        },
        {
          "internalType": "address",
          "name": "user",
          "type": "address"
        }
      ],
      "name": "getAccruedDebt",
      "outputs": [
        {
          "internalType": "uint256",
          "name": "",
          "type": "uint256"
        }
      ],
      "stateMutability": "view",
      "type": "function"
    }
  ],
  "bytecode": "0x608060405234801561001057600080fd5b50610c33806100206000396000f3fe608060405234801561001057600080fd5b50600436106100365760003560e01c806363d0a6de1461003b5780638d78ac9414610059575b600080fd5b610043610089565b60405161005091906104d9565b60405180910390f35b610073600480360381019061006e9190610565565b6100a1565b60405161008091906105be565b60405180910390f35b73bbbbbbbbbb9cc5e90e3b3af64bdaf62c37eeffcb81565b60008073bbbbbbbbbb9cc5e90e3b3af64bdaf62c37eeffcb905060008173ffffffffffffffffffffffffffffffffffffffff16632c3c9157866040518263ffffffff1660e01b81526004016100f691906105e8565b60a060405180830381865afa158015610113573d6000803e3d6000fd5b505050506040513d601f19601f820116820180604052508101906101379190610761565b905060008273ffffffffffffffffffffffffffffffffffffffff16635c60e39a876040518263ffffffff1660e01b815260040161017491906105e8565b60c060405180830381865afa158015610191573d6000803e3d6000fd5b505050506040513d601f19601f820116820180604052508101906101b59190610876565b905060008373ffffffffffffffffffffffffffffffffffffffff166393c5206288886040518363ffffffff1660e01b81526004016101f49291906108a3565b606060405180830381865afa158015610211573d6000803e3d6000fd5b505050506040513d601f19601f820116820180604052508101906102359190610930565b905060008160200151036102505760009450505050506103fb565b600082608001516fffffffffffffffffffffffffffffffff1642610274919061098c565b9050600083604001516fffffffffffffffffffffffffffffffff1690506000821180156102a15750600081115b80156102de5750600073ffffffffffffffffffffffffffffffffffffffff16856060015173ffffffffffffffffffffffffffffffffffffffff1614155b156103a4576000856060015173ffffffffffffffffffffffffffffffffffffffff16638c00bf6b87876040518363ffffffff1660e01b8152600401610324929190610ad0565b602060405180830381865afa158015610341573d6000803e3d6000fd5b505050506040513d601f19601f820116820180604052508101906103659190610afa565b90506000670de0b6b3a764000061037c8386610401565b846103879190610b27565b6103919190610b98565b9050808361039f9190610bc9565b925050505b600084606001516fffffffffffffffffffffffffffffffff169050806001828487602001516103d39190610b27565b6103dd9190610bc9565b6103e7919061098c565b6103f19190610b98565b9750505050505050505b92915050565b60008082846104109190610b27565b905060008190506000670de0b6b3a7640000600261042e9190610b27565b838461043a9190610b27565b6104449190610b98565b90506000670de0b6b3a7640000600361045d9190610b27565b84836104699190610b27565b6104739190610b98565b90508082846104829190610bc9565b61048c9190610bc9565b94505050505092915050565b600073ffffffffffffffffffffffffffffffffffffffff82169050919050565b60006104c382610498565b9050919050565b6104d3816104b8565b82525050565b60006020820190506104ee60008301846104ca565b92915050565b6000604051905090565b600080fd5b6000819050919050565b61051681610503565b811461052157600080fd5b50565b6000813590506105338161050d565b92915050565b610542816104b8565b811461054d57600080fd5b50565b60008135905061055f81610539565b92915050565b6000806040838503121561057c5761057b6104fe565b5b600061058a85828601610524565b925050602061059b85828601610550565b9150509250929050565b6000819050919050565b6105b8816105a5565b82525050565b60006020820190506105d360008301846105af565b92915050565b6105e281610503565b82525050565b60006020820190506105fd60008301846105d9565b92915050565b600080fd5b6000601f19601f8301169050919050565b7f4e487b7100000000000000000000000000000000000000000000000000000000600052604160045260246000fd5b61065182610608565b810181811067ffffffffffffffff821117156106705761066f610619565b5b80604052505050565b60006106836104f4565b905061068f8282610648565b919050565b6000815190506106a381610539565b92915050565b6106b2816105a5565b81146106bd57600080fd5b50565b6000815190506106cf816106a9565b92915050565b600060a082840312156106eb576106ea610603565b5b6106f560a0610679565b9050600061070584828501610694565b600083015250602061071984828501610694565b602083015250604061072d84828501610694565b604083015250606061074184828501610694565b6060830152506080610755848285016106c0565b60808301525092915050565b600060a08284031215610777576107766104fe565b5b6000610785848285016106d5565b91505092915050565b60006fffffffffffffffffffffffffffffffff82169050919050565b6107b38161078e565b81146107be57600080fd5b50565b6000815190506107d0816107aa565b92915050565b600060c082840312156107ec576107eb610603565b5b6107f660c0610679565b90506000610806848285016107c1565b600083015250602061081a848285016107c1565b602083015250604061082e848285016107c1565b6040830152506060610842848285016107c1565b6060830152506080610856848285016107c1565b60808301525060a061086a848285016107c1565b60a08301525092915050565b600060c0828403121561088c5761088b6104fe565b5b600061089a848285016107d6565b91505092915050565b60006040820190506108b860008301856105d9565b6108c560208301846104ca565b9392505050565b6000606082840312156108e2576108e1610603565b5b6108ec6060610679565b905060006108fc848285016106c0565b6000830152506020610910848285016106c0565b6020830152506040610924848285016106c0565b60408301525092915050565b600060608284031215610946576109456104fe565b5b6000610954848285016108cc565b91505092915050565b7f4e487b7100000000000000000000000000000000000000000000000000000000600052601160045260246000fd5b6000610997826105a5565b91506109a2836105a5565b92508282039050818111156109ba576109b961095d565b5b92915050565b6109c9816104b8565b82525050565b6109d8816105a5565b82525050565b60a0820160008201516109f460008501826109c0565b506020820151610a0760208501826109c0565b506040820151610a1a60408501826109c0565b506060820151610a2d60608501826109c0565b506080820151610a4060808501826109cf565b50505050565b610a4f8161078e565b82525050565b60c082016000820151610a6b6000850182610a46565b506020820151610a7e6020850182610a46565b506040820151610a916040850182610a46565b506060820151610aa46060850182610a46565b506080820151610ab76080850182610a46565b5060a0820151610aca60a0850182610a46565b50505050565b600061016082019050610ae660008301856109de565b610af360a0830184610a55565b9392505050565b600060208284031215610b1057610b0f6104fe565b5b6000610b1e848285016106c0565b91505092915050565b6000610b32826105a5565b9150610b3d836105a5565b9250828202610b4b816105a5565b91508282048414831517610b6257610b6161095d565b5b5092915050565b7f4e487b7100000000000000000000000000000000000000000000000000000000600052601260045260246000fd5b6000610ba3826105a5565b9150610bae836105a5565b925082610bbe57610bbd610b69565b5b828204905092915050565b6000610bd4826105a5565b9150610bdf836105a5565b9250828201905080821115610bf757610bf661095d565b5b9291505056fea26469706673582212205d0e5cb0a9e5ff24a2151709d71842724bc5ab6afedecbfc6ff4ab5712ce012964736f6c63430008140033",
  "linkReferences": {},
  "deployedLinkReferences": {}
}