{
  "_format": "hh-sol-artifact-1",
  "contractName": "DebtLens",
  "sourceName": "contracts/DebtLents.sol",
  "abi": [
    {
      "inputs": [],
      "name": "MORPHO_ADDRESS",
      "outputs": [
        {
          "internalType": "address",
          "name": "",
          "type": "address"
        }
      ],
      "stateMutability": "view",
      "type": "function"
    },
    {
      "inputs": [
        {
          "internalType": "bytes32",
          "name": "marketId",
          "type": "bytes32"
        },
        {
          "internalType": "address",
          "name": "user",
          "type": "address"
        }
      ],
      "name": "getAccruedDebt",
      "outputs": [
        {
          "internalType": "uint256",
          "name": "",
          "type": "uint256"
        }
      ],
      "stateMutability": "view",
      "type": "function"
    },
    {
      "inputs": [
        {
          "internalType": "bytes32",
          "name": "marketId",
          "type": "bytes32"
        },
        {
          "internalType": "address",
          "name": "user",
          "type": "address"
        }
      ],
      "name": "getAccruedInterest",
      "outputs": [
        {
          "internalType": "uint256",
          "name": "",
          "type": "uint256"
        }
      ],
      "stateMutability": "view",
      "type": "function"
    }
  ],
  "bytecode": "0x608060405234801561001057600080fd5b5061103b806100206000396000f3fe608060405234801561001057600080fd5b50600436106100415760003560e01c80633859a1a21461004657806363d0a6de146100765780638d78ac9414610094575b600080fd5b610060600480360381019061005b9190610943565b6100c4565b60405161006d919061099c565b60405180910390f35b61007e610491565b60405161008b91906109c6565b60405180910390f35b6100ae60048036038101906100a99190610943565b6104a9565b6040516100bb919061099c565b60405180910390f35b60008073bbbbbbbbbb9cc5e90e3b3af64bdaf62c37eeffcb905060008173ffffffffffffffffffffffffffffffffffffffff16632c3c9157866040518263ffffffff1660e01b815260040161011991906109f0565b60a060405180830381865afa158015610136573d6000803e3d6000fd5b505050506040513d601f19601f8201168201806040525081019061015a9190610b69565b905060008273ffffffffffffffffffffffffffffffffffffffff16635c60e39a876040518263ffffffff1660e01b815260040161019791906109f0565b60c060405180830381865afa1580156101b4573d6000803e3d6000fd5b505050506040513d601f19601f820116820180604052508101906101d89190610c7e565b905060008373ffffffffffffffffffffffffffffffffffffffff166393c5206288886040518363ffffffff1660e01b8152600401610217929190610cab565b606060405180830381865afa158015610234573d6000803e3d6000fd5b505050506040513d601f19601f820116820180604052508101906102589190610d38565b9050600081602001510361027357600094505050505061048b565b600082606001516fffffffffffffffffffffffffffffffff16905060008160018386604001516fffffffffffffffffffffffffffffffff1686602001516102ba9190610d94565b6102c49190610dd6565b6102ce9190610e0a565b6102d89190610e6d565b9050600084608001516fffffffffffffffffffffffffffffffff16426102fe9190610e0a565b9050600085604001516fffffffffffffffffffffffffffffffff16905060008211801561032b5750600081115b80156103685750600073ffffffffffffffffffffffffffffffffffffffff16876060015173ffffffffffffffffffffffffffffffffffffffff1614155b1561042e576000876060015173ffffffffffffffffffffffffffffffffffffffff16638c00bf6b89896040518363ffffffff1660e01b81526004016103ae929190610fae565b602060405180830381865afa1580156103cb573d6000803e3d6000fd5b505050506040513d601f19601f820116820180604052508101906103ef9190610fd8565b90506000670de0b6b3a76400006104068386610809565b846104119190610d94565b61041b9190610e6d565b905080836104299190610dd6565b925050505b6000846001868489602001516104449190610d94565b61044e9190610dd6565b6104589190610e0a565b6104629190610e6d565b905083811161047257600061047f565b838161047e9190610e0a565b5b99505050505050505050505b92915050565b73bbbbbbbbbb9cc5e90e3b3af64bdaf62c37eeffcb81565b60008073bbbbbbbbbb9cc5e90e3b3af64bdaf62c37eeffcb905060008173ffffffffffffffffffffffffffffffffffffffff16632c3c9157866040518263ffffffff1660e01b81526004016104fe91906109f0565b60a060405180830381865afa15801561051b573d6000803e3d6000fd5b505050506040513d601f19601f8201168201806040525081019061053f9190610b69565b905060008273ffffffffffffffffffffffffffffffffffffffff16635c60e39a876040518263ffffffff1660e01b815260040161057c91906109f0565b60c060405180830381865afa158015610599573d6000803e3d6000fd5b505050506040513d601f19601f820116820180604052508101906105bd9190610c7e565b905060008373ffffffffffffffffffffffffffffffffffffffff166393c5206288886040518363ffffffff1660e01b81526004016105fc929190610cab565b606060405180830381865afa158015610619573d6000803e3d6000fd5b505050506040513d601f19601f8201168201806040525081019061063d9190610d38565b90506000816020015103610658576000945050505050610803565b600082608001516fffffffffffffffffffffffffffffffff164261067c9190610e0a565b9050600083604001516fffffffffffffffffffffffffffffffff1690506000821180156106a95750600081115b80156106e65750600073ffffffffffffffffffffffffffffffffffffffff16856060015173ffffffffffffffffffffffffffffffffffffffff1614155b156107ac576000856060015173ffffffffffffffffffffffffffffffffffffffff16638c00bf6b87876040518363ffffffff1660e01b815260040161072c929190610fae565b602060405180830381865afa158015610749573d6000803e3d6000fd5b505050506040513d601f19601f8201168201806040525081019061076d9190610fd8565b90506000670de0b6b3a76400006107848386610809565b8461078f9190610d94565b6107999190610e6d565b905080836107a79190610dd6565b925050505b600084606001516fffffffffffffffffffffffffffffffff169050806001828487602001516107db9190610d94565b6107e59190610dd6565b6107ef9190610e0a565b6107f99190610e6d565b9750505050505050505b92915050565b60008082846108189190610d94565b905060008190506000670de0b6b3a764000060026108369190610d94565b83846108429190610d94565b61084c9190610e6d565b90506000670de0b6b3a764000060036108659190610d94565b84836108719190610d94565b61087b9190610e6d565b905080828461088a9190610dd6565b6108949190610dd6565b94505050505092915050565b6000604051905090565b600080fd5b6000819050919050565b6108c2816108af565b81146108cd57600080fd5b50565b6000813590506108df816108b9565b92915050565b600073ffffffffffffffffffffffffffffffffffffffff82169050919050565b6000610910826108e5565b9050919050565b61092081610905565b811461092b57600080fd5b50565b60008135905061093d81610917565b92915050565b6000806040838503121561095a576109596108aa565b5b6000610968858286016108d0565b92505060206109798582860161092e565b9150509250929050565b6000819050919050565b61099681610983565b82525050565b60006020820190506109b1600083018461098d565b92915050565b6109c081610905565b82525050565b60006020820190506109db60008301846109b7565b92915050565b6109ea816108af565b82525050565b6000602082019050610a0560008301846109e1565b92915050565b600080fd5b6000601f19601f8301169050919050565b7f4e487b7100000000000000000000000000000000000000000000000000000000600052604160045260246000fd5b610a5982610a10565b810181811067ffffffffffffffff82111715610a7857610a77610a21565b5b80604052505050565b6000610a8b6108a0565b9050610a978282610a50565b919050565b600081519050610aab81610917565b92915050565b610aba81610983565b8114610ac557600080fd5b50565b600081519050610ad781610ab1565b92915050565b600060a08284031215610af357610af2610a0b565b5b610afd60a0610a81565b90506000610b0d84828501610a9c565b6000830152506020610b2184828501610a9c565b6020830152506040610b3584828501610a9c565b6040830152506060610b4984828501610a9c565b6060830152506080610b5d84828501610ac8565b60808301525092915050565b600060a08284031215610b7f57610b7e6108aa565b5b6000610b8d84828501610add565b91505092915050565b60006fffffffffffffffffffffffffffffffff82169050919050565b610bbb81610b96565b8114610bc657600080fd5b50565b600081519050610bd881610bb2565b92915050565b600060c08284031215610bf457610bf3610a0b565b5b610bfe60c0610a81565b90506000610c0e84828501610bc9565b6000830152506020610c2284828501610bc9565b6020830152506040610c3684828501610bc9565b6040830152506060610c4a84828501610bc9565b6060830152506080610c5e84828501610bc9565b60808301525060a0610c7284828501610bc9565b60a08301525092915050565b600060c08284031215610c9457610c936108aa565b5b6000610ca284828501610bde565b91505092915050565b6000604082019050610cc060008301856109e1565b610ccd60208301846109b7565b9392505050565b600060608284031215610cea57610ce9610a0b565b5b610cf46060610a81565b90506000610d0484828501610ac8565b6000830152506020610d1884828501610ac8565b6020830152506040610d2c84828501610ac8565b60408301525092915050565b600060608284031215610d4e57610d4d6108aa565b5b6000610d5c84828501610cd4565b91505092915050565b7f4e487b7100000000000000000000000000000000000000000000000000000000600052601160045260246000fd5b6000610d9f82610983565b9150610daa83610983565b9250828202610db881610983565b91508282048414831517610dcf57610dce610d65565b5b5092915050565b6000610de182610983565b9150610dec83610983565b9250828201905080821115610e0457610e03610d65565b5b92915050565b6000610e1582610983565b9150610e2083610983565b9250828203905081811115610e3857610e37610d65565b5b92915050565b7f4e487b7100000000000000000000000000000000000000000000000000000000600052601260045260246000fd5b6000610e7882610983565b9150610e8383610983565b925082610e9357610e92610e3e565b5b828204905092915050565b610ea781610905565b82525050565b610eb681610983565b82525050565b60a082016000820151610ed26000850182610e9e565b506020820151610ee56020850182610e9e565b506040820151610ef86040850182610e9e565b506060820151610f0b6060850182610e9e565b506080820151610f1e6080850182610ead565b50505050565b610f2d81610b96565b82525050565b60c082016000820151610f496000850182610f24565b506020820151610f5c6020850182610f24565b506040820151610f6f6040850182610f24565b506060820151610f826060850182610f24565b506080820151610f956080850182610f24565b5060a0820151610fa860a0850182610f24565b50505050565b600061016082019050610fc46000830185610ebc565b610fd160a0830184610f33565b9392505050565b600060208284031215610fee57610fed6108aa565b5b6000610ffc84828501610ac8565b9150509291505056fea2646970667358221220b6b8b2b883dfb154c7b37fd142245bdf5a43c75451a8c8400391b170cee441a364736f6c63430008140033",
  "linkReferences": {},
  "deployedLinkReferences": {}
}