{
  "_format": "hh-sol-artifact-1",
  "contractName": "EthUsdcOracle",
  "sourceName": "contracts/EthUsdcOracle.sol",
  "abi": [
    {
      "inputs": [],
      "name": "price",
      "outputs": [
        {
          "internalType": "uint256",
          "name": "",
          "type": "uint256"
        }
      ],
      "stateMutability": "pure",
      "type": "function"
    },
    {
      "inputs": [],
      "name": "priceView",
      "outputs": [
        {
          "internalType": "uint256",
          "name": "",
          "type": "uint256"
        }
      ],
      "stateMutability": "pure",
      "type": "function"
    }
  ],
  "bytecode": "0x608060405234801561001057600080fd5b5060f98061001f6000396000f3fe6080604052348015600f57600080fd5b506004361060325760003560e01c8063172e1e52146037578063a035b1fe146051575b600080fd5b603d606b565b6040516048919060aa565b60405180910390f35b6057607f565b6040516062919060aa565b60405180910390f35b60006b06c9144c1c690d4cb4000000905090565b60006b06c9144c1c690d4cb4000000905090565b6000819050919050565b60a4816093565b82525050565b600060208201905060bd6000830184609d565b9291505056fea2646970667358221220afb0ba8c4e11ff241c22424ca395d820e885bbfba7e9ba60593ab4b026abaa9864736f6c63430008140033",
  "linkReferences": {},
  "deployedLinkReferences": {}
}