{
  "_format": "hh-sol-artifact-1",
  "contractName": "WaUSDC",
  "sourceName": "contracts/WaUSDC.sol",
  "abi": [
    {
      "inputs": [
        {
          "internalType": "contract IERC20",
          "name": "_aToken",
          "type": "address"
        },
        {
          "internalType": "address",
          "name": "initialOwner",
          "type": "address"
        }
      ],
      "stateMutability": "nonpayable",
      "type": "constructor"
    },
    {
      "inputs": [
        {
          "internalType": "address",
          "name": "spender",
          "type": "address"
        },
        {
          "internalType": "uint256",
          "name": "allowance",
          "type": "uint256"
        },
        {
          "internalType": "uint256",
          "name": "needed",
          "type": "uint256"
        }
      ],
      "name": "ERC20InsufficientAllowance",
      "type": "error"
    },
    {
      "inputs": [
        {
          "internalType": "address",
          "name": "sender",
          "type": "address"
        },
        {
          "internalType": "uint256",
          "name": "balance",
          "type": "uint256"
        },
        {
          "internalType": "uint256",
          "name": "needed",
          "type": "uint256"
        }
      ],
      "name": "ERC20InsufficientBalance",
      "type": "error"
    },
    {
      "inputs": [
        {
          "internalType": "address",
          "name": "approver",
          "type": "address"
        }
      ],
      "name": "ERC20InvalidApprover",
      "type": "error"
    },
    {
      "inputs": [
        {
          "internalType": "address",
          "name": "receiver",
          "type": "address"
        }
      ],
      "name": "ERC20InvalidReceiver",
      "type": "error"
    },
    {
      "inputs": [
        {
          "internalType": "address",
          "name": "sender",
          "type": "address"
        }
      ],
      "name": "ERC20InvalidSender",
      "type": "error"
    },
    {
      "inputs": [
        {
          "internalType": "address",
          "name": "spender",
          "type": "address"
        }
      ],
      "name": "ERC20InvalidSpender",
      "type": "error"
    },
    {
      "inputs": [
        {
          "internalType": "address",
          "name": "receiver",
          "type": "address"
        },
        {
          "internalType": "uint256",
          "name": "assets",
          "type": "uint256"
        },
        {
          "internalType": "uint256",
          "name": "max",
          "type": "uint256"
        }
      ],
      "name": "ERC4626ExceededMaxDeposit",
      "type": "error"
    },
    {
      "inputs": [
        {
          "internalType": "address",
          "name": "receiver",
          "type": "address"
        },
        {
          "internalType": "uint256",
          "name": "shares",
          "type": "uint256"
        },
        {
          "internalType": "uint256",
          "name": "max",
          "type": "uint256"
        }
      ],
      "name": "ERC4626ExceededMaxMint",
      "type": "error"
    },
    {
      "inputs": [
        {
          "internalType": "address",
          "name": "owner",
          "type": "address"
        },
        {
          "internalType": "uint256",
          "name": "shares",
          "type": "uint256"
        },
        {
          "internalType": "uint256",
          "name": "max",
          "type": "uint256"
        }
      ],
      "name": "ERC4626ExceededMaxRedeem",
      "type": "error"
    },
    {
      "inputs": [
        {
          "internalType": "address",
          "name": "owner",
          "type": "address"
        },
        {
          "internalType": "uint256",
          "name": "assets",
          "type": "uint256"
        },
        {
          "internalType": "uint256",
          "name": "max",
          "type": "uint256"
        }
      ],
      "name": "ERC4626ExceededMaxWithdraw",
      "type": "error"
    },
    {
      "inputs": [
        {
          "internalType": "address",
          "name": "owner",
          "type": "address"
        }
      ],
      "name": "OwnableInvalidOwner",
      "type": "error"
    },
    {
      "inputs": [
        {
          "internalType": "address",
          "name": "account",
          "type": "address"
        }
      ],
      "name": "OwnableUnauthorizedAccount",
      "type": "error"
    },
    {
      "anonymous": false,
      "inputs": [
        {
          "indexed": true,
          "internalType": "address",
          "name": "owner",
          "type": "address"
        },
        {
          "indexed": true,
          "internalType": "address",
          "name": "spender",
          "type": "address"
        },
        {
          "indexed": false,
          "internalType": "uint256",
          "name": "value",
          "type": "uint256"
        }
      ],
      "name": "Approval",
      "type": "event"
    },
    {
      "anonymous": false,
      "inputs": [
        {
          "indexed": true,
          "internalType": "address",
          "name": "oldOracle",
          "type": "address"
        },
        {
          "indexed": true,
          "internalType": "address",
          "name": "newOracle",
          "type": "address"
        }
      ],
      "name": "CCOPUsdcOracleUpdated",
      "type": "event"
    },
    {
      "anonymous": false,
      "inputs": [
        {
          "indexed": true,
          "internalType": "address",
          "name": "oldDebtLens",
          "type": "address"
        },
        {
          "indexed": true,
          "internalType": "address",
          "name": "newDebtLens",
          "type": "address"
        }
      ],
      "name": "DebtLensUpdated",
      "type": "event"
    },
    {
      "anonymous": false,
      "inputs": [
        {
          "indexed": true,
          "internalType": "address",
          "name": "sender",
          "type": "address"
        },
        {
          "indexed": true,
          "internalType": "address",
          "name": "owner",
          "type": "address"
        },
        {
          "indexed": false,
          "internalType": "uint256",
          "name": "assets",
          "type": "uint256"
        },
        {
          "indexed": false,
          "internalType": "uint256",
          "name": "shares",
          "type": "uint256"
        }
      ],
      "name": "Deposit",
      "type": "event"
    },
    {
      "anonymous": false,
      "inputs": [
        {
          "indexed": true,
          "internalType": "bytes32",
          "name": "oldMarketId",
          "type": "bytes32"
        },
        {
          "indexed": true,
          "internalType": "bytes32",
          "name": "newMarketId",
          "type": "bytes32"
        }
      ],
      "name": "MarketIdUpdated",
      "type": "event"
    },
    {
      "anonymous": false,
      "inputs": [
        {
          "indexed": true,
          "internalType": "address",
          "name": "previousOwner",
          "type": "address"
        },
        {
          "indexed": true,
          "internalType": "address",
          "name": "newOwner",
          "type": "address"
        }
      ],
      "name": "OwnershipTransferred",
      "type": "event"
    },
    {
      "anonymous": false,
      "inputs": [
        {
          "indexed": true,
          "internalType": "address",
          "name": "user",
          "type": "address"
        },
        {
          "indexed": false,
          "internalType": "uint256",
          "name": "amount",
          "type": "uint256"
        }
      ],
      "name": "PrincipalReduced",
      "type": "event"
    },
    {
      "anonymous": false,
      "inputs": [
        {
          "indexed": true,
          "internalType": "address",
          "name": "user",
          "type": "address"
        },
        {
          "indexed": false,
          "internalType": "uint256",
          "name": "interestInCCOP",
          "type": "uint256"
        },
        {
          "indexed": false,
          "internalType": "uint256",
          "name": "subsidyInWaUSDC",
          "type": "uint256"
        }
      ],
      "name": "SubsidyRequested",
      "type": "event"
    },
    {
      "anonymous": false,
      "inputs": [
        {
          "indexed": true,
          "internalType": "address",
          "name": "user",
          "type": "address"
        },
        {
          "indexed": false,
          "internalType": "uint256",
          "name": "amount",
          "type": "uint256"
        }
      ],
      "name": "SubsidyRevoked",
      "type": "event"
    },
    {
      "anonymous": false,
      "inputs": [
        {
          "indexed": true,
          "internalType": "address",
          "name": "user",
          "type": "address"
        },
        {
          "indexed": false,
          "internalType": "uint256",
          "name": "amount",
          "type": "uint256"
        }
      ],
      "name": "SubsidyUsed",
      "type": "event"
    },
    {
      "anonymous": false,
      "inputs": [
        {
          "indexed": true,
          "internalType": "address",
          "name": "from",
          "type": "address"
        },
        {
          "indexed": true,
          "internalType": "address",
          "name": "to",
          "type": "address"
        },
        {
          "indexed": false,
          "internalType": "uint256",
          "name": "value",
          "type": "uint256"
        }
      ],
      "name": "Transfer",
      "type": "event"
    },
    {
      "anonymous": false,
      "inputs": [
        {
          "indexed": true,
          "internalType": "address",
          "name": "sender",
          "type": "address"
        },
        {
          "indexed": true,
          "internalType": "address",
          "name": "receiver",
          "type": "address"
        },
        {
          "indexed": true,
          "internalType": "address",
          "name": "owner",
          "type": "address"
        },
        {
          "indexed": false,
          "internalType": "uint256",
          "name": "assets",
          "type": "uint256"
        },
        {
          "indexed": false,
          "internalType": "uint256",
          "name": "shares",
          "type": "uint256"
        }
      ],
      "name": "Withdraw",
      "type": "event"
    },
    {
      "inputs": [],
      "name": "aToken",
      "outputs": [
        {
          "internalType": "contract IERC20",
          "name": "",
          "type": "address"
        }
      ],
      "stateMutability": "view",
      "type": "function"
    },
    {
      "inputs": [
        {
          "internalType": "address",
          "name": "owner",
          "type": "address"
        },
        {
          "internalType": "address",
          "name": "spender",
          "type": "address"
        }
      ],
      "name": "allowance",
      "outputs": [
        {
          "internalType": "uint256",
          "name": "",
          "type": "uint256"
        }
      ],
      "stateMutability": "view",
      "type": "function"
    },
    {
      "inputs": [
        {
          "internalType": "address",
          "name": "spender",
          "type": "address"
        },
        {
          "internalType": "uint256",
          "name": "value",
          "type": "uint256"
        }
      ],
      "name": "approve",
      "outputs": [
        {
          "internalType": "bool",
          "name": "",
          "type": "bool"
        }
      ],
      "stateMutability": "nonpayable",
      "type": "function"
    },
    {
      "inputs": [],
      "name": "asset",
      "outputs": [
        {
          "internalType": "address",
          "name": "",
          "type": "address"
        }
      ],
      "stateMutability": "view",
      "type": "function"
    },
    {
      "inputs": [],
      "name": "availableYield",
      "outputs": [
        {
          "internalType": "uint256",
          "name": "",
          "type": "uint256"
        }
      ],
      "stateMutability": "view",
      "type": "function"
    },
    {
      "inputs": [
        {
          "internalType": "address",
          "name": "account",
          "type": "address"
        }
      ],
      "name": "balanceOf",
      "outputs": [
        {
          "internalType": "uint256",
          "name": "",
          "type": "uint256"
        }
      ],
      "stateMutability": "view",
      "type": "function"
    },
    {
      "inputs": [],
      "name": "ccopUsdcOracle",
      "outputs": [
        {
          "internalType": "address",
          "name": "",
          "type": "address"
        }
      ],
      "stateMutability": "view",
      "type": "function"
    },
    {
      "inputs": [
        {
          "internalType": "uint256",
          "name": "shares",
          "type": "uint256"
        }
      ],
      "name": "convertToAssets",
      "outputs": [
        {
          "internalType": "uint256",
          "name": "",
          "type": "uint256"
        }
      ],
      "stateMutability": "view",
      "type": "function"
    },
    {
      "inputs": [
        {
          "internalType": "uint256",
          "name": "assets",
          "type": "uint256"
        }
      ],
      "name": "convertToShares",
      "outputs": [
        {
          "internalType": "uint256",
          "name": "",
          "type": "uint256"
        }
      ],
      "stateMutability": "view",
      "type": "function"
    },
    {
      "inputs": [],
      "name": "debtLens",
      "outputs": [
        {
          "internalType": "address",
          "name": "",
          "type": "address"
        }
      ],
      "stateMutability": "view",
      "type": "function"
    },
    {
      "inputs": [],
      "name": "decimals",
      "outputs": [
        {
          "internalType": "uint8",
          "name": "",
          "type": "uint8"
        }
      ],
      "stateMutability": "pure",
      "type": "function"
    },
    {
      "inputs": [
        {
          "internalType": "uint256",
          "name": "assets",
          "type": "uint256"
        },
        {
          "internalType": "address",
          "name": "receiver",
          "type": "address"
        }
      ],
      "name": "deposit",
      "outputs": [
        {
          "internalType": "uint256",
          "name": "shares",
          "type": "uint256"
        }
      ],
      "stateMutability": "nonpayable",
      "type": "function"
    },
    {
      "inputs": [
        {
          "internalType": "address",
          "name": "user",
          "type": "address"
        }
      ],
      "name": "getInterestSubsidy",
      "outputs": [
        {
          "internalType": "uint256",
          "name": "subsidy",
          "type": "uint256"
        }
      ],
      "stateMutability": "nonpayable",
      "type": "function"
    },
    {
      "inputs": [],
      "name": "marketId",
      "outputs": [
        {
          "internalType": "bytes32",
          "name": "",
          "type": "bytes32"
        }
      ],
      "stateMutability": "view",
      "type": "function"
    },
    {
      "inputs": [
        {
          "internalType": "address",
          "name": "",
          "type": "address"
        }
      ],
      "name": "maxDeposit",
      "outputs": [
        {
          "internalType": "uint256",
          "name": "",
          "type": "uint256"
        }
      ],
      "stateMutability": "view",
      "type": "function"
    },
    {
      "inputs": [
        {
          "internalType": "address",
          "name": "",
          "type": "address"
        }
      ],
      "name": "maxMint",
      "outputs": [
        {
          "internalType": "uint256",
          "name": "",
          "type": "uint256"
        }
      ],
      "stateMutability": "view",
      "type": "function"
    },
    {
      "inputs": [
        {
          "internalType": "address",
          "name": "owner",
          "type": "address"
        }
      ],
      "name": "maxRedeem",
      "outputs": [
        {
          "internalType": "uint256",
          "name": "",
          "type": "uint256"
        }
      ],
      "stateMutability": "view",
      "type": "function"
    },
    {
      "inputs": [
        {
          "internalType": "address",
          "name": "owner",
          "type": "address"
        }
      ],
      "name": "maxWithdraw",
      "outputs": [
        {
          "internalType": "uint256",
          "name": "",
          "type": "uint256"
        }
      ],
      "stateMutability": "view",
      "type": "function"
    },
    {
      "inputs": [
        {
          "internalType": "uint256",
          "name": "shares",
          "type": "uint256"
        },
        {
          "internalType": "address",
          "name": "receiver",
          "type": "address"
        }
      ],
      "name": "mint",
      "outputs": [
        {
          "internalType": "uint256",
          "name": "assets",
          "type": "uint256"
        }
      ],
      "stateMutability": "nonpayable",
      "type": "function"
    },
    {
      "inputs": [],
      "name": "name",
      "outputs": [
        {
          "internalType": "string",
          "name": "",
          "type": "string"
        }
      ],
      "stateMutability": "view",
      "type": "function"
    },
    {
      "inputs": [],
      "name": "owner",
      "outputs": [
        {
          "internalType": "address",
          "name": "",
          "type": "address"
        }
      ],
      "stateMutability": "view",
      "type": "function"
    },
    {
      "inputs": [
        {
          "internalType": "uint256",
          "name": "assets",
          "type": "uint256"
        }
      ],
      "name": "previewDeposit",
      "outputs": [
        {
          "internalType": "uint256",
          "name": "",
          "type": "uint256"
        }
      ],
      "stateMutability": "view",
      "type": "function"
    },
    {
      "inputs": [
        {
          "internalType": "uint256",
          "name": "shares",
          "type": "uint256"
        }
      ],
      "name": "previewMint",
      "outputs": [
        {
          "internalType": "uint256",
          "name": "",
          "type": "uint256"
        }
      ],
      "stateMutability": "view",
      "type": "function"
    },
    {
      "inputs": [
        {
          "internalType": "uint256",
          "name": "shares",
          "type": "uint256"
        }
      ],
      "name": "previewRedeem",
      "outputs": [
        {
          "internalType": "uint256",
          "name": "",
          "type": "uint256"
        }
      ],
      "stateMutability": "view",
      "type": "function"
    },
    {
      "inputs": [
        {
          "internalType": "uint256",
          "name": "assets",
          "type": "uint256"
        }
      ],
      "name": "previewWithdraw",
      "outputs": [
        {
          "internalType": "uint256",
          "name": "",
          "type": "uint256"
        }
      ],
      "stateMutability": "view",
      "type": "function"
    },
    {
      "inputs": [
        {
          "internalType": "uint256",
          "name": "shares",
          "type": "uint256"
        },
        {
          "internalType": "address",
          "name": "receiver",
          "type": "address"
        },
        {
          "internalType": "address",
          "name": "owner",
          "type": "address"
        }
      ],
      "name": "redeem",
      "outputs": [
        {
          "internalType": "uint256",
          "name": "assets",
          "type": "uint256"
        }
      ],
      "stateMutability": "nonpayable",
      "type": "function"
    },
    {
      "inputs": [
        {
          "internalType": "uint256",
          "name": "shares",
          "type": "uint256"
        },
        {
          "internalType": "address",
          "name": "receiver",
          "type": "address"
        },
        {
          "internalType": "address",
          "name": "owner",
          "type": "address"
        }
      ],
      "name": "redeemWithInterestSubsidy",
      "outputs": [
        {
          "internalType": "uint256",
          "name": "assets",
          "type": "uint256"
        }
      ],
      "stateMutability": "nonpayable",
      "type": "function"
    },
    {
      "inputs": [],
      "name": "renounceOwnership",
      "outputs": [],
      "stateMutability": "nonpayable",
      "type": "function"
    },
    {
      "inputs": [
        {
          "internalType": "address",
          "name": "_oracle",
          "type": "address"
        }
      ],
      "name": "setCCOPUsdcOracle",
      "outputs": [],
      "stateMutability": "nonpayable",
      "type": "function"
    },
    {
      "inputs": [
        {
          "internalType": "address",
          "name": "_debtLens",
          "type": "address"
        }
      ],
      "name": "setDebtLens",
      "outputs": [],
      "stateMutability": "nonpayable",
      "type": "function"
    },
    {
      "inputs": [
        {
          "internalType": "bytes32",
          "name": "_marketId",
          "type": "bytes32"
        }
      ],
      "name": "setMarketId",
      "outputs": [],
      "stateMutability": "nonpayable",
      "type": "function"
    },
    {
      "inputs": [],
      "name": "symbol",
      "outputs": [
        {
          "internalType": "string",
          "name": "",
          "type": "string"
        }
      ],
      "stateMutability": "view",
      "type": "function"
    },
    {
      "inputs": [],
      "name": "totalAllocatedSubsidy",
      "outputs": [
        {
          "internalType": "uint256",
          "name": "",
          "type": "uint256"
        }
      ],
      "stateMutability": "view",
      "type": "function"
    },
    {
      "inputs": [],
      "name": "totalAssets",
      "outputs": [
        {
          "internalType": "uint256",
          "name": "",
          "type": "uint256"
        }
      ],
      "stateMutability": "view",
      "type": "function"
    },
    {
      "inputs": [],
      "name": "totalPrincipal",
      "outputs": [
        {
          "internalType": "uint256",
          "name": "",
          "type": "uint256"
        }
      ],
      "stateMutability": "view",
      "type": "function"
    },
    {
      "inputs": [],
      "name": "totalSupply",
      "outputs": [
        {
          "internalType": "uint256",
          "name": "",
          "type": "uint256"
        }
      ],
      "stateMutability": "view",
      "type": "function"
    },
    {
      "inputs": [
        {
          "internalType": "address",
          "name": "to",
          "type": "address"
        },
        {
          "internalType": "uint256",
          "name": "value",
          "type": "uint256"
        }
      ],
      "name": "transfer",
      "outputs": [
        {
          "internalType": "bool",
          "name": "",
          "type": "bool"
        }
      ],
      "stateMutability": "nonpayable",
      "type": "function"
    },
    {
      "inputs": [
        {
          "internalType": "address",
          "name": "from",
          "type": "address"
        },
        {
          "internalType": "address",
          "name": "to",
          "type": "address"
        },
        {
          "internalType": "uint256",
          "name": "value",
          "type": "uint256"
        }
      ],
      "name": "transferFrom",
      "outputs": [
        {
          "internalType": "bool",
          "name": "",
          "type": "bool"
        }
      ],
      "stateMutability": "nonpayable",
      "type": "function"
    },
    {
      "inputs": [
        {
          "internalType": "address",
          "name": "newOwner",
          "type": "address"
        }
      ],
      "name": "transferOwnership",
      "outputs": [],
      "stateMutability": "nonpayable",
      "type": "function"
    },
    {
      "inputs": [
        {
          "internalType": "address",
          "name": "",
          "type": "address"
        }
      ],
      "name": "userInterestInCCOP",
      "outputs": [
        {
          "internalType": "uint256",
          "name": "",
          "type": "uint256"
        }
      ],
      "stateMutability": "view",
      "type": "function"
    },
    {
      "inputs": [
        {
          "internalType": "address",
          "name": "",
          "type": "address"
        }
      ],
      "name": "userInterestSubsidyInWaUSDC",
      "outputs": [
        {
          "internalType": "uint256",
          "name": "",
          "type": "uint256"
        }
      ],
      "stateMutability": "view",
      "type": "function"
    },
    {
      "inputs": [
        {
          "internalType": "address",
          "name": "",
          "type": "address"
        }
      ],
      "name": "userPrincipal",
      "outputs": [
        {
          "internalType": "uint256",
          "name": "",
          "type": "uint256"
        }
      ],
      "stateMutability": "view",
      "type": "function"
    },
    {
      "inputs": [
        {
          "internalType": "uint256",
          "name": "assets",
          "type": "uint256"
        },
        {
          "internalType": "address",
          "name": "receiver",
          "type": "address"
        },
        {
          "internalType": "address",
          "name": "owner",
          "type": "address"
        }
      ],
      "name": "withdraw",
      "outputs": [
        {
          "internalType": "uint256",
          "name": "shares",
          "type": "uint256"
        }
      ],
      "stateMutability": "nonpayable",
      "type": "function"
    }
  ],
  "bytecode": "0x60e06040523480156200001157600080fd5b5060405162004de838038062004de88339818101604052810190620000379190620004fb565b80826040518060400160405280601181526020017f57726170706564204161766520555344430000000000000000000000000000008152506040518060400160405280600681526020017f57615553444300000000000000000000000000000000000000000000000000008152508160039081620000b69190620007bc565b508060049081620000c89190620007bc565b505050600080620000df836200026c60201b60201c565b9150915081620000f1576012620000f3565b805b60ff1660a08160ff16815250508273ffffffffffffffffffffffffffffffffffffffff1660808173ffffffffffffffffffffffffffffffffffffffff1681525050505050600073ffffffffffffffffffffffffffffffffffffffff168173ffffffffffffffffffffffffffffffffffffffff1603620001ac5760006040517f1e4fbdf7000000000000000000000000000000000000000000000000000000008152600401620001a39190620008b4565b60405180910390fd5b620001bd816200038660201b60201c565b50600073ffffffffffffffffffffffffffffffffffffffff168273ffffffffffffffffffffffffffffffffffffffff160362000230576040517f08c379a0000000000000000000000000000000000000000000000000000000008152600401620002279062000932565b60405180910390fd5b8173ffffffffffffffffffffffffffffffffffffffff1660c08173ffffffffffffffffffffffffffffffffffffffff1681525050505062000a49565b6000806000808473ffffffffffffffffffffffffffffffffffffffff1660405160240160405160208183030381529060405263313ce56760e01b6020820180517bffffffffffffffffffffffffffffffffffffffffffffffffffffffff8381831617835250505050604051620002e39190620009cd565b600060405180830381855afa9150503d806000811462000320576040519150601f19603f3d011682016040523d82523d6000602084013e62000325565b606091505b50915091508180156200033a57506020815110155b15620003775760008180602001905181019062000358919062000a17565b905060ff8016811162000375576001819450945050505062000381565b505b6000809350935050505b915091565b6000600560009054906101000a900473ffffffffffffffffffffffffffffffffffffffff16905081600560006101000a81548173ffffffffffffffffffffffffffffffffffffffff021916908373ffffffffffffffffffffffffffffffffffffffff1602179055508173ffffffffffffffffffffffffffffffffffffffff168173ffffffffffffffffffffffffffffffffffffffff167f8be0079c531659141344cd1fd0a4f28419497f9722a3daafe3b4186f6b6457e060405160405180910390a35050565b600080fd5b600073ffffffffffffffffffffffffffffffffffffffff82169050919050565b60006200047e8262000451565b9050919050565b6000620004928262000471565b9050919050565b620004a48162000485565b8114620004b057600080fd5b50565b600081519050620004c48162000499565b92915050565b620004d58162000471565b8114620004e157600080fd5b50565b600081519050620004f581620004ca565b92915050565b600080604083850312156200051557620005146200044c565b5b60006200052585828601620004b3565b92505060206200053885828601620004e4565b9150509250929050565b600081519050919050565b7f4e487b7100000000000000000000000000000000000000000000000000000000600052604160045260246000fd5b7f4e487b7100000000000000000000000000000000000000000000000000000000600052602260045260246000fd5b60006002820490506001821680620005c457607f821691505b602082108103620005da57620005d96200057c565b5b50919050565b60008190508160005260206000209050919050565b60006020601f8301049050919050565b600082821b905092915050565b600060088302620006447fffffffffffffffffffffffffffffffffffffffffffffffffffffffffffffffff8262000605565b62000650868362000605565b95508019841693508086168417925050509392505050565b6000819050919050565b6000819050919050565b60006200069d62000697620006918462000668565b62000672565b62000668565b9050919050565b6000819050919050565b620006b9836200067c565b620006d1620006c882620006a4565b84845462000612565b825550505050565b600090565b620006e8620006d9565b620006f5818484620006ae565b505050565b5b818110156200071d5762000711600082620006de565b600181019050620006fb565b5050565b601f8211156200076c576200073681620005e0565b6200074184620005f5565b8101602085101562000751578190505b620007696200076085620005f5565b830182620006fa565b50505b505050565b600082821c905092915050565b6000620007916000198460080262000771565b1980831691505092915050565b6000620007ac83836200077e565b9150826002028217905092915050565b620007c78262000542565b67ffffffffffffffff811115620007e357620007e26200054d565b5b620007ef8254620005ab565b620007fc82828562000721565b600060209050601f8311600181146200083457600084156200081f578287015190505b6200082b85826200079e565b8655506200089b565b601f1984166200084486620005e0565b60005b828110156200086e5784890151825560018201915060208501945060208101905062000847565b868310156200088e57848901516200088a601f8916826200077e565b8355505b6001600288020188555050505b505050505050565b620008ae8162000471565b82525050565b6000602082019050620008cb6000830184620008a3565b92915050565b600082825260208201905092915050565b7f696e76616c69642061546f6b656e000000000000000000000000000000000000600082015250565b60006200091a600e83620008d1565b91506200092782620008e2565b602082019050919050565b600060208201905081810360008301526200094d816200090b565b9050919050565b600081519050919050565b600081905092915050565b60005b838110156200098a5780820151818401526020810190506200096d565b60008484015250505050565b6000620009a38262000954565b620009af81856200095f565b9350620009c18185602086016200096a565b80840191505092915050565b6000620009db828462000996565b915081905092915050565b620009f18162000668565b8114620009fd57600080fd5b50565b60008151905062000a1181620009e6565b92915050565b60006020828403121562000a305762000a2f6200044c565b5b600062000a408482850162000a00565b91505092915050565b60805160a05160c05161434862000aa0600039600081816109100152818161113e015281816113bb0152818161184301528181611ac001528181611e3001526122a80152600050506000610c8601526143486000f3fe608060405234801561001057600080fd5b50600436106102695760003560e01c80636ed71ede11610151578063b3d7f6b9116100c3578063c6e6f59211610087578063c6e6f59214610800578063ce96cb7714610830578063d905777e14610860578063dd62ed3e14610890578063ef8b30f7146108c0578063f2fde38b146108f057610269565b8063b3d7f6b914610710578063b460af9414610740578063ba08765214610770578063c3fcab0f146107a0578063c63d75b6146107d057610269565b80638e009b21116101155780638e009b211461063a57806394bf804d1461065657806395d89b41146106865780639f0f5797146106a4578063a0c1f15e146106c2578063a9059cbb146106e057610269565b80636ed71ede146105a857806370a08231146105c6578063715018a6146105f65780638937e6ce146106005780638da5cb5b1461061c57610269565b80632c47ced7116101ea5780634b1533b2116101ae5780634b1533b2146104ac5780634cdad506146104ca57806352f5571c146104fa57806362dab626146105185780636b9c9dc8146105485780636e553f651461057857610269565b80632c47ced714610406578063313ce5671461042257806338d52e0f146104405780633b42fa6c1461045e578063402d267d1461047c57610269565b80630a28a477116102315780630a28a4771461033a57806311c54b781461036a578063175e439c1461039a57806318160ddd146103b857806323b872dd146103d657610269565b806301e1d1141461026e57806306fdde031461028c57806307a2d13a146102aa578063081f5b17146102da578063095ea7b31461030a575b600080fd5b61027661090c565b60405161028391906134b9565b60405180910390f35b6102946109ad565b6040516102a19190613564565b60405180910390f35b6102c460048036038101906102bf91906135b7565b610a3f565b6040516102d191906134b9565b60405180910390f35b6102f460048036038101906102ef9190613642565b610a53565b60405161030191906134b9565b60405180910390f35b610324600480360381019061031f919061366f565b610a6b565b60405161033191906136ca565b60405180910390f35b610354600480360381019061034f91906135b7565b610a8e565b60405161036191906134b9565b60405180910390f35b610384600480360381019061037f9190613642565b610aa2565b60405161039191906134b9565b60405180910390f35b6103a2610aba565b6040516103af91906134b9565b60405180910390f35b6103c0610b09565b6040516103cd91906134b9565b60405180910390f35b6103f060048036038101906103eb91906136e5565b610b13565b6040516103fd91906136ca565b60405180910390f35b610420600480360381019061041b9190613642565b610b42565b005b61042a610c79565b6040516104379190613754565b60405180910390f35b610448610c82565b604051610455919061377e565b60405180910390f35b610466610caa565b604051610473919061377e565b60405180910390f35b61049660048036038101906104919190613642565b610cd0565b6040516104a391906134b9565b60405180910390f35b6104b4610cfa565b6040516104c191906134b9565b60405180910390f35b6104e460048036038101906104df91906135b7565b610d00565b6040516104f191906134b9565b60405180910390f35b610502610d14565b60405161050f91906134b9565b60405180910390f35b610532600480360381019061052d9190613642565b610d1a565b60405161053f91906134b9565b60405180910390f35b610562600480360381019061055d9190613799565b610d32565b60405161056f91906134b9565b60405180910390f35b610592600480360381019061058d91906137ec565b6112fb565b60405161059f91906134b9565b60405180910390f35b6105b061157e565b6040516105bd9190613845565b60405180910390f35b6105e060048036038101906105db9190613642565b611584565b6040516105ed91906134b9565b60405180910390f35b6105fe6115cc565b005b61061a6004803603810190610615919061388c565b6115e0565b005b610624611622565b604051610631919061377e565b60405180910390f35b610654600480360381019061064f9190613642565b61164c565b005b610670600480360381019061066b91906137ec565b611783565b60405161067d91906134b9565b60405180910390f35b61068e611a06565b60405161069b9190613564565b60405180910390f35b6106ac611a98565b6040516106b9919061377e565b60405180910390f35b6106ca611abe565b6040516106d79190613918565b60405180910390f35b6106fa60048036038101906106f5919061366f565b611ae2565b60405161070791906136ca565b60405180910390f35b61072a600480360381019061072591906135b7565b611b05565b60405161073791906134b9565b60405180910390f35b61075a60048036038101906107559190613799565b611b19565b60405161076791906134b9565b60405180910390f35b61078a60048036038101906107859190613799565b611f91565b60405161079791906134b9565b60405180910390f35b6107ba60048036038101906107b59190613642565b612409565b6040516107c791906134b9565b60405180910390f35b6107ea60048036038101906107e59190613642565b6128b0565b6040516107f791906134b9565b60405180910390f35b61081a600480360381019061081591906135b7565b6128da565b60405161082791906134b9565b60405180910390f35b61084a60048036038101906108459190613642565b6128ee565b60405161085791906134b9565b60405180910390f35b61087a60048036038101906108759190613642565b61290a565b60405161088791906134b9565b60405180910390f35b6108aa60048036038101906108a59190613933565b61291c565b6040516108b791906134b9565b60405180910390f35b6108da60048036038101906108d591906135b7565b6129a3565b6040516108e791906134b9565b60405180910390f35b61090a60048036038101906109059190613642565b6129b7565b005b60007f000000000000000000000000000000000000000000000000000000000000000073ffffffffffffffffffffffffffffffffffffffff166370a08231306040518263ffffffff1660e01b8152600401610967919061377e565b602060405180830381865afa158015610984573d6000803e3d6000fd5b505050506040513d601f19601f820116820180604052508101906109a89190613988565b905090565b6060600380546109bc906139e4565b80601f01602080910402602001604051908101604052809291908181526020018280546109e8906139e4565b8015610a355780601f10610a0a57610100808354040283529160200191610a35565b820191906000526020600020905b815481529060010190602001808311610a1857829003601f168201915b5050505050905090565b6000610a4c826000612a3d565b9050919050565b60096020528060005260406000206000915090505481565b600080610a76612a96565b9050610a83818585612a9e565b600191505092915050565b6000610a9b826001612ab0565b9050919050565b60086020528060005260406000206000915090505481565b600080610ac561090c565b9050600a54600654610ad79190613a44565b8111610ae7576000915050610b06565b600a5460065482610af89190613a78565b610b029190613a78565b9150505b90565b6000600254905090565b600080610b1e612a96565b9050610b2b858285612b09565b610b36858585612b9e565b60019150509392505050565b610b4a612c92565b600073ffffffffffffffffffffffffffffffffffffffff168173ffffffffffffffffffffffffffffffffffffffff1603610bb9576040517f08c379a0000000000000000000000000000000000000000000000000000000008152600401610bb090613af8565b60405180910390fd5b8073ffffffffffffffffffffffffffffffffffffffff16600c60009054906101000a900473ffffffffffffffffffffffffffffffffffffffff1673ffffffffffffffffffffffffffffffffffffffff167f7fdf50bf6a36c7ac808214dcb5bd51e5d40ca8209ac08889ca8640d54953578c60405160405180910390a380600c60006101000a81548173ffffffffffffffffffffffffffffffffffffffff021916908373ffffffffffffffffffffffffffffffffffffffff16021790555050565b60006006905090565b60007f0000000000000000000000000000000000000000000000000000000000000000905090565b600b60009054906101000a900473ffffffffffffffffffffffffffffffffffffffff1681565b60007fffffffffffffffffffffffffffffffffffffffffffffffffffffffffffffffff9050919050565b60065481565b6000610d0d826000612a3d565b9050919050565b600a5481565b60076020528060005260406000206000915090505481565b6000808411610d76576040517f08c379a0000000000000000000000000000000000000000000000000000000008152600401610d6d90613b64565b60405180910390fd5b600073ffffffffffffffffffffffffffffffffffffffff168373ffffffffffffffffffffffffffffffffffffffff1603610de5576040517f08c379a0000000000000000000000000000000000000000000000000000000008152600401610ddc90613bd0565b60405180910390fd5b8173ffffffffffffffffffffffffffffffffffffffff163373ffffffffffffffffffffffffffffffffffffffff1614610e81576000610e24833361291c565b905084811015610e69576040517f08c379a0000000000000000000000000000000000000000000000000000000008152600401610e6090613c3c565b60405180910390fd5b610e7f83338784610e7a9190613a78565b612a9e565b505b6000610e8c83611584565b905084811015610ed1576040517f08c379a0000000000000000000000000000000000000000000000000000000008152600401610ec890613ca8565b60405180910390fd5b610eda85610d00565b9150600080600760008673ffffffffffffffffffffffffffffffffffffffff1673ffffffffffffffffffffffffffffffffffffffff16815260200190815260200160002054111561103b578186600760008773ffffffffffffffffffffffffffffffffffffffff1673ffffffffffffffffffffffffffffffffffffffff16815260200190815260200160002054610f719190613cc8565b610f7b9190613d39565b905080600760008673ffffffffffffffffffffffffffffffffffffffff1673ffffffffffffffffffffffffffffffffffffffff1681526020019081526020016000206000828254610fcc9190613a78565b925050819055508060066000828254610fe59190613a78565b925050819055508373ffffffffffffffffffffffffffffffffffffffff167f83a30e6e8f76db62c41021f6b50f755d61a7ef48f5b8788f614a5562501693df8260405161103291906134b9565b60405180910390a25b6000600860008673ffffffffffffffffffffffffffffffffffffffff1673ffffffffffffffffffffffffffffffffffffffff168152602001908152602001600020549050600080821115611122576000611093610aba565b9050808311156110a357806110a5565b825b915060008211156111205781600860008973ffffffffffffffffffffffffffffffffffffffff1673ffffffffffffffffffffffffffffffffffffffff16815260200190815260200160002060008282546110ff9190613a78565b9250508190555081600a60008282546111189190613a78565b925050819055505b505b600081846111309190613a44565b905061113c878a612d19565b7f000000000000000000000000000000000000000000000000000000000000000073ffffffffffffffffffffffffffffffffffffffff1663a9059cbb89836040518363ffffffff1660e01b8152600401611197929190613d6a565b6020604051808303816000875af11580156111b6573d6000803e3d6000fd5b505050506040513d601f19601f820116820180604052508101906111da9190613dbf565b611219576040517f08c379a000000000000000000000000000000000000000000000000000000000815260040161121090613e38565b60405180910390fd5b6000821115611271578673ffffffffffffffffffffffffffffffffffffffff167fbd0da6b87e3a00e2c12cbafc540bad75646a338d775d35125460c4d9241b994d8360405161126891906134b9565b60405180910390a25b8673ffffffffffffffffffffffffffffffffffffffff168873ffffffffffffffffffffffffffffffffffffffff163373ffffffffffffffffffffffffffffffffffffffff167ffbde797d201c681b91056529119e0b02407c7bb96a4a2c75c01fc9667232c8db898d6040516112e7929190613e58565b60405180910390a450505050509392505050565b600080831161133f576040517f08c379a000000000000000000000000000000000000000000000000000000000815260040161133690613ecd565b60405180910390fd5b600073ffffffffffffffffffffffffffffffffffffffff168273ffffffffffffffffffffffffffffffffffffffff16036113ae576040517f08c379a00000000000000000000000000000000000000000000000000000000081526004016113a590613bd0565b60405180910390fd5b6113b7836129a3565b90507f000000000000000000000000000000000000000000000000000000000000000073ffffffffffffffffffffffffffffffffffffffff166323b872dd3330866040518463ffffffff1660e01b815260040161141693929190613eed565b6020604051808303816000875af1158015611435573d6000803e3d6000fd5b505050506040513d601f19601f820116820180604052508101906114599190613dbf565b611498576040517f08c379a000000000000000000000000000000000000000000000000000000000815260040161148f90613e38565b60405180910390fd5b6114a28282612d9b565b82600760008473ffffffffffffffffffffffffffffffffffffffff1673ffffffffffffffffffffffffffffffffffffffff16815260200190815260200160002060008282546114f19190613a44565b92505081905550826006600082825461150a9190613a44565b925050819055508173ffffffffffffffffffffffffffffffffffffffff163373ffffffffffffffffffffffffffffffffffffffff167fdcbc1c05240f31ff3ad067ef1ee35ce4997762752e3a095284754544f4c709d78584604051611570929190613e58565b60405180910390a392915050565b600d5481565b60008060008373ffffffffffffffffffffffffffffffffffffffff1673ffffffffffffffffffffffffffffffffffffffff168152602001908152602001600020549050919050565b6115d4612c92565b6115de6000612e1d565b565b6115e8612c92565b80600d547ff02e7948a555a0714ae90b9dd270e8a0a41a8398c4b00f94b3871ed848745e6e60405160405180910390a380600d8190555050565b6000600560009054906101000a900473ffffffffffffffffffffffffffffffffffffffff16905090565b611654612c92565b600073ffffffffffffffffffffffffffffffffffffffff168173ffffffffffffffffffffffffffffffffffffffff16036116c3576040517f08c379a00000000000000000000000000000000000000000000000000000000081526004016116ba90613af8565b60405180910390fd5b8073ffffffffffffffffffffffffffffffffffffffff16600b60009054906101000a900473ffffffffffffffffffffffffffffffffffffffff1673ffffffffffffffffffffffffffffffffffffffff167f4751d9c3a861a2452b8c9d9e92df486b8f15d339adc9337b6935e3278d93500560405160405180910390a380600b60006101000a81548173ffffffffffffffffffffffffffffffffffffffff021916908373ffffffffffffffffffffffffffffffffffffffff16021790555050565b60008083116117c7576040517f08c379a00000000000000000000000000000000000000000000000000000000081526004016117be90613b64565b60405180910390fd5b600073ffffffffffffffffffffffffffffffffffffffff168273ffffffffffffffffffffffffffffffffffffffff1603611836576040517f08c379a000000000000000000000000000000000000000000000000000000000815260040161182d90613bd0565b60405180910390fd5b61183f83611b05565b90507f000000000000000000000000000000000000000000000000000000000000000073ffffffffffffffffffffffffffffffffffffffff166323b872dd3330846040518463ffffffff1660e01b815260040161189e93929190613eed565b6020604051808303816000875af11580156118bd573d6000803e3d6000fd5b505050506040513d601f19601f820116820180604052508101906118e19190613dbf565b611920576040517f08c379a000000000000000000000000000000000000000000000000000000000815260040161191790613e38565b60405180910390fd5b61192a8284612d9b565b80600760008473ffffffffffffffffffffffffffffffffffffffff1673ffffffffffffffffffffffffffffffffffffffff16815260200190815260200160002060008282546119799190613a44565b9250508190555080600660008282546119929190613a44565b925050819055508173ffffffffffffffffffffffffffffffffffffffff163373ffffffffffffffffffffffffffffffffffffffff167fdcbc1c05240f31ff3ad067ef1ee35ce4997762752e3a095284754544f4c709d783866040516119f8929190613e58565b60405180910390a392915050565b606060048054611a15906139e4565b80601f0160208091040260200160405190810160405280929190818152602001828054611a41906139e4565b8015611a8e5780601f10611a6357610100808354040283529160200191611a8e565b820191906000526020600020905b815481529060010190602001808311611a7157829003601f168201915b5050505050905090565b600c60009054906101000a900473ffffffffffffffffffffffffffffffffffffffff1681565b7f000000000000000000000000000000000000000000000000000000000000000081565b600080611aed612a96565b9050611afa818585612b9e565b600191505092915050565b6000611b12826001612a3d565b9050919050565b6000808411611b5d576040517f08c379a0000000000000000000000000000000000000000000000000000000008152600401611b5490613ecd565b60405180910390fd5b600073ffffffffffffffffffffffffffffffffffffffff168373ffffffffffffffffffffffffffffffffffffffff1603611bcc576040517f08c379a0000000000000000000000000000000000000000000000000000000008152600401611bc390613bd0565b60405180910390fd5b611bd584610a8e565b90508173ffffffffffffffffffffffffffffffffffffffff163373ffffffffffffffffffffffffffffffffffffffff1614611c73576000611c16833361291c565b905081811015611c5b576040517f08c379a0000000000000000000000000000000000000000000000000000000008152600401611c5290613c3c565b60405180910390fd5b611c7183338484611c6c9190613a78565b612a9e565b505b6000611c7e83611584565b905081811015611cc3576040517f08c379a0000000000000000000000000000000000000000000000000000000008152600401611cba90613ca8565b60405180910390fd5b6000600760008573ffffffffffffffffffffffffffffffffffffffff1673ffffffffffffffffffffffffffffffffffffffff168152602001908152602001600020541115611e245760008183600760008773ffffffffffffffffffffffffffffffffffffffff1673ffffffffffffffffffffffffffffffffffffffff16815260200190815260200160002054611d599190613cc8565b611d639190613d39565b905080600760008673ffffffffffffffffffffffffffffffffffffffff1673ffffffffffffffffffffffffffffffffffffffff1681526020019081526020016000206000828254611db49190613a78565b925050819055508060066000828254611dcd9190613a78565b925050819055508373ffffffffffffffffffffffffffffffffffffffff167f83a30e6e8f76db62c41021f6b50f755d61a7ef48f5b8788f614a5562501693df82604051611e1a91906134b9565b60405180910390a2505b611e2e8383612d19565b7f000000000000000000000000000000000000000000000000000000000000000073ffffffffffffffffffffffffffffffffffffffff1663a9059cbb85876040518363ffffffff1660e01b8152600401611e89929190613d6a565b6020604051808303816000875af1158015611ea8573d6000803e3d6000fd5b505050506040513d601f19601f82011682018060405250810190611ecc9190613dbf565b611f0b576040517f08c379a0000000000000000000000000000000000000000000000000000000008152600401611f0290613e38565b60405180910390fd5b8273ffffffffffffffffffffffffffffffffffffffff168473ffffffffffffffffffffffffffffffffffffffff163373ffffffffffffffffffffffffffffffffffffffff167ffbde797d201c681b91056529119e0b02407c7bb96a4a2c75c01fc9667232c8db8886604051611f81929190613e58565b60405180910390a4509392505050565b6000808411611fd5576040517f08c379a0000000000000000000000000000000000000000000000000000000008152600401611fcc90613b64565b60405180910390fd5b600073ffffffffffffffffffffffffffffffffffffffff168373ffffffffffffffffffffffffffffffffffffffff1603612044576040517f08c379a000000000000000000000000000000000000000000000000000000000815260040161203b90613bd0565b60405180910390fd5b61204d84610d00565b90508173ffffffffffffffffffffffffffffffffffffffff163373ffffffffffffffffffffffffffffffffffffffff16146120eb57600061208e833361291c565b9050848110156120d3576040517f08c379a00000000000000000000000000000000000000000000000000000000081526004016120ca90613c3c565b60405180910390fd5b6120e9833387846120e49190613a78565b612a9e565b505b60006120f683611584565b90508481101561213b576040517f08c379a000000000000000000000000000000000000000000000000000000000815260040161213290613ca8565b60405180910390fd5b6000600760008573ffffffffffffffffffffffffffffffffffffffff1673ffffffffffffffffffffffffffffffffffffffff16815260200190815260200160002054111561229c5760008186600760008773ffffffffffffffffffffffffffffffffffffffff1673ffffffffffffffffffffffffffffffffffffffff168152602001908152602001600020546121d19190613cc8565b6121db9190613d39565b905080600760008673ffffffffffffffffffffffffffffffffffffffff1673ffffffffffffffffffffffffffffffffffffffff168152602001908152602001600020600082825461222c9190613a78565b9250508190555080600660008282546122459190613a78565b925050819055508373ffffffffffffffffffffffffffffffffffffffff167f83a30e6e8f76db62c41021f6b50f755d61a7ef48f5b8788f614a5562501693df8260405161229291906134b9565b60405180910390a2505b6122a68386612d19565b7f000000000000000000000000000000000000000000000000000000000000000073ffffffffffffffffffffffffffffffffffffffff1663a9059cbb85846040518363ffffffff1660e01b8152600401612301929190613d6a565b6020604051808303816000875af1158015612320573d6000803e3d6000fd5b505050506040513d601f19601f820116820180604052508101906123449190613dbf565b612383576040517f08c379a000000000000000000000000000000000000000000000000000000000815260040161237a90613e38565b60405180910390fd5b8273ffffffffffffffffffffffffffffffffffffffff168473ffffffffffffffffffffffffffffffffffffffff163373ffffffffffffffffffffffffffffffffffffffff167ffbde797d201c681b91056529119e0b02407c7bb96a4a2c75c01fc9667232c8db85896040516123f9929190613e58565b60405180910390a4509392505050565b60008073ffffffffffffffffffffffffffffffffffffffff168273ffffffffffffffffffffffffffffffffffffffff1603612479576040517f08c379a000000000000000000000000000000000000000000000000000000000815260040161247090613f70565b60405180910390fd5b600073ffffffffffffffffffffffffffffffffffffffff16600b60009054906101000a900473ffffffffffffffffffffffffffffffffffffffff1673ffffffffffffffffffffffffffffffffffffffff16141580156125275750600073ffffffffffffffffffffffffffffffffffffffff16600c60009054906101000a900473ffffffffffffffffffffffffffffffffffffffff1673ffffffffffffffffffffffffffffffffffffffff1614155b612566576040517f08c379a000000000000000000000000000000000000000000000000000000000815260040161255d90613fdc565b60405180910390fd5b6000600b60009054906101000a900473ffffffffffffffffffffffffffffffffffffffff1673ffffffffffffffffffffffffffffffffffffffff16633859a1a2600d54856040518363ffffffff1660e01b81526004016125c7929190613ffc565b602060405180830381865afa1580156125e4573d6000803e3d6000fd5b505050506040513d601f19601f820116820180604052508101906126089190613988565b905080600960008573ffffffffffffffffffffffffffffffffffffffff1673ffffffffffffffffffffffffffffffffffffffff16815260200190815260200160002081905550600081036126a5576000600860008573ffffffffffffffffffffffffffffffffffffffff1673ffffffffffffffffffffffffffffffffffffffff1681526020019081526020016000208190555060009150506128ab565b6000600c60009054906101000a900473ffffffffffffffffffffffffffffffffffffffff1673ffffffffffffffffffffffffffffffffffffffff1663a035b1fe6040518163ffffffff1660e01b8152600401602060405180830381865afa158015612714573d6000803e3d6000fd5b505050506040513d601f19601f820116820180604052508101906127389190613988565b90506000811161277d576040517f08c379a000000000000000000000000000000000000000000000000000000000815260040161277490614071565b60405180910390fd5b6000816ec097ce7bc90715b34b9f10000000008461279b9190613cc8565b6127a59190613d39565b905060006127b1610aba565b9050808211156127f6576040517f08c379a00000000000000000000000000000000000000000000000000000000081526004016127ed906140dd565b60405180910390fd5b81600860008873ffffffffffffffffffffffffffffffffffffffff1673ffffffffffffffffffffffffffffffffffffffff1681526020019081526020016000208190555081600a600082825461284c9190613a44565b925050819055508573ffffffffffffffffffffffffffffffffffffffff167feac1b0c39f54b19636f14376453f1cab1f9bcded2359f3f90a125b9f8d45788d858460405161289b929190613e58565b60405180910390a2819450505050505b919050565b60007fffffffffffffffffffffffffffffffffffffffffffffffffffffffffffffffff9050919050565b60006128e7826000612ab0565b9050919050565b60006129036128fc83611584565b6000612a3d565b9050919050565b600061291582611584565b9050919050565b6000600160008473ffffffffffffffffffffffffffffffffffffffff1673ffffffffffffffffffffffffffffffffffffffff16815260200190815260200160002060008373ffffffffffffffffffffffffffffffffffffffff1673ffffffffffffffffffffffffffffffffffffffff16815260200190815260200160002054905092915050565b60006129b0826000612ab0565b9050919050565b6129bf612c92565b600073ffffffffffffffffffffffffffffffffffffffff168173ffffffffffffffffffffffffffffffffffffffff1603612a315760006040517f1e4fbdf7000000000000000000000000000000000000000000000000000000008152600401612a28919061377e565b60405180910390fd5b612a3a81612e1d565b50565b6000612a8e6001612a4c61090c565b612a569190613a44565b612a5e612ee3565b600a612a6a9190614230565b612a72610b09565b612a7c9190613a44565b8486612ee8909392919063ffffffff16565b905092915050565b600033905090565b612aab8383836001612f37565b505050565b6000612b01612abd612ee3565b600a612ac99190614230565b612ad1610b09565b612adb9190613a44565b6001612ae561090c565b612aef9190613a44565b8486612ee8909392919063ffffffff16565b905092915050565b6000612b15848461291c565b90507fffffffffffffffffffffffffffffffffffffffffffffffffffffffffffffffff811015612b985781811015612b88578281836040517ffb8f41b2000000000000000000000000000000000000000000000000000000008152600401612b7f9392919061427b565b60405180910390fd5b612b9784848484036000612f37565b5b50505050565b600073ffffffffffffffffffffffffffffffffffffffff168373ffffffffffffffffffffffffffffffffffffffff1603612c105760006040517f96c6fd1e000000000000000000000000000000000000000000000000000000008152600401612c07919061377e565b60405180910390fd5b600073ffffffffffffffffffffffffffffffffffffffff168273ffffffffffffffffffffffffffffffffffffffff1603612c825760006040517fec442f05000000000000000000000000000000000000000000000000000000008152600401612c79919061377e565b60405180910390fd5b612c8d83838361310e565b505050565b612c9a612a96565b73ffffffffffffffffffffffffffffffffffffffff16612cb8611622565b73ffffffffffffffffffffffffffffffffffffffff1614612d1757612cdb612a96565b6040517f118cdaa7000000000000000000000000000000000000000000000000000000008152600401612d0e919061377e565b60405180910390fd5b565b600073ffffffffffffffffffffffffffffffffffffffff168273ffffffffffffffffffffffffffffffffffffffff1603612d8b5760006040517f96c6fd1e000000000000000000000000000000000000000000000000000000008152600401612d82919061377e565b60405180910390fd5b612d978260008361310e565b5050565b600073ffffffffffffffffffffffffffffffffffffffff168273ffffffffffffffffffffffffffffffffffffffff1603612e0d5760006040517fec442f05000000000000000000000000000000000000000000000000000000008152600401612e04919061377e565b60405180910390fd5b612e196000838361310e565b5050565b6000600560009054906101000a900473ffffffffffffffffffffffffffffffffffffffff16905081600560006101000a81548173ffffffffffffffffffffffffffffffffffffffff021916908373ffffffffffffffffffffffffffffffffffffffff1602179055508173ffffffffffffffffffffffffffffffffffffffff168173ffffffffffffffffffffffffffffffffffffffff167f8be0079c531659141344cd1fd0a4f28419497f9722a3daafe3b4186f6b6457e060405160405180910390a35050565b600090565b6000612f18612ef683613333565b8015612f13575060008480612f0e57612f0d613d0a565b5b868809115b613361565b612f2386868661336d565b612f2d9190613a44565b9050949350505050565b600073ffffffffffffffffffffffffffffffffffffffff168473ffffffffffffffffffffffffffffffffffffffff1603612fa95760006040517fe602df05000000000000000000000000000000000000000000000000000000008152600401612fa0919061377e565b60405180910390fd5b600073ffffffffffffffffffffffffffffffffffffffff168373ffffffffffffffffffffffffffffffffffffffff160361301b5760006040517f94280d62000000000000000000000000000000000000000000000000000000008152600401613012919061377e565b60405180910390fd5b81600160008673ffffffffffffffffffffffffffffffffffffffff1673ffffffffffffffffffffffffffffffffffffffff16815260200190815260200160002060008573ffffffffffffffffffffffffffffffffffffffff1673ffffffffffffffffffffffffffffffffffffffff168152602001908152602001600020819055508015613108578273ffffffffffffffffffffffffffffffffffffffff168473ffffffffffffffffffffffffffffffffffffffff167f8c5be1e5ebec7d5bd14f71427d1e84f3dd0314c0f7b2291e5b200ac8c7c3b925846040516130ff91906134b9565b60405180910390a35b50505050565b600073ffffffffffffffffffffffffffffffffffffffff168373ffffffffffffffffffffffffffffffffffffffff16036131605780600260008282546131549190613a44565b92505081905550613233565b60008060008573ffffffffffffffffffffffffffffffffffffffff1673ffffffffffffffffffffffffffffffffffffffff168152602001908152602001600020549050818110156131ec578381836040517fe450d38c0000000000000000000000000000000000000000000000000000000081526004016131e39392919061427b565b60405180910390fd5b8181036000808673ffffffffffffffffffffffffffffffffffffffff1673ffffffffffffffffffffffffffffffffffffffff16815260200190815260200160002081905550505b600073ffffffffffffffffffffffffffffffffffffffff168273ffffffffffffffffffffffffffffffffffffffff160361327c57806002600082825403925050819055506132c9565b806000808473ffffffffffffffffffffffffffffffffffffffff1673ffffffffffffffffffffffffffffffffffffffff168152602001908152602001600020600082825401925050819055505b8173ffffffffffffffffffffffffffffffffffffffff168373ffffffffffffffffffffffffffffffffffffffff167fddf252ad1be2c89b69c2b068fc378daa952ba7f163c4a11628f55a4df523b3ef8360405161332691906134b9565b60405180910390a3505050565b60006001600283600381111561334c5761334b6142b2565b5b61335691906142e1565b60ff16149050919050565b60008115159050919050565b600080600061337c8686613455565b91509150600082036133a25783818161339857613397613d0a565b5b049250505061344e565b8184116133c2576133c16133bc6000861460126011613474565b61348e565b5b600084868809905081811183039250808203915060008560000386169050808604955080830492506001818260000304019050808402831792506000600287600302189050808702600203810290508087026002038102905080870260020381029050808702600203810290508087026002038102905080870260020381029050808402955050505050505b9392505050565b6000806000198385098385029150818110828203039250509250929050565b600061347f84613361565b82841802821890509392505050565b634e487b71600052806020526024601cfd5b6000819050919050565b6134b3816134a0565b82525050565b60006020820190506134ce60008301846134aa565b92915050565b600081519050919050565b600082825260208201905092915050565b60005b8381101561350e5780820151818401526020810190506134f3565b60008484015250505050565b6000601f19601f8301169050919050565b6000613536826134d4565b61354081856134df565b93506135508185602086016134f0565b6135598161351a565b840191505092915050565b6000602082019050818103600083015261357e818461352b565b905092915050565b600080fd5b613594816134a0565b811461359f57600080fd5b50565b6000813590506135b18161358b565b92915050565b6000602082840312156135cd576135cc613586565b5b60006135db848285016135a2565b91505092915050565b600073ffffffffffffffffffffffffffffffffffffffff82169050919050565b600061360f826135e4565b9050919050565b61361f81613604565b811461362a57600080fd5b50565b60008135905061363c81613616565b92915050565b60006020828403121561365857613657613586565b5b60006136668482850161362d565b91505092915050565b6000806040838503121561368657613685613586565b5b60006136948582860161362d565b92505060206136a5858286016135a2565b9150509250929050565b60008115159050919050565b6136c4816136af565b82525050565b60006020820190506136df60008301846136bb565b92915050565b6000806000606084860312156136fe576136fd613586565b5b600061370c8682870161362d565b935050602061371d8682870161362d565b925050604061372e868287016135a2565b9150509250925092565b600060ff82169050919050565b61374e81613738565b82525050565b60006020820190506137696000830184613745565b92915050565b61377881613604565b82525050565b6000602082019050613793600083018461376f565b92915050565b6000806000606084860312156137b2576137b1613586565b5b60006137c0868287016135a2565b93505060206137d18682870161362d565b92505060406137e28682870161362d565b9150509250925092565b6000806040838503121561380357613802613586565b5b6000613811858286016135a2565b92505060206138228582860161362d565b9150509250929050565b6000819050919050565b61383f8161382c565b82525050565b600060208201905061385a6000830184613836565b92915050565b6138698161382c565b811461387457600080fd5b50565b60008135905061388681613860565b92915050565b6000602082840312156138a2576138a1613586565b5b60006138b084828501613877565b91505092915050565b6000819050919050565b60006138de6138d96138d4846135e4565b6138b9565b6135e4565b9050919050565b60006138f0826138c3565b9050919050565b6000613902826138e5565b9050919050565b613912816138f7565b82525050565b600060208201905061392d6000830184613909565b92915050565b6000806040838503121561394a57613949613586565b5b60006139588582860161362d565b92505060206139698582860161362d565b9150509250929050565b6000815190506139828161358b565b92915050565b60006020828403121561399e5761399d613586565b5b60006139ac84828501613973565b91505092915050565b7f4e487b7100000000000000000000000000000000000000000000000000000000600052602260045260246000fd5b600060028204905060018216806139fc57607f821691505b602082108103613a0f57613a0e6139b5565b5b50919050565b7f4e487b7100000000000000000000000000000000000000000000000000000000600052601160045260246000fd5b6000613a4f826134a0565b9150613a5a836134a0565b9250828201905080821115613a7257613a71613a15565b5b92915050565b6000613a83826134a0565b9150613a8e836134a0565b9250828203905081811115613aa657613aa5613a15565b5b92915050565b7f696e76616c696400000000000000000000000000000000000000000000000000600082015250565b6000613ae26007836134df565b9150613aed82613aac565b602082019050919050565b60006020820190508181036000830152613b1181613ad5565b9050919050565b7f7a65726f20736861726573000000000000000000000000000000000000000000600082015250565b6000613b4e600b836134df565b9150613b5982613b18565b602082019050919050565b60006020820190508181036000830152613b7d81613b41565b9050919050565b7f7a65726f20726563656976657200000000000000000000000000000000000000600082015250565b6000613bba600d836134df565b9150613bc582613b84565b602082019050919050565b60006020820190508181036000830152613be981613bad565b9050919050565b7f696e73756666696369656e7420616c6c6f77616e636500000000000000000000600082015250565b6000613c266016836134df565b9150613c3182613bf0565b602082019050919050565b60006020820190508181036000830152613c5581613c19565b9050919050565b7f696e73756666696369656e742073686172657300000000000000000000000000600082015250565b6000613c926013836134df565b9150613c9d82613c5c565b602082019050919050565b60006020820190508181036000830152613cc181613c85565b9050919050565b6000613cd3826134a0565b9150613cde836134a0565b9250828202613cec816134a0565b91508282048414831517613d0357613d02613a15565b5b5092915050565b7f4e487b7100000000000000000000000000000000000000000000000000000000600052601260045260246000fd5b6000613d44826134a0565b9150613d4f836134a0565b925082613d5f57613d5e613d0a565b5b828204905092915050565b6000604082019050613d7f600083018561376f565b613d8c60208301846134aa565b9392505050565b613d9c816136af565b8114613da757600080fd5b50565b600081519050613db981613d93565b92915050565b600060208284031215613dd557613dd4613586565b5b6000613de384828501613daa565b91505092915050565b7f7472616e73666572206661696c65640000000000000000000000000000000000600082015250565b6000613e22600f836134df565b9150613e2d82613dec565b602082019050919050565b60006020820190508181036000830152613e5181613e15565b9050919050565b6000604082019050613e6d60008301856134aa565b613e7a60208301846134aa565b9392505050565b7f7a65726f20617373657473000000000000000000000000000000000000000000600082015250565b6000613eb7600b836134df565b9150613ec282613e81565b602082019050919050565b60006020820190508181036000830152613ee681613eaa565b9050919050565b6000606082019050613f02600083018661376f565b613f0f602083018561376f565b613f1c60408301846134aa565b949350505050565b7f7a65726f20757365720000000000000000000000000000000000000000000000600082015250565b6000613f5a6009836134df565b9150613f6582613f24565b602082019050919050565b60006020820190508181036000830152613f8981613f4d565b9050919050565b7f696e746567726174696f6e73206e6f7420736574000000000000000000000000600082015250565b6000613fc66014836134df565b9150613fd182613f90565b602082019050919050565b60006020820190508181036000830152613ff581613fb9565b9050919050565b60006040820190506140116000830185613836565b61401e602083018461376f565b9392505050565b7f6f7261636c652070726963652030000000000000000000000000000000000000600082015250565b600061405b600e836134df565b915061406682614025565b602082019050919050565b6000602082019050818103600083015261408a8161404e565b9050919050565b7f696e73756666696369656e7420617661696c61626c65207969656c6400000000600082015250565b60006140c7601c836134df565b91506140d282614091565b602082019050919050565b600060208201905081810360008301526140f6816140ba565b9050919050565b60008160011c9050919050565b6000808291508390505b6001851115614154578086048111156141305761412f613a15565b5b600185161561413f5780820291505b808102905061414d856140fd565b9450614114565b94509492505050565b60008261416d5760019050614229565b8161417b5760009050614229565b8160018114614191576002811461419b576141ca565b6001915050614229565b60ff8411156141ad576141ac613a15565b5b8360020a9150848211156141c4576141c3613a15565b5b50614229565b5060208310610133831016604e8410600b84101617156141ff5782820a9050838111156141fa576141f9613a15565b5b614229565b61420c848484600161410a565b9250905081840481111561422357614222613a15565b5b81810290505b9392505050565b600061423b826134a0565b915061424683613738565b92506142737fffffffffffffffffffffffffffffffffffffffffffffffffffffffffffffffff848461415d565b905092915050565b6000606082019050614290600083018661376f565b61429d60208301856134aa565b6142aa60408301846134aa565b949350505050565b7f4e487b7100000000000000000000000000000000000000000000000000000000600052602160045260246000fd5b60006142ec82613738565b91506142f783613738565b92508261430757614306613d0a565b5b82820690509291505056fea26469706673582212202a4237b24e36b6609b4eff35f26b9e234aaf7c546e58f57085ec7c67a8c505e564736f6c63430008140033",
  "linkReferences": {},
  "deployedLinkReferences": {}
}