{
  "_format": "hh-sol-artifact-1",
  "contractName": "WaUSDC",
  "sourceName": "contracts/WaUSDC.sol",
  "abi": [
    {
      "inputs": [
        {
          "internalType": "address",
          "name": "aUSDC_",
          "type": "address"
        }
      ],
      "stateMutability": "nonpayable",
      "type": "constructor"
    },
    {
      "inputs": [
        {
          "internalType": "address",
          "name": "spender",
          "type": "address"
        },
        {
          "internalType": "uint256",
          "name": "allowance",
          "type": "uint256"
        },
        {
          "internalType": "uint256",
          "name": "needed",
          "type": "uint256"
        }
      ],
      "name": "ERC20InsufficientAllowance",
      "type": "error"
    },
    {
      "inputs": [
        {
          "internalType": "address",
          "name": "sender",
          "type": "address"
        },
        {
          "internalType": "uint256",
          "name": "balance",
          "type": "uint256"
        },
        {
          "internalType": "uint256",
          "name": "needed",
          "type": "uint256"
        }
      ],
      "name": "ERC20InsufficientBalance",
      "type": "error"
    },
    {
      "inputs": [
        {
          "internalType": "address",
          "name": "approver",
          "type": "address"
        }
      ],
      "name": "ERC20InvalidApprover",
      "type": "error"
    },
    {
      "inputs": [
        {
          "internalType": "address",
          "name": "receiver",
          "type": "address"
        }
      ],
      "name": "ERC20InvalidReceiver",
      "type": "error"
    },
    {
      "inputs": [
        {
          "internalType": "address",
          "name": "sender",
          "type": "address"
        }
      ],
      "name": "ERC20InvalidSender",
      "type": "error"
    },
    {
      "inputs": [
        {
          "internalType": "address",
          "name": "spender",
          "type": "address"
        }
      ],
      "name": "ERC20InvalidSpender",
      "type": "error"
    },
    {
      "inputs": [
        {
          "internalType": "address",
          "name": "receiver",
          "type": "address"
        },
        {
          "internalType": "uint256",
          "name": "assets",
          "type": "uint256"
        },
        {
          "internalType": "uint256",
          "name": "max",
          "type": "uint256"
        }
      ],
      "name": "ERC4626ExceededMaxDeposit",
      "type": "error"
    },
    {
      "inputs": [
        {
          "internalType": "address",
          "name": "receiver",
          "type": "address"
        },
        {
          "internalType": "uint256",
          "name": "shares",
          "type": "uint256"
        },
        {
          "internalType": "uint256",
          "name": "max",
          "type": "uint256"
        }
      ],
      "name": "ERC4626ExceededMaxMint",
      "type": "error"
    },
    {
      "inputs": [
        {
          "internalType": "address",
          "name": "owner",
          "type": "address"
        },
        {
          "internalType": "uint256",
          "name": "shares",
          "type": "uint256"
        },
        {
          "internalType": "uint256",
          "name": "max",
          "type": "uint256"
        }
      ],
      "name": "ERC4626ExceededMaxRedeem",
      "type": "error"
    },
    {
      "inputs": [
        {
          "internalType": "address",
          "name": "owner",
          "type": "address"
        },
        {
          "internalType": "uint256",
          "name": "assets",
          "type": "uint256"
        },
        {
          "internalType": "uint256",
          "name": "max",
          "type": "uint256"
        }
      ],
      "name": "ERC4626ExceededMaxWithdraw",
      "type": "error"
    },
    {
      "inputs": [
        {
          "internalType": "address",
          "name": "owner",
          "type": "address"
        }
      ],
      "name": "OwnableInvalidOwner",
      "type": "error"
    },
    {
      "inputs": [
        {
          "internalType": "address",
          "name": "account",
          "type": "address"
        }
      ],
      "name": "OwnableUnauthorizedAccount",
      "type": "error"
    },
    {
      "anonymous": false,
      "inputs": [
        {
          "indexed": true,
          "internalType": "address",
          "name": "owner",
          "type": "address"
        },
        {
          "indexed": true,
          "internalType": "address",
          "name": "spender",
          "type": "address"
        },
        {
          "indexed": false,
          "internalType": "uint256",
          "name": "value",
          "type": "uint256"
        }
      ],
      "name": "Approval",
      "type": "event"
    },
    {
      "anonymous": false,
      "inputs": [
        {
          "indexed": true,
          "internalType": "address",
          "name": "oldOracle",
          "type": "address"
        },
        {
          "indexed": true,
          "internalType": "address",
          "name": "newOracle",
          "type": "address"
        }
      ],
      "name": "CCOPUsdcOracleUpdated",
      "type": "event"
    },
    {
      "anonymous": false,
      "inputs": [
        {
          "indexed": true,
          "internalType": "address",
          "name": "oldDebtLens",
          "type": "address"
        },
        {
          "indexed": true,
          "internalType": "address",
          "name": "newDebtLens",
          "type": "address"
        }
      ],
      "name": "DebtLensUpdated",
      "type": "event"
    },
    {
      "anonymous": false,
      "inputs": [
        {
          "indexed": true,
          "internalType": "address",
          "name": "sender",
          "type": "address"
        },
        {
          "indexed": true,
          "internalType": "address",
          "name": "owner",
          "type": "address"
        },
        {
          "indexed": false,
          "internalType": "uint256",
          "name": "assets",
          "type": "uint256"
        },
        {
          "indexed": false,
          "internalType": "uint256",
          "name": "shares",
          "type": "uint256"
        }
      ],
      "name": "Deposit",
      "type": "event"
    },
    {
      "anonymous": false,
      "inputs": [
        {
          "indexed": true,
          "internalType": "address",
          "name": "user",
          "type": "address"
        },
        {
          "indexed": false,
          "internalType": "uint256",
          "name": "assets",
          "type": "uint256"
        },
        {
          "indexed": false,
          "internalType": "uint256",
          "name": "shares",
          "type": "uint256"
        }
      ],
      "name": "Deposited",
      "type": "event"
    },
    {
      "anonymous": false,
      "inputs": [
        {
          "indexed": true,
          "internalType": "address",
          "name": "user",
          "type": "address"
        },
        {
          "indexed": false,
          "internalType": "uint256",
          "name": "interestInCCOP",
          "type": "uint256"
        },
        {
          "indexed": false,
          "internalType": "uint256",
          "name": "oraclePrice",
          "type": "uint256"
        },
        {
          "indexed": false,
          "internalType": "uint256",
          "name": "userInterestSubsidyInWaUSDC",
          "type": "uint256"
        }
      ],
      "name": "GetSubsidy",
      "type": "event"
    },
    {
      "anonymous": false,
      "inputs": [
        {
          "indexed": true,
          "internalType": "bytes32",
          "name": "oldMarketId",
          "type": "bytes32"
        },
        {
          "indexed": true,
          "internalType": "bytes32",
          "name": "newMarketId",
          "type": "bytes32"
        }
      ],
      "name": "MarketIdUpdated",
      "type": "event"
    },
    {
      "anonymous": false,
      "inputs": [
        {
          "indexed": true,
          "internalType": "address",
          "name": "previousOwner",
          "type": "address"
        },
        {
          "indexed": true,
          "internalType": "address",
          "name": "newOwner",
          "type": "address"
        }
      ],
      "name": "OwnershipTransferred",
      "type": "event"
    },
    {
      "anonymous": false,
      "inputs": [
        {
          "indexed": true,
          "internalType": "address",
          "name": "from",
          "type": "address"
        },
        {
          "indexed": true,
          "internalType": "address",
          "name": "to",
          "type": "address"
        },
        {
          "indexed": false,
          "internalType": "uint256",
          "name": "value",
          "type": "uint256"
        }
      ],
      "name": "Transfer",
      "type": "event"
    },
    {
      "anonymous": false,
      "inputs": [
        {
          "indexed": true,
          "internalType": "address",
          "name": "sender",
          "type": "address"
        },
        {
          "indexed": true,
          "internalType": "address",
          "name": "receiver",
          "type": "address"
        },
        {
          "indexed": true,
          "internalType": "address",
          "name": "owner",
          "type": "address"
        },
        {
          "indexed": false,
          "internalType": "uint256",
          "name": "assets",
          "type": "uint256"
        },
        {
          "indexed": false,
          "internalType": "uint256",
          "name": "shares",
          "type": "uint256"
        }
      ],
      "name": "Withdraw",
      "type": "event"
    },
    {
      "anonymous": false,
      "inputs": [
        {
          "indexed": true,
          "internalType": "address",
          "name": "user",
          "type": "address"
        },
        {
          "indexed": false,
          "internalType": "uint256",
          "name": "assets",
          "type": "uint256"
        },
        {
          "indexed": false,
          "internalType": "uint256",
          "name": "shares",
          "type": "uint256"
        },
        {
          "indexed": false,
          "internalType": "uint256",
          "name": "yieldInUSDC",
          "type": "uint256"
        }
      ],
      "name": "Withdrawn",
      "type": "event"
    },
    {
      "anonymous": false,
      "inputs": [
        {
          "indexed": true,
          "internalType": "address",
          "name": "owner",
          "type": "address"
        },
        {
          "indexed": false,
          "internalType": "address",
          "name": "receiver",
          "type": "address"
        },
        {
          "indexed": false,
          "internalType": "uint256",
          "name": "sharesInWausdc",
          "type": "uint256"
        },
        {
          "indexed": false,
          "internalType": "uint256",
          "name": "assetsInAusdc",
          "type": "uint256"
        },
        {
          "indexed": false,
          "internalType": "uint256",
          "name": "yieldInUSDC",
          "type": "uint256"
        },
        {
          "indexed": false,
          "internalType": "uint256",
          "name": "subsidyInUSDC",
          "type": "uint256"
        }
      ],
      "name": "WithdrawnWithSubsidy",
      "type": "event"
    },
    {
      "anonymous": false,
      "inputs": [
        {
          "indexed": true,
          "internalType": "address",
          "name": "recipient",
          "type": "address"
        },
        {
          "indexed": false,
          "internalType": "uint256",
          "name": "amount",
          "type": "uint256"
        },
        {
          "indexed": false,
          "internalType": "uint256",
          "name": "timestamp",
          "type": "uint256"
        }
      ],
      "name": "YieldWithdrawn",
      "type": "event"
    },
    {
      "inputs": [
        {
          "internalType": "address",
          "name": "owner",
          "type": "address"
        },
        {
          "internalType": "address",
          "name": "spender",
          "type": "address"
        }
      ],
      "name": "allowance",
      "outputs": [
        {
          "internalType": "uint256",
          "name": "",
          "type": "uint256"
        }
      ],
      "stateMutability": "view",
      "type": "function"
    },
    {
      "inputs": [
        {
          "internalType": "address",
          "name": "spender",
          "type": "address"
        },
        {
          "internalType": "uint256",
          "name": "value",
          "type": "uint256"
        }
      ],
      "name": "approve",
      "outputs": [
        {
          "internalType": "bool",
          "name": "",
          "type": "bool"
        }
      ],
      "stateMutability": "nonpayable",
      "type": "function"
    },
    {
      "inputs": [],
      "name": "asset",
      "outputs": [
        {
          "internalType": "address",
          "name": "",
          "type": "address"
        }
      ],
      "stateMutability": "view",
      "type": "function"
    },
    {
      "inputs": [
        {
          "internalType": "address",
          "name": "account",
          "type": "address"
        }
      ],
      "name": "balanceOf",
      "outputs": [
        {
          "internalType": "uint256",
          "name": "",
          "type": "uint256"
        }
      ],
      "stateMutability": "view",
      "type": "function"
    },
    {
      "inputs": [],
      "name": "ccopUsdcOracle",
      "outputs": [
        {
          "internalType": "address",
          "name": "",
          "type": "address"
        }
      ],
      "stateMutability": "view",
      "type": "function"
    },
    {
      "inputs": [
        {
          "internalType": "uint256",
          "name": "shares",
          "type": "uint256"
        }
      ],
      "name": "convertToAssets",
      "outputs": [
        {
          "internalType": "uint256",
          "name": "",
          "type": "uint256"
        }
      ],
      "stateMutability": "view",
      "type": "function"
    },
    {
      "inputs": [
        {
          "internalType": "uint256",
          "name": "assets",
          "type": "uint256"
        }
      ],
      "name": "convertToShares",
      "outputs": [
        {
          "internalType": "uint256",
          "name": "",
          "type": "uint256"
        }
      ],
      "stateMutability": "view",
      "type": "function"
    },
    {
      "inputs": [],
      "name": "debtLens",
      "outputs": [
        {
          "internalType": "address",
          "name": "",
          "type": "address"
        }
      ],
      "stateMutability": "view",
      "type": "function"
    },
    {
      "inputs": [],
      "name": "decimals",
      "outputs": [
        {
          "internalType": "uint8",
          "name": "",
          "type": "uint8"
        }
      ],
      "stateMutability": "pure",
      "type": "function"
    },
    {
      "inputs": [
        {
          "internalType": "uint256",
          "name": "assets",
          "type": "uint256"
        },
        {
          "internalType": "address",
          "name": "receiver",
          "type": "address"
        }
      ],
      "name": "deposit",
      "outputs": [
        {
          "internalType": "uint256",
          "name": "shares",
          "type": "uint256"
        }
      ],
      "stateMutability": "nonpayable",
      "type": "function"
    },
    {
      "inputs": [
        {
          "internalType": "address",
          "name": "user",
          "type": "address"
        }
      ],
      "name": "getInterestSubsidy",
      "outputs": [
        {
          "internalType": "uint256",
          "name": "subsidy",
          "type": "uint256"
        }
      ],
      "stateMutability": "nonpayable",
      "type": "function"
    },
    {
      "inputs": [],
      "name": "getTotalDeposited",
      "outputs": [
        {
          "internalType": "uint256",
          "name": "",
          "type": "uint256"
        }
      ],
      "stateMutability": "view",
      "type": "function"
    },
    {
      "inputs": [],
      "name": "marketId",
      "outputs": [
        {
          "internalType": "bytes32",
          "name": "",
          "type": "bytes32"
        }
      ],
      "stateMutability": "view",
      "type": "function"
    },
    {
      "inputs": [
        {
          "internalType": "address",
          "name": "",
          "type": "address"
        }
      ],
      "name": "maxDeposit",
      "outputs": [
        {
          "internalType": "uint256",
          "name": "",
          "type": "uint256"
        }
      ],
      "stateMutability": "view",
      "type": "function"
    },
    {
      "inputs": [
        {
          "internalType": "address",
          "name": "",
          "type": "address"
        }
      ],
      "name": "maxMint",
      "outputs": [
        {
          "internalType": "uint256",
          "name": "",
          "type": "uint256"
        }
      ],
      "stateMutability": "view",
      "type": "function"
    },
    {
      "inputs": [
        {
          "internalType": "address",
          "name": "owner",
          "type": "address"
        }
      ],
      "name": "maxRedeem",
      "outputs": [
        {
          "internalType": "uint256",
          "name": "",
          "type": "uint256"
        }
      ],
      "stateMutability": "view",
      "type": "function"
    },
    {
      "inputs": [
        {
          "internalType": "address",
          "name": "owner",
          "type": "address"
        }
      ],
      "name": "maxWithdraw",
      "outputs": [
        {
          "internalType": "uint256",
          "name": "",
          "type": "uint256"
        }
      ],
      "stateMutability": "view",
      "type": "function"
    },
    {
      "inputs": [
        {
          "internalType": "uint256",
          "name": "shares",
          "type": "uint256"
        },
        {
          "internalType": "address",
          "name": "receiver",
          "type": "address"
        }
      ],
      "name": "mint",
      "outputs": [
        {
          "internalType": "uint256",
          "name": "assets",
          "type": "uint256"
        }
      ],
      "stateMutability": "nonpayable",
      "type": "function"
    },
    {
      "inputs": [],
      "name": "name",
      "outputs": [
        {
          "internalType": "string",
          "name": "",
          "type": "string"
        }
      ],
      "stateMutability": "view",
      "type": "function"
    },
    {
      "inputs": [],
      "name": "owner",
      "outputs": [
        {
          "internalType": "address",
          "name": "",
          "type": "address"
        }
      ],
      "stateMutability": "view",
      "type": "function"
    },
    {
      "inputs": [
        {
          "internalType": "uint256",
          "name": "assets",
          "type": "uint256"
        }
      ],
      "name": "previewDeposit",
      "outputs": [
        {
          "internalType": "uint256",
          "name": "",
          "type": "uint256"
        }
      ],
      "stateMutability": "view",
      "type": "function"
    },
    {
      "inputs": [
        {
          "internalType": "uint256",
          "name": "shares",
          "type": "uint256"
        }
      ],
      "name": "previewMint",
      "outputs": [
        {
          "internalType": "uint256",
          "name": "",
          "type": "uint256"
        }
      ],
      "stateMutability": "view",
      "type": "function"
    },
    {
      "inputs": [
        {
          "internalType": "uint256",
          "name": "shares",
          "type": "uint256"
        }
      ],
      "name": "previewRedeem",
      "outputs": [
        {
          "internalType": "uint256",
          "name": "",
          "type": "uint256"
        }
      ],
      "stateMutability": "view",
      "type": "function"
    },
    {
      "inputs": [
        {
          "internalType": "uint256",
          "name": "assets",
          "type": "uint256"
        }
      ],
      "name": "previewWithdraw",
      "outputs": [
        {
          "internalType": "uint256",
          "name": "",
          "type": "uint256"
        }
      ],
      "stateMutability": "view",
      "type": "function"
    },
    {
      "inputs": [
        {
          "internalType": "uint256",
          "name": "shares",
          "type": "uint256"
        },
        {
          "internalType": "address",
          "name": "receiver",
          "type": "address"
        },
        {
          "internalType": "address",
          "name": "owner",
          "type": "address"
        }
      ],
      "name": "redeem",
      "outputs": [
        {
          "internalType": "uint256",
          "name": "assets",
          "type": "uint256"
        }
      ],
      "stateMutability": "nonpayable",
      "type": "function"
    },
    {
      "inputs": [
        {
          "internalType": "uint256",
          "name": "shares",
          "type": "uint256"
        },
        {
          "internalType": "address",
          "name": "receiver",
          "type": "address"
        },
        {
          "internalType": "address",
          "name": "owner",
          "type": "address"
        }
      ],
      "name": "redeemWithInterestSubsidy",
      "outputs": [
        {
          "internalType": "uint256",
          "name": "assets",
          "type": "uint256"
        }
      ],
      "stateMutability": "nonpayable",
      "type": "function"
    },
    {
      "inputs": [],
      "name": "renounceOwnership",
      "outputs": [],
      "stateMutability": "nonpayable",
      "type": "function"
    },
    {
      "inputs": [
        {
          "internalType": "address",
          "name": "_ccopUsdcOracle",
          "type": "address"
        }
      ],
      "name": "setCCOPUsdcOracle",
      "outputs": [],
      "stateMutability": "nonpayable",
      "type": "function"
    },
    {
      "inputs": [
        {
          "internalType": "address",
          "name": "_debtLens",
          "type": "address"
        }
      ],
      "name": "setDebtLens",
      "outputs": [],
      "stateMutability": "nonpayable",
      "type": "function"
    },
    {
      "inputs": [
        {
          "internalType": "bytes32",
          "name": "_marketId",
          "type": "bytes32"
        }
      ],
      "name": "setMarketId",
      "outputs": [],
      "stateMutability": "nonpayable",
      "type": "function"
    },
    {
      "inputs": [],
      "name": "symbol",
      "outputs": [
        {
          "internalType": "string",
          "name": "",
          "type": "string"
        }
      ],
      "stateMutability": "view",
      "type": "function"
    },
    {
      "inputs": [],
      "name": "totalAssets",
      "outputs": [
        {
          "internalType": "uint256",
          "name": "",
          "type": "uint256"
        }
      ],
      "stateMutability": "view",
      "type": "function"
    },
    {
      "inputs": [],
      "name": "totalSupply",
      "outputs": [
        {
          "internalType": "uint256",
          "name": "",
          "type": "uint256"
        }
      ],
      "stateMutability": "view",
      "type": "function"
    },
    {
      "inputs": [
        {
          "internalType": "address",
          "name": "to",
          "type": "address"
        },
        {
          "internalType": "uint256",
          "name": "value",
          "type": "uint256"
        }
      ],
      "name": "transfer",
      "outputs": [
        {
          "internalType": "bool",
          "name": "",
          "type": "bool"
        }
      ],
      "stateMutability": "nonpayable",
      "type": "function"
    },
    {
      "inputs": [
        {
          "internalType": "address",
          "name": "from",
          "type": "address"
        },
        {
          "internalType": "address",
          "name": "to",
          "type": "address"
        },
        {
          "internalType": "uint256",
          "name": "value",
          "type": "uint256"
        }
      ],
      "name": "transferFrom",
      "outputs": [
        {
          "internalType": "bool",
          "name": "",
          "type": "bool"
        }
      ],
      "stateMutability": "nonpayable",
      "type": "function"
    },
    {
      "inputs": [
        {
          "internalType": "address",
          "name": "newOwner",
          "type": "address"
        }
      ],
      "name": "transferOwnership",
      "outputs": [],
      "stateMutability": "nonpayable",
      "type": "function"
    },
    {
      "inputs": [
        {
          "internalType": "address",
          "name": "",
          "type": "address"
        }
      ],
      "name": "userDepositedAssets",
      "outputs": [
        {
          "internalType": "uint256",
          "name": "",
          "type": "uint256"
        }
      ],
      "stateMutability": "view",
      "type": "function"
    },
    {
      "inputs": [
        {
          "internalType": "address",
          "name": "",
          "type": "address"
        }
      ],
      "name": "userGeneratedYieldInUSDC",
      "outputs": [
        {
          "internalType": "uint256",
          "name": "",
          "type": "uint256"
        }
      ],
      "stateMutability": "view",
      "type": "function"
    },
    {
      "inputs": [
        {
          "internalType": "address",
          "name": "",
          "type": "address"
        }
      ],
      "name": "userInterestInCCOP",
      "outputs": [
        {
          "internalType": "uint256",
          "name": "",
          "type": "uint256"
        }
      ],
      "stateMutability": "view",
      "type": "function"
    },
    {
      "inputs": [
        {
          "internalType": "address",
          "name": "",
          "type": "address"
        }
      ],
      "name": "userInterestSubsidyInWaUSDC",
      "outputs": [
        {
          "internalType": "uint256",
          "name": "",
          "type": "uint256"
        }
      ],
      "stateMutability": "view",
      "type": "function"
    },
    {
      "inputs": [
        {
          "internalType": "address",
          "name": "",
          "type": "address"
        }
      ],
      "name": "userPaidSubsidyInUSDC",
      "outputs": [
        {
          "internalType": "uint256",
          "name": "",
          "type": "uint256"
        }
      ],
      "stateMutability": "view",
      "type": "function"
    },
    {
      "inputs": [
        {
          "internalType": "uint256",
          "name": "assets",
          "type": "uint256"
        },
        {
          "internalType": "address",
          "name": "receiver",
          "type": "address"
        },
        {
          "internalType": "address",
          "name": "owner",
          "type": "address"
        }
      ],
      "name": "withdraw",
      "outputs": [
        {
          "internalType": "uint256",
          "name": "shares",
          "type": "uint256"
        }
      ],
      "stateMutability": "nonpayable",
      "type": "function"
    }
  ],
  "bytecode": "0x60e06040527314751f624968372878cde4238e84fb3d980c4f05600760006101000a81548173ffffffffffffffffffffffffffffffffffffffff021916908373ffffffffffffffffffffffffffffffffffffffff160217905550739f4b138bf3513866153af9f0a2794096dfebfad4600860006101000a81548173ffffffffffffffffffffffffffffffffffffffff021916908373ffffffffffffffffffffffffffffffffffffffff1602179055507ff912f62db71d01c572b28b6953c525851f9e0660df4e422cec986e620da726df60001b600955348015620000e257600080fd5b5060405162004b6538038062004b65833981810160405281019062000108919062000586565b33816040518060400160405280601181526020017f57726170706564204161766520555344430000000000000000000000000000008152506040518060400160405280600681526020017f5761555344430000000000000000000000000000000000000000000000000000815250816003908162000187919062000832565b50806004908162000199919062000832565b505050600080620001b0836200033c60201b60201c565b9150915081620001c2576012620001c4565b805b60ff1660a08160ff16815250508273ffffffffffffffffffffffffffffffffffffffff1660808173ffffffffffffffffffffffffffffffffffffffff1681525050505050600073ffffffffffffffffffffffffffffffffffffffff168173ffffffffffffffffffffffffffffffffffffffff16036200027d5760006040517f1e4fbdf70000000000000000000000000000000000000000000000000000000081526004016200027491906200092a565b60405180910390fd5b6200028e816200045660201b60201c565b50600073ffffffffffffffffffffffffffffffffffffffff168173ffffffffffffffffffffffffffffffffffffffff160362000301576040517f08c379a0000000000000000000000000000000000000000000000000000000008152600401620002f890620009a8565b60405180910390fd5b8073ffffffffffffffffffffffffffffffffffffffff1660c08173ffffffffffffffffffffffffffffffffffffffff16815250505062000abf565b6000806000808473ffffffffffffffffffffffffffffffffffffffff1660405160240160405160208183030381529060405263313ce56760e01b6020820180517bffffffffffffffffffffffffffffffffffffffffffffffffffffffff8381831617835250505050604051620003b3919062000a43565b600060405180830381855afa9150503d8060008114620003f0576040519150601f19603f3d011682016040523d82523d6000602084013e620003f5565b606091505b50915091508180156200040a57506020815110155b15620004475760008180602001905181019062000428919062000a8d565b905060ff8016811162000445576001819450945050505062000451565b505b6000809350935050505b915091565b6000600560009054906101000a900473ffffffffffffffffffffffffffffffffffffffff16905081600560006101000a81548173ffffffffffffffffffffffffffffffffffffffff021916908373ffffffffffffffffffffffffffffffffffffffff1602179055508173ffffffffffffffffffffffffffffffffffffffff168173ffffffffffffffffffffffffffffffffffffffff167f8be0079c531659141344cd1fd0a4f28419497f9722a3daafe3b4186f6b6457e060405160405180910390a35050565b600080fd5b600073ffffffffffffffffffffffffffffffffffffffff82169050919050565b60006200054e8262000521565b9050919050565b620005608162000541565b81146200056c57600080fd5b50565b600081519050620005808162000555565b92915050565b6000602082840312156200059f576200059e6200051c565b5b6000620005af848285016200056f565b91505092915050565b600081519050919050565b7f4e487b7100000000000000000000000000000000000000000000000000000000600052604160045260246000fd5b7f4e487b7100000000000000000000000000000000000000000000000000000000600052602260045260246000fd5b600060028204905060018216806200063a57607f821691505b60208210810362000650576200064f620005f2565b5b50919050565b60008190508160005260206000209050919050565b60006020601f8301049050919050565b600082821b905092915050565b600060088302620006ba7fffffffffffffffffffffffffffffffffffffffffffffffffffffffffffffffff826200067b565b620006c686836200067b565b95508019841693508086168417925050509392505050565b6000819050919050565b6000819050919050565b6000620007136200070d6200070784620006de565b620006e8565b620006de565b9050919050565b6000819050919050565b6200072f83620006f2565b620007476200073e826200071a565b84845462000688565b825550505050565b600090565b6200075e6200074f565b6200076b81848462000724565b505050565b5b8181101562000793576200078760008262000754565b60018101905062000771565b5050565b601f821115620007e257620007ac8162000656565b620007b7846200066b565b81016020851015620007c7578190505b620007df620007d6856200066b565b83018262000770565b50505b505050565b600082821c905092915050565b60006200080760001984600802620007e7565b1980831691505092915050565b6000620008228383620007f4565b9150826002028217905092915050565b6200083d82620005b8565b67ffffffffffffffff811115620008595762000858620005c3565b5b62000865825462000621565b6200087282828562000797565b600060209050601f831160018114620008aa576000841562000895578287015190505b620008a1858262000814565b86555062000911565b601f198416620008ba8662000656565b60005b82811015620008e457848901518255600182019150602085019450602081019050620008bd565b8683101562000904578489015162000900601f891682620007f4565b8355505b6001600288020188555050505b505050505050565b620009248162000541565b82525050565b600060208201905062000941600083018462000919565b92915050565b600082825260208201905092915050565b7f496e76616c696420615553444320616464726573730000000000000000000000600082015250565b60006200099060158362000947565b91506200099d8262000958565b602082019050919050565b60006020820190508181036000830152620009c38162000981565b9050919050565b600081519050919050565b600081905092915050565b60005b8381101562000a00578082015181840152602081019050620009e3565b60008484015250505050565b600062000a1982620009ca565b62000a258185620009d5565b935062000a37818560208601620009e0565b80840191505092915050565b600062000a51828462000a0c565b915081905092915050565b62000a6781620006de565b811462000a7357600080fd5b50565b60008151905062000a878162000a5c565b92915050565b60006020828403121562000aa65762000aa56200051c565b5b600062000ab68482850162000a76565b91505092915050565b60805160a05160c05161405662000b0f6000396000818161090b015281816110da015281816113390152818161186e01528181611ce301526121b30152600050506000610c7d01526140566000f3fe608060405234801561001057600080fd5b506004361061025e5760003560e01c80638937e6ce11610146578063b68ef559116100c3578063ce96cb7711610087578063ce96cb77146107fb578063d62169321461082b578063d905777e1461085b578063dd62ed3e1461088b578063ef8b30f7146108bb578063f2fde38b146108eb5761025e565b8063b68ef5591461071d578063ba0876521461073b578063c3fcab0f1461076b578063c63d75b61461079b578063c6e6f592146107cb5761025e565b80639f0f57971161010a5780639f0f57971461063f578063a9059cbb1461065d578063b3a42e1e1461068d578063b3d7f6b9146106bd578063b460af94146106ed5761025e565b80638937e6ce1461059b5780638da5cb5b146105b75780638e009b21146105d557806394bf804d146105f157806395d89b41146106215761025e565b8063313ce567116101df5780636b9c9dc8116101a35780636b9c9dc8146104b35780636e553f65146104e35780636ed71ede1461051357806370a0823114610531578063715018a61461056157806385cc4d591461056b5761025e565b8063313ce567146103f957806338d52e0f146104175780633b42fa6c14610435578063402d267d146104535780634cdad506146104835761025e565b80630a28a477116102265780630a28a4771461032f57806311c54b781461035f57806318160ddd1461038f57806323b872dd146103ad5780632c47ced7146103dd5761025e565b806301e1d1141461026357806306fdde031461028157806307a2d13a1461029f578063081f5b17146102cf578063095ea7b3146102ff575b600080fd5b61026b610907565b6040516102789190613213565b60405180910390f35b6102896109a8565b60405161029691906132be565b60405180910390f35b6102b960048036038101906102b49190613311565b610a3a565b6040516102c69190613213565b60405180910390f35b6102e960048036038101906102e4919061339c565b610a4e565b6040516102f69190613213565b60405180910390f35b610319600480360381019061031491906133c9565b610a66565b6040516103269190613424565b60405180910390f35b61034960048036038101906103449190613311565b610a89565b6040516103569190613213565b60405180910390f35b6103796004803603810190610374919061339c565b610ae8565b6040516103869190613213565b60405180910390f35b610397610b00565b6040516103a49190613213565b60405180910390f35b6103c760048036038101906103c2919061343f565b610b0a565b6040516103d49190613424565b60405180910390f35b6103f760048036038101906103f2919061339c565b610b39565b005b610401610c70565b60405161040e91906134ae565b60405180910390f35b61041f610c79565b60405161042c91906134d8565b60405180910390f35b61043d610ca1565b60405161044a91906134d8565b60405180910390f35b61046d6004803603810190610468919061339c565b610cc7565b60405161047a9190613213565b60405180910390f35b61049d60048036038101906104989190613311565b610cf1565b6040516104aa9190613213565b60405180910390f35b6104cd60048036038101906104c891906134f3565b610d2e565b6040516104da9190613213565b60405180910390f35b6104fd60048036038101906104f89190613546565b611279565b60405161050a9190613213565b60405180910390f35b61051b61154c565b604051610528919061359f565b60405180910390f35b61054b6004803603810190610546919061339c565b611552565b6040516105589190613213565b60405180910390f35b61056961159a565b005b6105856004803603810190610580919061339c565b6115ae565b6040516105929190613213565b60405180910390f35b6105b560048036038101906105b091906135e6565b6115c6565b005b6105bf61164d565b6040516105cc91906134d8565b60405180910390f35b6105ef60048036038101906105ea919061339c565b611677565b005b61060b60048036038101906106069190613546565b6117ae565b6040516106189190613213565b60405180910390f35b610629611a31565b60405161063691906132be565b60405180910390f35b610647611ac3565b60405161065491906134d8565b60405180910390f35b610677600480360381019061067291906133c9565b611ae9565b6040516106849190613424565b60405180910390f35b6106a760048036038101906106a2919061339c565b611b0c565b6040516106b49190613213565b60405180910390f35b6106d760048036038101906106d29190613311565b611b24565b6040516106e49190613213565b60405180910390f35b610707600480360381019061070291906134f3565b611b7d565b6040516107149190613213565b60405180910390f35b610725611e96565b6040516107329190613213565b60405180910390f35b610755600480360381019061075091906134f3565b611ea0565b6040516107629190613213565b60405180910390f35b6107856004803603810190610780919061339c565b612368565b6040516107929190613213565b60405180910390f35b6107b560048036038101906107b0919061339c565b6125c4565b6040516107c29190613213565b60405180910390f35b6107e560048036038101906107e09190613311565b6125ee565b6040516107f29190613213565b60405180910390f35b6108156004803603810190610810919061339c565b612602565b6040516108229190613213565b60405180910390f35b6108456004803603810190610840919061339c565b61261e565b6040516108529190613213565b60405180910390f35b6108756004803603810190610870919061339c565b612636565b6040516108829190613213565b60405180910390f35b6108a560048036038101906108a09190613613565b612648565b6040516108b29190613213565b60405180910390f35b6108d560048036038101906108d09190613311565b6126cf565b6040516108e29190613213565b60405180910390f35b6109056004803603810190610900919061339c565b612711565b005b60007f000000000000000000000000000000000000000000000000000000000000000073ffffffffffffffffffffffffffffffffffffffff166370a08231306040518263ffffffff1660e01b815260040161096291906134d8565b602060405180830381865afa15801561097f573d6000803e3d6000fd5b505050506040513d601f19601f820116820180604052508101906109a39190613668565b905090565b6060600380546109b7906136c4565b80601f01602080910402602001604051908101604052809291908181526020018280546109e3906136c4565b8015610a305780601f10610a0557610100808354040283529160200191610a30565b820191906000526020600020905b815481529060010190602001808311610a1357829003601f168201915b5050505050905090565b6000610a47826000612797565b9050919050565b600d6020528060005260406000206000915090505481565b600080610a716127f0565b9050610a7e8185856127f8565b600191505092915050565b600080610a94610907565b90506000610aa0610b00565b905060008114610add57816001838387610aba9190613724565b610ac49190613766565b610ace919061379a565b610ad891906137fd565b610adf565b835b92505050919050565b600c6020528060005260406000206000915090505481565b6000600254905090565b600080610b156127f0565b9050610b2285828561280a565b610b2d85858561289f565b60019150509392505050565b610b41612993565b600073ffffffffffffffffffffffffffffffffffffffff168173ffffffffffffffffffffffffffffffffffffffff1603610bb0576040517f08c379a0000000000000000000000000000000000000000000000000000000008152600401610ba79061387a565b60405180910390fd5b8073ffffffffffffffffffffffffffffffffffffffff16600860009054906101000a900473ffffffffffffffffffffffffffffffffffffffff1673ffffffffffffffffffffffffffffffffffffffff167f7fdf50bf6a36c7ac808214dcb5bd51e5d40ca8209ac08889ca8640d54953578c60405160405180910390a380600860006101000a81548173ffffffffffffffffffffffffffffffffffffffff021916908373ffffffffffffffffffffffffffffffffffffffff16021790555050565b60006006905090565b60007f0000000000000000000000000000000000000000000000000000000000000000905090565b600760009054906101000a900473ffffffffffffffffffffffffffffffffffffffff1681565b60007fffffffffffffffffffffffffffffffffffffffffffffffffffffffffffffffff9050919050565b600080610cfc610b00565b905060008114610d24578060065484610d159190613724565b610d1f91906137fd565b610d26565b825b915050919050565b6000808411610d72576040517f08c379a0000000000000000000000000000000000000000000000000000000008152600401610d69906138e6565b60405180910390fd5b600073ffffffffffffffffffffffffffffffffffffffff168373ffffffffffffffffffffffffffffffffffffffff1603610de1576040517f08c379a0000000000000000000000000000000000000000000000000000000008152600401610dd890613952565b60405180910390fd5b8173ffffffffffffffffffffffffffffffffffffffff163373ffffffffffffffffffffffffffffffffffffffff1614610e7d576000610e208333612648565b905084811015610e65576040517f08c379a0000000000000000000000000000000000000000000000000000000008152600401610e5c906139be565b60405180910390fd5b610e7b83338784610e76919061379a565b6127f8565b505b6000610e8885610cf1565b90506000600c60008573ffffffffffffffffffffffffffffffffffffffff1673ffffffffffffffffffffffffffffffffffffffff1681526020019081526020016000205490506000600a60008673ffffffffffffffffffffffffffffffffffffffff1673ffffffffffffffffffffffffffffffffffffffff1681526020019081526020016000205490506000838211610f2c578184610f27919061379a565b610f2f565b60005b905060008490506000848310158015610f485750600085115b15610fa3578486610f599190613766565b915084905080600e60008a73ffffffffffffffffffffffffffffffffffffffff1673ffffffffffffffffffffffffffffffffffffffff168152602001908152602001600020819055505b610fad888b612a1a565b85600a60008a73ffffffffffffffffffffffffffffffffffffffff1673ffffffffffffffffffffffffffffffffffffffff168152602001908152602001600020541061104e5785600a60008a73ffffffffffffffffffffffffffffffffffffffff1673ffffffffffffffffffffffffffffffffffffffff1681526020019081526020016000206000828254611042919061379a565b92505081905550611094565b6000600a60008a73ffffffffffffffffffffffffffffffffffffffff1673ffffffffffffffffffffffffffffffffffffffff168152602001908152602001600020819055505b82600b60008a73ffffffffffffffffffffffffffffffffffffffff1673ffffffffffffffffffffffffffffffffffffffff168152602001908152602001600020819055507f000000000000000000000000000000000000000000000000000000000000000073ffffffffffffffffffffffffffffffffffffffff1663a9059cbb8a846040518363ffffffff1660e01b81526004016111339291906139de565b6020604051808303816000875af1158015611152573d6000803e3d6000fd5b505050506040513d601f19601f820116820180604052508101906111769190613a33565b6111b5576040517f08c379a00000000000000000000000000000000000000000000000000000000081526004016111ac90613aac565b60405180910390fd5b85600660008282546111c7919061379a565b925050819055506000600c60008a73ffffffffffffffffffffffffffffffffffffffff1673ffffffffffffffffffffffffffffffffffffffff168152602001908152602001600020819055508773ffffffffffffffffffffffffffffffffffffffff167fe426508ab50368f658d0a08cb0535a854e25cb3024589294fcd3f93984047ae58a8c898786604051611261959493929190613acc565b60405180910390a28196505050505050509392505050565b60008083116112bd576040517f08c379a00000000000000000000000000000000000000000000000000000000081526004016112b490613b6b565b60405180910390fd5b600073ffffffffffffffffffffffffffffffffffffffff168273ffffffffffffffffffffffffffffffffffffffff160361132c576040517f08c379a000000000000000000000000000000000000000000000000000000000815260040161132390613952565b60405180910390fd5b611335836126cf565b90507f000000000000000000000000000000000000000000000000000000000000000073ffffffffffffffffffffffffffffffffffffffff166323b872dd3330866040518463ffffffff1660e01b815260040161139493929190613b8b565b6020604051808303816000875af11580156113b3573d6000803e3d6000fd5b505050506040513d601f19601f820116820180604052508101906113d79190613a33565b611416576040517f08c379a000000000000000000000000000000000000000000000000000000000815260040161140d90613aac565b60405180910390fd5b82600660008282546114289190613766565b9250508190555082600a60008473ffffffffffffffffffffffffffffffffffffffff1673ffffffffffffffffffffffffffffffffffffffff168152602001908152602001600020600082825461147e9190613766565b9250508190555061148f8282612a9c565b8173ffffffffffffffffffffffffffffffffffffffff167f73a19dd210f1a7f902193214c0ee91dd35ee5b4d920cba8d519eca65a7b488ca84836040516114d7929190613bc2565b60405180910390a28173ffffffffffffffffffffffffffffffffffffffff163373ffffffffffffffffffffffffffffffffffffffff167fdcbc1c05240f31ff3ad067ef1ee35ce4997762752e3a095284754544f4c709d7858460405161153e929190613bc2565b60405180910390a392915050565b60095481565b60008060008373ffffffffffffffffffffffffffffffffffffffff1673ffffffffffffffffffffffffffffffffffffffff168152602001908152602001600020549050919050565b6115a2612993565b6115ac6000612b1e565b565b600b6020528060005260406000206000915090505481565b6115ce612993565b6000801b8103611613576040517f08c379a000000000000000000000000000000000000000000000000000000000815260040161160a90613c37565b60405180910390fd5b806009547ff02e7948a555a0714ae90b9dd270e8a0a41a8398c4b00f94b3871ed848745e6e60405160405180910390a38060098190555050565b6000600560009054906101000a900473ffffffffffffffffffffffffffffffffffffffff16905090565b61167f612993565b600073ffffffffffffffffffffffffffffffffffffffff168173ffffffffffffffffffffffffffffffffffffffff16036116ee576040517f08c379a00000000000000000000000000000000000000000000000000000000081526004016116e59061387a565b60405180910390fd5b8073ffffffffffffffffffffffffffffffffffffffff16600760009054906101000a900473ffffffffffffffffffffffffffffffffffffffff1673ffffffffffffffffffffffffffffffffffffffff167f4751d9c3a861a2452b8c9d9e92df486b8f15d339adc9337b6935e3278d93500560405160405180910390a380600760006101000a81548173ffffffffffffffffffffffffffffffffffffffff021916908373ffffffffffffffffffffffffffffffffffffffff16021790555050565b60008083116117f2576040517f08c379a00000000000000000000000000000000000000000000000000000000081526004016117e990613ca3565b60405180910390fd5b600073ffffffffffffffffffffffffffffffffffffffff168273ffffffffffffffffffffffffffffffffffffffff1603611861576040517f08c379a000000000000000000000000000000000000000000000000000000000815260040161185890613952565b60405180910390fd5b61186a83611b24565b90507f000000000000000000000000000000000000000000000000000000000000000073ffffffffffffffffffffffffffffffffffffffff166323b872dd3330846040518463ffffffff1660e01b81526004016118c993929190613b8b565b6020604051808303816000875af11580156118e8573d6000803e3d6000fd5b505050506040513d601f19601f8201168201806040525081019061190c9190613a33565b61194b576040517f08c379a000000000000000000000000000000000000000000000000000000000815260040161194290613aac565b60405180910390fd5b806006600082825461195d9190613766565b9250508190555080600a60008473ffffffffffffffffffffffffffffffffffffffff1673ffffffffffffffffffffffffffffffffffffffff16815260200190815260200160002060008282546119b39190613766565b925050819055506119c48284612a9c565b8173ffffffffffffffffffffffffffffffffffffffff163373ffffffffffffffffffffffffffffffffffffffff167fdcbc1c05240f31ff3ad067ef1ee35ce4997762752e3a095284754544f4c709d78386604051611a23929190613bc2565b60405180910390a392915050565b606060048054611a40906136c4565b80601f0160208091040260200160405190810160405280929190818152602001828054611a6c906136c4565b8015611ab95780601f10611a8e57610100808354040283529160200191611ab9565b820191906000526020600020905b815481529060010190602001808311611a9c57829003601f168201915b5050505050905090565b600860009054906101000a900473ffffffffffffffffffffffffffffffffffffffff1681565b600080611af46127f0565b9050611b0181858561289f565b600191505092915050565b600a6020528060005260406000206000915090505481565b600080611b2f610b00565b905060008114611b735780600182611b45610907565b86611b509190613724565b611b5a9190613766565b611b64919061379a565b611b6e91906137fd565b611b75565b825b915050919050565b6000808411611bc1576040517f08c379a0000000000000000000000000000000000000000000000000000000008152600401611bb890613d0f565b60405180910390fd5b600073ffffffffffffffffffffffffffffffffffffffff168373ffffffffffffffffffffffffffffffffffffffff1603611c30576040517f08c379a0000000000000000000000000000000000000000000000000000000008152600401611c2790613952565b60405180910390fd5b611c3984610a89565b90508173ffffffffffffffffffffffffffffffffffffffff163373ffffffffffffffffffffffffffffffffffffffff1614611cd7576000611c7a8333612648565b905081811015611cbf576040517f08c379a0000000000000000000000000000000000000000000000000000000008152600401611cb6906139be565b60405180910390fd5b611cd583338484611cd0919061379a565b6127f8565b505b611ce18282612a1a565b7f000000000000000000000000000000000000000000000000000000000000000073ffffffffffffffffffffffffffffffffffffffff1663a9059cbb84866040518363ffffffff1660e01b8152600401611d3c9291906139de565b6020604051808303816000875af1158015611d5b573d6000803e3d6000fd5b505050506040513d601f19601f82011682018060405250810190611d7f9190613a33565b611dbe576040517f08c379a0000000000000000000000000000000000000000000000000000000008152600401611db590613aac565b60405180910390fd5b8173ffffffffffffffffffffffffffffffffffffffff167f75e161b3e824b114fc1a33274bd7091918dd4e639cede50b78b15a4eea956a2185836000604051611e0993929190613d74565b60405180910390a28173ffffffffffffffffffffffffffffffffffffffff168373ffffffffffffffffffffffffffffffffffffffff163373ffffffffffffffffffffffffffffffffffffffff167ffbde797d201c681b91056529119e0b02407c7bb96a4a2c75c01fc9667232c8db8785604051611e87929190613bc2565b60405180910390a49392505050565b6000600654905090565b6000808411611ee4576040517f08c379a0000000000000000000000000000000000000000000000000000000008152600401611edb906138e6565b60405180910390fd5b600073ffffffffffffffffffffffffffffffffffffffff168373ffffffffffffffffffffffffffffffffffffffff1603611f53576040517f08c379a0000000000000000000000000000000000000000000000000000000008152600401611f4a90613952565b60405180910390fd5b611f5c84610cf1565b90508173ffffffffffffffffffffffffffffffffffffffff163373ffffffffffffffffffffffffffffffffffffffff1614611ffa576000611f9d8333612648565b905084811015611fe2576040517f08c379a0000000000000000000000000000000000000000000000000000000008152600401611fd9906139be565b60405180910390fd5b611ff883338784611ff3919061379a565b6127f8565b505b6120048285612a1a565b8060066000828254612016919061379a565b9250508190555060008190506000600a60008573ffffffffffffffffffffffffffffffffffffffff1673ffffffffffffffffffffffffffffffffffffffff16815260200190815260200160002054905060008282101561208157818361207c919061379a565b612084565b60005b905082600a60008773ffffffffffffffffffffffffffffffffffffffff1673ffffffffffffffffffffffffffffffffffffffff16815260200190815260200160002054106121275782600a60008773ffffffffffffffffffffffffffffffffffffffff1673ffffffffffffffffffffffffffffffffffffffff168152602001908152602001600020600082825461211b919061379a565b9250508190555061216d565b6000600a60008773ffffffffffffffffffffffffffffffffffffffff1673ffffffffffffffffffffffffffffffffffffffff168152602001908152602001600020819055505b80600b60008773ffffffffffffffffffffffffffffffffffffffff1673ffffffffffffffffffffffffffffffffffffffff168152602001908152602001600020819055507f000000000000000000000000000000000000000000000000000000000000000073ffffffffffffffffffffffffffffffffffffffff1663a9059cbb87866040518363ffffffff1660e01b815260040161220c9291906139de565b6020604051808303816000875af115801561222b573d6000803e3d6000fd5b505050506040513d601f19601f8201168201806040525081019061224f9190613a33565b61228e576040517f08c379a000000000000000000000000000000000000000000000000000000000815260040161228590613aac565b60405180910390fd5b8473ffffffffffffffffffffffffffffffffffffffff167f75e161b3e824b114fc1a33274bd7091918dd4e639cede50b78b15a4eea956a218589846040516122d893929190613dab565b60405180910390a28473ffffffffffffffffffffffffffffffffffffffff168673ffffffffffffffffffffffffffffffffffffffff163373ffffffffffffffffffffffffffffffffffffffff167ffbde797d201c681b91056529119e0b02407c7bb96a4a2c75c01fc9667232c8db878b604051612356929190613bc2565b60405180910390a45050509392505050565b600080600760009054906101000a900473ffffffffffffffffffffffffffffffffffffffff1673ffffffffffffffffffffffffffffffffffffffff16633859a1a2600954856040518363ffffffff1660e01b81526004016123ca929190613de2565b602060405180830381865afa1580156123e7573d6000803e3d6000fd5b505050506040513d601f19601f8201168201806040525081019061240b9190613668565b905080600d60008573ffffffffffffffffffffffffffffffffffffffff1673ffffffffffffffffffffffffffffffffffffffff16815260200190815260200160002081905550600081036124635760009150506125bf565b6000600860009054906101000a900473ffffffffffffffffffffffffffffffffffffffff1673ffffffffffffffffffffffffffffffffffffffff1663a035b1fe6040518163ffffffff1660e01b8152600401602060405180830381865afa1580156124d2573d6000803e3d6000fd5b505050506040513d601f19601f820116820180604052508101906124f69190613668565b90506000816ec097ce7bc90715b34b9f1000000000846125169190613724565b61252091906137fd565b905080600c60008773ffffffffffffffffffffffffffffffffffffffff1673ffffffffffffffffffffffffffffffffffffffff168152602001908152602001600020819055508473ffffffffffffffffffffffffffffffffffffffff167f7676685c2d67543a185b43881a7b8432f7e03286ea751d2ad6c14462ebd4115b8484846040516125b093929190613dab565b60405180910390a28093505050505b919050565b60007fffffffffffffffffffffffffffffffffffffffffffffffffffffffffffffffff9050919050565b60006125fb826000612be4565b9050919050565b600061261761261083611552565b6000612797565b9050919050565b600e6020528060005260406000206000915090505481565b600061264182611552565b9050919050565b6000600160008473ffffffffffffffffffffffffffffffffffffffff1673ffffffffffffffffffffffffffffffffffffffff16815260200190815260200160002060008373ffffffffffffffffffffffffffffffffffffffff1673ffffffffffffffffffffffffffffffffffffffff16815260200190815260200160002054905092915050565b6000806126da610b00565b905060008114612707576126ec610907565b81846126f89190613724565b61270291906137fd565b612709565b825b915050919050565b612719612993565b600073ffffffffffffffffffffffffffffffffffffffff168173ffffffffffffffffffffffffffffffffffffffff160361278b5760006040517f1e4fbdf700000000000000000000000000000000000000000000000000000000815260040161278291906134d8565b60405180910390fd5b61279481612b1e565b50565b60006127e860016127a6610907565b6127b09190613766565b6127b8612c3d565b600a6127c49190613f3e565b6127cc610b00565b6127d69190613766565b8486612c42909392919063ffffffff16565b905092915050565b600033905090565b6128058383836001612c91565b505050565b60006128168484612648565b90507fffffffffffffffffffffffffffffffffffffffffffffffffffffffffffffffff8110156128995781811015612889578281836040517ffb8f41b200000000000000000000000000000000000000000000000000000000815260040161288093929190613f89565b60405180910390fd5b61289884848484036000612c91565b5b50505050565b600073ffffffffffffffffffffffffffffffffffffffff168373ffffffffffffffffffffffffffffffffffffffff16036129115760006040517f96c6fd1e00000000000000000000000000000000000000000000000000000000815260040161290891906134d8565b60405180910390fd5b600073ffffffffffffffffffffffffffffffffffffffff168273ffffffffffffffffffffffffffffffffffffffff16036129835760006040517fec442f0500000000000000000000000000000000000000000000000000000000815260040161297a91906134d8565b60405180910390fd5b61298e838383612e68565b505050565b61299b6127f0565b73ffffffffffffffffffffffffffffffffffffffff166129b961164d565b73ffffffffffffffffffffffffffffffffffffffff1614612a18576129dc6127f0565b6040517f118cdaa7000000000000000000000000000000000000000000000000000000008152600401612a0f91906134d8565b60405180910390fd5b565b600073ffffffffffffffffffffffffffffffffffffffff168273ffffffffffffffffffffffffffffffffffffffff1603612a8c5760006040517f96c6fd1e000000000000000000000000000000000000000000000000000000008152600401612a8391906134d8565b60405180910390fd5b612a9882600083612e68565b5050565b600073ffffffffffffffffffffffffffffffffffffffff168273ffffffffffffffffffffffffffffffffffffffff1603612b0e5760006040517fec442f05000000000000000000000000000000000000000000000000000000008152600401612b0591906134d8565b60405180910390fd5b612b1a60008383612e68565b5050565b6000600560009054906101000a900473ffffffffffffffffffffffffffffffffffffffff16905081600560006101000a81548173ffffffffffffffffffffffffffffffffffffffff021916908373ffffffffffffffffffffffffffffffffffffffff1602179055508173ffffffffffffffffffffffffffffffffffffffff168173ffffffffffffffffffffffffffffffffffffffff167f8be0079c531659141344cd1fd0a4f28419497f9722a3daafe3b4186f6b6457e060405160405180910390a35050565b6000612c35612bf1612c3d565b600a612bfd9190613f3e565b612c05610b00565b612c0f9190613766565b6001612c19610907565b612c239190613766565b8486612c42909392919063ffffffff16565b905092915050565b600090565b6000612c72612c508361308d565b8015612c6d575060008480612c6857612c676137ce565b5b868809115b6130bb565b612c7d8686866130c7565b612c879190613766565b9050949350505050565b600073ffffffffffffffffffffffffffffffffffffffff168473ffffffffffffffffffffffffffffffffffffffff1603612d035760006040517fe602df05000000000000000000000000000000000000000000000000000000008152600401612cfa91906134d8565b60405180910390fd5b600073ffffffffffffffffffffffffffffffffffffffff168373ffffffffffffffffffffffffffffffffffffffff1603612d755760006040517f94280d62000000000000000000000000000000000000000000000000000000008152600401612d6c91906134d8565b60405180910390fd5b81600160008673ffffffffffffffffffffffffffffffffffffffff1673ffffffffffffffffffffffffffffffffffffffff16815260200190815260200160002060008573ffffffffffffffffffffffffffffffffffffffff1673ffffffffffffffffffffffffffffffffffffffff168152602001908152602001600020819055508015612e62578273ffffffffffffffffffffffffffffffffffffffff168473ffffffffffffffffffffffffffffffffffffffff167f8c5be1e5ebec7d5bd14f71427d1e84f3dd0314c0f7b2291e5b200ac8c7c3b92584604051612e599190613213565b60405180910390a35b50505050565b600073ffffffffffffffffffffffffffffffffffffffff168373ffffffffffffffffffffffffffffffffffffffff1603612eba578060026000828254612eae9190613766565b92505081905550612f8d565b60008060008573ffffffffffffffffffffffffffffffffffffffff1673ffffffffffffffffffffffffffffffffffffffff16815260200190815260200160002054905081811015612f46578381836040517fe450d38c000000000000000000000000000000000000000000000000000000008152600401612f3d93929190613f89565b60405180910390fd5b8181036000808673ffffffffffffffffffffffffffffffffffffffff1673ffffffffffffffffffffffffffffffffffffffff16815260200190815260200160002081905550505b600073ffffffffffffffffffffffffffffffffffffffff168273ffffffffffffffffffffffffffffffffffffffff1603612fd65780600260008282540392505081905550613023565b806000808473ffffffffffffffffffffffffffffffffffffffff1673ffffffffffffffffffffffffffffffffffffffff168152602001908152602001600020600082825401925050819055505b8173ffffffffffffffffffffffffffffffffffffffff168373ffffffffffffffffffffffffffffffffffffffff167fddf252ad1be2c89b69c2b068fc378daa952ba7f163c4a11628f55a4df523b3ef836040516130809190613213565b60405180910390a3505050565b6000600160028360038111156130a6576130a5613fc0565b5b6130b09190613fef565b60ff16149050919050565b60008115159050919050565b60008060006130d686866131af565b91509150600082036130fc578381816130f2576130f16137ce565b5b04925050506131a8565b81841161311c5761311b61311660008614601260116131ce565b6131e8565b5b600084868809905081811183039250808203915060008560000386169050808604955080830492506001818260000304019050808402831792506000600287600302189050808702600203810290508087026002038102905080870260020381029050808702600203810290508087026002038102905080870260020381029050808402955050505050505b9392505050565b6000806000198385098385029150818110828203039250509250929050565b60006131d9846130bb565b82841802821890509392505050565b634e487b71600052806020526024601cfd5b6000819050919050565b61320d816131fa565b82525050565b60006020820190506132286000830184613204565b92915050565b600081519050919050565b600082825260208201905092915050565b60005b8381101561326857808201518184015260208101905061324d565b60008484015250505050565b6000601f19601f8301169050919050565b60006132908261322e565b61329a8185613239565b93506132aa81856020860161324a565b6132b381613274565b840191505092915050565b600060208201905081810360008301526132d88184613285565b905092915050565b600080fd5b6132ee816131fa565b81146132f957600080fd5b50565b60008135905061330b816132e5565b92915050565b600060208284031215613327576133266132e0565b5b6000613335848285016132fc565b91505092915050565b600073ffffffffffffffffffffffffffffffffffffffff82169050919050565b60006133698261333e565b9050919050565b6133798161335e565b811461338457600080fd5b50565b60008135905061339681613370565b92915050565b6000602082840312156133b2576133b16132e0565b5b60006133c084828501613387565b91505092915050565b600080604083850312156133e0576133df6132e0565b5b60006133ee85828601613387565b92505060206133ff858286016132fc565b9150509250929050565b60008115159050919050565b61341e81613409565b82525050565b60006020820190506134396000830184613415565b92915050565b600080600060608486031215613458576134576132e0565b5b600061346686828701613387565b935050602061347786828701613387565b9250506040613488868287016132fc565b9150509250925092565b600060ff82169050919050565b6134a881613492565b82525050565b60006020820190506134c3600083018461349f565b92915050565b6134d28161335e565b82525050565b60006020820190506134ed60008301846134c9565b92915050565b60008060006060848603121561350c5761350b6132e0565b5b600061351a868287016132fc565b935050602061352b86828701613387565b925050604061353c86828701613387565b9150509250925092565b6000806040838503121561355d5761355c6132e0565b5b600061356b858286016132fc565b925050602061357c85828601613387565b9150509250929050565b6000819050919050565b61359981613586565b82525050565b60006020820190506135b46000830184613590565b92915050565b6135c381613586565b81146135ce57600080fd5b50565b6000813590506135e0816135ba565b92915050565b6000602082840312156135fc576135fb6132e0565b5b600061360a848285016135d1565b91505092915050565b6000806040838503121561362a576136296132e0565b5b600061363885828601613387565b925050602061364985828601613387565b9150509250929050565b600081519050613662816132e5565b92915050565b60006020828403121561367e5761367d6132e0565b5b600061368c84828501613653565b91505092915050565b7f4e487b7100000000000000000000000000000000000000000000000000000000600052602260045260246000fd5b600060028204905060018216806136dc57607f821691505b6020821081036136ef576136ee613695565b5b50919050565b7f4e487b7100000000000000000000000000000000000000000000000000000000600052601160045260246000fd5b600061372f826131fa565b915061373a836131fa565b9250828202613748816131fa565b9150828204841483151761375f5761375e6136f5565b5b5092915050565b6000613771826131fa565b915061377c836131fa565b9250828201905080821115613794576137936136f5565b5b92915050565b60006137a5826131fa565b91506137b0836131fa565b92508282039050818111156137c8576137c76136f5565b5b92915050565b7f4e487b7100000000000000000000000000000000000000000000000000000000600052601260045260246000fd5b6000613808826131fa565b9150613813836131fa565b925082613823576138226137ce565b5b828204905092915050565b7f496e76616c696420616464726573730000000000000000000000000000000000600082015250565b6000613864600f83613239565b915061386f8261382e565b602082019050919050565b6000602082019050818103600083015261389381613857565b9050919050565b7f43616e6e6f742072656465656d207a65726f0000000000000000000000000000600082015250565b60006138d0601283613239565b91506138db8261389a565b602082019050919050565b600060208201905081810360008301526138ff816138c3565b9050919050565b7f496e76616c696420726563656976657200000000000000000000000000000000600082015250565b600061393c601083613239565b915061394782613906565b602082019050919050565b6000602082019050818103600083015261396b8161392f565b9050919050565b7f496e73756666696369656e7420616c6c6f77616e636500000000000000000000600082015250565b60006139a8601683613239565b91506139b382613972565b602082019050919050565b600060208201905081810360008301526139d78161399b565b9050919050565b60006040820190506139f360008301856134c9565b613a006020830184613204565b9392505050565b613a1081613409565b8114613a1b57600080fd5b50565b600081519050613a2d81613a07565b92915050565b600060208284031215613a4957613a486132e0565b5b6000613a5784828501613a1e565b91505092915050565b7f5472616e73666572206661696c65640000000000000000000000000000000000600082015250565b6000613a96600f83613239565b9150613aa182613a60565b602082019050919050565b60006020820190508181036000830152613ac581613a89565b9050919050565b600060a082019050613ae160008301886134c9565b613aee6020830187613204565b613afb6040830186613204565b613b086060830185613204565b613b156080830184613204565b9695505050505050565b7f43616e6e6f74206465706f736974207a65726f00000000000000000000000000600082015250565b6000613b55601383613239565b9150613b6082613b1f565b602082019050919050565b60006020820190508181036000830152613b8481613b48565b9050919050565b6000606082019050613ba060008301866134c9565b613bad60208301856134c9565b613bba6040830184613204565b949350505050565b6000604082019050613bd76000830185613204565b613be46020830184613204565b9392505050565b7f496e76616c6964206d61726b6574496400000000000000000000000000000000600082015250565b6000613c21601083613239565b9150613c2c82613beb565b602082019050919050565b60006020820190508181036000830152613c5081613c14565b9050919050565b7f43616e6e6f74206d696e74207a65726f00000000000000000000000000000000600082015250565b6000613c8d601083613239565b9150613c9882613c57565b602082019050919050565b60006020820190508181036000830152613cbc81613c80565b9050919050565b7f43616e6e6f74207769746864726177207a65726f000000000000000000000000600082015250565b6000613cf9601483613239565b9150613d0482613cc3565b602082019050919050565b60006020820190508181036000830152613d2881613cec565b9050919050565b6000819050919050565b6000819050919050565b6000613d5e613d59613d5484613d2f565b613d39565b6131fa565b9050919050565b613d6e81613d43565b82525050565b6000606082019050613d896000830186613204565b613d966020830185613204565b613da36040830184613d65565b949350505050565b6000606082019050613dc06000830186613204565b613dcd6020830185613204565b613dda6040830184613204565b949350505050565b6000604082019050613df76000830185613590565b613e0460208301846134c9565b9392505050565b60008160011c9050919050565b6000808291508390505b6001851115613e6257808604811115613e3e57613e3d6136f5565b5b6001851615613e4d5780820291505b8081029050613e5b85613e0b565b9450613e22565b94509492505050565b600082613e7b5760019050613f37565b81613e895760009050613f37565b8160018114613e9f5760028114613ea957613ed8565b6001915050613f37565b60ff841115613ebb57613eba6136f5565b5b8360020a915084821115613ed257613ed16136f5565b5b50613f37565b5060208310610133831016604e8410600b8410161715613f0d5782820a905083811115613f0857613f076136f5565b5b613f37565b613f1a8484846001613e18565b92509050818404811115613f3157613f306136f5565b5b81810290505b9392505050565b6000613f49826131fa565b9150613f5483613492565b9250613f817fffffffffffffffffffffffffffffffffffffffffffffffffffffffffffffffff8484613e6b565b905092915050565b6000606082019050613f9e60008301866134c9565b613fab6020830185613204565b613fb86040830184613204565b949350505050565b7f4e487b7100000000000000000000000000000000000000000000000000000000600052602160045260246000fd5b6000613ffa82613492565b915061400583613492565b925082614015576140146137ce565b5b82820690509291505056fea26469706673582212206b0877d3eebc7c7d69cdf1bb25ae29eac9dc28ec299b035d0996d1a7e4584e1964736f6c63430008140033",
  "linkReferences": {},
  "deployedLinkReferences": {}
}