{
  "_format": "hh-sol-artifact-1",
  "contractName": "MockDebtLens",
  "sourceName": "contracts/MockDebtLens.sol",
  "abi": [
    {
      "inputs": [
        {
          "internalType": "bytes32",
          "name": "marketId",
          "type": "bytes32"
        },
        {
          "internalType": "address",
          "name": "user",
          "type": "address"
        }
      ],
      "name": "getAccruedInterest",
      "outputs": [
        {
          "internalType": "uint256",
          "name": "",
          "type": "uint256"
        }
      ],
      "stateMutability": "view",
      "type": "function"
    },
    {
      "inputs": [
        {
          "internalType": "bytes32",
          "name": "",
          "type": "bytes32"
        },
        {
          "internalType": "address",
          "name": "",
          "type": "address"
        }
      ],
      "name": "interest",
      "outputs": [
        {
          "internalType": "uint256",
          "name": "",
          "type": "uint256"
        }
      ],
      "stateMutability": "view",
      "type": "function"
    },
    {
      "inputs": [
        {
          "internalType": "bytes32",
          "name": "marketId",
          "type": "bytes32"
        },
        {
          "internalType": "address",
          "name": "user",
          "type": "address"
        },
        {
          "internalType": "uint256",
          "name": "amount",
          "type": "uint256"
        }
      ],
      "name": "setAccruedInterest",
      "outputs": [],
      "stateMutability": "nonpayable",
      "type": "function"
    }
  ],
  "bytecode": "0x608060405234801561001057600080fd5b5061035c806100206000396000f3fe608060405234801561001057600080fd5b50600436106100415760003560e01c80631e753f71146100465780633859a1a2146100765780637f2d4544146100a6575b600080fd5b610060600480360381019061005b9190610233565b6100c2565b60405161006d919061028c565b60405180910390f35b610090600480360381019061008b9190610233565b6100e7565b60405161009d919061028c565b60405180910390f35b6100c060048036038101906100bb91906102d3565b610141565b005b6000602052816000526040600020602052806000526040600020600091509150505481565b600080600084815260200190815260200160002060008373ffffffffffffffffffffffffffffffffffffffff1673ffffffffffffffffffffffffffffffffffffffff16815260200190815260200160002054905092915050565b8060008085815260200190815260200160002060008473ffffffffffffffffffffffffffffffffffffffff1673ffffffffffffffffffffffffffffffffffffffff16815260200190815260200160002081905550505050565b600080fd5b6000819050919050565b6101b28161019f565b81146101bd57600080fd5b50565b6000813590506101cf816101a9565b92915050565b600073ffffffffffffffffffffffffffffffffffffffff82169050919050565b6000610200826101d5565b9050919050565b610210816101f5565b811461021b57600080fd5b50565b60008135905061022d81610207565b92915050565b6000806040838503121561024a5761024961019a565b5b6000610258858286016101c0565b92505060206102698582860161021e565b9150509250929050565b6000819050919050565b61028681610273565b82525050565b60006020820190506102a1600083018461027d565b92915050565b6102b081610273565b81146102bb57600080fd5b50565b6000813590506102cd816102a7565b92915050565b6000806000606084860312156102ec576102eb61019a565b5b60006102fa868287016101c0565b935050602061030b8682870161021e565b925050604061031c868287016102be565b915050925092509256fea2646970667358221220720ce109091550e2436cfc60f1261a3e718547109b275f6baab04a8d590c73ed64736f6c63430008140033",
  "linkReferences": {},
  "deployedLinkReferences": {}
}