{
  "_format": "hh-sol-artifact-1",
  "contractName": "WmusdcMxnbOracle",
  "sourceName": "contracts/WmusdcMxnbOracle.sol",
  "abi": [
    {
      "inputs": [],
      "name": "price",
      "outputs": [
        {
          "internalType": "uint256",
          "name": "",
          "type": "uint256"
        }
      ],
      "stateMutability": "pure",
      "type": "function"
    },
    {
      "inputs": [],
      "name": "priceView",
      "outputs": [
        {
          "internalType": "uint256",
          "name": "",
          "type": "uint256"
        }
      ],
      "stateMutability": "pure",
      "type": "function"
    }
  ],
  "bytecode": "0x608060405234801561001057600080fd5b5060f78061001f6000396000f3fe6080604052348015600f57600080fd5b506004361060325760003560e01c8063172e1e52146037578063a035b1fe146051575b600080fd5b603d606b565b6040516048919060a8565b60405180910390f35b6057607e565b6040516062919060a8565b60405180910390f35b60006a0e0fe3d8bb9bc7b1000000905090565b60006a0e0fe3d8bb9bc7b1000000905090565b6000819050919050565b60a2816091565b82525050565b600060208201905060bb6000830184609b565b9291505056fea264697066735822122008b12b9fa19b0cfac53f18c5c348b9967aced56a0fd44a5f11ceb282533661ee64736f6c63430008140033",
  "linkReferences": {},
  "deployedLinkReferences": {}
}