{
  "_format": "hh-sol-artifact-1",
  "contractName": "SmartWrapper",
  "sourceName": "contracts/WmUSDC.sol",
  "abi": [
    {
      "inputs": [
        {
          "internalType": "address",
          "name": "vaultUSDC_",
          "type": "address"
        }
      ],
      "stateMutability": "nonpayable",
      "type": "constructor"
    },
    {
      "inputs": [
        {
          "internalType": "address",
          "name": "spender",
          "type": "address"
        },
        {
          "internalType": "uint256",
          "name": "allowance",
          "type": "uint256"
        },
        {
          "internalType": "uint256",
          "name": "needed",
          "type": "uint256"
        }
      ],
      "name": "ERC20InsufficientAllowance",
      "type": "error"
    },
    {
      "inputs": [
        {
          "internalType": "address",
          "name": "sender",
          "type": "address"
        },
        {
          "internalType": "uint256",
          "name": "balance",
          "type": "uint256"
        },
        {
          "internalType": "uint256",
          "name": "needed",
          "type": "uint256"
        }
      ],
      "name": "ERC20InsufficientBalance",
      "type": "error"
    },
    {
      "inputs": [
        {
          "internalType": "address",
          "name": "approver",
          "type": "address"
        }
      ],
      "name": "ERC20InvalidApprover",
      "type": "error"
    },
    {
      "inputs": [
        {
          "internalType": "address",
          "name": "receiver",
          "type": "address"
        }
      ],
      "name": "ERC20InvalidReceiver",
      "type": "error"
    },
    {
      "inputs": [
        {
          "internalType": "address",
          "name": "sender",
          "type": "address"
        }
      ],
      "name": "ERC20InvalidSender",
      "type": "error"
    },
    {
      "inputs": [
        {
          "internalType": "address",
          "name": "spender",
          "type": "address"
        }
      ],
      "name": "ERC20InvalidSpender",
      "type": "error"
    },
    {
      "inputs": [
        {
          "internalType": "address",
          "name": "receiver",
          "type": "address"
        },
        {
          "internalType": "uint256",
          "name": "assets",
          "type": "uint256"
        },
        {
          "internalType": "uint256",
          "name": "max",
          "type": "uint256"
        }
      ],
      "name": "ERC4626ExceededMaxDeposit",
      "type": "error"
    },
    {
      "inputs": [
        {
          "internalType": "address",
          "name": "receiver",
          "type": "address"
        },
        {
          "internalType": "uint256",
          "name": "shares",
          "type": "uint256"
        },
        {
          "internalType": "uint256",
          "name": "max",
          "type": "uint256"
        }
      ],
      "name": "ERC4626ExceededMaxMint",
      "type": "error"
    },
    {
      "inputs": [
        {
          "internalType": "address",
          "name": "owner",
          "type": "address"
        },
        {
          "internalType": "uint256",
          "name": "shares",
          "type": "uint256"
        },
        {
          "internalType": "uint256",
          "name": "max",
          "type": "uint256"
        }
      ],
      "name": "ERC4626ExceededMaxRedeem",
      "type": "error"
    },
    {
      "inputs": [
        {
          "internalType": "address",
          "name": "owner",
          "type": "address"
        },
        {
          "internalType": "uint256",
          "name": "assets",
          "type": "uint256"
        },
        {
          "internalType": "uint256",
          "name": "max",
          "type": "uint256"
        }
      ],
      "name": "ERC4626ExceededMaxWithdraw",
      "type": "error"
    },
    {
      "inputs": [
        {
          "internalType": "address",
          "name": "owner",
          "type": "address"
        }
      ],
      "name": "OwnableInvalidOwner",
      "type": "error"
    },
    {
      "inputs": [
        {
          "internalType": "address",
          "name": "account",
          "type": "address"
        }
      ],
      "name": "OwnableUnauthorizedAccount",
      "type": "error"
    },
    {
      "anonymous": false,
      "inputs": [
        {
          "indexed": true,
          "internalType": "address",
          "name": "owner",
          "type": "address"
        },
        {
          "indexed": true,
          "internalType": "address",
          "name": "spender",
          "type": "address"
        },
        {
          "indexed": false,
          "internalType": "uint256",
          "name": "value",
          "type": "uint256"
        }
      ],
      "name": "Approval",
      "type": "event"
    },
    {
      "anonymous": false,
      "inputs": [
        {
          "indexed": true,
          "internalType": "address",
          "name": "sender",
          "type": "address"
        },
        {
          "indexed": true,
          "internalType": "address",
          "name": "owner",
          "type": "address"
        },
        {
          "indexed": false,
          "internalType": "uint256",
          "name": "assets",
          "type": "uint256"
        },
        {
          "indexed": false,
          "internalType": "uint256",
          "name": "shares",
          "type": "uint256"
        }
      ],
      "name": "Deposit",
      "type": "event"
    },
    {
      "anonymous": false,
      "inputs": [
        {
          "indexed": true,
          "internalType": "address",
          "name": "user",
          "type": "address"
        },
        {
          "indexed": false,
          "internalType": "uint256",
          "name": "assets",
          "type": "uint256"
        },
        {
          "indexed": false,
          "internalType": "uint256",
          "name": "shares",
          "type": "uint256"
        }
      ],
      "name": "Deposited",
      "type": "event"
    },
    {
      "anonymous": false,
      "inputs": [
        {
          "indexed": true,
          "internalType": "address",
          "name": "previousOwner",
          "type": "address"
        },
        {
          "indexed": true,
          "internalType": "address",
          "name": "newOwner",
          "type": "address"
        }
      ],
      "name": "OwnershipTransferred",
      "type": "event"
    },
    {
      "anonymous": false,
      "inputs": [
        {
          "indexed": true,
          "internalType": "address",
          "name": "from",
          "type": "address"
        },
        {
          "indexed": true,
          "internalType": "address",
          "name": "to",
          "type": "address"
        },
        {
          "indexed": false,
          "internalType": "uint256",
          "name": "value",
          "type": "uint256"
        }
      ],
      "name": "Transfer",
      "type": "event"
    },
    {
      "anonymous": false,
      "inputs": [
        {
          "indexed": true,
          "internalType": "address",
          "name": "sender",
          "type": "address"
        },
        {
          "indexed": true,
          "internalType": "address",
          "name": "receiver",
          "type": "address"
        },
        {
          "indexed": true,
          "internalType": "address",
          "name": "owner",
          "type": "address"
        },
        {
          "indexed": false,
          "internalType": "uint256",
          "name": "assets",
          "type": "uint256"
        },
        {
          "indexed": false,
          "internalType": "uint256",
          "name": "shares",
          "type": "uint256"
        }
      ],
      "name": "Withdraw",
      "type": "event"
    },
    {
      "anonymous": false,
      "inputs": [
        {
          "indexed": true,
          "internalType": "address",
          "name": "user",
          "type": "address"
        },
        {
          "indexed": false,
          "internalType": "uint256",
          "name": "assets",
          "type": "uint256"
        },
        {
          "indexed": false,
          "internalType": "uint256",
          "name": "shares",
          "type": "uint256"
        }
      ],
      "name": "Withdrawn",
      "type": "event"
    },
    {
      "anonymous": false,
      "inputs": [
        {
          "indexed": true,
          "internalType": "address",
          "name": "recipient",
          "type": "address"
        },
        {
          "indexed": false,
          "internalType": "uint256",
          "name": "amount",
          "type": "uint256"
        },
        {
          "indexed": false,
          "internalType": "uint256",
          "name": "timestamp",
          "type": "uint256"
        }
      ],
      "name": "YieldWithdrawn",
      "type": "event"
    },
    {
      "inputs": [
        {
          "internalType": "address",
          "name": "owner",
          "type": "address"
        },
        {
          "internalType": "address",
          "name": "spender",
          "type": "address"
        }
      ],
      "name": "allowance",
      "outputs": [
        {
          "internalType": "uint256",
          "name": "",
          "type": "uint256"
        }
      ],
      "stateMutability": "view",
      "type": "function"
    },
    {
      "inputs": [
        {
          "internalType": "address",
          "name": "spender",
          "type": "address"
        },
        {
          "internalType": "uint256",
          "name": "value",
          "type": "uint256"
        }
      ],
      "name": "approve",
      "outputs": [
        {
          "internalType": "bool",
          "name": "",
          "type": "bool"
        }
      ],
      "stateMutability": "nonpayable",
      "type": "function"
    },
    {
      "inputs": [],
      "name": "asset",
      "outputs": [
        {
          "internalType": "address",
          "name": "",
          "type": "address"
        }
      ],
      "stateMutability": "view",
      "type": "function"
    },
    {
      "inputs": [
        {
          "internalType": "address",
          "name": "account",
          "type": "address"
        }
      ],
      "name": "balanceOf",
      "outputs": [
        {
          "internalType": "uint256",
          "name": "",
          "type": "uint256"
        }
      ],
      "stateMutability": "view",
      "type": "function"
    },
    {
      "inputs": [
        {
          "internalType": "uint256",
          "name": "shares",
          "type": "uint256"
        }
      ],
      "name": "convertToAssets",
      "outputs": [
        {
          "internalType": "uint256",
          "name": "",
          "type": "uint256"
        }
      ],
      "stateMutability": "pure",
      "type": "function"
    },
    {
      "inputs": [
        {
          "internalType": "uint256",
          "name": "assets",
          "type": "uint256"
        }
      ],
      "name": "convertToShares",
      "outputs": [
        {
          "internalType": "uint256",
          "name": "",
          "type": "uint256"
        }
      ],
      "stateMutability": "pure",
      "type": "function"
    },
    {
      "inputs": [],
      "name": "decimals",
      "outputs": [
        {
          "internalType": "uint8",
          "name": "",
          "type": "uint8"
        }
      ],
      "stateMutability": "pure",
      "type": "function"
    },
    {
      "inputs": [
        {
          "internalType": "uint256",
          "name": "assets",
          "type": "uint256"
        },
        {
          "internalType": "address",
          "name": "receiver",
          "type": "address"
        }
      ],
      "name": "deposit",
      "outputs": [
        {
          "internalType": "uint256",
          "name": "shares",
          "type": "uint256"
        }
      ],
      "stateMutability": "nonpayable",
      "type": "function"
    },
    {
      "inputs": [],
      "name": "getAccumulatedYield",
      "outputs": [
        {
          "internalType": "uint256",
          "name": "",
          "type": "uint256"
        }
      ],
      "stateMutability": "view",
      "type": "function"
    },
    {
      "inputs": [
        {
          "internalType": "address",
          "name": "",
          "type": "address"
        }
      ],
      "name": "maxDeposit",
      "outputs": [
        {
          "internalType": "uint256",
          "name": "",
          "type": "uint256"
        }
      ],
      "stateMutability": "view",
      "type": "function"
    },
    {
      "inputs": [
        {
          "internalType": "address",
          "name": "",
          "type": "address"
        }
      ],
      "name": "maxMint",
      "outputs": [
        {
          "internalType": "uint256",
          "name": "",
          "type": "uint256"
        }
      ],
      "stateMutability": "view",
      "type": "function"
    },
    {
      "inputs": [
        {
          "internalType": "address",
          "name": "owner",
          "type": "address"
        }
      ],
      "name": "maxRedeem",
      "outputs": [
        {
          "internalType": "uint256",
          "name": "",
          "type": "uint256"
        }
      ],
      "stateMutability": "view",
      "type": "function"
    },
    {
      "inputs": [
        {
          "internalType": "address",
          "name": "owner",
          "type": "address"
        }
      ],
      "name": "maxWithdraw",
      "outputs": [
        {
          "internalType": "uint256",
          "name": "",
          "type": "uint256"
        }
      ],
      "stateMutability": "view",
      "type": "function"
    },
    {
      "inputs": [
        {
          "internalType": "uint256",
          "name": "shares",
          "type": "uint256"
        },
        {
          "internalType": "address",
          "name": "receiver",
          "type": "address"
        }
      ],
      "name": "mint",
      "outputs": [
        {
          "internalType": "uint256",
          "name": "assets",
          "type": "uint256"
        }
      ],
      "stateMutability": "nonpayable",
      "type": "function"
    },
    {
      "inputs": [],
      "name": "name",
      "outputs": [
        {
          "internalType": "string",
          "name": "",
          "type": "string"
        }
      ],
      "stateMutability": "view",
      "type": "function"
    },
    {
      "inputs": [],
      "name": "owner",
      "outputs": [
        {
          "internalType": "address",
          "name": "",
          "type": "address"
        }
      ],
      "stateMutability": "view",
      "type": "function"
    },
    {
      "inputs": [
        {
          "internalType": "uint256",
          "name": "assets",
          "type": "uint256"
        }
      ],
      "name": "previewDeposit",
      "outputs": [
        {
          "internalType": "uint256",
          "name": "",
          "type": "uint256"
        }
      ],
      "stateMutability": "view",
      "type": "function"
    },
    {
      "inputs": [
        {
          "internalType": "uint256",
          "name": "shares",
          "type": "uint256"
        }
      ],
      "name": "previewMint",
      "outputs": [
        {
          "internalType": "uint256",
          "name": "",
          "type": "uint256"
        }
      ],
      "stateMutability": "view",
      "type": "function"
    },
    {
      "inputs": [
        {
          "internalType": "uint256",
          "name": "shares",
          "type": "uint256"
        }
      ],
      "name": "previewRedeem",
      "outputs": [
        {
          "internalType": "uint256",
          "name": "",
          "type": "uint256"
        }
      ],
      "stateMutability": "view",
      "type": "function"
    },
    {
      "inputs": [
        {
          "internalType": "uint256",
          "name": "assets",
          "type": "uint256"
        }
      ],
      "name": "previewWithdraw",
      "outputs": [
        {
          "internalType": "uint256",
          "name": "",
          "type": "uint256"
        }
      ],
      "stateMutability": "pure",
      "type": "function"
    },
    {
      "inputs": [
        {
          "internalType": "uint256",
          "name": "shares",
          "type": "uint256"
        },
        {
          "internalType": "address",
          "name": "receiver",
          "type": "address"
        },
        {
          "internalType": "address",
          "name": "owner",
          "type": "address"
        }
      ],
      "name": "redeem",
      "outputs": [
        {
          "internalType": "uint256",
          "name": "assets",
          "type": "uint256"
        }
      ],
      "stateMutability": "nonpayable",
      "type": "function"
    },
    {
      "inputs": [],
      "name": "renounceOwnership",
      "outputs": [],
      "stateMutability": "nonpayable",
      "type": "function"
    },
    {
      "inputs": [],
      "name": "symbol",
      "outputs": [
        {
          "internalType": "string",
          "name": "",
          "type": "string"
        }
      ],
      "stateMutability": "view",
      "type": "function"
    },
    {
      "inputs": [],
      "name": "totalAssets",
      "outputs": [
        {
          "internalType": "uint256",
          "name": "",
          "type": "uint256"
        }
      ],
      "stateMutability": "view",
      "type": "function"
    },
    {
      "inputs": [],
      "name": "totalSupply",
      "outputs": [
        {
          "internalType": "uint256",
          "name": "",
          "type": "uint256"
        }
      ],
      "stateMutability": "view",
      "type": "function"
    },
    {
      "inputs": [
        {
          "internalType": "address",
          "name": "to",
          "type": "address"
        },
        {
          "internalType": "uint256",
          "name": "value",
          "type": "uint256"
        }
      ],
      "name": "transfer",
      "outputs": [
        {
          "internalType": "bool",
          "name": "",
          "type": "bool"
        }
      ],
      "stateMutability": "nonpayable",
      "type": "function"
    },
    {
      "inputs": [
        {
          "internalType": "address",
          "name": "from",
          "type": "address"
        },
        {
          "internalType": "address",
          "name": "to",
          "type": "address"
        },
        {
          "internalType": "uint256",
          "name": "value",
          "type": "uint256"
        }
      ],
      "name": "transferFrom",
      "outputs": [
        {
          "internalType": "bool",
          "name": "",
          "type": "bool"
        }
      ],
      "stateMutability": "nonpayable",
      "type": "function"
    },
    {
      "inputs": [
        {
          "internalType": "address",
          "name": "newOwner",
          "type": "address"
        }
      ],
      "name": "transferOwnership",
      "outputs": [],
      "stateMutability": "nonpayable",
      "type": "function"
    },
    {
      "inputs": [
        {
          "internalType": "address",
          "name": "",
          "type": "address"
        }
      ],
      "name": "userDepositedAssets",
      "outputs": [
        {
          "internalType": "uint256",
          "name": "",
          "type": "uint256"
        }
      ],
      "stateMutability": "view",
      "type": "function"
    },
    {
      "inputs": [
        {
          "internalType": "address",
          "name": "",
          "type": "address"
        }
      ],
      "name": "userDepositedShares",
      "outputs": [
        {
          "internalType": "uint256",
          "name": "",
          "type": "uint256"
        }
      ],
      "stateMutability": "view",
      "type": "function"
    },
    {
      "inputs": [
        {
          "internalType": "uint256",
          "name": "assets",
          "type": "uint256"
        },
        {
          "internalType": "address",
          "name": "receiver",
          "type": "address"
        },
        {
          "internalType": "address",
          "name": "owner",
          "type": "address"
        }
      ],
      "name": "withdraw",
      "outputs": [
        {
          "internalType": "uint256",
          "name": "shares",
          "type": "uint256"
        }
      ],
      "stateMutability": "nonpayable",
      "type": "function"
    },
    {
      "inputs": [
        {
          "internalType": "uint256",
          "name": "amount",
          "type": "uint256"
        },
        {
          "internalType": "address",
          "name": "recipient",
          "type": "address"
        }
      ],
      "name": "withdrawAccumulatedYield",
      "outputs": [],
      "stateMutability": "nonpayable",
      "type": "function"
    },
    {
      "inputs": [
        {
          "internalType": "address",
          "name": "recipient",
          "type": "address"
        }
      ],
      "name": "withdrawAllAccumulatedYield",
      "outputs": [],
      "stateMutability": "nonpayable",
      "type": "function"
    }
  ],
  "bytecode": "0x60e06040523480156200001157600080fd5b5060405162004120380380620041208339818101604052810190620000379190620004b5565b33816040518060400160405280601981526020017f57726170706564204d6f7270686f205661756c742055534443000000000000008152506040518060400160405280600681526020017f576d5553444300000000000000000000000000000000000000000000000000008152508160039081620000b6919062000761565b508060049081620000c8919062000761565b505050600080620000df836200026b60201b60201c565b9150915081620000f1576012620000f3565b805b60ff1660a08160ff16815250508273ffffffffffffffffffffffffffffffffffffffff1660808173ffffffffffffffffffffffffffffffffffffffff1681525050505050600073ffffffffffffffffffffffffffffffffffffffff168173ffffffffffffffffffffffffffffffffffffffff1603620001ac5760006040517f1e4fbdf7000000000000000000000000000000000000000000000000000000008152600401620001a3919062000859565b60405180910390fd5b620001bd816200038560201b60201c565b50600073ffffffffffffffffffffffffffffffffffffffff168173ffffffffffffffffffffffffffffffffffffffff160362000230576040517f08c379a00000000000000000000000000000000000000000000000000000000081526004016200022790620008d7565b60405180910390fd5b8073ffffffffffffffffffffffffffffffffffffffff1660c08173ffffffffffffffffffffffffffffffffffffffff168152505050620009ee565b6000806000808473ffffffffffffffffffffffffffffffffffffffff1660405160240160405160208183030381529060405263313ce56760e01b6020820180517bffffffffffffffffffffffffffffffffffffffffffffffffffffffff8381831617835250505050604051620002e2919062000972565b600060405180830381855afa9150503d80600081146200031f576040519150601f19603f3d011682016040523d82523d6000602084013e62000324565b606091505b50915091508180156200033957506020815110155b156200037657600081806020019051810190620003579190620009bc565b905060ff8016811162000374576001819450945050505062000380565b505b6000809350935050505b915091565b6000600560009054906101000a900473ffffffffffffffffffffffffffffffffffffffff16905081600560006101000a81548173ffffffffffffffffffffffffffffffffffffffff021916908373ffffffffffffffffffffffffffffffffffffffff1602179055508173ffffffffffffffffffffffffffffffffffffffff168173ffffffffffffffffffffffffffffffffffffffff167f8be0079c531659141344cd1fd0a4f28419497f9722a3daafe3b4186f6b6457e060405160405180910390a35050565b600080fd5b600073ffffffffffffffffffffffffffffffffffffffff82169050919050565b60006200047d8262000450565b9050919050565b6200048f8162000470565b81146200049b57600080fd5b50565b600081519050620004af8162000484565b92915050565b600060208284031215620004ce57620004cd6200044b565b5b6000620004de848285016200049e565b91505092915050565b600081519050919050565b7f4e487b7100000000000000000000000000000000000000000000000000000000600052604160045260246000fd5b7f4e487b7100000000000000000000000000000000000000000000000000000000600052602260045260246000fd5b600060028204905060018216806200056957607f821691505b6020821081036200057f576200057e62000521565b5b50919050565b60008190508160005260206000209050919050565b60006020601f8301049050919050565b600082821b905092915050565b600060088302620005e97fffffffffffffffffffffffffffffffffffffffffffffffffffffffffffffffff82620005aa565b620005f58683620005aa565b95508019841693508086168417925050509392505050565b6000819050919050565b6000819050919050565b6000620006426200063c62000636846200060d565b62000617565b6200060d565b9050919050565b6000819050919050565b6200065e8362000621565b620006766200066d8262000649565b848454620005b7565b825550505050565b600090565b6200068d6200067e565b6200069a81848462000653565b505050565b5b81811015620006c257620006b660008262000683565b600181019050620006a0565b5050565b601f8211156200071157620006db8162000585565b620006e6846200059a565b81016020851015620006f6578190505b6200070e62000705856200059a565b8301826200069f565b50505b505050565b600082821c905092915050565b6000620007366000198460080262000716565b1980831691505092915050565b600062000751838362000723565b9150826002028217905092915050565b6200076c82620004e7565b67ffffffffffffffff811115620007885762000787620004f2565b5b62000794825462000550565b620007a1828285620006c6565b600060209050601f831160018114620007d95760008415620007c4578287015190505b620007d0858262000743565b86555062000840565b601f198416620007e98662000585565b60005b828110156200081357848901518255600182019150602085019450602081019050620007ec565b868310156200083357848901516200082f601f89168262000723565b8355505b6001600288020188555050505b505050505050565b620008538162000470565b82525050565b600060208201905062000870600083018462000848565b92915050565b600082825260208201905092915050565b7f496e76616c6964207661756c7455534443206164647265737300000000000000600082015250565b6000620008bf60198362000876565b9150620008cc8262000887565b602082019050919050565b60006020820190508181036000830152620008f281620008b0565b9050919050565b600081519050919050565b600081905092915050565b60005b838110156200092f57808201518184015260208101905062000912565b60008484015250505050565b60006200094882620008f9565b62000954818562000904565b9350620009668185602086016200090f565b80840191505092915050565b60006200098082846200093b565b915081905092915050565b62000996816200060d565b8114620009a257600080fd5b50565b600081519050620009b6816200098b565b92915050565b600060208284031215620009d557620009d46200044b565b5b6000620009e584828501620009a5565b91505092915050565b60805160a05160c0516136bf62000a6160003960008181610743015281816107e101528181610ada01528181610e1a01528181611216015281816116140152818161186001528181611aa201528181611d760152818161206001526123af01526000505060006109a201526136bf6000f3fe608060405234801561001057600080fd5b50600436106101fb5760003560e01c806394bf804d1161011a578063c63d75b6116100ad578063dd52c6af1161007c578063dd52c6af1461068a578063dd62ed3e146106a6578063ef8b30f7146106d6578063f2fde38b14610706578063f7f12c5014610722576101fb565b8063c63d75b6146105ca578063c6e6f592146105fa578063ce96cb771461062a578063d905777e1461065a576101fb565b8063b3d7f6b9116100e9578063b3d7f6b91461051c578063b460af941461054c578063ba0876521461057c578063bbde8be0146105ac576101fb565b806394bf804d1461046e57806395d89b411461049e578063a9059cbb146104bc578063b3a42e1e146104ec576101fb565b806338d52e0f116101925780636e553f65116101615780636e553f65146103e657806370a0823114610416578063715018a6146104465780638da5cb5b14610450576101fb565b806338d52e0f146103385780633e232dae14610356578063402d267d146103865780634cdad506146103b6576101fb565b80630a28a477116101ce5780630a28a4771461029c57806318160ddd146102cc57806323b872dd146102ea578063313ce5671461031a576101fb565b806301e1d1141461020057806306fdde031461021e57806307a2d13a1461023c578063095ea7b31461026c575b600080fd5b61020861073e565b6040516102159190612a38565b60405180910390f35b610226610893565b6040516102339190612ae3565b60405180910390f35b61025660048036038101906102519190612b36565b610925565b6040516102639190612a38565b60405180910390f35b61028660048036038101906102819190612bc1565b61092f565b6040516102939190612c1c565b60405180910390f35b6102b660048036038101906102b19190612b36565b610952565b6040516102c39190612a38565b60405180910390f35b6102d461095c565b6040516102e19190612a38565b60405180910390f35b61030460048036038101906102ff9190612c37565b610966565b6040516103119190612c1c565b60405180910390f35b610322610995565b60405161032f9190612ca6565b60405180910390f35b61034061099e565b60405161034d9190612cd0565b60405180910390f35b610370600480360381019061036b9190612ceb565b6109c6565b60405161037d9190612a38565b60405180910390f35b6103a0600480360381019061039b9190612ceb565b6109de565b6040516103ad9190612a38565b60405180910390f35b6103d060048036038101906103cb9190612b36565b610a08565b6040516103dd9190612a38565b60405180910390f35b61040060048036038101906103fb9190612d18565b610a1a565b60405161040d9190612a38565b60405180910390f35b610430600480360381019061042b9190612ceb565b610cd4565b60405161043d9190612a38565b60405180910390f35b61044e610d1c565b005b610458610d30565b6040516104659190612cd0565b60405180910390f35b61048860048036038101906104839190612d18565b610d5a565b6040516104959190612a38565b60405180910390f35b6104a6610fc4565b6040516104b39190612ae3565b60405180910390f35b6104d660048036038101906104d19190612bc1565b611056565b6040516104e39190612c1c565b60405180910390f35b61050660048036038101906105019190612ceb565b611079565b6040516105139190612a38565b60405180910390f35b61053660048036038101906105319190612b36565b611091565b6040516105439190612a38565b60405180910390f35b61056660048036038101906105619190612d58565b6110a3565b6040516105739190612a38565b60405180910390f35b61059660048036038101906105919190612d58565b6114ae565b6040516105a39190612a38565b60405180910390f35b6105b461185b565b6040516105c19190612a38565b60405180910390f35b6105e460048036038101906105df9190612ceb565b611935565b6040516105f19190612a38565b60405180910390f35b610614600480360381019061060f9190612b36565b61195f565b6040516106219190612a38565b60405180910390f35b610644600480360381019061063f9190612ceb565b611969565b6040516106519190612a38565b60405180910390f35b610674600480360381019061066f9190612ceb565b611985565b6040516106819190612a38565b60405180910390f35b6106a4600480360381019061069f9190612d18565b611997565b005b6106c060048036038101906106bb9190612dab565b611bd2565b6040516106cd9190612a38565b60405180910390f35b6106f060048036038101906106eb9190612b36565b611c59565b6040516106fd9190612a38565b60405180910390f35b610720600480360381019061071b9190612ceb565b611c6b565b005b61073c60048036038101906107379190612ceb565b611cf1565b005b6000807f000000000000000000000000000000000000000000000000000000000000000073ffffffffffffffffffffffffffffffffffffffff166370a08231306040518263ffffffff1660e01b815260040161079a9190612cd0565b602060405180830381865afa1580156107b7573d6000803e3d6000fd5b505050506040513d601f19601f820116820180604052508101906107db9190612e00565b905060007f000000000000000000000000000000000000000000000000000000000000000073ffffffffffffffffffffffffffffffffffffffff166307a2d13a836040518263ffffffff1660e01b81526004016108389190612a38565b602060405180830381865afa158015610855573d6000803e3d6000fd5b505050506040513d601f19601f820116820180604052508101906108799190612e00565b905064e8d4a510008161088c9190612e5c565b9250505090565b6060600380546108a290612ecd565b80601f01602080910402602001604051908101604052809291908181526020018280546108ce90612ecd565b801561091b5780601f106108f05761010080835404028352916020019161091b565b820191906000526020600020905b8154815290600101906020018083116108fe57829003601f168201915b5050505050905090565b6000819050919050565b60008061093a611ea5565b9050610947818585611ead565b600191505092915050565b6000819050919050565b6000600254905090565b600080610971611ea5565b905061097e858285611ebf565b610989858585611f54565b60019150509392505050565b60006012905090565b60007f0000000000000000000000000000000000000000000000000000000000000000905090565b60076020528060005260406000206000915090505481565b60007fffffffffffffffffffffffffffffffffffffffffffffffffffffffffffffffff9050919050565b6000610a1382612048565b9050919050565b6000808311610a5e576040517f08c379a0000000000000000000000000000000000000000000000000000000008152600401610a5590612f4a565b60405180910390fd5b600073ffffffffffffffffffffffffffffffffffffffff168273ffffffffffffffffffffffffffffffffffffffff1603610acd576040517f08c379a0000000000000000000000000000000000000000000000000000000008152600401610ac490612fb6565b60405180910390fd5b610ad683611c59565b90507f000000000000000000000000000000000000000000000000000000000000000073ffffffffffffffffffffffffffffffffffffffff166323b872dd3330866040518463ffffffff1660e01b8152600401610b3593929190612fd6565b6020604051808303816000875af1158015610b54573d6000803e3d6000fd5b505050506040513d601f19601f82011682018060405250810190610b789190613039565b610bb7576040517f08c379a0000000000000000000000000000000000000000000000000000000008152600401610bae906130b2565b60405180910390fd5b80600660008473ffffffffffffffffffffffffffffffffffffffff1673ffffffffffffffffffffffffffffffffffffffff1681526020019081526020016000206000828254610c0691906130d2565b92505081905550610c178282612100565b8173ffffffffffffffffffffffffffffffffffffffff167f73a19dd210f1a7f902193214c0ee91dd35ee5b4d920cba8d519eca65a7b488ca8283604051610c5f929190613106565b60405180910390a28173ffffffffffffffffffffffffffffffffffffffff163373ffffffffffffffffffffffffffffffffffffffff167fdcbc1c05240f31ff3ad067ef1ee35ce4997762752e3a095284754544f4c709d78384604051610cc6929190613106565b60405180910390a392915050565b60008060008373ffffffffffffffffffffffffffffffffffffffff1673ffffffffffffffffffffffffffffffffffffffff168152602001908152602001600020549050919050565b610d24612182565b610d2e6000612209565b565b6000600560009054906101000a900473ffffffffffffffffffffffffffffffffffffffff16905090565b6000808311610d9e576040517f08c379a0000000000000000000000000000000000000000000000000000000008152600401610d959061317b565b60405180910390fd5b600073ffffffffffffffffffffffffffffffffffffffff168273ffffffffffffffffffffffffffffffffffffffff1603610e0d576040517f08c379a0000000000000000000000000000000000000000000000000000000008152600401610e0490612fb6565b60405180910390fd5b610e1683611091565b90507f000000000000000000000000000000000000000000000000000000000000000073ffffffffffffffffffffffffffffffffffffffff166323b872dd3330846040518463ffffffff1660e01b8152600401610e7593929190612fd6565b6020604051808303816000875af1158015610e94573d6000803e3d6000fd5b505050506040513d601f19601f82011682018060405250810190610eb89190613039565b610ef7576040517f08c379a0000000000000000000000000000000000000000000000000000000008152600401610eee906130b2565b60405180910390fd5b82600660008473ffffffffffffffffffffffffffffffffffffffff1673ffffffffffffffffffffffffffffffffffffffff1681526020019081526020016000206000828254610f4691906130d2565b92505081905550610f578284612100565b8173ffffffffffffffffffffffffffffffffffffffff163373ffffffffffffffffffffffffffffffffffffffff167fdcbc1c05240f31ff3ad067ef1ee35ce4997762752e3a095284754544f4c709d78586604051610fb6929190613106565b60405180910390a392915050565b606060048054610fd390612ecd565b80601f0160208091040260200160405190810160405280929190818152602001828054610fff90612ecd565b801561104c5780601f106110215761010080835404028352916020019161104c565b820191906000526020600020905b81548152906001019060200180831161102f57829003601f168201915b5050505050905090565b600080611061611ea5565b905061106e818585611f54565b600191505092915050565b60066020528060005260406000206000915090505481565b600061109c82612048565b9050919050565b60008084116110e7576040517f08c379a00000000000000000000000000000000000000000000000000000000081526004016110de906131e7565b60405180910390fd5b600073ffffffffffffffffffffffffffffffffffffffff168373ffffffffffffffffffffffffffffffffffffffff1603611156576040517f08c379a000000000000000000000000000000000000000000000000000000000815260040161114d90612fb6565b60405180910390fd5b61115f84610952565b90508173ffffffffffffffffffffffffffffffffffffffff163373ffffffffffffffffffffffffffffffffffffffff16146111fd5760006111a08333611bd2565b9050818110156111e5576040517f08c379a00000000000000000000000000000000000000000000000000000000081526004016111dc90613253565b60405180910390fd5b6111fb833384846111f69190613273565b611ead565b505b61120782826122cf565b600061121285612048565b90507f000000000000000000000000000000000000000000000000000000000000000073ffffffffffffffffffffffffffffffffffffffff1663a9059cbb85836040518363ffffffff1660e01b815260040161126f9291906132a7565b6020604051808303816000875af115801561128e573d6000803e3d6000fd5b505050506040513d601f19601f820116820180604052508101906112b29190613039565b6112f1576040517f08c379a00000000000000000000000000000000000000000000000000000000081526004016112e8906130b2565b60405180910390fd5b81600660008573ffffffffffffffffffffffffffffffffffffffff1673ffffffffffffffffffffffffffffffffffffffff16815260200190815260200160002054106113925781600660008573ffffffffffffffffffffffffffffffffffffffff1673ffffffffffffffffffffffffffffffffffffffff16815260200190815260200160002060008282546113869190613273565b925050819055506113d8565b6000600660008573ffffffffffffffffffffffffffffffffffffffff1673ffffffffffffffffffffffffffffffffffffffff168152602001908152602001600020819055505b8273ffffffffffffffffffffffffffffffffffffffff167f92ccf450a286a957af52509bc1c9939d1a6a481783e142e41e2499f0bb66ebc68684604051611420929190613106565b60405180910390a28273ffffffffffffffffffffffffffffffffffffffff168473ffffffffffffffffffffffffffffffffffffffff163373ffffffffffffffffffffffffffffffffffffffff167ffbde797d201c681b91056529119e0b02407c7bb96a4a2c75c01fc9667232c8db888660405161149e929190613106565b60405180910390a4509392505050565b60008084116114f2576040517f08c379a00000000000000000000000000000000000000000000000000000000081526004016114e99061331c565b60405180910390fd5b600073ffffffffffffffffffffffffffffffffffffffff168373ffffffffffffffffffffffffffffffffffffffff1603611561576040517f08c379a000000000000000000000000000000000000000000000000000000000815260040161155890612fb6565b60405180910390fd5b8173ffffffffffffffffffffffffffffffffffffffff163373ffffffffffffffffffffffffffffffffffffffff16146115fd5760006115a08333611bd2565b9050848110156115e5576040517f08c379a00000000000000000000000000000000000000000000000000000000081526004016115dc90613253565b60405180910390fd5b6115fb833387846115f69190613273565b611ead565b505b61160684610a08565b905061161282856122cf565b7f000000000000000000000000000000000000000000000000000000000000000073ffffffffffffffffffffffffffffffffffffffff1663a9059cbb84836040518363ffffffff1660e01b815260040161166d9291906132a7565b6020604051808303816000875af115801561168c573d6000803e3d6000fd5b505050506040513d601f19601f820116820180604052508101906116b09190613039565b6116ef576040517f08c379a00000000000000000000000000000000000000000000000000000000081526004016116e6906130b2565b60405180910390fd5b83600660008473ffffffffffffffffffffffffffffffffffffffff1673ffffffffffffffffffffffffffffffffffffffff16815260200190815260200160002054106117905783600660008473ffffffffffffffffffffffffffffffffffffffff1673ffffffffffffffffffffffffffffffffffffffff16815260200190815260200160002060008282546117849190613273565b925050819055506117d6565b6000600660008473ffffffffffffffffffffffffffffffffffffffff1673ffffffffffffffffffffffffffffffffffffffff168152602001908152602001600020819055505b8173ffffffffffffffffffffffffffffffffffffffff168373ffffffffffffffffffffffffffffffffffffffff163373ffffffffffffffffffffffffffffffffffffffff167ffbde797d201c681b91056529119e0b02407c7bb96a4a2c75c01fc9667232c8db878860405161184c929190613106565b60405180910390a49392505050565b6000807f000000000000000000000000000000000000000000000000000000000000000073ffffffffffffffffffffffffffffffffffffffff166370a08231306040518263ffffffff1660e01b81526004016118b79190612cd0565b602060405180830381865afa1580156118d4573d6000803e3d6000fd5b505050506040513d601f19601f820116820180604052508101906118f89190612e00565b9050600061190c61190761095c565b612048565b90508082111561192b5780826119229190613273565b92505050611932565b6000925050505b90565b60007fffffffffffffffffffffffffffffffffffffffffffffffffffffffffffffffff9050919050565b6000819050919050565b600061197e61197783610cd4565b6000612351565b9050919050565b600061199082610cd4565b9050919050565b61199f612182565b600082116119e2576040517f08c379a00000000000000000000000000000000000000000000000000000000081526004016119d9906131e7565b60405180910390fd5b600073ffffffffffffffffffffffffffffffffffffffff168173ffffffffffffffffffffffffffffffffffffffff1603611a51576040517f08c379a0000000000000000000000000000000000000000000000000000000008152600401611a4890613388565b60405180910390fd5b6000611a5b61185b565b905080831115611aa0576040517f08c379a0000000000000000000000000000000000000000000000000000000008152600401611a97906133f4565b60405180910390fd5b7f000000000000000000000000000000000000000000000000000000000000000073ffffffffffffffffffffffffffffffffffffffff1663a9059cbb83856040518363ffffffff1660e01b8152600401611afb9291906132a7565b6020604051808303816000875af1158015611b1a573d6000803e3d6000fd5b505050506040513d601f19601f82011682018060405250810190611b3e9190613039565b611b7d576040517f08c379a0000000000000000000000000000000000000000000000000000000008152600401611b74906130b2565b60405180910390fd5b8173ffffffffffffffffffffffffffffffffffffffff167f2bf878084037ba4fb4363629d72708a5bb8e8e0de5af9fe03d987d5289f6f4a28442604051611bc5929190613106565b60405180910390a2505050565b6000600160008473ffffffffffffffffffffffffffffffffffffffff1673ffffffffffffffffffffffffffffffffffffffff16815260200190815260200160002060008373ffffffffffffffffffffffffffffffffffffffff1673ffffffffffffffffffffffffffffffffffffffff16815260200190815260200160002054905092915050565b6000611c64826123aa565b9050919050565b611c73612182565b600073ffffffffffffffffffffffffffffffffffffffff168173ffffffffffffffffffffffffffffffffffffffff1603611ce55760006040517f1e4fbdf7000000000000000000000000000000000000000000000000000000008152600401611cdc9190612cd0565b60405180910390fd5b611cee81612209565b50565b611cf9612182565b600073ffffffffffffffffffffffffffffffffffffffff168173ffffffffffffffffffffffffffffffffffffffff1603611d68576040517f08c379a0000000000000000000000000000000000000000000000000000000008152600401611d5f90613388565b60405180910390fd5b6000611d7261185b565b90507f000000000000000000000000000000000000000000000000000000000000000073ffffffffffffffffffffffffffffffffffffffff1663a9059cbb83836040518363ffffffff1660e01b8152600401611dcf9291906132a7565b6020604051808303816000875af1158015611dee573d6000803e3d6000fd5b505050506040513d601f19601f82011682018060405250810190611e129190613039565b611e51576040517f08c379a0000000000000000000000000000000000000000000000000000000008152600401611e48906130b2565b60405180910390fd5b8173ffffffffffffffffffffffffffffffffffffffff167f2bf878084037ba4fb4363629d72708a5bb8e8e0de5af9fe03d987d5289f6f4a28242604051611e99929190613106565b60405180910390a25050565b600033905090565b611eba8383836001612462565b505050565b6000611ecb8484611bd2565b90507fffffffffffffffffffffffffffffffffffffffffffffffffffffffffffffffff811015611f4e5781811015611f3e578281836040517ffb8f41b2000000000000000000000000000000000000000000000000000000008152600401611f3593929190613414565b60405180910390fd5b611f4d84848484036000612462565b5b50505050565b600073ffffffffffffffffffffffffffffffffffffffff168373ffffffffffffffffffffffffffffffffffffffff1603611fc65760006040517f96c6fd1e000000000000000000000000000000000000000000000000000000008152600401611fbd9190612cd0565b60405180910390fd5b600073ffffffffffffffffffffffffffffffffffffffff168273ffffffffffffffffffffffffffffffffffffffff16036120385760006040517fec442f0500000000000000000000000000000000000000000000000000000000815260040161202f9190612cd0565b60405180910390fd5b612043838383612639565b505050565b60008064e8d4a510008361205c919061347a565b90507f000000000000000000000000000000000000000000000000000000000000000073ffffffffffffffffffffffffffffffffffffffff1663c6e6f592826040518263ffffffff1660e01b81526004016120b79190612a38565b602060405180830381865afa1580156120d4573d6000803e3d6000fd5b505050506040513d601f19601f820116820180604052508101906120f89190612e00565b915050919050565b600073ffffffffffffffffffffffffffffffffffffffff168273ffffffffffffffffffffffffffffffffffffffff16036121725760006040517fec442f050000000000000000000000000000000000000000000000000000000081526004016121699190612cd0565b60405180910390fd5b61217e60008383612639565b5050565b61218a611ea5565b73ffffffffffffffffffffffffffffffffffffffff166121a8610d30565b73ffffffffffffffffffffffffffffffffffffffff1614612207576121cb611ea5565b6040517f118cdaa70000000000000000000000000000000000000000000000000000000081526004016121fe9190612cd0565b60405180910390fd5b565b6000600560009054906101000a900473ffffffffffffffffffffffffffffffffffffffff16905081600560006101000a81548173ffffffffffffffffffffffffffffffffffffffff021916908373ffffffffffffffffffffffffffffffffffffffff1602179055508173ffffffffffffffffffffffffffffffffffffffff168173ffffffffffffffffffffffffffffffffffffffff167f8be0079c531659141344cd1fd0a4f28419497f9722a3daafe3b4186f6b6457e060405160405180910390a35050565b600073ffffffffffffffffffffffffffffffffffffffff168273ffffffffffffffffffffffffffffffffffffffff16036123415760006040517f96c6fd1e0000000000000000000000000000000000000000000000000000000081526004016123389190612cd0565b60405180910390fd5b61234d82600083612639565b5050565b60006123a2600161236061073e565b61236a91906130d2565b61237261285e565b600a61237e91906135de565b61238661095c565b61239091906130d2565b8486612863909392919063ffffffff16565b905092915050565b6000807f000000000000000000000000000000000000000000000000000000000000000073ffffffffffffffffffffffffffffffffffffffff166307a2d13a846040518263ffffffff1660e01b81526004016124069190612a38565b602060405180830381865afa158015612423573d6000803e3d6000fd5b505050506040513d601f19601f820116820180604052508101906124479190612e00565b905064e8d4a510008161245a9190612e5c565b915050919050565b600073ffffffffffffffffffffffffffffffffffffffff168473ffffffffffffffffffffffffffffffffffffffff16036124d45760006040517fe602df050000000000000000000000000000000000000000000000000000000081526004016124cb9190612cd0565b60405180910390fd5b600073ffffffffffffffffffffffffffffffffffffffff168373ffffffffffffffffffffffffffffffffffffffff16036125465760006040517f94280d6200000000000000000000000000000000000000000000000000000000815260040161253d9190612cd0565b60405180910390fd5b81600160008673ffffffffffffffffffffffffffffffffffffffff1673ffffffffffffffffffffffffffffffffffffffff16815260200190815260200160002060008573ffffffffffffffffffffffffffffffffffffffff1673ffffffffffffffffffffffffffffffffffffffff168152602001908152602001600020819055508015612633578273ffffffffffffffffffffffffffffffffffffffff168473ffffffffffffffffffffffffffffffffffffffff167f8c5be1e5ebec7d5bd14f71427d1e84f3dd0314c0f7b2291e5b200ac8c7c3b9258460405161262a9190612a38565b60405180910390a35b50505050565b600073ffffffffffffffffffffffffffffffffffffffff168373ffffffffffffffffffffffffffffffffffffffff160361268b57806002600082825461267f91906130d2565b9250508190555061275e565b60008060008573ffffffffffffffffffffffffffffffffffffffff1673ffffffffffffffffffffffffffffffffffffffff16815260200190815260200160002054905081811015612717578381836040517fe450d38c00000000000000000000000000000000000000000000000000000000815260040161270e93929190613414565b60405180910390fd5b8181036000808673ffffffffffffffffffffffffffffffffffffffff1673ffffffffffffffffffffffffffffffffffffffff16815260200190815260200160002081905550505b600073ffffffffffffffffffffffffffffffffffffffff168273ffffffffffffffffffffffffffffffffffffffff16036127a757806002600082825403925050819055506127f4565b806000808473ffffffffffffffffffffffffffffffffffffffff1673ffffffffffffffffffffffffffffffffffffffff168152602001908152602001600020600082825401925050819055505b8173ffffffffffffffffffffffffffffffffffffffff168373ffffffffffffffffffffffffffffffffffffffff167fddf252ad1be2c89b69c2b068fc378daa952ba7f163c4a11628f55a4df523b3ef836040516128519190612a38565b60405180910390a3505050565b600090565b6000612893612871836128b2565b801561288e5750600084806128895761288861344b565b5b868809115b6128e0565b61289e8686866128ec565b6128a891906130d2565b9050949350505050565b6000600160028360038111156128cb576128ca613629565b5b6128d59190613658565b60ff16149050919050565b60008115159050919050565b60008060006128fb86866129d4565b9150915060008203612921578381816129175761291661344b565b5b04925050506129cd565b8184116129415761294061293b60008614601260116129f3565b612a0d565b5b600084868809905081811183039250808203915060008560000386169050808604955080830492506001818260000304019050808402831792506000600287600302189050808702600203810290508087026002038102905080870260020381029050808702600203810290508087026002038102905080870260020381029050808402955050505050505b9392505050565b6000806000198385098385029150818110828203039250509250929050565b60006129fe846128e0565b82841802821890509392505050565b634e487b71600052806020526024601cfd5b6000819050919050565b612a3281612a1f565b82525050565b6000602082019050612a4d6000830184612a29565b92915050565b600081519050919050565b600082825260208201905092915050565b60005b83811015612a8d578082015181840152602081019050612a72565b60008484015250505050565b6000601f19601f8301169050919050565b6000612ab582612a53565b612abf8185612a5e565b9350612acf818560208601612a6f565b612ad881612a99565b840191505092915050565b60006020820190508181036000830152612afd8184612aaa565b905092915050565b600080fd5b612b1381612a1f565b8114612b1e57600080fd5b50565b600081359050612b3081612b0a565b92915050565b600060208284031215612b4c57612b4b612b05565b5b6000612b5a84828501612b21565b91505092915050565b600073ffffffffffffffffffffffffffffffffffffffff82169050919050565b6000612b8e82612b63565b9050919050565b612b9e81612b83565b8114612ba957600080fd5b50565b600081359050612bbb81612b95565b92915050565b60008060408385031215612bd857612bd7612b05565b5b6000612be685828601612bac565b9250506020612bf785828601612b21565b9150509250929050565b60008115159050919050565b612c1681612c01565b82525050565b6000602082019050612c316000830184612c0d565b92915050565b600080600060608486031215612c5057612c4f612b05565b5b6000612c5e86828701612bac565b9350506020612c6f86828701612bac565b9250506040612c8086828701612b21565b9150509250925092565b600060ff82169050919050565b612ca081612c8a565b82525050565b6000602082019050612cbb6000830184612c97565b92915050565b612cca81612b83565b82525050565b6000602082019050612ce56000830184612cc1565b92915050565b600060208284031215612d0157612d00612b05565b5b6000612d0f84828501612bac565b91505092915050565b60008060408385031215612d2f57612d2e612b05565b5b6000612d3d85828601612b21565b9250506020612d4e85828601612bac565b9150509250929050565b600080600060608486031215612d7157612d70612b05565b5b6000612d7f86828701612b21565b9350506020612d9086828701612bac565b9250506040612da186828701612bac565b9150509250925092565b60008060408385031215612dc257612dc1612b05565b5b6000612dd085828601612bac565b9250506020612de185828601612bac565b9150509250929050565b600081519050612dfa81612b0a565b92915050565b600060208284031215612e1657612e15612b05565b5b6000612e2484828501612deb565b91505092915050565b7f4e487b7100000000000000000000000000000000000000000000000000000000600052601160045260246000fd5b6000612e6782612a1f565b9150612e7283612a1f565b9250828202612e8081612a1f565b91508282048414831517612e9757612e96612e2d565b5b5092915050565b7f4e487b7100000000000000000000000000000000000000000000000000000000600052602260045260246000fd5b60006002820490506001821680612ee557607f821691505b602082108103612ef857612ef7612e9e565b5b50919050565b7f43616e6e6f74206465706f736974207a65726f00000000000000000000000000600082015250565b6000612f34601383612a5e565b9150612f3f82612efe565b602082019050919050565b60006020820190508181036000830152612f6381612f27565b9050919050565b7f496e76616c696420726563656976657200000000000000000000000000000000600082015250565b6000612fa0601083612a5e565b9150612fab82612f6a565b602082019050919050565b60006020820190508181036000830152612fcf81612f93565b9050919050565b6000606082019050612feb6000830186612cc1565b612ff86020830185612cc1565b6130056040830184612a29565b949350505050565b61301681612c01565b811461302157600080fd5b50565b6000815190506130338161300d565b92915050565b60006020828403121561304f5761304e612b05565b5b600061305d84828501613024565b91505092915050565b7f5472616e73666572206661696c65640000000000000000000000000000000000600082015250565b600061309c600f83612a5e565b91506130a782613066565b602082019050919050565b600060208201905081810360008301526130cb8161308f565b9050919050565b60006130dd82612a1f565b91506130e883612a1f565b9250828201905080821115613100576130ff612e2d565b5b92915050565b600060408201905061311b6000830185612a29565b6131286020830184612a29565b9392505050565b7f43616e6e6f74206d696e74207a65726f00000000000000000000000000000000600082015250565b6000613165601083612a5e565b91506131708261312f565b602082019050919050565b6000602082019050818103600083015261319481613158565b9050919050565b7f43616e6e6f74207769746864726177207a65726f000000000000000000000000600082015250565b60006131d1601483612a5e565b91506131dc8261319b565b602082019050919050565b60006020820190508181036000830152613200816131c4565b9050919050565b7f496e73756666696369656e7420616c6c6f77616e636500000000000000000000600082015250565b600061323d601683612a5e565b915061324882613207565b602082019050919050565b6000602082019050818103600083015261326c81613230565b9050919050565b600061327e82612a1f565b915061328983612a1f565b92508282039050818111156132a1576132a0612e2d565b5b92915050565b60006040820190506132bc6000830185612cc1565b6132c96020830184612a29565b9392505050565b7f43616e6e6f742072656465656d207a65726f0000000000000000000000000000600082015250565b6000613306601283612a5e565b9150613311826132d0565b602082019050919050565b60006020820190508181036000830152613335816132f9565b9050919050565b7f496e76616c696420726563697069656e74000000000000000000000000000000600082015250565b6000613372601183612a5e565b915061337d8261333c565b602082019050919050565b600060208201905081810360008301526133a181613365565b9050919050565b7f496e73756666696369656e7420616363756d756c61746564207969656c640000600082015250565b60006133de601e83612a5e565b91506133e9826133a8565b602082019050919050565b6000602082019050818103600083015261340d816133d1565b9050919050565b60006060820190506134296000830186612cc1565b6134366020830185612a29565b6134436040830184612a29565b949350505050565b7f4e487b7100000000000000000000000000000000000000000000000000000000600052601260045260246000fd5b600061348582612a1f565b915061349083612a1f565b9250826134a05761349f61344b565b5b828204905092915050565b60008160011c9050919050565b6000808291508390505b6001851115613502578086048111156134de576134dd612e2d565b5b60018516156134ed5780820291505b80810290506134fb856134ab565b94506134c2565b94509492505050565b60008261351b57600190506135d7565b8161352957600090506135d7565b816001811461353f576002811461354957613578565b60019150506135d7565b60ff84111561355b5761355a612e2d565b5b8360020a91508482111561357257613571612e2d565b5b506135d7565b5060208310610133831016604e8410600b84101617156135ad5782820a9050838111156135a8576135a7612e2d565b5b6135d7565b6135ba84848460016134b8565b925090508184048111156135d1576135d0612e2d565b5b81810290505b9392505050565b60006135e982612a1f565b91506135f483612c8a565b92506136217fffffffffffffffffffffffffffffffffffffffffffffffffffffffffffffffff848461350b565b905092915050565b7f4e487b7100000000000000000000000000000000000000000000000000000000600052602160045260246000fd5b600061366382612c8a565b915061366e83612c8a565b92508261367e5761367d61344b565b5b82820690509291505056fea264697066735822122059e2d4d19c24b25212f2ab4d1f391b64d8aa36d00f5d259a39e76432aeac119464736f6c63430008140033",
  "linkReferences": {},
  "deployedLinkReferences": {}
}