{
  "_format": "hh-sol-artifact-1",
  "contractName": "WmUSDC",
  "sourceName": "contracts/WmUSDC.sol",
  "abi": [
    {
      "inputs": [
        {
          "internalType": "address",
          "name": "vaultUSDC_",
          "type": "address"
        }
      ],
      "stateMutability": "nonpayable",
      "type": "constructor"
    },
    {
      "inputs": [
        {
          "internalType": "address",
          "name": "spender",
          "type": "address"
        },
        {
          "internalType": "uint256",
          "name": "allowance",
          "type": "uint256"
        },
        {
          "internalType": "uint256",
          "name": "needed",
          "type": "uint256"
        }
      ],
      "name": "ERC20InsufficientAllowance",
      "type": "error"
    },
    {
      "inputs": [
        {
          "internalType": "address",
          "name": "sender",
          "type": "address"
        },
        {
          "internalType": "uint256",
          "name": "balance",
          "type": "uint256"
        },
        {
          "internalType": "uint256",
          "name": "needed",
          "type": "uint256"
        }
      ],
      "name": "ERC20InsufficientBalance",
      "type": "error"
    },
    {
      "inputs": [
        {
          "internalType": "address",
          "name": "approver",
          "type": "address"
        }
      ],
      "name": "ERC20InvalidApprover",
      "type": "error"
    },
    {
      "inputs": [
        {
          "internalType": "address",
          "name": "receiver",
          "type": "address"
        }
      ],
      "name": "ERC20InvalidReceiver",
      "type": "error"
    },
    {
      "inputs": [
        {
          "internalType": "address",
          "name": "sender",
          "type": "address"
        }
      ],
      "name": "ERC20InvalidSender",
      "type": "error"
    },
    {
      "inputs": [
        {
          "internalType": "address",
          "name": "spender",
          "type": "address"
        }
      ],
      "name": "ERC20InvalidSpender",
      "type": "error"
    },
    {
      "inputs": [
        {
          "internalType": "address",
          "name": "receiver",
          "type": "address"
        },
        {
          "internalType": "uint256",
          "name": "assets",
          "type": "uint256"
        },
        {
          "internalType": "uint256",
          "name": "max",
          "type": "uint256"
        }
      ],
      "name": "ERC4626ExceededMaxDeposit",
      "type": "error"
    },
    {
      "inputs": [
        {
          "internalType": "address",
          "name": "receiver",
          "type": "address"
        },
        {
          "internalType": "uint256",
          "name": "shares",
          "type": "uint256"
        },
        {
          "internalType": "uint256",
          "name": "max",
          "type": "uint256"
        }
      ],
      "name": "ERC4626ExceededMaxMint",
      "type": "error"
    },
    {
      "inputs": [
        {
          "internalType": "address",
          "name": "owner",
          "type": "address"
        },
        {
          "internalType": "uint256",
          "name": "shares",
          "type": "uint256"
        },
        {
          "internalType": "uint256",
          "name": "max",
          "type": "uint256"
        }
      ],
      "name": "ERC4626ExceededMaxRedeem",
      "type": "error"
    },
    {
      "inputs": [
        {
          "internalType": "address",
          "name": "owner",
          "type": "address"
        },
        {
          "internalType": "uint256",
          "name": "assets",
          "type": "uint256"
        },
        {
          "internalType": "uint256",
          "name": "max",
          "type": "uint256"
        }
      ],
      "name": "ERC4626ExceededMaxWithdraw",
      "type": "error"
    },
    {
      "inputs": [
        {
          "internalType": "address",
          "name": "owner",
          "type": "address"
        }
      ],
      "name": "OwnableInvalidOwner",
      "type": "error"
    },
    {
      "inputs": [
        {
          "internalType": "address",
          "name": "account",
          "type": "address"
        }
      ],
      "name": "OwnableUnauthorizedAccount",
      "type": "error"
    },
    {
      "anonymous": false,
      "inputs": [
        {
          "indexed": true,
          "internalType": "address",
          "name": "owner",
          "type": "address"
        },
        {
          "indexed": true,
          "internalType": "address",
          "name": "spender",
          "type": "address"
        },
        {
          "indexed": false,
          "internalType": "uint256",
          "name": "value",
          "type": "uint256"
        }
      ],
      "name": "Approval",
      "type": "event"
    },
    {
      "anonymous": false,
      "inputs": [
        {
          "indexed": true,
          "internalType": "address",
          "name": "sender",
          "type": "address"
        },
        {
          "indexed": true,
          "internalType": "address",
          "name": "owner",
          "type": "address"
        },
        {
          "indexed": false,
          "internalType": "uint256",
          "name": "assets",
          "type": "uint256"
        },
        {
          "indexed": false,
          "internalType": "uint256",
          "name": "shares",
          "type": "uint256"
        }
      ],
      "name": "Deposit",
      "type": "event"
    },
    {
      "anonymous": false,
      "inputs": [
        {
          "indexed": true,
          "internalType": "address",
          "name": "user",
          "type": "address"
        },
        {
          "indexed": false,
          "internalType": "uint256",
          "name": "assets",
          "type": "uint256"
        },
        {
          "indexed": false,
          "internalType": "uint256",
          "name": "shares",
          "type": "uint256"
        }
      ],
      "name": "Deposited",
      "type": "event"
    },
    {
      "anonymous": false,
      "inputs": [
        {
          "indexed": true,
          "internalType": "address",
          "name": "previousOwner",
          "type": "address"
        },
        {
          "indexed": true,
          "internalType": "address",
          "name": "newOwner",
          "type": "address"
        }
      ],
      "name": "OwnershipTransferred",
      "type": "event"
    },
    {
      "anonymous": false,
      "inputs": [
        {
          "indexed": true,
          "internalType": "address",
          "name": "from",
          "type": "address"
        },
        {
          "indexed": true,
          "internalType": "address",
          "name": "to",
          "type": "address"
        },
        {
          "indexed": false,
          "internalType": "uint256",
          "name": "value",
          "type": "uint256"
        }
      ],
      "name": "Transfer",
      "type": "event"
    },
    {
      "anonymous": false,
      "inputs": [
        {
          "indexed": true,
          "internalType": "address",
          "name": "sender",
          "type": "address"
        },
        {
          "indexed": true,
          "internalType": "address",
          "name": "receiver",
          "type": "address"
        },
        {
          "indexed": true,
          "internalType": "address",
          "name": "owner",
          "type": "address"
        },
        {
          "indexed": false,
          "internalType": "uint256",
          "name": "assets",
          "type": "uint256"
        },
        {
          "indexed": false,
          "internalType": "uint256",
          "name": "shares",
          "type": "uint256"
        }
      ],
      "name": "Withdraw",
      "type": "event"
    },
    {
      "anonymous": false,
      "inputs": [
        {
          "indexed": true,
          "internalType": "address",
          "name": "user",
          "type": "address"
        },
        {
          "indexed": false,
          "internalType": "uint256",
          "name": "assets",
          "type": "uint256"
        },
        {
          "indexed": false,
          "internalType": "uint256",
          "name": "shares",
          "type": "uint256"
        }
      ],
      "name": "Withdrawn",
      "type": "event"
    },
    {
      "anonymous": false,
      "inputs": [
        {
          "indexed": false,
          "internalType": "uint256",
          "name": "yieldShares",
          "type": "uint256"
        },
        {
          "indexed": false,
          "internalType": "uint256",
          "name": "timestamp",
          "type": "uint256"
        }
      ],
      "name": "YieldAccumulated",
      "type": "event"
    },
    {
      "anonymous": false,
      "inputs": [
        {
          "indexed": true,
          "internalType": "address",
          "name": "recipient",
          "type": "address"
        },
        {
          "indexed": false,
          "internalType": "uint256",
          "name": "amount",
          "type": "uint256"
        },
        {
          "indexed": false,
          "internalType": "uint256",
          "name": "timestamp",
          "type": "uint256"
        }
      ],
      "name": "YieldWithdrawn",
      "type": "event"
    },
    {
      "inputs": [],
      "name": "accumulatedShares",
      "outputs": [
        {
          "internalType": "uint256",
          "name": "",
          "type": "uint256"
        }
      ],
      "stateMutability": "view",
      "type": "function"
    },
    {
      "inputs": [
        {
          "internalType": "address",
          "name": "owner",
          "type": "address"
        },
        {
          "internalType": "address",
          "name": "spender",
          "type": "address"
        }
      ],
      "name": "allowance",
      "outputs": [
        {
          "internalType": "uint256",
          "name": "",
          "type": "uint256"
        }
      ],
      "stateMutability": "view",
      "type": "function"
    },
    {
      "inputs": [
        {
          "internalType": "address",
          "name": "spender",
          "type": "address"
        },
        {
          "internalType": "uint256",
          "name": "value",
          "type": "uint256"
        }
      ],
      "name": "approve",
      "outputs": [
        {
          "internalType": "bool",
          "name": "",
          "type": "bool"
        }
      ],
      "stateMutability": "nonpayable",
      "type": "function"
    },
    {
      "inputs": [],
      "name": "asset",
      "outputs": [
        {
          "internalType": "address",
          "name": "",
          "type": "address"
        }
      ],
      "stateMutability": "view",
      "type": "function"
    },
    {
      "inputs": [
        {
          "internalType": "address",
          "name": "account",
          "type": "address"
        }
      ],
      "name": "balanceOf",
      "outputs": [
        {
          "internalType": "uint256",
          "name": "",
          "type": "uint256"
        }
      ],
      "stateMutability": "view",
      "type": "function"
    },
    {
      "inputs": [
        {
          "internalType": "uint256",
          "name": "shares",
          "type": "uint256"
        }
      ],
      "name": "convertToAssets",
      "outputs": [
        {
          "internalType": "uint256",
          "name": "",
          "type": "uint256"
        }
      ],
      "stateMutability": "view",
      "type": "function"
    },
    {
      "inputs": [
        {
          "internalType": "uint256",
          "name": "assets",
          "type": "uint256"
        }
      ],
      "name": "convertToShares",
      "outputs": [
        {
          "internalType": "uint256",
          "name": "",
          "type": "uint256"
        }
      ],
      "stateMutability": "view",
      "type": "function"
    },
    {
      "inputs": [],
      "name": "decimals",
      "outputs": [
        {
          "internalType": "uint8",
          "name": "",
          "type": "uint8"
        }
      ],
      "stateMutability": "pure",
      "type": "function"
    },
    {
      "inputs": [
        {
          "internalType": "uint256",
          "name": "assets",
          "type": "uint256"
        },
        {
          "internalType": "address",
          "name": "receiver",
          "type": "address"
        }
      ],
      "name": "deposit",
      "outputs": [
        {
          "internalType": "uint256",
          "name": "shares",
          "type": "uint256"
        }
      ],
      "stateMutability": "nonpayable",
      "type": "function"
    },
    {
      "inputs": [
        {
          "internalType": "address",
          "name": "",
          "type": "address"
        }
      ],
      "name": "maxDeposit",
      "outputs": [
        {
          "internalType": "uint256",
          "name": "",
          "type": "uint256"
        }
      ],
      "stateMutability": "view",
      "type": "function"
    },
    {
      "inputs": [
        {
          "internalType": "address",
          "name": "",
          "type": "address"
        }
      ],
      "name": "maxMint",
      "outputs": [
        {
          "internalType": "uint256",
          "name": "",
          "type": "uint256"
        }
      ],
      "stateMutability": "view",
      "type": "function"
    },
    {
      "inputs": [
        {
          "internalType": "address",
          "name": "owner",
          "type": "address"
        }
      ],
      "name": "maxRedeem",
      "outputs": [
        {
          "internalType": "uint256",
          "name": "",
          "type": "uint256"
        }
      ],
      "stateMutability": "view",
      "type": "function"
    },
    {
      "inputs": [
        {
          "internalType": "address",
          "name": "owner",
          "type": "address"
        }
      ],
      "name": "maxWithdraw",
      "outputs": [
        {
          "internalType": "uint256",
          "name": "",
          "type": "uint256"
        }
      ],
      "stateMutability": "view",
      "type": "function"
    },
    {
      "inputs": [
        {
          "internalType": "uint256",
          "name": "shares",
          "type": "uint256"
        },
        {
          "internalType": "address",
          "name": "receiver",
          "type": "address"
        }
      ],
      "name": "mint",
      "outputs": [
        {
          "internalType": "uint256",
          "name": "assets",
          "type": "uint256"
        }
      ],
      "stateMutability": "nonpayable",
      "type": "function"
    },
    {
      "inputs": [],
      "name": "name",
      "outputs": [
        {
          "internalType": "string",
          "name": "",
          "type": "string"
        }
      ],
      "stateMutability": "view",
      "type": "function"
    },
    {
      "inputs": [],
      "name": "owner",
      "outputs": [
        {
          "internalType": "address",
          "name": "",
          "type": "address"
        }
      ],
      "stateMutability": "view",
      "type": "function"
    },
    {
      "inputs": [
        {
          "internalType": "uint256",
          "name": "assets",
          "type": "uint256"
        }
      ],
      "name": "previewDeposit",
      "outputs": [
        {
          "internalType": "uint256",
          "name": "",
          "type": "uint256"
        }
      ],
      "stateMutability": "view",
      "type": "function"
    },
    {
      "inputs": [
        {
          "internalType": "uint256",
          "name": "shares",
          "type": "uint256"
        }
      ],
      "name": "previewMint",
      "outputs": [
        {
          "internalType": "uint256",
          "name": "",
          "type": "uint256"
        }
      ],
      "stateMutability": "view",
      "type": "function"
    },
    {
      "inputs": [
        {
          "internalType": "uint256",
          "name": "shares",
          "type": "uint256"
        }
      ],
      "name": "previewRedeem",
      "outputs": [
        {
          "internalType": "uint256",
          "name": "",
          "type": "uint256"
        }
      ],
      "stateMutability": "view",
      "type": "function"
    },
    {
      "inputs": [
        {
          "internalType": "uint256",
          "name": "assets",
          "type": "uint256"
        }
      ],
      "name": "previewWithdraw",
      "outputs": [
        {
          "internalType": "uint256",
          "name": "",
          "type": "uint256"
        }
      ],
      "stateMutability": "view",
      "type": "function"
    },
    {
      "inputs": [
        {
          "internalType": "uint256",
          "name": "shares",
          "type": "uint256"
        },
        {
          "internalType": "address",
          "name": "receiver",
          "type": "address"
        },
        {
          "internalType": "address",
          "name": "owner",
          "type": "address"
        }
      ],
      "name": "redeem",
      "outputs": [
        {
          "internalType": "uint256",
          "name": "assets",
          "type": "uint256"
        }
      ],
      "stateMutability": "nonpayable",
      "type": "function"
    },
    {
      "inputs": [],
      "name": "renounceOwnership",
      "outputs": [],
      "stateMutability": "nonpayable",
      "type": "function"
    },
    {
      "inputs": [],
      "name": "symbol",
      "outputs": [
        {
          "internalType": "string",
          "name": "",
          "type": "string"
        }
      ],
      "stateMutability": "view",
      "type": "function"
    },
    {
      "inputs": [],
      "name": "totalAssets",
      "outputs": [
        {
          "internalType": "uint256",
          "name": "",
          "type": "uint256"
        }
      ],
      "stateMutability": "view",
      "type": "function"
    },
    {
      "inputs": [],
      "name": "totalSupply",
      "outputs": [
        {
          "internalType": "uint256",
          "name": "",
          "type": "uint256"
        }
      ],
      "stateMutability": "view",
      "type": "function"
    },
    {
      "inputs": [
        {
          "internalType": "address",
          "name": "to",
          "type": "address"
        },
        {
          "internalType": "uint256",
          "name": "value",
          "type": "uint256"
        }
      ],
      "name": "transfer",
      "outputs": [
        {
          "internalType": "bool",
          "name": "",
          "type": "bool"
        }
      ],
      "stateMutability": "nonpayable",
      "type": "function"
    },
    {
      "inputs": [
        {
          "internalType": "address",
          "name": "from",
          "type": "address"
        },
        {
          "internalType": "address",
          "name": "to",
          "type": "address"
        },
        {
          "internalType": "uint256",
          "name": "value",
          "type": "uint256"
        }
      ],
      "name": "transferFrom",
      "outputs": [
        {
          "internalType": "bool",
          "name": "",
          "type": "bool"
        }
      ],
      "stateMutability": "nonpayable",
      "type": "function"
    },
    {
      "inputs": [
        {
          "internalType": "address",
          "name": "newOwner",
          "type": "address"
        }
      ],
      "name": "transferOwnership",
      "outputs": [],
      "stateMutability": "nonpayable",
      "type": "function"
    },
    {
      "inputs": [
        {
          "internalType": "address",
          "name": "",
          "type": "address"
        }
      ],
      "name": "userDepositedAssets",
      "outputs": [
        {
          "internalType": "uint256",
          "name": "",
          "type": "uint256"
        }
      ],
      "stateMutability": "view",
      "type": "function"
    },
    {
      "inputs": [
        {
          "internalType": "uint256",
          "name": "assets",
          "type": "uint256"
        },
        {
          "internalType": "address",
          "name": "receiver",
          "type": "address"
        },
        {
          "internalType": "address",
          "name": "owner",
          "type": "address"
        }
      ],
      "name": "withdraw",
      "outputs": [
        {
          "internalType": "uint256",
          "name": "shares",
          "type": "uint256"
        }
      ],
      "stateMutability": "nonpayable",
      "type": "function"
    },
    {
      "inputs": [
        {
          "internalType": "uint256",
          "name": "amount",
          "type": "uint256"
        },
        {
          "internalType": "address",
          "name": "recipient",
          "type": "address"
        }
      ],
      "name": "withdrawAccumulatedYield",
      "outputs": [],
      "stateMutability": "nonpayable",
      "type": "function"
    }
  ],
  "bytecode": "0x60e06040523480156200001157600080fd5b5060405162004197380380620041978339818101604052810190620000379190620004b5565b33816040518060400160405280601981526020017f57726170706564204d6f7270686f205661756c742055534443000000000000008152506040518060400160405280600681526020017f576d5553444300000000000000000000000000000000000000000000000000008152508160039081620000b6919062000761565b508060049081620000c8919062000761565b505050600080620000df836200026b60201b60201c565b9150915081620000f1576012620000f3565b805b60ff1660a08160ff16815250508273ffffffffffffffffffffffffffffffffffffffff1660808173ffffffffffffffffffffffffffffffffffffffff1681525050505050600073ffffffffffffffffffffffffffffffffffffffff168173ffffffffffffffffffffffffffffffffffffffff1603620001ac5760006040517f1e4fbdf7000000000000000000000000000000000000000000000000000000008152600401620001a3919062000859565b60405180910390fd5b620001bd816200038560201b60201c565b50600073ffffffffffffffffffffffffffffffffffffffff168173ffffffffffffffffffffffffffffffffffffffff160362000230576040517f08c379a00000000000000000000000000000000000000000000000000000000081526004016200022790620008d7565b60405180910390fd5b8073ffffffffffffffffffffffffffffffffffffffff1660c08173ffffffffffffffffffffffffffffffffffffffff168152505050620009ee565b6000806000808473ffffffffffffffffffffffffffffffffffffffff1660405160240160405160208183030381529060405263313ce56760e01b6020820180517bffffffffffffffffffffffffffffffffffffffffffffffffffffffff8381831617835250505050604051620002e2919062000972565b600060405180830381855afa9150503d80600081146200031f576040519150601f19603f3d011682016040523d82523d6000602084013e62000324565b606091505b50915091508180156200033957506020815110155b156200037657600081806020019051810190620003579190620009bc565b905060ff8016811162000374576001819450945050505062000380565b505b6000809350935050505b915091565b6000600560009054906101000a900473ffffffffffffffffffffffffffffffffffffffff16905081600560006101000a81548173ffffffffffffffffffffffffffffffffffffffff021916908373ffffffffffffffffffffffffffffffffffffffff1602179055508173ffffffffffffffffffffffffffffffffffffffff168173ffffffffffffffffffffffffffffffffffffffff167f8be0079c531659141344cd1fd0a4f28419497f9722a3daafe3b4186f6b6457e060405160405180910390a35050565b600080fd5b600073ffffffffffffffffffffffffffffffffffffffff82169050919050565b60006200047d8262000450565b9050919050565b6200048f8162000470565b81146200049b57600080fd5b50565b600081519050620004af8162000484565b92915050565b600060208284031215620004ce57620004cd6200044b565b5b6000620004de848285016200049e565b91505092915050565b600081519050919050565b7f4e487b7100000000000000000000000000000000000000000000000000000000600052604160045260246000fd5b7f4e487b7100000000000000000000000000000000000000000000000000000000600052602260045260246000fd5b600060028204905060018216806200056957607f821691505b6020821081036200057f576200057e62000521565b5b50919050565b60008190508160005260206000209050919050565b60006020601f8301049050919050565b600082821b905092915050565b600060088302620005e97fffffffffffffffffffffffffffffffffffffffffffffffffffffffffffffffff82620005aa565b620005f58683620005aa565b95508019841693508086168417925050509392505050565b6000819050919050565b6000819050919050565b6000620006426200063c62000636846200060d565b62000617565b6200060d565b9050919050565b6000819050919050565b6200065e8362000621565b620006766200066d8262000649565b848454620005b7565b825550505050565b600090565b6200068d6200067e565b6200069a81848462000653565b505050565b5b81811015620006c257620006b660008262000683565b600181019050620006a0565b5050565b601f8211156200071157620006db8162000585565b620006e6846200059a565b81016020851015620006f6578190505b6200070e62000705856200059a565b8301826200069f565b50505b505050565b600082821c905092915050565b6000620007366000198460080262000716565b1980831691505092915050565b600062000751838362000723565b9150826002028217905092915050565b6200076c82620004e7565b67ffffffffffffffff811115620007885762000787620004f2565b5b62000794825462000550565b620007a1828285620006c6565b600060209050601f831160018114620007d95760008415620007c4578287015190505b620007d0858262000743565b86555062000840565b601f198416620007e98662000585565b60005b828110156200081357848901518255600182019150602085019450602081019050620007ec565b868310156200083357848901516200082f601f89168262000723565b8355505b6001600288020188555050505b505050505050565b620008538162000470565b82525050565b600060208201905062000870600083018462000848565b92915050565b600082825260208201905092915050565b7f496e76616c6964207661756c7455534443206164647265737300000000000000600082015250565b6000620008bf60198362000876565b9150620008cc8262000887565b602082019050919050565b60006020820190508181036000830152620008f281620008b0565b9050919050565b600081519050919050565b600081905092915050565b60005b838110156200092f57808201518184015260208101905062000912565b60008484015250505050565b60006200094882620008f9565b62000954818562000904565b9350620009668185602086016200090f565b80840191505092915050565b60006200098082846200093b565b915081905092915050565b62000996816200060d565b8114620009a257600080fd5b50565b600081519050620009b6816200098b565b92915050565b600060208284031215620009d557620009d46200044b565b5b6000620009e584828501620009a5565b91505092915050565b60805160a05160c05161373662000a61600039600081816106e10152818161077f01528181610b0201528181610e50015281816112a2015281816113aa01528181611799015281816118a101528181611c45015281816120c4015261235e015260005050600061099f01526137366000f3fe608060405234801561001057600080fd5b50600436106101e55760003560e01c80638da5cb5b1161010f578063c63d75b6116100a2578063dd52c6af11610071578063dd52c6af14610644578063dd62ed3e14610660578063ef8b30f714610690578063f2fde38b146106c0576101e5565b8063c63d75b614610584578063c6e6f592146105b4578063ce96cb77146105e4578063d905777e14610614576101e5565b8063b3a42e1e116100de578063b3a42e1e146104c4578063b3d7f6b9146104f4578063b460af9414610524578063ba08765214610554576101e5565b80638da5cb5b1461042857806394bf804d1461044657806395d89b4114610476578063a9059cbb14610494576101e5565b8063313ce56711610187578063620af4ab11610156578063620af4ab146103a05780636e553f65146103be57806370a08231146103ee578063715018a61461041e576101e5565b8063313ce5671461030457806338d52e0f14610322578063402d267d146103405780634cdad50614610370576101e5565b8063095ea7b3116101c3578063095ea7b3146102565780630a28a4771461028657806318160ddd146102b657806323b872dd146102d4576101e5565b806301e1d114146101ea57806306fdde031461020857806307a2d13a14610226575b600080fd5b6101f26106dc565b6040516101ff9190612aaf565b60405180910390f35b610210610831565b60405161021d9190612b5a565b60405180910390f35b610240600480360381019061023b9190612bad565b6108c3565b60405161024d9190612aaf565b60405180910390f35b610270600480360381019061026b9190612c38565b6108d7565b60405161027d9190612c93565b60405180910390f35b6102a0600480360381019061029b9190612bad565b6108fa565b6040516102ad9190612aaf565b60405180910390f35b6102be610959565b6040516102cb9190612aaf565b60405180910390f35b6102ee60048036038101906102e99190612cae565b610963565b6040516102fb9190612c93565b60405180910390f35b61030c610992565b6040516103199190612d1d565b60405180910390f35b61032a61099b565b6040516103379190612d47565b60405180910390f35b61035a60048036038101906103559190612d62565b6109c3565b6040516103679190612aaf565b60405180910390f35b61038a60048036038101906103859190612bad565b6109ed565b6040516103979190612aaf565b60405180910390f35b6103a8610a2f565b6040516103b59190612aaf565b60405180910390f35b6103d860048036038101906103d39190612d8f565b610a35565b6040516103e59190612aaf565b60405180910390f35b61040860048036038101906104039190612d62565b610cfd565b6040516104159190612aaf565b60405180910390f35b610426610d45565b005b610430610d59565b60405161043d9190612d47565b60405180910390f35b610460600480360381019061045b9190612d8f565b610d83565b60405161046d9190612aaf565b60405180910390f35b61047e610ffb565b60405161048b9190612b5a565b60405180910390f35b6104ae60048036038101906104a99190612c38565b61108d565b6040516104bb9190612c93565b60405180910390f35b6104de60048036038101906104d99190612d62565b6110b0565b6040516104eb9190612aaf565b60405180910390f35b61050e60048036038101906105099190612bad565b6110c8565b60405161051b9190612aaf565b60405180910390f35b61053e60048036038101906105399190612dcf565b611121565b60405161054b9190612aaf565b60405180910390f35b61056e60048036038101906105699190612dcf565b611618565b60405161057b9190612aaf565b60405180910390f35b61059e60048036038101906105999190612d62565b611abf565b6040516105ab9190612aaf565b60405180910390f35b6105ce60048036038101906105c99190612bad565b611ae9565b6040516105db9190612aaf565b60405180910390f35b6105fe60048036038101906105f99190612d62565b611afd565b60405161060b9190612aaf565b60405180910390f35b61062e60048036038101906106299190612d62565b611b19565b60405161063b9190612aaf565b60405180910390f35b61065e60048036038101906106599190612d8f565b611b2b565b005b61067a60048036038101906106759190612e22565b611d74565b6040516106879190612aaf565b60405180910390f35b6106aa60048036038101906106a59190612bad565b611dfb565b6040516106b79190612aaf565b60405180910390f35b6106da60048036038101906106d59190612d62565b611e3d565b005b6000807f000000000000000000000000000000000000000000000000000000000000000073ffffffffffffffffffffffffffffffffffffffff166370a08231306040518263ffffffff1660e01b81526004016107389190612d47565b602060405180830381865afa158015610755573d6000803e3d6000fd5b505050506040513d601f19601f820116820180604052508101906107799190612e77565b905060007f000000000000000000000000000000000000000000000000000000000000000073ffffffffffffffffffffffffffffffffffffffff166307a2d13a836040518263ffffffff1660e01b81526004016107d69190612aaf565b602060405180830381865afa1580156107f3573d6000803e3d6000fd5b505050506040513d601f19601f820116820180604052508101906108179190612e77565b905064e8d4a510008161082a9190612ed3565b9250505090565b60606003805461084090612f44565b80601f016020809104026020016040519081016040528092919081815260200182805461086c90612f44565b80156108b95780601f1061088e576101008083540402835291602001916108b9565b820191906000526020600020905b81548152906001019060200180831161089c57829003601f168201915b5050505050905090565b60006108d0826000611ec3565b9050919050565b6000806108e2611f1c565b90506108ef818585611f24565b600191505092915050565b6000806109056106dc565b90506000610911610959565b90506000811461094e5781600183838761092b9190612ed3565b6109359190612f75565b61093f9190612fa9565b610949919061300c565b610950565b835b92505050919050565b6000600254905090565b60008061096e611f1c565b905061097b858285611f36565b610986858585611fcb565b60019150509392505050565b60006012905090565b60007f0000000000000000000000000000000000000000000000000000000000000000905090565b60007fffffffffffffffffffffffffffffffffffffffffffffffffffffffffffffffff9050919050565b6000806109f8610959565b905060008114610a255780610a0b6106dc565b84610a169190612ed3565b610a20919061300c565b610a27565b825b915050919050565b60075481565b6000808311610a79576040517f08c379a0000000000000000000000000000000000000000000000000000000008152600401610a7090613089565b60405180910390fd5b600073ffffffffffffffffffffffffffffffffffffffff168273ffffffffffffffffffffffffffffffffffffffff1603610ae8576040517f08c379a0000000000000000000000000000000000000000000000000000000008152600401610adf906130f5565b60405180910390fd5b6000610af3846120bf565b9050610afe81611dfb565b91507f000000000000000000000000000000000000000000000000000000000000000073ffffffffffffffffffffffffffffffffffffffff166323b872dd3330876040518463ffffffff1660e01b8152600401610b5d93929190613115565b6020604051808303816000875af1158015610b7c573d6000803e3d6000fd5b505050506040513d601f19601f82011682018060405250810190610ba09190613178565b610bdf576040517f08c379a0000000000000000000000000000000000000000000000000000000008152600401610bd6906131f1565b60405180910390fd5b80600660008573ffffffffffffffffffffffffffffffffffffffff1673ffffffffffffffffffffffffffffffffffffffff1681526020019081526020016000206000828254610c2e9190612f75565b92505081905550610c3f8383612177565b8273ffffffffffffffffffffffffffffffffffffffff167f73a19dd210f1a7f902193214c0ee91dd35ee5b4d920cba8d519eca65a7b488ca8284604051610c87929190613211565b60405180910390a28273ffffffffffffffffffffffffffffffffffffffff163373ffffffffffffffffffffffffffffffffffffffff167fdcbc1c05240f31ff3ad067ef1ee35ce4997762752e3a095284754544f4c709d78385604051610cee929190613211565b60405180910390a35092915050565b60008060008373ffffffffffffffffffffffffffffffffffffffff1673ffffffffffffffffffffffffffffffffffffffff168152602001908152602001600020549050919050565b610d4d6121f9565b610d576000612280565b565b6000600560009054906101000a900473ffffffffffffffffffffffffffffffffffffffff16905090565b6000808311610dc7576040517f08c379a0000000000000000000000000000000000000000000000000000000008152600401610dbe90613286565b60405180910390fd5b600073ffffffffffffffffffffffffffffffffffffffff168273ffffffffffffffffffffffffffffffffffffffff1603610e36576040517f08c379a0000000000000000000000000000000000000000000000000000000008152600401610e2d906130f5565b60405180910390fd5b6000610e41846110c8565b9050610e4c81612346565b91507f000000000000000000000000000000000000000000000000000000000000000073ffffffffffffffffffffffffffffffffffffffff166323b872dd3330856040518463ffffffff1660e01b8152600401610eab93929190613115565b6020604051808303816000875af1158015610eca573d6000803e3d6000fd5b505050506040513d601f19601f82011682018060405250810190610eee9190613178565b610f2d576040517f08c379a0000000000000000000000000000000000000000000000000000000008152600401610f24906131f1565b60405180910390fd5b80600660008573ffffffffffffffffffffffffffffffffffffffff1673ffffffffffffffffffffffffffffffffffffffff1681526020019081526020016000206000828254610f7c9190612f75565b92505081905550610f8d8385612177565b8273ffffffffffffffffffffffffffffffffffffffff163373ffffffffffffffffffffffffffffffffffffffff167fdcbc1c05240f31ff3ad067ef1ee35ce4997762752e3a095284754544f4c709d78387604051610fec929190613211565b60405180910390a35092915050565b60606004805461100a90612f44565b80601f016020809104026020016040519081016040528092919081815260200182805461103690612f44565b80156110835780601f1061105857610100808354040283529160200191611083565b820191906000526020600020905b81548152906001019060200180831161106657829003601f168201915b5050505050905090565b600080611098611f1c565b90506110a5818585611fcb565b600191505092915050565b60066020528060005260406000206000915090505481565b6000806110d3610959565b90506000811461111757806001826110e96106dc565b866110f49190612ed3565b6110fe9190612f75565b6111089190612fa9565b611112919061300c565b611119565b825b915050919050565b6000808411611165576040517f08c379a000000000000000000000000000000000000000000000000000000000815260040161115c906132f2565b60405180910390fd5b600073ffffffffffffffffffffffffffffffffffffffff168373ffffffffffffffffffffffffffffffffffffffff16036111d4576040517f08c379a00000000000000000000000000000000000000000000000000000000081526004016111cb906130f5565b60405180910390fd5b6111dd846108fa565b90508173ffffffffffffffffffffffffffffffffffffffff163373ffffffffffffffffffffffffffffffffffffffff161461127b57600061121e8333611d74565b905081811015611263576040517f08c379a000000000000000000000000000000000000000000000000000000000815260040161125a9061335e565b60405180910390fd5b611279833384846112749190612fa9565b611f24565b505b6000611285610959565b905061129183836123fe565b600061129c86612346565b905060007f000000000000000000000000000000000000000000000000000000000000000073ffffffffffffffffffffffffffffffffffffffff166370a08231306040518263ffffffff1660e01b81526004016112f99190612d47565b602060405180830381865afa158015611316573d6000803e3d6000fd5b505050506040513d601f19601f8201168201806040525081019061133a9190612e77565b9050818111156113a857600082826113529190612fa9565b905080600760008282546113669190612f75565b925050819055507ffcdfbd17478a7a3586ec01961f4ffaad1453178eee6ae29dd135167624edced9814260405161139e929190613211565b60405180910390a1505b7f000000000000000000000000000000000000000000000000000000000000000073ffffffffffffffffffffffffffffffffffffffff1663a9059cbb87846040518363ffffffff1660e01b815260040161140392919061337e565b6020604051808303816000875af1158015611422573d6000803e3d6000fd5b505050506040513d601f19601f820116820180604052508101906114469190613178565b611485576040517f08c379a000000000000000000000000000000000000000000000000000000000815260040161147c906131f1565b60405180910390fd5b60008311156115405760008385600660008973ffffffffffffffffffffffffffffffffffffffff1673ffffffffffffffffffffffffffffffffffffffff168152602001908152602001600020546114dc9190612ed3565b6114e6919061300c565b905080600660008873ffffffffffffffffffffffffffffffffffffffff1673ffffffffffffffffffffffffffffffffffffffff16815260200190815260200160002060008282546115379190612fa9565b92505081905550505b8473ffffffffffffffffffffffffffffffffffffffff167f92ccf450a286a957af52509bc1c9939d1a6a481783e142e41e2499f0bb66ebc68886604051611588929190613211565b60405180910390a28473ffffffffffffffffffffffffffffffffffffffff168673ffffffffffffffffffffffffffffffffffffffff163373ffffffffffffffffffffffffffffffffffffffff167ffbde797d201c681b91056529119e0b02407c7bb96a4a2c75c01fc9667232c8db8a88604051611606929190613211565b60405180910390a45050509392505050565b600080841161165c576040517f08c379a0000000000000000000000000000000000000000000000000000000008152600401611653906133f3565b60405180910390fd5b600073ffffffffffffffffffffffffffffffffffffffff168373ffffffffffffffffffffffffffffffffffffffff16036116cb576040517f08c379a00000000000000000000000000000000000000000000000000000000081526004016116c2906130f5565b60405180910390fd5b60006116d6856109ed565b90508273ffffffffffffffffffffffffffffffffffffffff163373ffffffffffffffffffffffffffffffffffffffff16146117745760006117178433611d74565b90508581101561175c576040517f08c379a00000000000000000000000000000000000000000000000000000000081526004016117539061335e565b60405180910390fd5b6117728433888461176d9190612fa9565b611f24565b505b600061177e610959565b905061178a84876123fe565b61179382612346565b925060007f000000000000000000000000000000000000000000000000000000000000000073ffffffffffffffffffffffffffffffffffffffff166370a08231306040518263ffffffff1660e01b81526004016117f09190612d47565b602060405180830381865afa15801561180d573d6000803e3d6000fd5b505050506040513d601f19601f820116820180604052508101906118319190612e77565b90508381111561189f57600084826118499190612fa9565b9050806007600082825461185d9190612f75565b925050819055507ffcdfbd17478a7a3586ec01961f4ffaad1453178eee6ae29dd135167624edced98142604051611895929190613211565b60405180910390a1505b7f000000000000000000000000000000000000000000000000000000000000000073ffffffffffffffffffffffffffffffffffffffff1663a9059cbb87866040518363ffffffff1660e01b81526004016118fa92919061337e565b6020604051808303816000875af1158015611919573d6000803e3d6000fd5b505050506040513d601f19601f8201168201806040525081019061193d9190613178565b61197c576040517f08c379a0000000000000000000000000000000000000000000000000000000008152600401611973906131f1565b60405180910390fd5b6000821115611a375760008288600660008973ffffffffffffffffffffffffffffffffffffffff1673ffffffffffffffffffffffffffffffffffffffff168152602001908152602001600020546119d39190612ed3565b6119dd919061300c565b905080600660008873ffffffffffffffffffffffffffffffffffffffff1673ffffffffffffffffffffffffffffffffffffffff1681526020019081526020016000206000828254611a2e9190612fa9565b92505081905550505b8473ffffffffffffffffffffffffffffffffffffffff168673ffffffffffffffffffffffffffffffffffffffff163373ffffffffffffffffffffffffffffffffffffffff167ffbde797d201c681b91056529119e0b02407c7bb96a4a2c75c01fc9667232c8db868b604051611aad929190613211565b60405180910390a45050509392505050565b60007fffffffffffffffffffffffffffffffffffffffffffffffffffffffffffffffff9050919050565b6000611af6826000612480565b9050919050565b6000611b12611b0b83610cfd565b6000611ec3565b9050919050565b6000611b2482610cfd565b9050919050565b611b336121f9565b60008211611b76576040517f08c379a0000000000000000000000000000000000000000000000000000000008152600401611b6d906132f2565b60405180910390fd5b600073ffffffffffffffffffffffffffffffffffffffff168173ffffffffffffffffffffffffffffffffffffffff1603611be5576040517f08c379a0000000000000000000000000000000000000000000000000000000008152600401611bdc9061345f565b60405180910390fd5b600754821115611c2a576040517f08c379a0000000000000000000000000000000000000000000000000000000008152600401611c21906134cb565b60405180910390fd5b8160076000828254611c3c9190612fa9565b925050819055507f000000000000000000000000000000000000000000000000000000000000000073ffffffffffffffffffffffffffffffffffffffff1663a9059cbb82846040518363ffffffff1660e01b8152600401611c9e92919061337e565b6020604051808303816000875af1158015611cbd573d6000803e3d6000fd5b505050506040513d601f19601f82011682018060405250810190611ce19190613178565b611d20576040517f08c379a0000000000000000000000000000000000000000000000000000000008152600401611d17906131f1565b60405180910390fd5b8073ffffffffffffffffffffffffffffffffffffffff167f2bf878084037ba4fb4363629d72708a5bb8e8e0de5af9fe03d987d5289f6f4a28342604051611d68929190613211565b60405180910390a25050565b6000600160008473ffffffffffffffffffffffffffffffffffffffff1673ffffffffffffffffffffffffffffffffffffffff16815260200190815260200160002060008373ffffffffffffffffffffffffffffffffffffffff1673ffffffffffffffffffffffffffffffffffffffff16815260200190815260200160002054905092915050565b600080611e06610959565b905060008114611e3357611e186106dc565b8184611e249190612ed3565b611e2e919061300c565b611e35565b825b915050919050565b611e456121f9565b600073ffffffffffffffffffffffffffffffffffffffff168173ffffffffffffffffffffffffffffffffffffffff1603611eb75760006040517f1e4fbdf7000000000000000000000000000000000000000000000000000000008152600401611eae9190612d47565b60405180910390fd5b611ec081612280565b50565b6000611f146001611ed26106dc565b611edc9190612f75565b611ee46124d9565b600a611ef0919061361e565b611ef8610959565b611f029190612f75565b84866124de909392919063ffffffff16565b905092915050565b600033905090565b611f31838383600161252d565b505050565b6000611f428484611d74565b90507fffffffffffffffffffffffffffffffffffffffffffffffffffffffffffffffff811015611fc55781811015611fb5578281836040517ffb8f41b2000000000000000000000000000000000000000000000000000000008152600401611fac93929190613669565b60405180910390fd5b611fc48484848403600061252d565b5b50505050565b600073ffffffffffffffffffffffffffffffffffffffff168373ffffffffffffffffffffffffffffffffffffffff160361203d5760006040517f96c6fd1e0000000000000000000000000000000000000000000000000000000081526004016120349190612d47565b60405180910390fd5b600073ffffffffffffffffffffffffffffffffffffffff168273ffffffffffffffffffffffffffffffffffffffff16036120af5760006040517fec442f050000000000000000000000000000000000000000000000000000000081526004016120a69190612d47565b60405180910390fd5b6120ba838383612704565b505050565b6000807f000000000000000000000000000000000000000000000000000000000000000073ffffffffffffffffffffffffffffffffffffffff166307a2d13a846040518263ffffffff1660e01b815260040161211b9190612aaf565b602060405180830381865afa158015612138573d6000803e3d6000fd5b505050506040513d601f19601f8201168201806040525081019061215c9190612e77565b905064e8d4a510008161216f9190612ed3565b915050919050565b600073ffffffffffffffffffffffffffffffffffffffff168273ffffffffffffffffffffffffffffffffffffffff16036121e95760006040517fec442f050000000000000000000000000000000000000000000000000000000081526004016121e09190612d47565b60405180910390fd5b6121f560008383612704565b5050565b612201611f1c565b73ffffffffffffffffffffffffffffffffffffffff1661221f610d59565b73ffffffffffffffffffffffffffffffffffffffff161461227e57612242611f1c565b6040517f118cdaa70000000000000000000000000000000000000000000000000000000081526004016122759190612d47565b60405180910390fd5b565b6000600560009054906101000a900473ffffffffffffffffffffffffffffffffffffffff16905081600560006101000a81548173ffffffffffffffffffffffffffffffffffffffff021916908373ffffffffffffffffffffffffffffffffffffffff1602179055508173ffffffffffffffffffffffffffffffffffffffff168173ffffffffffffffffffffffffffffffffffffffff167f8be0079c531659141344cd1fd0a4f28419497f9722a3daafe3b4186f6b6457e060405160405180910390a35050565b60008064e8d4a510008361235a919061300c565b90507f000000000000000000000000000000000000000000000000000000000000000073ffffffffffffffffffffffffffffffffffffffff1663c6e6f592826040518263ffffffff1660e01b81526004016123b59190612aaf565b602060405180830381865afa1580156123d2573d6000803e3d6000fd5b505050506040513d601f19601f820116820180604052508101906123f69190612e77565b915050919050565b600073ffffffffffffffffffffffffffffffffffffffff168273ffffffffffffffffffffffffffffffffffffffff16036124705760006040517f96c6fd1e0000000000000000000000000000000000000000000000000000000081526004016124679190612d47565b60405180910390fd5b61247c82600083612704565b5050565b60006124d161248d6124d9565b600a612499919061361e565b6124a1610959565b6124ab9190612f75565b60016124b56106dc565b6124bf9190612f75565b84866124de909392919063ffffffff16565b905092915050565b600090565b600061250e6124ec83612929565b801561250957506000848061250457612503612fdd565b5b868809115b612957565b612519868686612963565b6125239190612f75565b9050949350505050565b600073ffffffffffffffffffffffffffffffffffffffff168473ffffffffffffffffffffffffffffffffffffffff160361259f5760006040517fe602df050000000000000000000000000000000000000000000000000000000081526004016125969190612d47565b60405180910390fd5b600073ffffffffffffffffffffffffffffffffffffffff168373ffffffffffffffffffffffffffffffffffffffff16036126115760006040517f94280d620000000000000000000000000000000000000000000000000000000081526004016126089190612d47565b60405180910390fd5b81600160008673ffffffffffffffffffffffffffffffffffffffff1673ffffffffffffffffffffffffffffffffffffffff16815260200190815260200160002060008573ffffffffffffffffffffffffffffffffffffffff1673ffffffffffffffffffffffffffffffffffffffff1681526020019081526020016000208190555080156126fe578273ffffffffffffffffffffffffffffffffffffffff168473ffffffffffffffffffffffffffffffffffffffff167f8c5be1e5ebec7d5bd14f71427d1e84f3dd0314c0f7b2291e5b200ac8c7c3b925846040516126f59190612aaf565b60405180910390a35b50505050565b600073ffffffffffffffffffffffffffffffffffffffff168373ffffffffffffffffffffffffffffffffffffffff160361275657806002600082825461274a9190612f75565b92505081905550612829565b60008060008573ffffffffffffffffffffffffffffffffffffffff1673ffffffffffffffffffffffffffffffffffffffff168152602001908152602001600020549050818110156127e2578381836040517fe450d38c0000000000000000000000000000000000000000000000000000000081526004016127d993929190613669565b60405180910390fd5b8181036000808673ffffffffffffffffffffffffffffffffffffffff1673ffffffffffffffffffffffffffffffffffffffff16815260200190815260200160002081905550505b600073ffffffffffffffffffffffffffffffffffffffff168273ffffffffffffffffffffffffffffffffffffffff160361287257806002600082825403925050819055506128bf565b806000808473ffffffffffffffffffffffffffffffffffffffff1673ffffffffffffffffffffffffffffffffffffffff168152602001908152602001600020600082825401925050819055505b8173ffffffffffffffffffffffffffffffffffffffff168373ffffffffffffffffffffffffffffffffffffffff167fddf252ad1be2c89b69c2b068fc378daa952ba7f163c4a11628f55a4df523b3ef8360405161291c9190612aaf565b60405180910390a3505050565b600060016002836003811115612942576129416136a0565b5b61294c91906136cf565b60ff16149050919050565b60008115159050919050565b60008060006129728686612a4b565b91509150600082036129985783818161298e5761298d612fdd565b5b0492505050612a44565b8184116129b8576129b76129b26000861460126011612a6a565b612a84565b5b600084868809905081811183039250808203915060008560000386169050808604955080830492506001818260000304019050808402831792506000600287600302189050808702600203810290508087026002038102905080870260020381029050808702600203810290508087026002038102905080870260020381029050808402955050505050505b9392505050565b6000806000198385098385029150818110828203039250509250929050565b6000612a7584612957565b82841802821890509392505050565b634e487b71600052806020526024601cfd5b6000819050919050565b612aa981612a96565b82525050565b6000602082019050612ac46000830184612aa0565b92915050565b600081519050919050565b600082825260208201905092915050565b60005b83811015612b04578082015181840152602081019050612ae9565b60008484015250505050565b6000601f19601f8301169050919050565b6000612b2c82612aca565b612b368185612ad5565b9350612b46818560208601612ae6565b612b4f81612b10565b840191505092915050565b60006020820190508181036000830152612b748184612b21565b905092915050565b600080fd5b612b8a81612a96565b8114612b9557600080fd5b50565b600081359050612ba781612b81565b92915050565b600060208284031215612bc357612bc2612b7c565b5b6000612bd184828501612b98565b91505092915050565b600073ffffffffffffffffffffffffffffffffffffffff82169050919050565b6000612c0582612bda565b9050919050565b612c1581612bfa565b8114612c2057600080fd5b50565b600081359050612c3281612c0c565b92915050565b60008060408385031215612c4f57612c4e612b7c565b5b6000612c5d85828601612c23565b9250506020612c6e85828601612b98565b9150509250929050565b60008115159050919050565b612c8d81612c78565b82525050565b6000602082019050612ca86000830184612c84565b92915050565b600080600060608486031215612cc757612cc6612b7c565b5b6000612cd586828701612c23565b9350506020612ce686828701612c23565b9250506040612cf786828701612b98565b9150509250925092565b600060ff82169050919050565b612d1781612d01565b82525050565b6000602082019050612d326000830184612d0e565b92915050565b612d4181612bfa565b82525050565b6000602082019050612d5c6000830184612d38565b92915050565b600060208284031215612d7857612d77612b7c565b5b6000612d8684828501612c23565b91505092915050565b60008060408385031215612da657612da5612b7c565b5b6000612db485828601612b98565b9250506020612dc585828601612c23565b9150509250929050565b600080600060608486031215612de857612de7612b7c565b5b6000612df686828701612b98565b9350506020612e0786828701612c23565b9250506040612e1886828701612c23565b9150509250925092565b60008060408385031215612e3957612e38612b7c565b5b6000612e4785828601612c23565b9250506020612e5885828601612c23565b9150509250929050565b600081519050612e7181612b81565b92915050565b600060208284031215612e8d57612e8c612b7c565b5b6000612e9b84828501612e62565b91505092915050565b7f4e487b7100000000000000000000000000000000000000000000000000000000600052601160045260246000fd5b6000612ede82612a96565b9150612ee983612a96565b9250828202612ef781612a96565b91508282048414831517612f0e57612f0d612ea4565b5b5092915050565b7f4e487b7100000000000000000000000000000000000000000000000000000000600052602260045260246000fd5b60006002820490506001821680612f5c57607f821691505b602082108103612f6f57612f6e612f15565b5b50919050565b6000612f8082612a96565b9150612f8b83612a96565b9250828201905080821115612fa357612fa2612ea4565b5b92915050565b6000612fb482612a96565b9150612fbf83612a96565b9250828203905081811115612fd757612fd6612ea4565b5b92915050565b7f4e487b7100000000000000000000000000000000000000000000000000000000600052601260045260246000fd5b600061301782612a96565b915061302283612a96565b92508261303257613031612fdd565b5b828204905092915050565b7f43616e6e6f74206465706f736974207a65726f00000000000000000000000000600082015250565b6000613073601383612ad5565b915061307e8261303d565b602082019050919050565b600060208201905081810360008301526130a281613066565b9050919050565b7f496e76616c696420726563656976657200000000000000000000000000000000600082015250565b60006130df601083612ad5565b91506130ea826130a9565b602082019050919050565b6000602082019050818103600083015261310e816130d2565b9050919050565b600060608201905061312a6000830186612d38565b6131376020830185612d38565b6131446040830184612aa0565b949350505050565b61315581612c78565b811461316057600080fd5b50565b6000815190506131728161314c565b92915050565b60006020828403121561318e5761318d612b7c565b5b600061319c84828501613163565b91505092915050565b7f5472616e73666572206661696c65640000000000000000000000000000000000600082015250565b60006131db600f83612ad5565b91506131e6826131a5565b602082019050919050565b6000602082019050818103600083015261320a816131ce565b9050919050565b60006040820190506132266000830185612aa0565b6132336020830184612aa0565b9392505050565b7f43616e6e6f74206d696e74207a65726f00000000000000000000000000000000600082015250565b6000613270601083612ad5565b915061327b8261323a565b602082019050919050565b6000602082019050818103600083015261329f81613263565b9050919050565b7f43616e6e6f74207769746864726177207a65726f000000000000000000000000600082015250565b60006132dc601483612ad5565b91506132e7826132a6565b602082019050919050565b6000602082019050818103600083015261330b816132cf565b9050919050565b7f496e73756666696369656e7420616c6c6f77616e636500000000000000000000600082015250565b6000613348601683612ad5565b915061335382613312565b602082019050919050565b600060208201905081810360008301526133778161333b565b9050919050565b60006040820190506133936000830185612d38565b6133a06020830184612aa0565b9392505050565b7f43616e6e6f742072656465656d207a65726f0000000000000000000000000000600082015250565b60006133dd601283612ad5565b91506133e8826133a7565b602082019050919050565b6000602082019050818103600083015261340c816133d0565b9050919050565b7f496e76616c696420726563697069656e74000000000000000000000000000000600082015250565b6000613449601183612ad5565b915061345482613413565b602082019050919050565b600060208201905081810360008301526134788161343c565b9050919050565b7f496e73756666696369656e7420616363756d756c61746564207969656c640000600082015250565b60006134b5601e83612ad5565b91506134c08261347f565b602082019050919050565b600060208201905081810360008301526134e4816134a8565b9050919050565b60008160011c9050919050565b6000808291508390505b60018511156135425780860481111561351e5761351d612ea4565b5b600185161561352d5780820291505b808102905061353b856134eb565b9450613502565b94509492505050565b60008261355b5760019050613617565b816135695760009050613617565b816001811461357f5760028114613589576135b8565b6001915050613617565b60ff84111561359b5761359a612ea4565b5b8360020a9150848211156135b2576135b1612ea4565b5b50613617565b5060208310610133831016604e8410600b84101617156135ed5782820a9050838111156135e8576135e7612ea4565b5b613617565b6135fa84848460016134f8565b9250905081840481111561361157613610612ea4565b5b81810290505b9392505050565b600061362982612a96565b915061363483612d01565b92506136617fffffffffffffffffffffffffffffffffffffffffffffffffffffffffffffffff848461354b565b905092915050565b600060608201905061367e6000830186612d38565b61368b6020830185612aa0565b6136986040830184612aa0565b949350505050565b7f4e487b7100000000000000000000000000000000000000000000000000000000600052602160045260246000fd5b60006136da82612d01565b91506136e583612d01565b9250826136f5576136f4612fdd565b5b82820690509291505056fea2646970667358221220ec76be5e5180207e0a32e8cbe4f9d511f66b4972e1b45f7dadd4505a5783e2d364736f6c63430008140033",
  "linkReferences": {},
  "deployedLinkReferences": {}
}