{
  "_format": "hh-sol-artifact-1",
  "contractName": "WmUSDC",
  "sourceName": "contracts/WmUSDC.sol",
  "abi": [
    {
      "inputs": [
        {
          "internalType": "address",
          "name": "vaultUSDC_",
          "type": "address"
        }
      ],
      "stateMutability": "nonpayable",
      "type": "constructor"
    },
    {
      "inputs": [
        {
          "internalType": "address",
          "name": "spender",
          "type": "address"
        },
        {
          "internalType": "uint256",
          "name": "allowance",
          "type": "uint256"
        },
        {
          "internalType": "uint256",
          "name": "needed",
          "type": "uint256"
        }
      ],
      "name": "ERC20InsufficientAllowance",
      "type": "error"
    },
    {
      "inputs": [
        {
          "internalType": "address",
          "name": "sender",
          "type": "address"
        },
        {
          "internalType": "uint256",
          "name": "balance",
          "type": "uint256"
        },
        {
          "internalType": "uint256",
          "name": "needed",
          "type": "uint256"
        }
      ],
      "name": "ERC20InsufficientBalance",
      "type": "error"
    },
    {
      "inputs": [
        {
          "internalType": "address",
          "name": "approver",
          "type": "address"
        }
      ],
      "name": "ERC20InvalidApprover",
      "type": "error"
    },
    {
      "inputs": [
        {
          "internalType": "address",
          "name": "receiver",
          "type": "address"
        }
      ],
      "name": "ERC20InvalidReceiver",
      "type": "error"
    },
    {
      "inputs": [
        {
          "internalType": "address",
          "name": "sender",
          "type": "address"
        }
      ],
      "name": "ERC20InvalidSender",
      "type": "error"
    },
    {
      "inputs": [
        {
          "internalType": "address",
          "name": "spender",
          "type": "address"
        }
      ],
      "name": "ERC20InvalidSpender",
      "type": "error"
    },
    {
      "inputs": [
        {
          "internalType": "address",
          "name": "receiver",
          "type": "address"
        },
        {
          "internalType": "uint256",
          "name": "assets",
          "type": "uint256"
        },
        {
          "internalType": "uint256",
          "name": "max",
          "type": "uint256"
        }
      ],
      "name": "ERC4626ExceededMaxDeposit",
      "type": "error"
    },
    {
      "inputs": [
        {
          "internalType": "address",
          "name": "receiver",
          "type": "address"
        },
        {
          "internalType": "uint256",
          "name": "shares",
          "type": "uint256"
        },
        {
          "internalType": "uint256",
          "name": "max",
          "type": "uint256"
        }
      ],
      "name": "ERC4626ExceededMaxMint",
      "type": "error"
    },
    {
      "inputs": [
        {
          "internalType": "address",
          "name": "owner",
          "type": "address"
        },
        {
          "internalType": "uint256",
          "name": "shares",
          "type": "uint256"
        },
        {
          "internalType": "uint256",
          "name": "max",
          "type": "uint256"
        }
      ],
      "name": "ERC4626ExceededMaxRedeem",
      "type": "error"
    },
    {
      "inputs": [
        {
          "internalType": "address",
          "name": "owner",
          "type": "address"
        },
        {
          "internalType": "uint256",
          "name": "assets",
          "type": "uint256"
        },
        {
          "internalType": "uint256",
          "name": "max",
          "type": "uint256"
        }
      ],
      "name": "ERC4626ExceededMaxWithdraw",
      "type": "error"
    },
    {
      "inputs": [
        {
          "internalType": "address",
          "name": "owner",
          "type": "address"
        }
      ],
      "name": "OwnableInvalidOwner",
      "type": "error"
    },
    {
      "inputs": [
        {
          "internalType": "address",
          "name": "account",
          "type": "address"
        }
      ],
      "name": "OwnableUnauthorizedAccount",
      "type": "error"
    },
    {
      "anonymous": false,
      "inputs": [
        {
          "indexed": true,
          "internalType": "address",
          "name": "owner",
          "type": "address"
        },
        {
          "indexed": true,
          "internalType": "address",
          "name": "spender",
          "type": "address"
        },
        {
          "indexed": false,
          "internalType": "uint256",
          "name": "value",
          "type": "uint256"
        }
      ],
      "name": "Approval",
      "type": "event"
    },
    {
      "anonymous": false,
      "inputs": [
        {
          "indexed": true,
          "internalType": "address",
          "name": "sender",
          "type": "address"
        },
        {
          "indexed": true,
          "internalType": "address",
          "name": "owner",
          "type": "address"
        },
        {
          "indexed": false,
          "internalType": "uint256",
          "name": "assets",
          "type": "uint256"
        },
        {
          "indexed": false,
          "internalType": "uint256",
          "name": "shares",
          "type": "uint256"
        }
      ],
      "name": "Deposit",
      "type": "event"
    },
    {
      "anonymous": false,
      "inputs": [
        {
          "indexed": true,
          "internalType": "address",
          "name": "user",
          "type": "address"
        },
        {
          "indexed": false,
          "internalType": "uint256",
          "name": "assets",
          "type": "uint256"
        },
        {
          "indexed": false,
          "internalType": "uint256",
          "name": "shares",
          "type": "uint256"
        }
      ],
      "name": "Deposited",
      "type": "event"
    },
    {
      "anonymous": false,
      "inputs": [
        {
          "indexed": true,
          "internalType": "address",
          "name": "previousOwner",
          "type": "address"
        },
        {
          "indexed": true,
          "internalType": "address",
          "name": "newOwner",
          "type": "address"
        }
      ],
      "name": "OwnershipTransferred",
      "type": "event"
    },
    {
      "anonymous": false,
      "inputs": [
        {
          "indexed": true,
          "internalType": "address",
          "name": "from",
          "type": "address"
        },
        {
          "indexed": true,
          "internalType": "address",
          "name": "to",
          "type": "address"
        },
        {
          "indexed": false,
          "internalType": "uint256",
          "name": "value",
          "type": "uint256"
        }
      ],
      "name": "Transfer",
      "type": "event"
    },
    {
      "anonymous": false,
      "inputs": [
        {
          "indexed": true,
          "internalType": "address",
          "name": "sender",
          "type": "address"
        },
        {
          "indexed": true,
          "internalType": "address",
          "name": "receiver",
          "type": "address"
        },
        {
          "indexed": true,
          "internalType": "address",
          "name": "owner",
          "type": "address"
        },
        {
          "indexed": false,
          "internalType": "uint256",
          "name": "assets",
          "type": "uint256"
        },
        {
          "indexed": false,
          "internalType": "uint256",
          "name": "shares",
          "type": "uint256"
        }
      ],
      "name": "Withdraw",
      "type": "event"
    },
    {
      "anonymous": false,
      "inputs": [
        {
          "indexed": true,
          "internalType": "address",
          "name": "user",
          "type": "address"
        },
        {
          "indexed": false,
          "internalType": "uint256",
          "name": "assets",
          "type": "uint256"
        },
        {
          "indexed": false,
          "internalType": "uint256",
          "name": "shares",
          "type": "uint256"
        }
      ],
      "name": "Withdrawn",
      "type": "event"
    },
    {
      "anonymous": false,
      "inputs": [
        {
          "indexed": true,
          "internalType": "address",
          "name": "recipient",
          "type": "address"
        },
        {
          "indexed": false,
          "internalType": "uint256",
          "name": "amount",
          "type": "uint256"
        },
        {
          "indexed": false,
          "internalType": "uint256",
          "name": "timestamp",
          "type": "uint256"
        }
      ],
      "name": "YieldWithdrawn",
      "type": "event"
    },
    {
      "inputs": [
        {
          "internalType": "address",
          "name": "owner",
          "type": "address"
        },
        {
          "internalType": "address",
          "name": "spender",
          "type": "address"
        }
      ],
      "name": "allowance",
      "outputs": [
        {
          "internalType": "uint256",
          "name": "",
          "type": "uint256"
        }
      ],
      "stateMutability": "view",
      "type": "function"
    },
    {
      "inputs": [
        {
          "internalType": "address",
          "name": "spender",
          "type": "address"
        },
        {
          "internalType": "uint256",
          "name": "value",
          "type": "uint256"
        }
      ],
      "name": "approve",
      "outputs": [
        {
          "internalType": "bool",
          "name": "",
          "type": "bool"
        }
      ],
      "stateMutability": "nonpayable",
      "type": "function"
    },
    {
      "inputs": [],
      "name": "asset",
      "outputs": [
        {
          "internalType": "address",
          "name": "",
          "type": "address"
        }
      ],
      "stateMutability": "view",
      "type": "function"
    },
    {
      "inputs": [
        {
          "internalType": "address",
          "name": "account",
          "type": "address"
        }
      ],
      "name": "balanceOf",
      "outputs": [
        {
          "internalType": "uint256",
          "name": "",
          "type": "uint256"
        }
      ],
      "stateMutability": "view",
      "type": "function"
    },
    {
      "inputs": [
        {
          "internalType": "uint256",
          "name": "shares",
          "type": "uint256"
        }
      ],
      "name": "convertToAssets",
      "outputs": [
        {
          "internalType": "uint256",
          "name": "",
          "type": "uint256"
        }
      ],
      "stateMutability": "pure",
      "type": "function"
    },
    {
      "inputs": [
        {
          "internalType": "uint256",
          "name": "assets",
          "type": "uint256"
        }
      ],
      "name": "convertToShares",
      "outputs": [
        {
          "internalType": "uint256",
          "name": "",
          "type": "uint256"
        }
      ],
      "stateMutability": "pure",
      "type": "function"
    },
    {
      "inputs": [],
      "name": "decimals",
      "outputs": [
        {
          "internalType": "uint8",
          "name": "",
          "type": "uint8"
        }
      ],
      "stateMutability": "pure",
      "type": "function"
    },
    {
      "inputs": [
        {
          "internalType": "uint256",
          "name": "assets",
          "type": "uint256"
        },
        {
          "internalType": "address",
          "name": "receiver",
          "type": "address"
        }
      ],
      "name": "deposit",
      "outputs": [
        {
          "internalType": "uint256",
          "name": "shares",
          "type": "uint256"
        }
      ],
      "stateMutability": "nonpayable",
      "type": "function"
    },
    {
      "inputs": [],
      "name": "getAccumulatedYield",
      "outputs": [
        {
          "internalType": "uint256",
          "name": "",
          "type": "uint256"
        }
      ],
      "stateMutability": "view",
      "type": "function"
    },
    {
      "inputs": [
        {
          "internalType": "address",
          "name": "",
          "type": "address"
        }
      ],
      "name": "maxDeposit",
      "outputs": [
        {
          "internalType": "uint256",
          "name": "",
          "type": "uint256"
        }
      ],
      "stateMutability": "view",
      "type": "function"
    },
    {
      "inputs": [
        {
          "internalType": "address",
          "name": "",
          "type": "address"
        }
      ],
      "name": "maxMint",
      "outputs": [
        {
          "internalType": "uint256",
          "name": "",
          "type": "uint256"
        }
      ],
      "stateMutability": "view",
      "type": "function"
    },
    {
      "inputs": [
        {
          "internalType": "address",
          "name": "owner",
          "type": "address"
        }
      ],
      "name": "maxRedeem",
      "outputs": [
        {
          "internalType": "uint256",
          "name": "",
          "type": "uint256"
        }
      ],
      "stateMutability": "view",
      "type": "function"
    },
    {
      "inputs": [
        {
          "internalType": "address",
          "name": "owner",
          "type": "address"
        }
      ],
      "name": "maxWithdraw",
      "outputs": [
        {
          "internalType": "uint256",
          "name": "",
          "type": "uint256"
        }
      ],
      "stateMutability": "view",
      "type": "function"
    },
    {
      "inputs": [
        {
          "internalType": "uint256",
          "name": "shares",
          "type": "uint256"
        },
        {
          "internalType": "address",
          "name": "receiver",
          "type": "address"
        }
      ],
      "name": "mint",
      "outputs": [
        {
          "internalType": "uint256",
          "name": "assets",
          "type": "uint256"
        }
      ],
      "stateMutability": "nonpayable",
      "type": "function"
    },
    {
      "inputs": [],
      "name": "name",
      "outputs": [
        {
          "internalType": "string",
          "name": "",
          "type": "string"
        }
      ],
      "stateMutability": "view",
      "type": "function"
    },
    {
      "inputs": [],
      "name": "owner",
      "outputs": [
        {
          "internalType": "address",
          "name": "",
          "type": "address"
        }
      ],
      "stateMutability": "view",
      "type": "function"
    },
    {
      "inputs": [
        {
          "internalType": "uint256",
          "name": "assets",
          "type": "uint256"
        }
      ],
      "name": "previewDeposit",
      "outputs": [
        {
          "internalType": "uint256",
          "name": "",
          "type": "uint256"
        }
      ],
      "stateMutability": "view",
      "type": "function"
    },
    {
      "inputs": [
        {
          "internalType": "uint256",
          "name": "shares",
          "type": "uint256"
        }
      ],
      "name": "previewMint",
      "outputs": [
        {
          "internalType": "uint256",
          "name": "",
          "type": "uint256"
        }
      ],
      "stateMutability": "view",
      "type": "function"
    },
    {
      "inputs": [
        {
          "internalType": "uint256",
          "name": "shares",
          "type": "uint256"
        }
      ],
      "name": "previewRedeem",
      "outputs": [
        {
          "internalType": "uint256",
          "name": "",
          "type": "uint256"
        }
      ],
      "stateMutability": "view",
      "type": "function"
    },
    {
      "inputs": [
        {
          "internalType": "uint256",
          "name": "assets",
          "type": "uint256"
        }
      ],
      "name": "previewWithdraw",
      "outputs": [
        {
          "internalType": "uint256",
          "name": "",
          "type": "uint256"
        }
      ],
      "stateMutability": "pure",
      "type": "function"
    },
    {
      "inputs": [
        {
          "internalType": "uint256",
          "name": "shares",
          "type": "uint256"
        },
        {
          "internalType": "address",
          "name": "receiver",
          "type": "address"
        },
        {
          "internalType": "address",
          "name": "owner",
          "type": "address"
        }
      ],
      "name": "redeem",
      "outputs": [
        {
          "internalType": "uint256",
          "name": "assets",
          "type": "uint256"
        }
      ],
      "stateMutability": "nonpayable",
      "type": "function"
    },
    {
      "inputs": [],
      "name": "renounceOwnership",
      "outputs": [],
      "stateMutability": "nonpayable",
      "type": "function"
    },
    {
      "inputs": [],
      "name": "symbol",
      "outputs": [
        {
          "internalType": "string",
          "name": "",
          "type": "string"
        }
      ],
      "stateMutability": "view",
      "type": "function"
    },
    {
      "inputs": [],
      "name": "totalAssets",
      "outputs": [
        {
          "internalType": "uint256",
          "name": "",
          "type": "uint256"
        }
      ],
      "stateMutability": "view",
      "type": "function"
    },
    {
      "inputs": [],
      "name": "totalSupply",
      "outputs": [
        {
          "internalType": "uint256",
          "name": "",
          "type": "uint256"
        }
      ],
      "stateMutability": "view",
      "type": "function"
    },
    {
      "inputs": [
        {
          "internalType": "address",
          "name": "to",
          "type": "address"
        },
        {
          "internalType": "uint256",
          "name": "value",
          "type": "uint256"
        }
      ],
      "name": "transfer",
      "outputs": [
        {
          "internalType": "bool",
          "name": "",
          "type": "bool"
        }
      ],
      "stateMutability": "nonpayable",
      "type": "function"
    },
    {
      "inputs": [
        {
          "internalType": "address",
          "name": "from",
          "type": "address"
        },
        {
          "internalType": "address",
          "name": "to",
          "type": "address"
        },
        {
          "internalType": "uint256",
          "name": "value",
          "type": "uint256"
        }
      ],
      "name": "transferFrom",
      "outputs": [
        {
          "internalType": "bool",
          "name": "",
          "type": "bool"
        }
      ],
      "stateMutability": "nonpayable",
      "type": "function"
    },
    {
      "inputs": [
        {
          "internalType": "address",
          "name": "newOwner",
          "type": "address"
        }
      ],
      "name": "transferOwnership",
      "outputs": [],
      "stateMutability": "nonpayable",
      "type": "function"
    },
    {
      "inputs": [
        {
          "internalType": "address",
          "name": "",
          "type": "address"
        }
      ],
      "name": "userInvestedMUSDC",
      "outputs": [
        {
          "internalType": "uint256",
          "name": "",
          "type": "uint256"
        }
      ],
      "stateMutability": "view",
      "type": "function"
    },
    {
      "inputs": [
        {
          "internalType": "address",
          "name": "",
          "type": "address"
        }
      ],
      "name": "userYieldGenerated",
      "outputs": [
        {
          "internalType": "uint256",
          "name": "",
          "type": "uint256"
        }
      ],
      "stateMutability": "view",
      "type": "function"
    },
    {
      "inputs": [
        {
          "internalType": "uint256",
          "name": "assets",
          "type": "uint256"
        },
        {
          "internalType": "address",
          "name": "receiver",
          "type": "address"
        },
        {
          "internalType": "address",
          "name": "owner",
          "type": "address"
        }
      ],
      "name": "withdraw",
      "outputs": [
        {
          "internalType": "uint256",
          "name": "shares",
          "type": "uint256"
        }
      ],
      "stateMutability": "nonpayable",
      "type": "function"
    },
    {
      "inputs": [
        {
          "internalType": "uint256",
          "name": "amount",
          "type": "uint256"
        },
        {
          "internalType": "address",
          "name": "recipient",
          "type": "address"
        }
      ],
      "name": "withdrawAccumulatedYield",
      "outputs": [],
      "stateMutability": "nonpayable",
      "type": "function"
    }
  ],
  "bytecode": "0x60e06040523480156200001157600080fd5b50604051620040c1380380620040c18339818101604052810190620000379190620004b5565b33816040518060400160405280601981526020017f57726170706564204d6f7270686f205661756c742055534443000000000000008152506040518060400160405280600681526020017f576d5553444300000000000000000000000000000000000000000000000000008152508160039081620000b6919062000761565b508060049081620000c8919062000761565b505050600080620000df836200026b60201b60201c565b9150915081620000f1576012620000f3565b805b60ff1660a08160ff16815250508273ffffffffffffffffffffffffffffffffffffffff1660808173ffffffffffffffffffffffffffffffffffffffff1681525050505050600073ffffffffffffffffffffffffffffffffffffffff168173ffffffffffffffffffffffffffffffffffffffff1603620001ac5760006040517f1e4fbdf7000000000000000000000000000000000000000000000000000000008152600401620001a3919062000859565b60405180910390fd5b620001bd816200038560201b60201c565b50600073ffffffffffffffffffffffffffffffffffffffff168173ffffffffffffffffffffffffffffffffffffffff160362000230576040517f08c379a00000000000000000000000000000000000000000000000000000000081526004016200022790620008d7565b60405180910390fd5b8073ffffffffffffffffffffffffffffffffffffffff1660c08173ffffffffffffffffffffffffffffffffffffffff168152505050620009ee565b6000806000808473ffffffffffffffffffffffffffffffffffffffff1660405160240160405160208183030381529060405263313ce56760e01b6020820180517bffffffffffffffffffffffffffffffffffffffffffffffffffffffff8381831617835250505050604051620002e2919062000972565b600060405180830381855afa9150503d80600081146200031f576040519150601f19603f3d011682016040523d82523d6000602084013e62000324565b606091505b50915091508180156200033957506020815110155b156200037657600081806020019051810190620003579190620009bc565b905060ff8016811162000374576001819450945050505062000380565b505b6000809350935050505b915091565b6000600560009054906101000a900473ffffffffffffffffffffffffffffffffffffffff16905081600560006101000a81548173ffffffffffffffffffffffffffffffffffffffff021916908373ffffffffffffffffffffffffffffffffffffffff1602179055508173ffffffffffffffffffffffffffffffffffffffff168173ffffffffffffffffffffffffffffffffffffffff167f8be0079c531659141344cd1fd0a4f28419497f9722a3daafe3b4186f6b6457e060405160405180910390a35050565b600080fd5b600073ffffffffffffffffffffffffffffffffffffffff82169050919050565b60006200047d8262000450565b9050919050565b6200048f8162000470565b81146200049b57600080fd5b50565b600081519050620004af8162000484565b92915050565b600060208284031215620004ce57620004cd6200044b565b5b6000620004de848285016200049e565b91505092915050565b600081519050919050565b7f4e487b7100000000000000000000000000000000000000000000000000000000600052604160045260246000fd5b7f4e487b7100000000000000000000000000000000000000000000000000000000600052602260045260246000fd5b600060028204905060018216806200056957607f821691505b6020821081036200057f576200057e62000521565b5b50919050565b60008190508160005260206000209050919050565b60006020601f8301049050919050565b600082821b905092915050565b600060088302620005e97fffffffffffffffffffffffffffffffffffffffffffffffffffffffffffffffff82620005aa565b620005f58683620005aa565b95508019841693508086168417925050509392505050565b6000819050919050565b6000819050919050565b6000620006426200063c62000636846200060d565b62000617565b6200060d565b9050919050565b6000819050919050565b6200065e8362000621565b620006766200066d8262000649565b848454620005b7565b825550505050565b600090565b6200068d6200067e565b6200069a81848462000653565b505050565b5b81811015620006c257620006b660008262000683565b600181019050620006a0565b5050565b601f8211156200071157620006db8162000585565b620006e6846200059a565b81016020851015620006f6578190505b6200070e62000705856200059a565b8301826200069f565b50505b505050565b600082821c905092915050565b6000620007366000198460080262000716565b1980831691505092915050565b600062000751838362000723565b9150826002028217905092915050565b6200076c82620004e7565b67ffffffffffffffff811115620007885762000787620004f2565b5b62000794825462000550565b620007a1828285620006c6565b600060209050601f831160018114620007d95760008415620007c4578287015190505b620007d0858262000743565b86555062000840565b601f198416620007e98662000585565b60005b828110156200081357848901518255600182019150602085019450602081019050620007ec565b868310156200083357848901516200082f601f89168262000723565b8355505b6001600288020188555050505b505050505050565b620008538162000470565b82525050565b600060208201905062000870600083018462000848565b92915050565b600082825260208201905092915050565b7f496e76616c6964207661756c7455534443206164647265737300000000000000600082015250565b6000620008bf60198362000876565b9150620008cc8262000887565b602082019050919050565b60006020820190508181036000830152620008f281620008b0565b9050919050565b600081519050919050565b600081905092915050565b60005b838110156200092f57808201518184015260208101905062000912565b60008484015250505050565b60006200094882620008f9565b62000954818562000904565b9350620009668185602086016200090f565b80840191505092915050565b60006200098082846200093b565b915081905092915050565b62000996816200060d565b8114620009a257600080fd5b50565b600081519050620009b6816200098b565b92915050565b600060208284031215620009d557620009d46200044b565b5b6000620009e584828501620009a5565b91505092915050565b60805160a05160c05161366762000a5a6000396000818161071c015281816107ba01528181610a9b01528181610ddb015281816112990152818161168c015281816117f301528181611a6501528181611e6f01526121be015260005050600061097b01526136676000f3fe608060405234801561001057600080fd5b50600436106101f05760003560e01c806395d89b411161010f578063c6e6f592116100a2578063dd52c6af11610071578063dd52c6af1461067f578063dd62ed3e1461069b578063ef8b30f7146106cb578063f2fde38b146106fb576101f0565b8063c6e6f592146105bf578063cb781ab5146105ef578063ce96cb771461061f578063d905777e1461064f576101f0565b8063ba087652116100de578063ba08765214610511578063bbde8be014610541578063bd3f7bb41461055f578063c63d75b61461058f576101f0565b806395d89b4114610463578063a9059cbb14610481578063b3d7f6b9146104b1578063b460af94146104e1576101f0565b806338d52e0f1161018757806370a082311161015657806370a08231146103db578063715018a61461040b5780638da5cb5b1461041557806394bf804d14610433576101f0565b806338d52e0f1461032d578063402d267d1461034b5780634cdad5061461037b5780636e553f65146103ab576101f0565b80630a28a477116101c35780630a28a4771461029157806318160ddd146102c157806323b872dd146102df578063313ce5671461030f576101f0565b806301e1d114146101f557806306fdde031461021357806307a2d13a14610231578063095ea7b314610261575b600080fd5b6101fd610717565b60405161020a91906129e0565b60405180910390f35b61021b61086c565b6040516102289190612a8b565b60405180910390f35b61024b60048036038101906102469190612ade565b6108fe565b60405161025891906129e0565b60405180910390f35b61027b60048036038101906102769190612b69565b610908565b6040516102889190612bc4565b60405180910390f35b6102ab60048036038101906102a69190612ade565b61092b565b6040516102b891906129e0565b60405180910390f35b6102c9610935565b6040516102d691906129e0565b60405180910390f35b6102f960048036038101906102f49190612bdf565b61093f565b6040516103069190612bc4565b60405180910390f35b61031761096e565b6040516103249190612c4e565b60405180910390f35b610335610977565b6040516103429190612c78565b60405180910390f35b61036560048036038101906103609190612c93565b61099f565b60405161037291906129e0565b60405180910390f35b61039560048036038101906103909190612ade565b6109c9565b6040516103a291906129e0565b60405180910390f35b6103c560048036038101906103c09190612cc0565b6109db565b6040516103d291906129e0565b60405180910390f35b6103f560048036038101906103f09190612c93565b610c95565b60405161040291906129e0565b60405180910390f35b610413610cdd565b005b61041d610cf1565b60405161042a9190612c78565b60405180910390f35b61044d60048036038101906104489190612cc0565b610d1b565b60405161045a91906129e0565b60405180910390f35b61046b610f85565b6040516104789190612a8b565b60405180910390f35b61049b60048036038101906104969190612b69565b611017565b6040516104a89190612bc4565b60405180910390f35b6104cb60048036038101906104c69190612ade565b61103a565b6040516104d891906129e0565b60405180910390f35b6104fb60048036038101906104f69190612d00565b61104c565b60405161050891906129e0565b60405180910390f35b61052b60048036038101906105269190612d00565b61144c565b60405161053891906129e0565b60405180910390f35b6105496117ee565b60405161055691906129e0565b60405180910390f35b61057960048036038101906105749190612c93565b6118c8565b60405161058691906129e0565b60405180910390f35b6105a960048036038101906105a49190612c93565b6118e0565b6040516105b691906129e0565b60405180910390f35b6105d960048036038101906105d49190612ade565b61190a565b6040516105e691906129e0565b60405180910390f35b61060960048036038101906106049190612c93565b611914565b60405161061691906129e0565b60405180910390f35b61063960048036038101906106349190612c93565b61192c565b60405161064691906129e0565b60405180910390f35b61066960048036038101906106649190612c93565b611948565b60405161067691906129e0565b60405180910390f35b61069960048036038101906106949190612cc0565b61195a565b005b6106b560048036038101906106b09190612d53565b611b95565b6040516106c291906129e0565b60405180910390f35b6106e560048036038101906106e09190612ade565b611c1c565b6040516106f291906129e0565b60405180910390f35b61071560048036038101906107109190612c93565b611c2e565b005b6000807f000000000000000000000000000000000000000000000000000000000000000073ffffffffffffffffffffffffffffffffffffffff166370a08231306040518263ffffffff1660e01b81526004016107739190612c78565b602060405180830381865afa158015610790573d6000803e3d6000fd5b505050506040513d601f19601f820116820180604052508101906107b49190612da8565b905060007f000000000000000000000000000000000000000000000000000000000000000073ffffffffffffffffffffffffffffffffffffffff166307a2d13a836040518263ffffffff1660e01b815260040161081191906129e0565b602060405180830381865afa15801561082e573d6000803e3d6000fd5b505050506040513d601f19601f820116820180604052508101906108529190612da8565b905064e8d4a51000816108659190612e04565b9250505090565b60606003805461087b90612e75565b80601f01602080910402602001604051908101604052809291908181526020018280546108a790612e75565b80156108f45780601f106108c9576101008083540402835291602001916108f4565b820191906000526020600020905b8154815290600101906020018083116108d757829003601f168201915b5050505050905090565b6000819050919050565b600080610913611cb4565b9050610920818585611cbc565b600191505092915050565b6000819050919050565b6000600254905090565b60008061094a611cb4565b9050610957858285611cce565b610962858585611d63565b60019150509392505050565b60006012905090565b60007f0000000000000000000000000000000000000000000000000000000000000000905090565b60007fffffffffffffffffffffffffffffffffffffffffffffffffffffffffffffffff9050919050565b60006109d482611e57565b9050919050565b6000808311610a1f576040517f08c379a0000000000000000000000000000000000000000000000000000000008152600401610a1690612ef2565b60405180910390fd5b600073ffffffffffffffffffffffffffffffffffffffff168273ffffffffffffffffffffffffffffffffffffffff1603610a8e576040517f08c379a0000000000000000000000000000000000000000000000000000000008152600401610a8590612f5e565b60405180910390fd5b610a9783611c1c565b90507f000000000000000000000000000000000000000000000000000000000000000073ffffffffffffffffffffffffffffffffffffffff166323b872dd3330866040518463ffffffff1660e01b8152600401610af693929190612f7e565b6020604051808303816000875af1158015610b15573d6000803e3d6000fd5b505050506040513d601f19601f82011682018060405250810190610b399190612fe1565b610b78576040517f08c379a0000000000000000000000000000000000000000000000000000000008152600401610b6f9061305a565b60405180910390fd5b82600660008473ffffffffffffffffffffffffffffffffffffffff1673ffffffffffffffffffffffffffffffffffffffff1681526020019081526020016000206000828254610bc7919061307a565b92505081905550610bd88282611f0f565b8173ffffffffffffffffffffffffffffffffffffffff167f73a19dd210f1a7f902193214c0ee91dd35ee5b4d920cba8d519eca65a7b488ca8283604051610c209291906130ae565b60405180910390a28173ffffffffffffffffffffffffffffffffffffffff163373ffffffffffffffffffffffffffffffffffffffff167fdcbc1c05240f31ff3ad067ef1ee35ce4997762752e3a095284754544f4c709d78384604051610c879291906130ae565b60405180910390a392915050565b60008060008373ffffffffffffffffffffffffffffffffffffffff1673ffffffffffffffffffffffffffffffffffffffff168152602001908152602001600020549050919050565b610ce5611f91565b610cef6000612018565b565b6000600560009054906101000a900473ffffffffffffffffffffffffffffffffffffffff16905090565b6000808311610d5f576040517f08c379a0000000000000000000000000000000000000000000000000000000008152600401610d5690613123565b60405180910390fd5b600073ffffffffffffffffffffffffffffffffffffffff168273ffffffffffffffffffffffffffffffffffffffff1603610dce576040517f08c379a0000000000000000000000000000000000000000000000000000000008152600401610dc590612f5e565b60405180910390fd5b610dd78361103a565b90507f000000000000000000000000000000000000000000000000000000000000000073ffffffffffffffffffffffffffffffffffffffff166323b872dd3330846040518463ffffffff1660e01b8152600401610e3693929190612f7e565b6020604051808303816000875af1158015610e55573d6000803e3d6000fd5b505050506040513d601f19601f82011682018060405250810190610e799190612fe1565b610eb8576040517f08c379a0000000000000000000000000000000000000000000000000000000008152600401610eaf9061305a565b60405180910390fd5b80600660008473ffffffffffffffffffffffffffffffffffffffff1673ffffffffffffffffffffffffffffffffffffffff1681526020019081526020016000206000828254610f07919061307a565b92505081905550610f188284611f0f565b8173ffffffffffffffffffffffffffffffffffffffff163373ffffffffffffffffffffffffffffffffffffffff167fdcbc1c05240f31ff3ad067ef1ee35ce4997762752e3a095284754544f4c709d78586604051610f779291906130ae565b60405180910390a392915050565b606060048054610f9490612e75565b80601f0160208091040260200160405190810160405280929190818152602001828054610fc090612e75565b801561100d5780601f10610fe25761010080835404028352916020019161100d565b820191906000526020600020905b815481529060010190602001808311610ff057829003601f168201915b5050505050905090565b600080611022611cb4565b905061102f818585611d63565b600191505092915050565b600061104582611e57565b9050919050565b6000808411611090576040517f08c379a00000000000000000000000000000000000000000000000000000000081526004016110879061318f565b60405180910390fd5b600073ffffffffffffffffffffffffffffffffffffffff168373ffffffffffffffffffffffffffffffffffffffff16036110ff576040517f08c379a00000000000000000000000000000000000000000000000000000000081526004016110f690612f5e565b60405180910390fd5b6111088461092b565b90508173ffffffffffffffffffffffffffffffffffffffff163373ffffffffffffffffffffffffffffffffffffffff16146111a65760006111498333611b95565b90508181101561118e576040517f08c379a0000000000000000000000000000000000000000000000000000000008152600401611185906131fb565b60405180910390fd5b6111a48333848461119f919061321b565b611cbc565b505b60006111b183610c95565b9050600080821115611216578183600660008773ffffffffffffffffffffffffffffffffffffffff1673ffffffffffffffffffffffffffffffffffffffff168152602001908152602001600020546112099190612e04565b611213919061327e565b90505b61122084846120de565b600061122b87611e57565b905080821115611297578082611241919061321b565b600760008773ffffffffffffffffffffffffffffffffffffffff1673ffffffffffffffffffffffffffffffffffffffff168152602001908152602001600020600082825461128f919061307a565b925050819055505b7f000000000000000000000000000000000000000000000000000000000000000073ffffffffffffffffffffffffffffffffffffffff1663a9059cbb87836040518363ffffffff1660e01b81526004016112f29291906132af565b6020604051808303816000875af1158015611311573d6000803e3d6000fd5b505050506040513d601f19601f820116820180604052508101906113359190612fe1565b611374576040517f08c379a000000000000000000000000000000000000000000000000000000000815260040161136b9061305a565b60405180910390fd5b8473ffffffffffffffffffffffffffffffffffffffff167f92ccf450a286a957af52509bc1c9939d1a6a481783e142e41e2499f0bb66ebc688866040516113bc9291906130ae565b60405180910390a28473ffffffffffffffffffffffffffffffffffffffff168673ffffffffffffffffffffffffffffffffffffffff163373ffffffffffffffffffffffffffffffffffffffff167ffbde797d201c681b91056529119e0b02407c7bb96a4a2c75c01fc9667232c8db8a8860405161143a9291906130ae565b60405180910390a45050509392505050565b6000808411611490576040517f08c379a000000000000000000000000000000000000000000000000000000000815260040161148790613324565b60405180910390fd5b600073ffffffffffffffffffffffffffffffffffffffff168373ffffffffffffffffffffffffffffffffffffffff16036114ff576040517f08c379a00000000000000000000000000000000000000000000000000000000081526004016114f690612f5e565b60405180910390fd5b8173ffffffffffffffffffffffffffffffffffffffff163373ffffffffffffffffffffffffffffffffffffffff161461159b57600061153e8333611b95565b905084811015611583576040517f08c379a000000000000000000000000000000000000000000000000000000000815260040161157a906131fb565b60405180910390fd5b61159983338784611594919061321b565b611cbc565b505b6115a4846109c9565b905060006115b183610c95565b9050600080821115611616578186600660008773ffffffffffffffffffffffffffffffffffffffff1673ffffffffffffffffffffffffffffffffffffffff168152602001908152602001600020546116099190612e04565b611613919061327e565b90505b61162084876120de565b8281111561168a578281611634919061321b565b600760008673ffffffffffffffffffffffffffffffffffffffff1673ffffffffffffffffffffffffffffffffffffffff1681526020019081526020016000206000828254611682919061307a565b925050819055505b7f000000000000000000000000000000000000000000000000000000000000000073ffffffffffffffffffffffffffffffffffffffff1663a9059cbb86856040518363ffffffff1660e01b81526004016116e59291906132af565b6020604051808303816000875af1158015611704573d6000803e3d6000fd5b505050506040513d601f19601f820116820180604052508101906117289190612fe1565b611767576040517f08c379a000000000000000000000000000000000000000000000000000000000815260040161175e9061305a565b60405180910390fd5b8373ffffffffffffffffffffffffffffffffffffffff168573ffffffffffffffffffffffffffffffffffffffff163373ffffffffffffffffffffffffffffffffffffffff167ffbde797d201c681b91056529119e0b02407c7bb96a4a2c75c01fc9667232c8db898a6040516117dd9291906130ae565b60405180910390a450509392505050565b6000807f000000000000000000000000000000000000000000000000000000000000000073ffffffffffffffffffffffffffffffffffffffff166370a08231306040518263ffffffff1660e01b815260040161184a9190612c78565b602060405180830381865afa158015611867573d6000803e3d6000fd5b505050506040513d601f19601f8201168201806040525081019061188b9190612da8565b9050600061189f61189a610935565b611e57565b9050808211156118be5780826118b5919061321b565b925050506118c5565b6000925050505b90565b60076020528060005260406000206000915090505481565b60007fffffffffffffffffffffffffffffffffffffffffffffffffffffffffffffffff9050919050565b6000819050919050565b60066020528060005260406000206000915090505481565b600061194161193a83610c95565b6000612160565b9050919050565b600061195382610c95565b9050919050565b611962611f91565b600082116119a5576040517f08c379a000000000000000000000000000000000000000000000000000000000815260040161199c9061318f565b60405180910390fd5b600073ffffffffffffffffffffffffffffffffffffffff168173ffffffffffffffffffffffffffffffffffffffff1603611a14576040517f08c379a0000000000000000000000000000000000000000000000000000000008152600401611a0b90613390565b60405180910390fd5b6000611a1e6117ee565b905080831115611a63576040517f08c379a0000000000000000000000000000000000000000000000000000000008152600401611a5a906133fc565b60405180910390fd5b7f000000000000000000000000000000000000000000000000000000000000000073ffffffffffffffffffffffffffffffffffffffff1663a9059cbb83856040518363ffffffff1660e01b8152600401611abe9291906132af565b6020604051808303816000875af1158015611add573d6000803e3d6000fd5b505050506040513d601f19601f82011682018060405250810190611b019190612fe1565b611b40576040517f08c379a0000000000000000000000000000000000000000000000000000000008152600401611b379061305a565b60405180910390fd5b8173ffffffffffffffffffffffffffffffffffffffff167f2bf878084037ba4fb4363629d72708a5bb8e8e0de5af9fe03d987d5289f6f4a28442604051611b889291906130ae565b60405180910390a2505050565b6000600160008473ffffffffffffffffffffffffffffffffffffffff1673ffffffffffffffffffffffffffffffffffffffff16815260200190815260200160002060008373ffffffffffffffffffffffffffffffffffffffff1673ffffffffffffffffffffffffffffffffffffffff16815260200190815260200160002054905092915050565b6000611c27826121b9565b9050919050565b611c36611f91565b600073ffffffffffffffffffffffffffffffffffffffff168173ffffffffffffffffffffffffffffffffffffffff1603611ca85760006040517f1e4fbdf7000000000000000000000000000000000000000000000000000000008152600401611c9f9190612c78565b60405180910390fd5b611cb181612018565b50565b600033905090565b611cc98383836001612271565b505050565b6000611cda8484611b95565b90507fffffffffffffffffffffffffffffffffffffffffffffffffffffffffffffffff811015611d5d5781811015611d4d578281836040517ffb8f41b2000000000000000000000000000000000000000000000000000000008152600401611d449392919061341c565b60405180910390fd5b611d5c84848484036000612271565b5b50505050565b600073ffffffffffffffffffffffffffffffffffffffff168373ffffffffffffffffffffffffffffffffffffffff1603611dd55760006040517f96c6fd1e000000000000000000000000000000000000000000000000000000008152600401611dcc9190612c78565b60405180910390fd5b600073ffffffffffffffffffffffffffffffffffffffff168273ffffffffffffffffffffffffffffffffffffffff1603611e475760006040517fec442f05000000000000000000000000000000000000000000000000000000008152600401611e3e9190612c78565b60405180910390fd5b611e52838383612448565b505050565b60008064e8d4a5100083611e6b919061327e565b90507f000000000000000000000000000000000000000000000000000000000000000073ffffffffffffffffffffffffffffffffffffffff1663c6e6f592826040518263ffffffff1660e01b8152600401611ec691906129e0565b602060405180830381865afa158015611ee3573d6000803e3d6000fd5b505050506040513d601f19601f82011682018060405250810190611f079190612da8565b915050919050565b600073ffffffffffffffffffffffffffffffffffffffff168273ffffffffffffffffffffffffffffffffffffffff1603611f815760006040517fec442f05000000000000000000000000000000000000000000000000000000008152600401611f789190612c78565b60405180910390fd5b611f8d60008383612448565b5050565b611f99611cb4565b73ffffffffffffffffffffffffffffffffffffffff16611fb7610cf1565b73ffffffffffffffffffffffffffffffffffffffff161461201657611fda611cb4565b6040517f118cdaa700000000000000000000000000000000000000000000000000000000815260040161200d9190612c78565b60405180910390fd5b565b6000600560009054906101000a900473ffffffffffffffffffffffffffffffffffffffff16905081600560006101000a81548173ffffffffffffffffffffffffffffffffffffffff021916908373ffffffffffffffffffffffffffffffffffffffff1602179055508173ffffffffffffffffffffffffffffffffffffffff168173ffffffffffffffffffffffffffffffffffffffff167f8be0079c531659141344cd1fd0a4f28419497f9722a3daafe3b4186f6b6457e060405160405180910390a35050565b600073ffffffffffffffffffffffffffffffffffffffff168273ffffffffffffffffffffffffffffffffffffffff16036121505760006040517f96c6fd1e0000000000000000000000000000000000000000000000000000000081526004016121479190612c78565b60405180910390fd5b61215c82600083612448565b5050565b60006121b1600161216f610717565b612179919061307a565b6121816125e1565b600a61218d9190613586565b612195610935565b61219f919061307a565b84866125e6909392919063ffffffff16565b905092915050565b6000807f000000000000000000000000000000000000000000000000000000000000000073ffffffffffffffffffffffffffffffffffffffff166307a2d13a846040518263ffffffff1660e01b815260040161221591906129e0565b602060405180830381865afa158015612232573d6000803e3d6000fd5b505050506040513d601f19601f820116820180604052508101906122569190612da8565b905064e8d4a51000816122699190612e04565b915050919050565b600073ffffffffffffffffffffffffffffffffffffffff168473ffffffffffffffffffffffffffffffffffffffff16036122e35760006040517fe602df050000000000000000000000000000000000000000000000000000000081526004016122da9190612c78565b60405180910390fd5b600073ffffffffffffffffffffffffffffffffffffffff168373ffffffffffffffffffffffffffffffffffffffff16036123555760006040517f94280d6200000000000000000000000000000000000000000000000000000000815260040161234c9190612c78565b60405180910390fd5b81600160008673ffffffffffffffffffffffffffffffffffffffff1673ffffffffffffffffffffffffffffffffffffffff16815260200190815260200160002060008573ffffffffffffffffffffffffffffffffffffffff1673ffffffffffffffffffffffffffffffffffffffff168152602001908152602001600020819055508015612442578273ffffffffffffffffffffffffffffffffffffffff168473ffffffffffffffffffffffffffffffffffffffff167f8c5be1e5ebec7d5bd14f71427d1e84f3dd0314c0f7b2291e5b200ac8c7c3b9258460405161243991906129e0565b60405180910390a35b50505050565b600073ffffffffffffffffffffffffffffffffffffffff168373ffffffffffffffffffffffffffffffffffffffff16146125d157600061248784610c95565b905060008111156125cf5760008183600660008873ffffffffffffffffffffffffffffffffffffffff1673ffffffffffffffffffffffffffffffffffffffff168152602001908152602001600020546124e09190612e04565b6124ea919061327e565b905080600660008773ffffffffffffffffffffffffffffffffffffffff1673ffffffffffffffffffffffffffffffffffffffff168152602001908152602001600020600082825461253b919061321b565b92505081905550600073ffffffffffffffffffffffffffffffffffffffff168473ffffffffffffffffffffffffffffffffffffffff16146125cd5780600660008673ffffffffffffffffffffffffffffffffffffffff1673ffffffffffffffffffffffffffffffffffffffff16815260200190815260200160002060008282546125c5919061307a565b925050819055505b505b505b6125dc838383612635565b505050565b600090565b60006126166125f48361285a565b801561261157506000848061260c5761260b61324f565b5b868809115b612888565b612621868686612894565b61262b919061307a565b9050949350505050565b600073ffffffffffffffffffffffffffffffffffffffff168373ffffffffffffffffffffffffffffffffffffffff160361268757806002600082825461267b919061307a565b9250508190555061275a565b60008060008573ffffffffffffffffffffffffffffffffffffffff1673ffffffffffffffffffffffffffffffffffffffff16815260200190815260200160002054905081811015612713578381836040517fe450d38c00000000000000000000000000000000000000000000000000000000815260040161270a9392919061341c565b60405180910390fd5b8181036000808673ffffffffffffffffffffffffffffffffffffffff1673ffffffffffffffffffffffffffffffffffffffff16815260200190815260200160002081905550505b600073ffffffffffffffffffffffffffffffffffffffff168273ffffffffffffffffffffffffffffffffffffffff16036127a357806002600082825403925050819055506127f0565b806000808473ffffffffffffffffffffffffffffffffffffffff1673ffffffffffffffffffffffffffffffffffffffff168152602001908152602001600020600082825401925050819055505b8173ffffffffffffffffffffffffffffffffffffffff168373ffffffffffffffffffffffffffffffffffffffff167fddf252ad1be2c89b69c2b068fc378daa952ba7f163c4a11628f55a4df523b3ef8360405161284d91906129e0565b60405180910390a3505050565b600060016002836003811115612873576128726135d1565b5b61287d9190613600565b60ff16149050919050565b60008115159050919050565b60008060006128a3868661297c565b91509150600082036128c9578381816128bf576128be61324f565b5b0492505050612975565b8184116128e9576128e86128e3600086146012601161299b565b6129b5565b5b600084868809905081811183039250808203915060008560000386169050808604955080830492506001818260000304019050808402831792506000600287600302189050808702600203810290508087026002038102905080870260020381029050808702600203810290508087026002038102905080870260020381029050808402955050505050505b9392505050565b6000806000198385098385029150818110828203039250509250929050565b60006129a684612888565b82841802821890509392505050565b634e487b71600052806020526024601cfd5b6000819050919050565b6129da816129c7565b82525050565b60006020820190506129f560008301846129d1565b92915050565b600081519050919050565b600082825260208201905092915050565b60005b83811015612a35578082015181840152602081019050612a1a565b60008484015250505050565b6000601f19601f8301169050919050565b6000612a5d826129fb565b612a678185612a06565b9350612a77818560208601612a17565b612a8081612a41565b840191505092915050565b60006020820190508181036000830152612aa58184612a52565b905092915050565b600080fd5b612abb816129c7565b8114612ac657600080fd5b50565b600081359050612ad881612ab2565b92915050565b600060208284031215612af457612af3612aad565b5b6000612b0284828501612ac9565b91505092915050565b600073ffffffffffffffffffffffffffffffffffffffff82169050919050565b6000612b3682612b0b565b9050919050565b612b4681612b2b565b8114612b5157600080fd5b50565b600081359050612b6381612b3d565b92915050565b60008060408385031215612b8057612b7f612aad565b5b6000612b8e85828601612b54565b9250506020612b9f85828601612ac9565b9150509250929050565b60008115159050919050565b612bbe81612ba9565b82525050565b6000602082019050612bd96000830184612bb5565b92915050565b600080600060608486031215612bf857612bf7612aad565b5b6000612c0686828701612b54565b9350506020612c1786828701612b54565b9250506040612c2886828701612ac9565b9150509250925092565b600060ff82169050919050565b612c4881612c32565b82525050565b6000602082019050612c636000830184612c3f565b92915050565b612c7281612b2b565b82525050565b6000602082019050612c8d6000830184612c69565b92915050565b600060208284031215612ca957612ca8612aad565b5b6000612cb784828501612b54565b91505092915050565b60008060408385031215612cd757612cd6612aad565b5b6000612ce585828601612ac9565b9250506020612cf685828601612b54565b9150509250929050565b600080600060608486031215612d1957612d18612aad565b5b6000612d2786828701612ac9565b9350506020612d3886828701612b54565b9250506040612d4986828701612b54565b9150509250925092565b60008060408385031215612d6a57612d69612aad565b5b6000612d7885828601612b54565b9250506020612d8985828601612b54565b9150509250929050565b600081519050612da281612ab2565b92915050565b600060208284031215612dbe57612dbd612aad565b5b6000612dcc84828501612d93565b91505092915050565b7f4e487b7100000000000000000000000000000000000000000000000000000000600052601160045260246000fd5b6000612e0f826129c7565b9150612e1a836129c7565b9250828202612e28816129c7565b91508282048414831517612e3f57612e3e612dd5565b5b5092915050565b7f4e487b7100000000000000000000000000000000000000000000000000000000600052602260045260246000fd5b60006002820490506001821680612e8d57607f821691505b602082108103612ea057612e9f612e46565b5b50919050565b7f43616e6e6f74206465706f736974207a65726f00000000000000000000000000600082015250565b6000612edc601383612a06565b9150612ee782612ea6565b602082019050919050565b60006020820190508181036000830152612f0b81612ecf565b9050919050565b7f496e76616c696420726563656976657200000000000000000000000000000000600082015250565b6000612f48601083612a06565b9150612f5382612f12565b602082019050919050565b60006020820190508181036000830152612f7781612f3b565b9050919050565b6000606082019050612f936000830186612c69565b612fa06020830185612c69565b612fad60408301846129d1565b949350505050565b612fbe81612ba9565b8114612fc957600080fd5b50565b600081519050612fdb81612fb5565b92915050565b600060208284031215612ff757612ff6612aad565b5b600061300584828501612fcc565b91505092915050565b7f5472616e73666572206661696c65640000000000000000000000000000000000600082015250565b6000613044600f83612a06565b915061304f8261300e565b602082019050919050565b6000602082019050818103600083015261307381613037565b9050919050565b6000613085826129c7565b9150613090836129c7565b92508282019050808211156130a8576130a7612dd5565b5b92915050565b60006040820190506130c360008301856129d1565b6130d060208301846129d1565b9392505050565b7f43616e6e6f74206d696e74207a65726f00000000000000000000000000000000600082015250565b600061310d601083612a06565b9150613118826130d7565b602082019050919050565b6000602082019050818103600083015261313c81613100565b9050919050565b7f43616e6e6f74207769746864726177207a65726f000000000000000000000000600082015250565b6000613179601483612a06565b915061318482613143565b602082019050919050565b600060208201905081810360008301526131a88161316c565b9050919050565b7f496e73756666696369656e7420616c6c6f77616e636500000000000000000000600082015250565b60006131e5601683612a06565b91506131f0826131af565b602082019050919050565b60006020820190508181036000830152613214816131d8565b9050919050565b6000613226826129c7565b9150613231836129c7565b925082820390508181111561324957613248612dd5565b5b92915050565b7f4e487b7100000000000000000000000000000000000000000000000000000000600052601260045260246000fd5b6000613289826129c7565b9150613294836129c7565b9250826132a4576132a361324f565b5b828204905092915050565b60006040820190506132c46000830185612c69565b6132d160208301846129d1565b9392505050565b7f43616e6e6f742072656465656d207a65726f0000000000000000000000000000600082015250565b600061330e601283612a06565b9150613319826132d8565b602082019050919050565b6000602082019050818103600083015261333d81613301565b9050919050565b7f496e76616c696420726563697069656e74000000000000000000000000000000600082015250565b600061337a601183612a06565b915061338582613344565b602082019050919050565b600060208201905081810360008301526133a98161336d565b9050919050565b7f496e73756666696369656e7420616363756d756c61746564207969656c640000600082015250565b60006133e6601e83612a06565b91506133f1826133b0565b602082019050919050565b60006020820190508181036000830152613415816133d9565b9050919050565b60006060820190506134316000830186612c69565b61343e60208301856129d1565b61344b60408301846129d1565b949350505050565b60008160011c9050919050565b6000808291508390505b60018511156134aa5780860481111561348657613485612dd5565b5b60018516156134955780820291505b80810290506134a385613453565b945061346a565b94509492505050565b6000826134c3576001905061357f565b816134d1576000905061357f565b81600181146134e757600281146134f157613520565b600191505061357f565b60ff84111561350357613502612dd5565b5b8360020a91508482111561351a57613519612dd5565b5b5061357f565b5060208310610133831016604e8410600b84101617156135555782820a9050838111156135505761354f612dd5565b5b61357f565b6135628484846001613460565b9250905081840481111561357957613578612dd5565b5b81810290505b9392505050565b6000613591826129c7565b915061359c83612c32565b92506135c97fffffffffffffffffffffffffffffffffffffffffffffffffffffffffffffffff84846134b3565b905092915050565b7f4e487b7100000000000000000000000000000000000000000000000000000000600052602160045260246000fd5b600061360b82612c32565b915061361683612c32565b9250826136265761362561324f565b5b82820690509291505056fea2646970667358221220b6160d5fa67e095cae45867607e789c5787335731099d7ddc8edca72765fd34b64736f6c63430008140033",
  "linkReferences": {},
  "deployedLinkReferences": {}
}