{
  "_format": "hh-sol-artifact-1",
  "contractName": "WmUSDC",
  "sourceName": "contracts/WmUSDC.sol",
  "abi": [
    {
      "inputs": [
        {
          "internalType": "address",
          "name": "vaultUSDC_",
          "type": "address"
        }
      ],
      "stateMutability": "nonpayable",
      "type": "constructor"
    },
    {
      "inputs": [
        {
          "internalType": "address",
          "name": "spender",
          "type": "address"
        },
        {
          "internalType": "uint256",
          "name": "allowance",
          "type": "uint256"
        },
        {
          "internalType": "uint256",
          "name": "needed",
          "type": "uint256"
        }
      ],
      "name": "ERC20InsufficientAllowance",
      "type": "error"
    },
    {
      "inputs": [
        {
          "internalType": "address",
          "name": "sender",
          "type": "address"
        },
        {
          "internalType": "uint256",
          "name": "balance",
          "type": "uint256"
        },
        {
          "internalType": "uint256",
          "name": "needed",
          "type": "uint256"
        }
      ],
      "name": "ERC20InsufficientBalance",
      "type": "error"
    },
    {
      "inputs": [
        {
          "internalType": "address",
          "name": "approver",
          "type": "address"
        }
      ],
      "name": "ERC20InvalidApprover",
      "type": "error"
    },
    {
      "inputs": [
        {
          "internalType": "address",
          "name": "receiver",
          "type": "address"
        }
      ],
      "name": "ERC20InvalidReceiver",
      "type": "error"
    },
    {
      "inputs": [
        {
          "internalType": "address",
          "name": "sender",
          "type": "address"
        }
      ],
      "name": "ERC20InvalidSender",
      "type": "error"
    },
    {
      "inputs": [
        {
          "internalType": "address",
          "name": "spender",
          "type": "address"
        }
      ],
      "name": "ERC20InvalidSpender",
      "type": "error"
    },
    {
      "inputs": [
        {
          "internalType": "address",
          "name": "receiver",
          "type": "address"
        },
        {
          "internalType": "uint256",
          "name": "assets",
          "type": "uint256"
        },
        {
          "internalType": "uint256",
          "name": "max",
          "type": "uint256"
        }
      ],
      "name": "ERC4626ExceededMaxDeposit",
      "type": "error"
    },
    {
      "inputs": [
        {
          "internalType": "address",
          "name": "receiver",
          "type": "address"
        },
        {
          "internalType": "uint256",
          "name": "shares",
          "type": "uint256"
        },
        {
          "internalType": "uint256",
          "name": "max",
          "type": "uint256"
        }
      ],
      "name": "ERC4626ExceededMaxMint",
      "type": "error"
    },
    {
      "inputs": [
        {
          "internalType": "address",
          "name": "owner",
          "type": "address"
        },
        {
          "internalType": "uint256",
          "name": "shares",
          "type": "uint256"
        },
        {
          "internalType": "uint256",
          "name": "max",
          "type": "uint256"
        }
      ],
      "name": "ERC4626ExceededMaxRedeem",
      "type": "error"
    },
    {
      "inputs": [
        {
          "internalType": "address",
          "name": "owner",
          "type": "address"
        },
        {
          "internalType": "uint256",
          "name": "assets",
          "type": "uint256"
        },
        {
          "internalType": "uint256",
          "name": "max",
          "type": "uint256"
        }
      ],
      "name": "ERC4626ExceededMaxWithdraw",
      "type": "error"
    },
    {
      "inputs": [
        {
          "internalType": "address",
          "name": "owner",
          "type": "address"
        }
      ],
      "name": "OwnableInvalidOwner",
      "type": "error"
    },
    {
      "inputs": [
        {
          "internalType": "address",
          "name": "account",
          "type": "address"
        }
      ],
      "name": "OwnableUnauthorizedAccount",
      "type": "error"
    },
    {
      "anonymous": false,
      "inputs": [
        {
          "indexed": true,
          "internalType": "address",
          "name": "owner",
          "type": "address"
        },
        {
          "indexed": true,
          "internalType": "address",
          "name": "spender",
          "type": "address"
        },
        {
          "indexed": false,
          "internalType": "uint256",
          "name": "value",
          "type": "uint256"
        }
      ],
      "name": "Approval",
      "type": "event"
    },
    {
      "anonymous": false,
      "inputs": [
        {
          "indexed": true,
          "internalType": "address",
          "name": "sender",
          "type": "address"
        },
        {
          "indexed": true,
          "internalType": "address",
          "name": "owner",
          "type": "address"
        },
        {
          "indexed": false,
          "internalType": "uint256",
          "name": "assets",
          "type": "uint256"
        },
        {
          "indexed": false,
          "internalType": "uint256",
          "name": "shares",
          "type": "uint256"
        }
      ],
      "name": "Deposit",
      "type": "event"
    },
    {
      "anonymous": false,
      "inputs": [
        {
          "indexed": true,
          "internalType": "address",
          "name": "user",
          "type": "address"
        },
        {
          "indexed": false,
          "internalType": "uint256",
          "name": "assets",
          "type": "uint256"
        },
        {
          "indexed": false,
          "internalType": "uint256",
          "name": "shares",
          "type": "uint256"
        }
      ],
      "name": "Deposited",
      "type": "event"
    },
    {
      "anonymous": false,
      "inputs": [
        {
          "indexed": true,
          "internalType": "address",
          "name": "previousOwner",
          "type": "address"
        },
        {
          "indexed": true,
          "internalType": "address",
          "name": "newOwner",
          "type": "address"
        }
      ],
      "name": "OwnershipTransferred",
      "type": "event"
    },
    {
      "anonymous": false,
      "inputs": [
        {
          "indexed": true,
          "internalType": "address",
          "name": "from",
          "type": "address"
        },
        {
          "indexed": true,
          "internalType": "address",
          "name": "to",
          "type": "address"
        },
        {
          "indexed": false,
          "internalType": "uint256",
          "name": "value",
          "type": "uint256"
        }
      ],
      "name": "Transfer",
      "type": "event"
    },
    {
      "anonymous": false,
      "inputs": [
        {
          "indexed": true,
          "internalType": "address",
          "name": "sender",
          "type": "address"
        },
        {
          "indexed": true,
          "internalType": "address",
          "name": "receiver",
          "type": "address"
        },
        {
          "indexed": true,
          "internalType": "address",
          "name": "owner",
          "type": "address"
        },
        {
          "indexed": false,
          "internalType": "uint256",
          "name": "assets",
          "type": "uint256"
        },
        {
          "indexed": false,
          "internalType": "uint256",
          "name": "shares",
          "type": "uint256"
        }
      ],
      "name": "Withdraw",
      "type": "event"
    },
    {
      "anonymous": false,
      "inputs": [
        {
          "indexed": true,
          "internalType": "address",
          "name": "user",
          "type": "address"
        },
        {
          "indexed": false,
          "internalType": "uint256",
          "name": "assets",
          "type": "uint256"
        },
        {
          "indexed": false,
          "internalType": "uint256",
          "name": "shares",
          "type": "uint256"
        }
      ],
      "name": "Withdrawn",
      "type": "event"
    },
    {
      "inputs": [
        {
          "internalType": "address",
          "name": "owner",
          "type": "address"
        },
        {
          "internalType": "address",
          "name": "spender",
          "type": "address"
        }
      ],
      "name": "allowance",
      "outputs": [
        {
          "internalType": "uint256",
          "name": "",
          "type": "uint256"
        }
      ],
      "stateMutability": "view",
      "type": "function"
    },
    {
      "inputs": [
        {
          "internalType": "address",
          "name": "spender",
          "type": "address"
        },
        {
          "internalType": "uint256",
          "name": "value",
          "type": "uint256"
        }
      ],
      "name": "approve",
      "outputs": [
        {
          "internalType": "bool",
          "name": "",
          "type": "bool"
        }
      ],
      "stateMutability": "nonpayable",
      "type": "function"
    },
    {
      "inputs": [],
      "name": "asset",
      "outputs": [
        {
          "internalType": "address",
          "name": "",
          "type": "address"
        }
      ],
      "stateMutability": "view",
      "type": "function"
    },
    {
      "inputs": [
        {
          "internalType": "address",
          "name": "account",
          "type": "address"
        }
      ],
      "name": "balanceOf",
      "outputs": [
        {
          "internalType": "uint256",
          "name": "",
          "type": "uint256"
        }
      ],
      "stateMutability": "view",
      "type": "function"
    },
    {
      "inputs": [
        {
          "internalType": "uint256",
          "name": "shares",
          "type": "uint256"
        }
      ],
      "name": "convertToAssets",
      "outputs": [
        {
          "internalType": "uint256",
          "name": "",
          "type": "uint256"
        }
      ],
      "stateMutability": "view",
      "type": "function"
    },
    {
      "inputs": [
        {
          "internalType": "uint256",
          "name": "assets",
          "type": "uint256"
        }
      ],
      "name": "convertToShares",
      "outputs": [
        {
          "internalType": "uint256",
          "name": "",
          "type": "uint256"
        }
      ],
      "stateMutability": "view",
      "type": "function"
    },
    {
      "inputs": [],
      "name": "decimals",
      "outputs": [
        {
          "internalType": "uint8",
          "name": "",
          "type": "uint8"
        }
      ],
      "stateMutability": "pure",
      "type": "function"
    },
    {
      "inputs": [
        {
          "internalType": "uint256",
          "name": "assets",
          "type": "uint256"
        },
        {
          "internalType": "address",
          "name": "receiver",
          "type": "address"
        }
      ],
      "name": "deposit",
      "outputs": [
        {
          "internalType": "uint256",
          "name": "shares",
          "type": "uint256"
        }
      ],
      "stateMutability": "nonpayable",
      "type": "function"
    },
    {
      "inputs": [
        {
          "internalType": "address",
          "name": "",
          "type": "address"
        }
      ],
      "name": "maxDeposit",
      "outputs": [
        {
          "internalType": "uint256",
          "name": "",
          "type": "uint256"
        }
      ],
      "stateMutability": "view",
      "type": "function"
    },
    {
      "inputs": [
        {
          "internalType": "address",
          "name": "",
          "type": "address"
        }
      ],
      "name": "maxMint",
      "outputs": [
        {
          "internalType": "uint256",
          "name": "",
          "type": "uint256"
        }
      ],
      "stateMutability": "view",
      "type": "function"
    },
    {
      "inputs": [
        {
          "internalType": "address",
          "name": "owner",
          "type": "address"
        }
      ],
      "name": "maxRedeem",
      "outputs": [
        {
          "internalType": "uint256",
          "name": "",
          "type": "uint256"
        }
      ],
      "stateMutability": "view",
      "type": "function"
    },
    {
      "inputs": [
        {
          "internalType": "address",
          "name": "owner",
          "type": "address"
        }
      ],
      "name": "maxWithdraw",
      "outputs": [
        {
          "internalType": "uint256",
          "name": "",
          "type": "uint256"
        }
      ],
      "stateMutability": "view",
      "type": "function"
    },
    {
      "inputs": [
        {
          "internalType": "uint256",
          "name": "shares",
          "type": "uint256"
        },
        {
          "internalType": "address",
          "name": "receiver",
          "type": "address"
        }
      ],
      "name": "mint",
      "outputs": [
        {
          "internalType": "uint256",
          "name": "assets",
          "type": "uint256"
        }
      ],
      "stateMutability": "nonpayable",
      "type": "function"
    },
    {
      "inputs": [],
      "name": "name",
      "outputs": [
        {
          "internalType": "string",
          "name": "",
          "type": "string"
        }
      ],
      "stateMutability": "view",
      "type": "function"
    },
    {
      "inputs": [],
      "name": "owner",
      "outputs": [
        {
          "internalType": "address",
          "name": "",
          "type": "address"
        }
      ],
      "stateMutability": "view",
      "type": "function"
    },
    {
      "inputs": [
        {
          "internalType": "uint256",
          "name": "assets",
          "type": "uint256"
        }
      ],
      "name": "previewDeposit",
      "outputs": [
        {
          "internalType": "uint256",
          "name": "",
          "type": "uint256"
        }
      ],
      "stateMutability": "view",
      "type": "function"
    },
    {
      "inputs": [
        {
          "internalType": "uint256",
          "name": "shares",
          "type": "uint256"
        }
      ],
      "name": "previewMint",
      "outputs": [
        {
          "internalType": "uint256",
          "name": "",
          "type": "uint256"
        }
      ],
      "stateMutability": "view",
      "type": "function"
    },
    {
      "inputs": [
        {
          "internalType": "uint256",
          "name": "shares",
          "type": "uint256"
        }
      ],
      "name": "previewRedeem",
      "outputs": [
        {
          "internalType": "uint256",
          "name": "",
          "type": "uint256"
        }
      ],
      "stateMutability": "view",
      "type": "function"
    },
    {
      "inputs": [
        {
          "internalType": "uint256",
          "name": "assets",
          "type": "uint256"
        }
      ],
      "name": "previewWithdraw",
      "outputs": [
        {
          "internalType": "uint256",
          "name": "",
          "type": "uint256"
        }
      ],
      "stateMutability": "view",
      "type": "function"
    },
    {
      "inputs": [
        {
          "internalType": "uint256",
          "name": "shares",
          "type": "uint256"
        },
        {
          "internalType": "address",
          "name": "receiver",
          "type": "address"
        },
        {
          "internalType": "address",
          "name": "owner",
          "type": "address"
        }
      ],
      "name": "redeem",
      "outputs": [
        {
          "internalType": "uint256",
          "name": "assets",
          "type": "uint256"
        }
      ],
      "stateMutability": "nonpayable",
      "type": "function"
    },
    {
      "inputs": [],
      "name": "renounceOwnership",
      "outputs": [],
      "stateMutability": "nonpayable",
      "type": "function"
    },
    {
      "inputs": [],
      "name": "symbol",
      "outputs": [
        {
          "internalType": "string",
          "name": "",
          "type": "string"
        }
      ],
      "stateMutability": "view",
      "type": "function"
    },
    {
      "inputs": [],
      "name": "totalAssets",
      "outputs": [
        {
          "internalType": "uint256",
          "name": "",
          "type": "uint256"
        }
      ],
      "stateMutability": "view",
      "type": "function"
    },
    {
      "inputs": [],
      "name": "totalSupply",
      "outputs": [
        {
          "internalType": "uint256",
          "name": "",
          "type": "uint256"
        }
      ],
      "stateMutability": "view",
      "type": "function"
    },
    {
      "inputs": [
        {
          "internalType": "address",
          "name": "to",
          "type": "address"
        },
        {
          "internalType": "uint256",
          "name": "value",
          "type": "uint256"
        }
      ],
      "name": "transfer",
      "outputs": [
        {
          "internalType": "bool",
          "name": "",
          "type": "bool"
        }
      ],
      "stateMutability": "nonpayable",
      "type": "function"
    },
    {
      "inputs": [
        {
          "internalType": "address",
          "name": "from",
          "type": "address"
        },
        {
          "internalType": "address",
          "name": "to",
          "type": "address"
        },
        {
          "internalType": "uint256",
          "name": "value",
          "type": "uint256"
        }
      ],
      "name": "transferFrom",
      "outputs": [
        {
          "internalType": "bool",
          "name": "",
          "type": "bool"
        }
      ],
      "stateMutability": "nonpayable",
      "type": "function"
    },
    {
      "inputs": [
        {
          "internalType": "address",
          "name": "newOwner",
          "type": "address"
        }
      ],
      "name": "transferOwnership",
      "outputs": [],
      "stateMutability": "nonpayable",
      "type": "function"
    },
    {
      "inputs": [
        {
          "internalType": "uint256",
          "name": "assets",
          "type": "uint256"
        },
        {
          "internalType": "address",
          "name": "receiver",
          "type": "address"
        },
        {
          "internalType": "address",
          "name": "owner",
          "type": "address"
        }
      ],
      "name": "withdraw",
      "outputs": [
        {
          "internalType": "uint256",
          "name": "shares",
          "type": "uint256"
        }
      ],
      "stateMutability": "nonpayable",
      "type": "function"
    }
  ],
  "bytecode": "0x60e06040523480156200001157600080fd5b50604051620036f5380380620036f58339818101604052810190620000379190620004b5565b33816040518060400160405280601981526020017f57726170706564204d6f7270686f205661756c742055534443000000000000008152506040518060400160405280600681526020017f576d5553444300000000000000000000000000000000000000000000000000008152508160039081620000b6919062000761565b508060049081620000c8919062000761565b505050600080620000df836200026b60201b60201c565b9150915081620000f1576012620000f3565b805b60ff1660a08160ff16815250508273ffffffffffffffffffffffffffffffffffffffff1660808173ffffffffffffffffffffffffffffffffffffffff1681525050505050600073ffffffffffffffffffffffffffffffffffffffff168173ffffffffffffffffffffffffffffffffffffffff1603620001ac5760006040517f1e4fbdf7000000000000000000000000000000000000000000000000000000008152600401620001a3919062000859565b60405180910390fd5b620001bd816200038560201b60201c565b50600073ffffffffffffffffffffffffffffffffffffffff168173ffffffffffffffffffffffffffffffffffffffff160362000230576040517f08c379a00000000000000000000000000000000000000000000000000000000081526004016200022790620008d7565b60405180910390fd5b8073ffffffffffffffffffffffffffffffffffffffff1660c08173ffffffffffffffffffffffffffffffffffffffff168152505050620009ee565b6000806000808473ffffffffffffffffffffffffffffffffffffffff1660405160240160405160208183030381529060405263313ce56760e01b6020820180517bffffffffffffffffffffffffffffffffffffffffffffffffffffffff8381831617835250505050604051620002e2919062000972565b600060405180830381855afa9150503d80600081146200031f576040519150601f19603f3d011682016040523d82523d6000602084013e62000324565b606091505b50915091508180156200033957506020815110155b156200037657600081806020019051810190620003579190620009bc565b905060ff8016811162000374576001819450945050505062000380565b505b6000809350935050505b915091565b6000600560009054906101000a900473ffffffffffffffffffffffffffffffffffffffff16905081600560006101000a81548173ffffffffffffffffffffffffffffffffffffffff021916908373ffffffffffffffffffffffffffffffffffffffff1602179055508173ffffffffffffffffffffffffffffffffffffffff168173ffffffffffffffffffffffffffffffffffffffff167f8be0079c531659141344cd1fd0a4f28419497f9722a3daafe3b4186f6b6457e060405160405180910390a35050565b600080fd5b600073ffffffffffffffffffffffffffffffffffffffff82169050919050565b60006200047d8262000450565b9050919050565b6200048f8162000470565b81146200049b57600080fd5b50565b600081519050620004af8162000484565b92915050565b600060208284031215620004ce57620004cd6200044b565b5b6000620004de848285016200049e565b91505092915050565b600081519050919050565b7f4e487b7100000000000000000000000000000000000000000000000000000000600052604160045260246000fd5b7f4e487b7100000000000000000000000000000000000000000000000000000000600052602260045260246000fd5b600060028204905060018216806200056957607f821691505b6020821081036200057f576200057e62000521565b5b50919050565b60008190508160005260206000209050919050565b60006020601f8301049050919050565b600082821b905092915050565b600060088302620005e97fffffffffffffffffffffffffffffffffffffffffffffffffffffffffffffffff82620005aa565b620005f58683620005aa565b95508019841693508086168417925050509392505050565b6000819050919050565b6000819050919050565b6000620006426200063c62000636846200060d565b62000617565b6200060d565b9050919050565b6000819050919050565b6200065e8362000621565b620006766200066d8262000649565b848454620005b7565b825550505050565b600090565b6200068d6200067e565b6200069a81848462000653565b505050565b5b81811015620006c257620006b660008262000683565b600181019050620006a0565b5050565b601f8211156200071157620006db8162000585565b620006e6846200059a565b81016020851015620006f6578190505b6200070e62000705856200059a565b8301826200069f565b50505b505050565b600082821c905092915050565b6000620007366000198460080262000716565b1980831691505092915050565b600062000751838362000723565b9150826002028217905092915050565b6200076c82620004e7565b67ffffffffffffffff811115620007885762000787620004f2565b5b62000794825462000550565b620007a1828285620006c6565b600060209050601f831160018114620007d95760008415620007c4578287015190505b620007d0858262000743565b86555062000840565b601f198416620007e98662000585565b60005b828110156200081357848901518255600182019150602085019450602081019050620007ec565b868310156200083357848901516200082f601f89168262000723565b8355505b6001600288020188555050505b505050505050565b620008538162000470565b82525050565b600060208201905062000870600083018462000848565b92915050565b600082825260208201905092915050565b7f496e76616c6964207661756c7455534443206164647265737300000000000000600082015250565b6000620008bf60198362000876565b9150620008cc8262000887565b602082019050919050565b60006020820190508181036000830152620008f281620008b0565b9050919050565b600081519050919050565b600081905092915050565b60005b838110156200092f57808201518184015260208101905062000912565b60008484015250505050565b60006200094882620008f9565b62000954818562000904565b9350620009668185602086016200090f565b80840191505092915050565b60006200098082846200093b565b915081905092915050565b62000996816200060d565b8114620009a257600080fd5b50565b600081519050620009b6816200098b565b92915050565b600060208284031215620009d557620009d46200044b565b5b6000620009e584828501620009a5565b91505092915050565b60805160a05160c051612cbe62000a3760003960008181610655015281816109b001528181610c9a01528181611062015261137801526000505060006108600152612cbe6000f3fe608060405234801561001057600080fd5b50600436106101c45760003560e01c80638da5cb5b116100f9578063c63d75b611610097578063d905777e11610071578063d905777e146105a5578063dd62ed3e146105d5578063ef8b30f714610605578063f2fde38b14610635576101c4565b8063c63d75b614610515578063c6e6f59214610545578063ce96cb7714610575576101c4565b8063a9059cbb116100d3578063a9059cbb14610455578063b3d7f6b914610485578063b460af94146104b5578063ba087652146104e5576101c4565b80638da5cb5b146103e957806394bf804d1461040757806395d89b4114610437576101c4565b8063313ce567116101665780634cdad506116101405780634cdad5061461034f5780636e553f651461037f57806370a08231146103af578063715018a6146103df576101c4565b8063313ce567146102e357806338d52e0f14610301578063402d267d1461031f576101c4565b8063095ea7b3116101a2578063095ea7b3146102355780630a28a4771461026557806318160ddd1461029557806323b872dd146102b3576101c4565b806301e1d114146101c957806306fdde03146101e757806307a2d13a14610205575b600080fd5b6101d1610651565b6040516101de919061210f565b60405180910390f35b6101ef6106f2565b6040516101fc91906121ba565b60405180910390f35b61021f600480360381019061021a919061220d565b610784565b60405161022c919061210f565b60405180910390f35b61024f600480360381019061024a9190612298565b610798565b60405161025c91906122f3565b60405180910390f35b61027f600480360381019061027a919061220d565b6107bb565b60405161028c919061210f565b60405180910390f35b61029d61081a565b6040516102aa919061210f565b60405180910390f35b6102cd60048036038101906102c8919061230e565b610824565b6040516102da91906122f3565b60405180910390f35b6102eb610853565b6040516102f8919061237d565b60405180910390f35b61030961085c565b60405161031691906123a7565b60405180910390f35b610339600480360381019061033491906123c2565b610884565b604051610346919061210f565b60405180910390f35b6103696004803603810190610364919061220d565b6108ae565b604051610376919061210f565b60405180910390f35b610399600480360381019061039491906123ef565b6108f0565b6040516103a6919061210f565b60405180910390f35b6103c960048036038101906103c491906123c2565b610b54565b6040516103d6919061210f565b60405180910390f35b6103e7610b9c565b005b6103f1610bb0565b6040516103fe91906123a7565b60405180910390f35b610421600480360381019061041c91906123ef565b610bda565b60405161042e919061210f565b60405180910390f35b61043f610dee565b60405161044c91906121ba565b60405180910390f35b61046f600480360381019061046a9190612298565b610e80565b60405161047c91906122f3565b60405180910390f35b61049f600480360381019061049a919061220d565b610ea3565b6040516104ac919061210f565b60405180910390f35b6104cf60048036038101906104ca919061242f565b610efc565b6040516104dc919061210f565b60405180910390f35b6104ff60048036038101906104fa919061242f565b611212565b60405161050c919061210f565b60405180910390f35b61052f600480360381019061052a91906123c2565b6114d8565b60405161053c919061210f565b60405180910390f35b61055f600480360381019061055a919061220d565b611502565b60405161056c919061210f565b60405180910390f35b61058f600480360381019061058a91906123c2565b611516565b60405161059c919061210f565b60405180910390f35b6105bf60048036038101906105ba91906123c2565b611532565b6040516105cc919061210f565b60405180910390f35b6105ef60048036038101906105ea9190612482565b611544565b6040516105fc919061210f565b60405180910390f35b61061f600480360381019061061a919061220d565b6115cb565b60405161062c919061210f565b60405180910390f35b61064f600480360381019061064a91906123c2565b61160d565b005b60007f000000000000000000000000000000000000000000000000000000000000000073ffffffffffffffffffffffffffffffffffffffff166370a08231306040518263ffffffff1660e01b81526004016106ac91906123a7565b602060405180830381865afa1580156106c9573d6000803e3d6000fd5b505050506040513d601f19601f820116820180604052508101906106ed91906124d7565b905090565b60606003805461070190612533565b80601f016020809104026020016040519081016040528092919081815260200182805461072d90612533565b801561077a5780601f1061074f5761010080835404028352916020019161077a565b820191906000526020600020905b81548152906001019060200180831161075d57829003601f168201915b5050505050905090565b6000610791826000611693565b9050919050565b6000806107a36116ec565b90506107b08185856116f4565b600191505092915050565b6000806107c6610651565b905060006107d261081a565b90506000811461080f578160018383876107ec9190612593565b6107f691906125d5565b6108009190612609565b61080a919061266c565b610811565b835b92505050919050565b6000600254905090565b60008061082f6116ec565b905061083c858285611706565b61084785858561179b565b60019150509392505050565b60006012905090565b60007f0000000000000000000000000000000000000000000000000000000000000000905090565b60007fffffffffffffffffffffffffffffffffffffffffffffffffffffffffffffffff9050919050565b6000806108b961081a565b9050600081146108e657806108cc610651565b846108d79190612593565b6108e1919061266c565b6108e8565b825b915050919050565b6000808311610934576040517f08c379a000000000000000000000000000000000000000000000000000000000815260040161092b906126e9565b60405180910390fd5b600073ffffffffffffffffffffffffffffffffffffffff168273ffffffffffffffffffffffffffffffffffffffff16036109a3576040517f08c379a000000000000000000000000000000000000000000000000000000000815260040161099a90612755565b60405180910390fd5b6109ac836115cb565b90507f000000000000000000000000000000000000000000000000000000000000000073ffffffffffffffffffffffffffffffffffffffff166323b872dd3330866040518463ffffffff1660e01b8152600401610a0b93929190612775565b6020604051808303816000875af1158015610a2a573d6000803e3d6000fd5b505050506040513d601f19601f82011682018060405250810190610a4e91906127d8565b610a8d576040517f08c379a0000000000000000000000000000000000000000000000000000000008152600401610a8490612851565b60405180910390fd5b610a97828261188f565b8173ffffffffffffffffffffffffffffffffffffffff167f73a19dd210f1a7f902193214c0ee91dd35ee5b4d920cba8d519eca65a7b488ca8483604051610adf929190612871565b60405180910390a28173ffffffffffffffffffffffffffffffffffffffff163373ffffffffffffffffffffffffffffffffffffffff167fdcbc1c05240f31ff3ad067ef1ee35ce4997762752e3a095284754544f4c709d78584604051610b46929190612871565b60405180910390a392915050565b60008060008373ffffffffffffffffffffffffffffffffffffffff1673ffffffffffffffffffffffffffffffffffffffff168152602001908152602001600020549050919050565b610ba4611911565b610bae6000611998565b565b6000600560009054906101000a900473ffffffffffffffffffffffffffffffffffffffff16905090565b6000808311610c1e576040517f08c379a0000000000000000000000000000000000000000000000000000000008152600401610c15906128e6565b60405180910390fd5b600073ffffffffffffffffffffffffffffffffffffffff168273ffffffffffffffffffffffffffffffffffffffff1603610c8d576040517f08c379a0000000000000000000000000000000000000000000000000000000008152600401610c8490612755565b60405180910390fd5b610c9683610ea3565b90507f000000000000000000000000000000000000000000000000000000000000000073ffffffffffffffffffffffffffffffffffffffff166323b872dd3330846040518463ffffffff1660e01b8152600401610cf593929190612775565b6020604051808303816000875af1158015610d14573d6000803e3d6000fd5b505050506040513d601f19601f82011682018060405250810190610d3891906127d8565b610d77576040517f08c379a0000000000000000000000000000000000000000000000000000000008152600401610d6e90612851565b60405180910390fd5b610d81828461188f565b8173ffffffffffffffffffffffffffffffffffffffff163373ffffffffffffffffffffffffffffffffffffffff167fdcbc1c05240f31ff3ad067ef1ee35ce4997762752e3a095284754544f4c709d78386604051610de0929190612871565b60405180910390a392915050565b606060048054610dfd90612533565b80601f0160208091040260200160405190810160405280929190818152602001828054610e2990612533565b8015610e765780601f10610e4b57610100808354040283529160200191610e76565b820191906000526020600020905b815481529060010190602001808311610e5957829003601f168201915b5050505050905090565b600080610e8b6116ec565b9050610e9881858561179b565b600191505092915050565b600080610eae61081a565b905060008114610ef25780600182610ec4610651565b86610ecf9190612593565b610ed991906125d5565b610ee39190612609565b610eed919061266c565b610ef4565b825b915050919050565b6000808411610f40576040517f08c379a0000000000000000000000000000000000000000000000000000000008152600401610f3790612952565b60405180910390fd5b600073ffffffffffffffffffffffffffffffffffffffff168373ffffffffffffffffffffffffffffffffffffffff1603610faf576040517f08c379a0000000000000000000000000000000000000000000000000000000008152600401610fa690612755565b60405180910390fd5b610fb8846107bb565b90508173ffffffffffffffffffffffffffffffffffffffff163373ffffffffffffffffffffffffffffffffffffffff1614611056576000610ff98333611544565b90508181101561103e576040517f08c379a0000000000000000000000000000000000000000000000000000000008152600401611035906129be565b60405180910390fd5b6110548333848461104f9190612609565b6116f4565b505b6110608282611a5e565b7f000000000000000000000000000000000000000000000000000000000000000073ffffffffffffffffffffffffffffffffffffffff1663a9059cbb84866040518363ffffffff1660e01b81526004016110bb9291906129de565b6020604051808303816000875af11580156110da573d6000803e3d6000fd5b505050506040513d601f19601f820116820180604052508101906110fe91906127d8565b61113d576040517f08c379a000000000000000000000000000000000000000000000000000000000815260040161113490612851565b60405180910390fd5b8173ffffffffffffffffffffffffffffffffffffffff167f92ccf450a286a957af52509bc1c9939d1a6a481783e142e41e2499f0bb66ebc68583604051611185929190612871565b60405180910390a28173ffffffffffffffffffffffffffffffffffffffff168373ffffffffffffffffffffffffffffffffffffffff163373ffffffffffffffffffffffffffffffffffffffff167ffbde797d201c681b91056529119e0b02407c7bb96a4a2c75c01fc9667232c8db8785604051611203929190612871565b60405180910390a49392505050565b6000808411611256576040517f08c379a000000000000000000000000000000000000000000000000000000000815260040161124d90612a53565b60405180910390fd5b600073ffffffffffffffffffffffffffffffffffffffff168373ffffffffffffffffffffffffffffffffffffffff16036112c5576040517f08c379a00000000000000000000000000000000000000000000000000000000081526004016112bc90612755565b60405180910390fd5b6112ce846108ae565b90508173ffffffffffffffffffffffffffffffffffffffff163373ffffffffffffffffffffffffffffffffffffffff161461136c57600061130f8333611544565b905084811015611354576040517f08c379a000000000000000000000000000000000000000000000000000000000815260040161134b906129be565b60405180910390fd5b61136a833387846113659190612609565b6116f4565b505b6113768285611a5e565b7f000000000000000000000000000000000000000000000000000000000000000073ffffffffffffffffffffffffffffffffffffffff1663a9059cbb84836040518363ffffffff1660e01b81526004016113d19291906129de565b6020604051808303816000875af11580156113f0573d6000803e3d6000fd5b505050506040513d601f19601f8201168201806040525081019061141491906127d8565b611453576040517f08c379a000000000000000000000000000000000000000000000000000000000815260040161144a90612851565b60405180910390fd5b8173ffffffffffffffffffffffffffffffffffffffff168373ffffffffffffffffffffffffffffffffffffffff163373ffffffffffffffffffffffffffffffffffffffff167ffbde797d201c681b91056529119e0b02407c7bb96a4a2c75c01fc9667232c8db84886040516114c9929190612871565b60405180910390a49392505050565b60007fffffffffffffffffffffffffffffffffffffffffffffffffffffffffffffffff9050919050565b600061150f826000611ae0565b9050919050565b600061152b61152483610b54565b6000611693565b9050919050565b600061153d82610b54565b9050919050565b6000600160008473ffffffffffffffffffffffffffffffffffffffff1673ffffffffffffffffffffffffffffffffffffffff16815260200190815260200160002060008373ffffffffffffffffffffffffffffffffffffffff1673ffffffffffffffffffffffffffffffffffffffff16815260200190815260200160002054905092915050565b6000806115d661081a565b905060008114611603576115e8610651565b81846115f49190612593565b6115fe919061266c565b611605565b825b915050919050565b611615611911565b600073ffffffffffffffffffffffffffffffffffffffff168173ffffffffffffffffffffffffffffffffffffffff16036116875760006040517f1e4fbdf700000000000000000000000000000000000000000000000000000000815260040161167e91906123a7565b60405180910390fd5b61169081611998565b50565b60006116e460016116a2610651565b6116ac91906125d5565b6116b4611b39565b600a6116c09190612ba6565b6116c861081a565b6116d291906125d5565b8486611b3e909392919063ffffffff16565b905092915050565b600033905090565b6117018383836001611b8d565b505050565b60006117128484611544565b90507fffffffffffffffffffffffffffffffffffffffffffffffffffffffffffffffff8110156117955781811015611785578281836040517ffb8f41b200000000000000000000000000000000000000000000000000000000815260040161177c93929190612bf1565b60405180910390fd5b61179484848484036000611b8d565b5b50505050565b600073ffffffffffffffffffffffffffffffffffffffff168373ffffffffffffffffffffffffffffffffffffffff160361180d5760006040517f96c6fd1e00000000000000000000000000000000000000000000000000000000815260040161180491906123a7565b60405180910390fd5b600073ffffffffffffffffffffffffffffffffffffffff168273ffffffffffffffffffffffffffffffffffffffff160361187f5760006040517fec442f0500000000000000000000000000000000000000000000000000000000815260040161187691906123a7565b60405180910390fd5b61188a838383611d64565b505050565b600073ffffffffffffffffffffffffffffffffffffffff168273ffffffffffffffffffffffffffffffffffffffff16036119015760006040517fec442f050000000000000000000000000000000000000000000000000000000081526004016118f891906123a7565b60405180910390fd5b61190d60008383611d64565b5050565b6119196116ec565b73ffffffffffffffffffffffffffffffffffffffff16611937610bb0565b73ffffffffffffffffffffffffffffffffffffffff16146119965761195a6116ec565b6040517f118cdaa700000000000000000000000000000000000000000000000000000000815260040161198d91906123a7565b60405180910390fd5b565b6000600560009054906101000a900473ffffffffffffffffffffffffffffffffffffffff16905081600560006101000a81548173ffffffffffffffffffffffffffffffffffffffff021916908373ffffffffffffffffffffffffffffffffffffffff1602179055508173ffffffffffffffffffffffffffffffffffffffff168173ffffffffffffffffffffffffffffffffffffffff167f8be0079c531659141344cd1fd0a4f28419497f9722a3daafe3b4186f6b6457e060405160405180910390a35050565b600073ffffffffffffffffffffffffffffffffffffffff168273ffffffffffffffffffffffffffffffffffffffff1603611ad05760006040517f96c6fd1e000000000000000000000000000000000000000000000000000000008152600401611ac791906123a7565b60405180910390fd5b611adc82600083611d64565b5050565b6000611b31611aed611b39565b600a611af99190612ba6565b611b0161081a565b611b0b91906125d5565b6001611b15610651565b611b1f91906125d5565b8486611b3e909392919063ffffffff16565b905092915050565b600090565b6000611b6e611b4c83611f89565b8015611b69575060008480611b6457611b6361263d565b5b868809115b611fb7565b611b79868686611fc3565b611b8391906125d5565b9050949350505050565b600073ffffffffffffffffffffffffffffffffffffffff168473ffffffffffffffffffffffffffffffffffffffff1603611bff5760006040517fe602df05000000000000000000000000000000000000000000000000000000008152600401611bf691906123a7565b60405180910390fd5b600073ffffffffffffffffffffffffffffffffffffffff168373ffffffffffffffffffffffffffffffffffffffff1603611c715760006040517f94280d62000000000000000000000000000000000000000000000000000000008152600401611c6891906123a7565b60405180910390fd5b81600160008673ffffffffffffffffffffffffffffffffffffffff1673ffffffffffffffffffffffffffffffffffffffff16815260200190815260200160002060008573ffffffffffffffffffffffffffffffffffffffff1673ffffffffffffffffffffffffffffffffffffffff168152602001908152602001600020819055508015611d5e578273ffffffffffffffffffffffffffffffffffffffff168473ffffffffffffffffffffffffffffffffffffffff167f8c5be1e5ebec7d5bd14f71427d1e84f3dd0314c0f7b2291e5b200ac8c7c3b92584604051611d55919061210f565b60405180910390a35b50505050565b600073ffffffffffffffffffffffffffffffffffffffff168373ffffffffffffffffffffffffffffffffffffffff1603611db6578060026000828254611daa91906125d5565b92505081905550611e89565b60008060008573ffffffffffffffffffffffffffffffffffffffff1673ffffffffffffffffffffffffffffffffffffffff16815260200190815260200160002054905081811015611e42578381836040517fe450d38c000000000000000000000000000000000000000000000000000000008152600401611e3993929190612bf1565b60405180910390fd5b8181036000808673ffffffffffffffffffffffffffffffffffffffff1673ffffffffffffffffffffffffffffffffffffffff16815260200190815260200160002081905550505b600073ffffffffffffffffffffffffffffffffffffffff168273ffffffffffffffffffffffffffffffffffffffff1603611ed25780600260008282540392505081905550611f1f565b806000808473ffffffffffffffffffffffffffffffffffffffff1673ffffffffffffffffffffffffffffffffffffffff168152602001908152602001600020600082825401925050819055505b8173ffffffffffffffffffffffffffffffffffffffff168373ffffffffffffffffffffffffffffffffffffffff167fddf252ad1be2c89b69c2b068fc378daa952ba7f163c4a11628f55a4df523b3ef83604051611f7c919061210f565b60405180910390a3505050565b600060016002836003811115611fa257611fa1612c28565b5b611fac9190612c57565b60ff16149050919050565b60008115159050919050565b6000806000611fd286866120ab565b9150915060008203611ff857838181611fee57611fed61263d565b5b04925050506120a4565b8184116120185761201761201260008614601260116120ca565b6120e4565b5b600084868809905081811183039250808203915060008560000386169050808604955080830492506001818260000304019050808402831792506000600287600302189050808702600203810290508087026002038102905080870260020381029050808702600203810290508087026002038102905080870260020381029050808402955050505050505b9392505050565b6000806000198385098385029150818110828203039250509250929050565b60006120d584611fb7565b82841802821890509392505050565b634e487b71600052806020526024601cfd5b6000819050919050565b612109816120f6565b82525050565b60006020820190506121246000830184612100565b92915050565b600081519050919050565b600082825260208201905092915050565b60005b83811015612164578082015181840152602081019050612149565b60008484015250505050565b6000601f19601f8301169050919050565b600061218c8261212a565b6121968185612135565b93506121a6818560208601612146565b6121af81612170565b840191505092915050565b600060208201905081810360008301526121d48184612181565b905092915050565b600080fd5b6121ea816120f6565b81146121f557600080fd5b50565b600081359050612207816121e1565b92915050565b600060208284031215612223576122226121dc565b5b6000612231848285016121f8565b91505092915050565b600073ffffffffffffffffffffffffffffffffffffffff82169050919050565b60006122658261223a565b9050919050565b6122758161225a565b811461228057600080fd5b50565b6000813590506122928161226c565b92915050565b600080604083850312156122af576122ae6121dc565b5b60006122bd85828601612283565b92505060206122ce858286016121f8565b9150509250929050565b60008115159050919050565b6122ed816122d8565b82525050565b600060208201905061230860008301846122e4565b92915050565b600080600060608486031215612327576123266121dc565b5b600061233586828701612283565b935050602061234686828701612283565b9250506040612357868287016121f8565b9150509250925092565b600060ff82169050919050565b61237781612361565b82525050565b6000602082019050612392600083018461236e565b92915050565b6123a18161225a565b82525050565b60006020820190506123bc6000830184612398565b92915050565b6000602082840312156123d8576123d76121dc565b5b60006123e684828501612283565b91505092915050565b60008060408385031215612406576124056121dc565b5b6000612414858286016121f8565b925050602061242585828601612283565b9150509250929050565b600080600060608486031215612448576124476121dc565b5b6000612456868287016121f8565b935050602061246786828701612283565b925050604061247886828701612283565b9150509250925092565b60008060408385031215612499576124986121dc565b5b60006124a785828601612283565b92505060206124b885828601612283565b9150509250929050565b6000815190506124d1816121e1565b92915050565b6000602082840312156124ed576124ec6121dc565b5b60006124fb848285016124c2565b91505092915050565b7f4e487b7100000000000000000000000000000000000000000000000000000000600052602260045260246000fd5b6000600282049050600182168061254b57607f821691505b60208210810361255e5761255d612504565b5b50919050565b7f4e487b7100000000000000000000000000000000000000000000000000000000600052601160045260246000fd5b600061259e826120f6565b91506125a9836120f6565b92508282026125b7816120f6565b915082820484148315176125ce576125cd612564565b5b5092915050565b60006125e0826120f6565b91506125eb836120f6565b925082820190508082111561260357612602612564565b5b92915050565b6000612614826120f6565b915061261f836120f6565b925082820390508181111561263757612636612564565b5b92915050565b7f4e487b7100000000000000000000000000000000000000000000000000000000600052601260045260246000fd5b6000612677826120f6565b9150612682836120f6565b9250826126925761269161263d565b5b828204905092915050565b7f43616e6e6f74206465706f736974207a65726f00000000000000000000000000600082015250565b60006126d3601383612135565b91506126de8261269d565b602082019050919050565b60006020820190508181036000830152612702816126c6565b9050919050565b7f496e76616c696420726563656976657200000000000000000000000000000000600082015250565b600061273f601083612135565b915061274a82612709565b602082019050919050565b6000602082019050818103600083015261276e81612732565b9050919050565b600060608201905061278a6000830186612398565b6127976020830185612398565b6127a46040830184612100565b949350505050565b6127b5816122d8565b81146127c057600080fd5b50565b6000815190506127d2816127ac565b92915050565b6000602082840312156127ee576127ed6121dc565b5b60006127fc848285016127c3565b91505092915050565b7f5472616e73666572206661696c65640000000000000000000000000000000000600082015250565b600061283b600f83612135565b915061284682612805565b602082019050919050565b6000602082019050818103600083015261286a8161282e565b9050919050565b60006040820190506128866000830185612100565b6128936020830184612100565b9392505050565b7f43616e6e6f74206d696e74207a65726f00000000000000000000000000000000600082015250565b60006128d0601083612135565b91506128db8261289a565b602082019050919050565b600060208201905081810360008301526128ff816128c3565b9050919050565b7f43616e6e6f74207769746864726177207a65726f000000000000000000000000600082015250565b600061293c601483612135565b915061294782612906565b602082019050919050565b6000602082019050818103600083015261296b8161292f565b9050919050565b7f496e73756666696369656e7420616c6c6f77616e636500000000000000000000600082015250565b60006129a8601683612135565b91506129b382612972565b602082019050919050565b600060208201905081810360008301526129d78161299b565b9050919050565b60006040820190506129f36000830185612398565b612a006020830184612100565b9392505050565b7f43616e6e6f742072656465656d207a65726f0000000000000000000000000000600082015250565b6000612a3d601283612135565b9150612a4882612a07565b602082019050919050565b60006020820190508181036000830152612a6c81612a30565b9050919050565b60008160011c9050919050565b6000808291508390505b6001851115612aca57808604811115612aa657612aa5612564565b5b6001851615612ab55780820291505b8081029050612ac385612a73565b9450612a8a565b94509492505050565b600082612ae35760019050612b9f565b81612af15760009050612b9f565b8160018114612b075760028114612b1157612b40565b6001915050612b9f565b60ff841115612b2357612b22612564565b5b8360020a915084821115612b3a57612b39612564565b5b50612b9f565b5060208310610133831016604e8410600b8410161715612b755782820a905083811115612b7057612b6f612564565b5b612b9f565b612b828484846001612a80565b92509050818404811115612b9957612b98612564565b5b81810290505b9392505050565b6000612bb1826120f6565b9150612bbc83612361565b9250612be97fffffffffffffffffffffffffffffffffffffffffffffffffffffffffffffffff8484612ad3565b905092915050565b6000606082019050612c066000830186612398565b612c136020830185612100565b612c206040830184612100565b949350505050565b7f4e487b7100000000000000000000000000000000000000000000000000000000600052602160045260246000fd5b6000612c6282612361565b9150612c6d83612361565b925082612c7d57612c7c61263d565b5b82820690509291505056fea264697066735822122088fc8d996c4ed31cf78d77729a6463bf2a32a93da8282e6ba9b4580d8543a9d664736f6c63430008140033",
  "linkReferences": {},
  "deployedLinkReferences": {}
}