{
  "_format": "hh-sol-artifact-1",
  "contractName": "WmUSDC",
  "sourceName": "contracts/WmUSDC.sol",
  "abi": [
    {
      "inputs": [
        {
          "internalType": "address",
          "name": "vaultUSDC_",
          "type": "address"
        }
      ],
      "stateMutability": "nonpayable",
      "type": "constructor"
    },
    {
      "inputs": [
        {
          "internalType": "address",
          "name": "spender",
          "type": "address"
        },
        {
          "internalType": "uint256",
          "name": "allowance",
          "type": "uint256"
        },
        {
          "internalType": "uint256",
          "name": "needed",
          "type": "uint256"
        }
      ],
      "name": "ERC20InsufficientAllowance",
      "type": "error"
    },
    {
      "inputs": [
        {
          "internalType": "address",
          "name": "sender",
          "type": "address"
        },
        {
          "internalType": "uint256",
          "name": "balance",
          "type": "uint256"
        },
        {
          "internalType": "uint256",
          "name": "needed",
          "type": "uint256"
        }
      ],
      "name": "ERC20InsufficientBalance",
      "type": "error"
    },
    {
      "inputs": [
        {
          "internalType": "address",
          "name": "approver",
          "type": "address"
        }
      ],
      "name": "ERC20InvalidApprover",
      "type": "error"
    },
    {
      "inputs": [
        {
          "internalType": "address",
          "name": "receiver",
          "type": "address"
        }
      ],
      "name": "ERC20InvalidReceiver",
      "type": "error"
    },
    {
      "inputs": [
        {
          "internalType": "address",
          "name": "sender",
          "type": "address"
        }
      ],
      "name": "ERC20InvalidSender",
      "type": "error"
    },
    {
      "inputs": [
        {
          "internalType": "address",
          "name": "spender",
          "type": "address"
        }
      ],
      "name": "ERC20InvalidSpender",
      "type": "error"
    },
    {
      "inputs": [
        {
          "internalType": "address",
          "name": "receiver",
          "type": "address"
        },
        {
          "internalType": "uint256",
          "name": "assets",
          "type": "uint256"
        },
        {
          "internalType": "uint256",
          "name": "max",
          "type": "uint256"
        }
      ],
      "name": "ERC4626ExceededMaxDeposit",
      "type": "error"
    },
    {
      "inputs": [
        {
          "internalType": "address",
          "name": "receiver",
          "type": "address"
        },
        {
          "internalType": "uint256",
          "name": "shares",
          "type": "uint256"
        },
        {
          "internalType": "uint256",
          "name": "max",
          "type": "uint256"
        }
      ],
      "name": "ERC4626ExceededMaxMint",
      "type": "error"
    },
    {
      "inputs": [
        {
          "internalType": "address",
          "name": "owner",
          "type": "address"
        },
        {
          "internalType": "uint256",
          "name": "shares",
          "type": "uint256"
        },
        {
          "internalType": "uint256",
          "name": "max",
          "type": "uint256"
        }
      ],
      "name": "ERC4626ExceededMaxRedeem",
      "type": "error"
    },
    {
      "inputs": [
        {
          "internalType": "address",
          "name": "owner",
          "type": "address"
        },
        {
          "internalType": "uint256",
          "name": "assets",
          "type": "uint256"
        },
        {
          "internalType": "uint256",
          "name": "max",
          "type": "uint256"
        }
      ],
      "name": "ERC4626ExceededMaxWithdraw",
      "type": "error"
    },
    {
      "inputs": [
        {
          "internalType": "address",
          "name": "owner",
          "type": "address"
        }
      ],
      "name": "OwnableInvalidOwner",
      "type": "error"
    },
    {
      "inputs": [
        {
          "internalType": "address",
          "name": "account",
          "type": "address"
        }
      ],
      "name": "OwnableUnauthorizedAccount",
      "type": "error"
    },
    {
      "anonymous": false,
      "inputs": [
        {
          "indexed": true,
          "internalType": "address",
          "name": "owner",
          "type": "address"
        },
        {
          "indexed": true,
          "internalType": "address",
          "name": "spender",
          "type": "address"
        },
        {
          "indexed": false,
          "internalType": "uint256",
          "name": "value",
          "type": "uint256"
        }
      ],
      "name": "Approval",
      "type": "event"
    },
    {
      "anonymous": false,
      "inputs": [
        {
          "indexed": true,
          "internalType": "address",
          "name": "oldDebtLens",
          "type": "address"
        },
        {
          "indexed": true,
          "internalType": "address",
          "name": "newDebtLens",
          "type": "address"
        }
      ],
      "name": "DebtLensUpdated",
      "type": "event"
    },
    {
      "anonymous": false,
      "inputs": [
        {
          "indexed": true,
          "internalType": "address",
          "name": "sender",
          "type": "address"
        },
        {
          "indexed": true,
          "internalType": "address",
          "name": "owner",
          "type": "address"
        },
        {
          "indexed": false,
          "internalType": "uint256",
          "name": "assets",
          "type": "uint256"
        },
        {
          "indexed": false,
          "internalType": "uint256",
          "name": "shares",
          "type": "uint256"
        }
      ],
      "name": "Deposit",
      "type": "event"
    },
    {
      "anonymous": false,
      "inputs": [
        {
          "indexed": true,
          "internalType": "address",
          "name": "user",
          "type": "address"
        },
        {
          "indexed": false,
          "internalType": "uint256",
          "name": "assets",
          "type": "uint256"
        },
        {
          "indexed": false,
          "internalType": "uint256",
          "name": "shares",
          "type": "uint256"
        }
      ],
      "name": "Deposited",
      "type": "event"
    },
    {
      "anonymous": false,
      "inputs": [
        {
          "indexed": true,
          "internalType": "bytes32",
          "name": "oldMarketId",
          "type": "bytes32"
        },
        {
          "indexed": true,
          "internalType": "bytes32",
          "name": "newMarketId",
          "type": "bytes32"
        }
      ],
      "name": "MarketIdUpdated",
      "type": "event"
    },
    {
      "anonymous": false,
      "inputs": [
        {
          "indexed": true,
          "internalType": "address",
          "name": "oldOracle",
          "type": "address"
        },
        {
          "indexed": true,
          "internalType": "address",
          "name": "newOracle",
          "type": "address"
        }
      ],
      "name": "MxnbUsdcOracleUpdated",
      "type": "event"
    },
    {
      "anonymous": false,
      "inputs": [
        {
          "indexed": true,
          "internalType": "address",
          "name": "previousOwner",
          "type": "address"
        },
        {
          "indexed": true,
          "internalType": "address",
          "name": "newOwner",
          "type": "address"
        }
      ],
      "name": "OwnershipTransferred",
      "type": "event"
    },
    {
      "anonymous": false,
      "inputs": [
        {
          "indexed": true,
          "internalType": "address",
          "name": "from",
          "type": "address"
        },
        {
          "indexed": true,
          "internalType": "address",
          "name": "to",
          "type": "address"
        },
        {
          "indexed": false,
          "internalType": "uint256",
          "name": "value",
          "type": "uint256"
        }
      ],
      "name": "Transfer",
      "type": "event"
    },
    {
      "anonymous": false,
      "inputs": [
        {
          "indexed": true,
          "internalType": "address",
          "name": "sender",
          "type": "address"
        },
        {
          "indexed": true,
          "internalType": "address",
          "name": "receiver",
          "type": "address"
        },
        {
          "indexed": true,
          "internalType": "address",
          "name": "owner",
          "type": "address"
        },
        {
          "indexed": false,
          "internalType": "uint256",
          "name": "assets",
          "type": "uint256"
        },
        {
          "indexed": false,
          "internalType": "uint256",
          "name": "shares",
          "type": "uint256"
        }
      ],
      "name": "Withdraw",
      "type": "event"
    },
    {
      "anonymous": false,
      "inputs": [
        {
          "indexed": true,
          "internalType": "address",
          "name": "user",
          "type": "address"
        },
        {
          "indexed": false,
          "internalType": "uint256",
          "name": "assets",
          "type": "uint256"
        },
        {
          "indexed": false,
          "internalType": "uint256",
          "name": "shares",
          "type": "uint256"
        }
      ],
      "name": "Withdrawn",
      "type": "event"
    },
    {
      "anonymous": false,
      "inputs": [
        {
          "indexed": true,
          "internalType": "address",
          "name": "recipient",
          "type": "address"
        },
        {
          "indexed": false,
          "internalType": "uint256",
          "name": "amount",
          "type": "uint256"
        },
        {
          "indexed": false,
          "internalType": "uint256",
          "name": "timestamp",
          "type": "uint256"
        }
      ],
      "name": "YieldWithdrawn",
      "type": "event"
    },
    {
      "inputs": [
        {
          "internalType": "address",
          "name": "owner",
          "type": "address"
        },
        {
          "internalType": "address",
          "name": "spender",
          "type": "address"
        }
      ],
      "name": "allowance",
      "outputs": [
        {
          "internalType": "uint256",
          "name": "",
          "type": "uint256"
        }
      ],
      "stateMutability": "view",
      "type": "function"
    },
    {
      "inputs": [
        {
          "internalType": "address",
          "name": "spender",
          "type": "address"
        },
        {
          "internalType": "uint256",
          "name": "value",
          "type": "uint256"
        }
      ],
      "name": "approve",
      "outputs": [
        {
          "internalType": "bool",
          "name": "",
          "type": "bool"
        }
      ],
      "stateMutability": "nonpayable",
      "type": "function"
    },
    {
      "inputs": [],
      "name": "asset",
      "outputs": [
        {
          "internalType": "address",
          "name": "",
          "type": "address"
        }
      ],
      "stateMutability": "view",
      "type": "function"
    },
    {
      "inputs": [
        {
          "internalType": "address",
          "name": "account",
          "type": "address"
        }
      ],
      "name": "balanceOf",
      "outputs": [
        {
          "internalType": "uint256",
          "name": "",
          "type": "uint256"
        }
      ],
      "stateMutability": "view",
      "type": "function"
    },
    {
      "inputs": [
        {
          "internalType": "uint256",
          "name": "shares",
          "type": "uint256"
        }
      ],
      "name": "convertToAssets",
      "outputs": [
        {
          "internalType": "uint256",
          "name": "",
          "type": "uint256"
        }
      ],
      "stateMutability": "pure",
      "type": "function"
    },
    {
      "inputs": [
        {
          "internalType": "uint256",
          "name": "assets",
          "type": "uint256"
        }
      ],
      "name": "convertToShares",
      "outputs": [
        {
          "internalType": "uint256",
          "name": "",
          "type": "uint256"
        }
      ],
      "stateMutability": "pure",
      "type": "function"
    },
    {
      "inputs": [],
      "name": "debtLens",
      "outputs": [
        {
          "internalType": "address",
          "name": "",
          "type": "address"
        }
      ],
      "stateMutability": "view",
      "type": "function"
    },
    {
      "inputs": [],
      "name": "decimals",
      "outputs": [
        {
          "internalType": "uint8",
          "name": "",
          "type": "uint8"
        }
      ],
      "stateMutability": "pure",
      "type": "function"
    },
    {
      "inputs": [
        {
          "internalType": "uint256",
          "name": "assets",
          "type": "uint256"
        },
        {
          "internalType": "address",
          "name": "receiver",
          "type": "address"
        }
      ],
      "name": "deposit",
      "outputs": [
        {
          "internalType": "uint256",
          "name": "shares",
          "type": "uint256"
        }
      ],
      "stateMutability": "nonpayable",
      "type": "function"
    },
    {
      "inputs": [],
      "name": "getAccumulatedYield",
      "outputs": [
        {
          "internalType": "uint256",
          "name": "",
          "type": "uint256"
        }
      ],
      "stateMutability": "view",
      "type": "function"
    },
    {
      "inputs": [
        {
          "internalType": "address",
          "name": "user",
          "type": "address"
        }
      ],
      "name": "getInterestSubsidy",
      "outputs": [
        {
          "internalType": "uint256",
          "name": "",
          "type": "uint256"
        }
      ],
      "stateMutability": "nonpayable",
      "type": "function"
    },
    {
      "inputs": [
        {
          "internalType": "address",
          "name": "",
          "type": "address"
        }
      ],
      "name": "interestSubsidyInWmUSDC",
      "outputs": [
        {
          "internalType": "uint256",
          "name": "",
          "type": "uint256"
        }
      ],
      "stateMutability": "view",
      "type": "function"
    },
    {
      "inputs": [],
      "name": "marketId",
      "outputs": [
        {
          "internalType": "bytes32",
          "name": "",
          "type": "bytes32"
        }
      ],
      "stateMutability": "view",
      "type": "function"
    },
    {
      "inputs": [
        {
          "internalType": "address",
          "name": "",
          "type": "address"
        }
      ],
      "name": "maxDeposit",
      "outputs": [
        {
          "internalType": "uint256",
          "name": "",
          "type": "uint256"
        }
      ],
      "stateMutability": "view",
      "type": "function"
    },
    {
      "inputs": [
        {
          "internalType": "address",
          "name": "",
          "type": "address"
        }
      ],
      "name": "maxMint",
      "outputs": [
        {
          "internalType": "uint256",
          "name": "",
          "type": "uint256"
        }
      ],
      "stateMutability": "view",
      "type": "function"
    },
    {
      "inputs": [
        {
          "internalType": "address",
          "name": "owner",
          "type": "address"
        }
      ],
      "name": "maxRedeem",
      "outputs": [
        {
          "internalType": "uint256",
          "name": "",
          "type": "uint256"
        }
      ],
      "stateMutability": "view",
      "type": "function"
    },
    {
      "inputs": [
        {
          "internalType": "address",
          "name": "owner",
          "type": "address"
        }
      ],
      "name": "maxWithdraw",
      "outputs": [
        {
          "internalType": "uint256",
          "name": "",
          "type": "uint256"
        }
      ],
      "stateMutability": "view",
      "type": "function"
    },
    {
      "inputs": [
        {
          "internalType": "uint256",
          "name": "shares",
          "type": "uint256"
        },
        {
          "internalType": "address",
          "name": "receiver",
          "type": "address"
        }
      ],
      "name": "mint",
      "outputs": [
        {
          "internalType": "uint256",
          "name": "assets",
          "type": "uint256"
        }
      ],
      "stateMutability": "nonpayable",
      "type": "function"
    },
    {
      "inputs": [],
      "name": "mxnbUsdcOracle",
      "outputs": [
        {
          "internalType": "address",
          "name": "",
          "type": "address"
        }
      ],
      "stateMutability": "view",
      "type": "function"
    },
    {
      "inputs": [],
      "name": "name",
      "outputs": [
        {
          "internalType": "string",
          "name": "",
          "type": "string"
        }
      ],
      "stateMutability": "view",
      "type": "function"
    },
    {
      "inputs": [],
      "name": "owner",
      "outputs": [
        {
          "internalType": "address",
          "name": "",
          "type": "address"
        }
      ],
      "stateMutability": "view",
      "type": "function"
    },
    {
      "inputs": [
        {
          "internalType": "uint256",
          "name": "assets",
          "type": "uint256"
        }
      ],
      "name": "previewDeposit",
      "outputs": [
        {
          "internalType": "uint256",
          "name": "",
          "type": "uint256"
        }
      ],
      "stateMutability": "view",
      "type": "function"
    },
    {
      "inputs": [
        {
          "internalType": "uint256",
          "name": "shares",
          "type": "uint256"
        }
      ],
      "name": "previewMint",
      "outputs": [
        {
          "internalType": "uint256",
          "name": "",
          "type": "uint256"
        }
      ],
      "stateMutability": "view",
      "type": "function"
    },
    {
      "inputs": [
        {
          "internalType": "uint256",
          "name": "shares",
          "type": "uint256"
        }
      ],
      "name": "previewRedeem",
      "outputs": [
        {
          "internalType": "uint256",
          "name": "",
          "type": "uint256"
        }
      ],
      "stateMutability": "view",
      "type": "function"
    },
    {
      "inputs": [
        {
          "internalType": "uint256",
          "name": "assets",
          "type": "uint256"
        }
      ],
      "name": "previewWithdraw",
      "outputs": [
        {
          "internalType": "uint256",
          "name": "",
          "type": "uint256"
        }
      ],
      "stateMutability": "pure",
      "type": "function"
    },
    {
      "inputs": [
        {
          "internalType": "uint256",
          "name": "shares",
          "type": "uint256"
        },
        {
          "internalType": "address",
          "name": "receiver",
          "type": "address"
        },
        {
          "internalType": "address",
          "name": "owner",
          "type": "address"
        }
      ],
      "name": "redeem",
      "outputs": [
        {
          "internalType": "uint256",
          "name": "assets",
          "type": "uint256"
        }
      ],
      "stateMutability": "nonpayable",
      "type": "function"
    },
    {
      "inputs": [
        {
          "internalType": "uint256",
          "name": "shares",
          "type": "uint256"
        },
        {
          "internalType": "address",
          "name": "receiver",
          "type": "address"
        },
        {
          "internalType": "address",
          "name": "owner",
          "type": "address"
        }
      ],
      "name": "redeemWithInterestSubsidy",
      "outputs": [
        {
          "internalType": "uint256",
          "name": "assets",
          "type": "uint256"
        }
      ],
      "stateMutability": "nonpayable",
      "type": "function"
    },
    {
      "inputs": [],
      "name": "renounceOwnership",
      "outputs": [],
      "stateMutability": "nonpayable",
      "type": "function"
    },
    {
      "inputs": [
        {
          "internalType": "address",
          "name": "_debtLens",
          "type": "address"
        }
      ],
      "name": "setDebtLens",
      "outputs": [],
      "stateMutability": "nonpayable",
      "type": "function"
    },
    {
      "inputs": [
        {
          "internalType": "bytes32",
          "name": "_marketId",
          "type": "bytes32"
        }
      ],
      "name": "setMarketId",
      "outputs": [],
      "stateMutability": "nonpayable",
      "type": "function"
    },
    {
      "inputs": [
        {
          "internalType": "address",
          "name": "_mxnbUsdcOracle",
          "type": "address"
        }
      ],
      "name": "setMxnbUsdcOracle",
      "outputs": [],
      "stateMutability": "nonpayable",
      "type": "function"
    },
    {
      "inputs": [],
      "name": "symbol",
      "outputs": [
        {
          "internalType": "string",
          "name": "",
          "type": "string"
        }
      ],
      "stateMutability": "view",
      "type": "function"
    },
    {
      "inputs": [],
      "name": "totalAssets",
      "outputs": [
        {
          "internalType": "uint256",
          "name": "",
          "type": "uint256"
        }
      ],
      "stateMutability": "view",
      "type": "function"
    },
    {
      "inputs": [],
      "name": "totalSupply",
      "outputs": [
        {
          "internalType": "uint256",
          "name": "",
          "type": "uint256"
        }
      ],
      "stateMutability": "view",
      "type": "function"
    },
    {
      "inputs": [
        {
          "internalType": "address",
          "name": "to",
          "type": "address"
        },
        {
          "internalType": "uint256",
          "name": "value",
          "type": "uint256"
        }
      ],
      "name": "transfer",
      "outputs": [
        {
          "internalType": "bool",
          "name": "",
          "type": "bool"
        }
      ],
      "stateMutability": "nonpayable",
      "type": "function"
    },
    {
      "inputs": [
        {
          "internalType": "address",
          "name": "from",
          "type": "address"
        },
        {
          "internalType": "address",
          "name": "to",
          "type": "address"
        },
        {
          "internalType": "uint256",
          "name": "value",
          "type": "uint256"
        }
      ],
      "name": "transferFrom",
      "outputs": [
        {
          "internalType": "bool",
          "name": "",
          "type": "bool"
        }
      ],
      "stateMutability": "nonpayable",
      "type": "function"
    },
    {
      "inputs": [
        {
          "internalType": "address",
          "name": "newOwner",
          "type": "address"
        }
      ],
      "name": "transferOwnership",
      "outputs": [],
      "stateMutability": "nonpayable",
      "type": "function"
    },
    {
      "inputs": [
        {
          "internalType": "address",
          "name": "",
          "type": "address"
        }
      ],
      "name": "userDepositedAssets",
      "outputs": [
        {
          "internalType": "uint256",
          "name": "",
          "type": "uint256"
        }
      ],
      "stateMutability": "view",
      "type": "function"
    },
    {
      "inputs": [
        {
          "internalType": "address",
          "name": "",
          "type": "address"
        }
      ],
      "name": "userDepositedShares",
      "outputs": [
        {
          "internalType": "uint256",
          "name": "",
          "type": "uint256"
        }
      ],
      "stateMutability": "view",
      "type": "function"
    },
    {
      "inputs": [
        {
          "internalType": "address",
          "name": "",
          "type": "address"
        }
      ],
      "name": "userGeneratedYieldInShares",
      "outputs": [
        {
          "internalType": "uint256",
          "name": "",
          "type": "uint256"
        }
      ],
      "stateMutability": "view",
      "type": "function"
    },
    {
      "inputs": [
        {
          "internalType": "address",
          "name": "",
          "type": "address"
        }
      ],
      "name": "userGeneratedYieldInUSDC",
      "outputs": [
        {
          "internalType": "uint256",
          "name": "",
          "type": "uint256"
        }
      ],
      "stateMutability": "view",
      "type": "function"
    },
    {
      "inputs": [
        {
          "internalType": "address",
          "name": "",
          "type": "address"
        }
      ],
      "name": "userSubsidyInUSDC",
      "outputs": [
        {
          "internalType": "uint256",
          "name": "",
          "type": "uint256"
        }
      ],
      "stateMutability": "view",
      "type": "function"
    },
    {
      "inputs": [
        {
          "internalType": "uint256",
          "name": "assets",
          "type": "uint256"
        },
        {
          "internalType": "address",
          "name": "receiver",
          "type": "address"
        },
        {
          "internalType": "address",
          "name": "owner",
          "type": "address"
        }
      ],
      "name": "withdraw",
      "outputs": [
        {
          "internalType": "uint256",
          "name": "shares",
          "type": "uint256"
        }
      ],
      "stateMutability": "nonpayable",
      "type": "function"
    },
    {
      "inputs": [
        {
          "internalType": "uint256",
          "name": "amount",
          "type": "uint256"
        },
        {
          "internalType": "address",
          "name": "recipient",
          "type": "address"
        }
      ],
      "name": "withdrawAccumulatedYield",
      "outputs": [],
      "stateMutability": "nonpayable",
      "type": "function"
    },
    {
      "inputs": [
        {
          "internalType": "address",
          "name": "recipient",
          "type": "address"
        }
      ],
      "name": "withdrawAllAccumulatedYield",
      "outputs": [],
      "stateMutability": "nonpayable",
      "type": "function"
    }
  ],
  "bytecode": "0x60e06040527314751f624968372878cde4238e84fb3d980c4f05600660006101000a81548173ffffffffffffffffffffffffffffffffffffffff021916908373ffffffffffffffffffffffffffffffffffffffff160217905550739f4b138bf3513866153af9f0a2794096dfebfad4600760006101000a81548173ffffffffffffffffffffffffffffffffffffffff021916908373ffffffffffffffffffffffffffffffffffffffff1602179055507ff912f62db71d01c572b28b6953c525851f9e0660df4e422cec986e620da726df60001b600855348015620000e257600080fd5b506040516200548538038062005485833981810160405281019062000108919062000586565b33816040518060400160405280601981526020017f57726170706564204d6f7270686f205661756c742055534443000000000000008152506040518060400160405280600681526020017f576d555344430000000000000000000000000000000000000000000000000000815250816003908162000187919062000832565b50806004908162000199919062000832565b505050600080620001b0836200033c60201b60201c565b9150915081620001c2576012620001c4565b805b60ff1660a08160ff16815250508273ffffffffffffffffffffffffffffffffffffffff1660808173ffffffffffffffffffffffffffffffffffffffff1681525050505050600073ffffffffffffffffffffffffffffffffffffffff168173ffffffffffffffffffffffffffffffffffffffff16036200027d5760006040517f1e4fbdf70000000000000000000000000000000000000000000000000000000081526004016200027491906200092a565b60405180910390fd5b6200028e816200045660201b60201c565b50600073ffffffffffffffffffffffffffffffffffffffff168173ffffffffffffffffffffffffffffffffffffffff160362000301576040517f08c379a0000000000000000000000000000000000000000000000000000000008152600401620002f890620009a8565b60405180910390fd5b8073ffffffffffffffffffffffffffffffffffffffff1660c08173ffffffffffffffffffffffffffffffffffffffff16815250505062000abf565b6000806000808473ffffffffffffffffffffffffffffffffffffffff1660405160240160405160208183030381529060405263313ce56760e01b6020820180517bffffffffffffffffffffffffffffffffffffffffffffffffffffffff8381831617835250505050604051620003b3919062000a43565b600060405180830381855afa9150503d8060008114620003f0576040519150601f19603f3d011682016040523d82523d6000602084013e620003f5565b606091505b50915091508180156200040a57506020815110155b15620004475760008180602001905181019062000428919062000a8d565b905060ff8016811162000445576001819450945050505062000451565b505b6000809350935050505b915091565b6000600560009054906101000a900473ffffffffffffffffffffffffffffffffffffffff16905081600560006101000a81548173ffffffffffffffffffffffffffffffffffffffff021916908373ffffffffffffffffffffffffffffffffffffffff1602179055508173ffffffffffffffffffffffffffffffffffffffff168173ffffffffffffffffffffffffffffffffffffffff167f8be0079c531659141344cd1fd0a4f28419497f9722a3daafe3b4186f6b6457e060405160405180910390a35050565b600080fd5b600073ffffffffffffffffffffffffffffffffffffffff82169050919050565b60006200054e8262000521565b9050919050565b620005608162000541565b81146200056c57600080fd5b50565b600081519050620005808162000555565b92915050565b6000602082840312156200059f576200059e6200051c565b5b6000620005af848285016200056f565b91505092915050565b600081519050919050565b7f4e487b7100000000000000000000000000000000000000000000000000000000600052604160045260246000fd5b7f4e487b7100000000000000000000000000000000000000000000000000000000600052602260045260246000fd5b600060028204905060018216806200063a57607f821691505b60208210810362000650576200064f620005f2565b5b50919050565b60008190508160005260206000209050919050565b60006020601f8301049050919050565b600082821b905092915050565b600060088302620006ba7fffffffffffffffffffffffffffffffffffffffffffffffffffffffffffffffff826200067b565b620006c686836200067b565b95508019841693508086168417925050509392505050565b6000819050919050565b6000819050919050565b6000620007136200070d6200070784620006de565b620006e8565b620006de565b9050919050565b6000819050919050565b6200072f83620006f2565b620007476200073e826200071a565b84845462000688565b825550505050565b600090565b6200075e6200074f565b6200076b81848462000724565b505050565b5b8181101562000793576200078760008262000754565b60018101905062000771565b5050565b601f821115620007e257620007ac8162000656565b620007b7846200066b565b81016020851015620007c7578190505b620007df620007d6856200066b565b83018262000770565b50505b505050565b600082821c905092915050565b60006200080760001984600802620007e7565b1980831691505092915050565b6000620008228383620007f4565b9150826002028217905092915050565b6200083d82620005b8565b67ffffffffffffffff811115620008595762000858620005c3565b5b62000865825462000621565b6200087282828562000797565b600060209050601f831160018114620008aa576000841562000895578287015190505b620008a1858262000814565b86555062000911565b601f198416620008ba8662000656565b60005b82811015620008e457848901518255600182019150602085019450602081019050620008bd565b8683101562000904578489015162000900601f891682620007f4565b8355505b6001600288020188555050505b505050505050565b620009248162000541565b82525050565b600060208201905062000941600083018462000919565b92915050565b600082825260208201905092915050565b7f496e76616c6964207661756c7455534443206164647265737300000000000000600082015250565b60006200099060198362000947565b91506200099d8262000958565b602082019050919050565b60006020820190508181036000830152620009c38162000981565b9050919050565b600081519050919050565b600081905092915050565b60005b8381101562000a00578082015181840152602081019050620009e3565b60008484015250505050565b600062000a1982620009ca565b62000a258185620009d5565b935062000a37818560208601620009e0565b80840191505092915050565b600062000a51828462000a0c565b915081905092915050565b62000a6781620006de565b811462000a7357600080fd5b50565b60008151905062000a878162000a5c565b92915050565b60006020828403121562000aa65762000aa56200051c565b5b600062000ab68482850162000a76565b91505092915050565b60805160a05160c05161494562000b406000396000818161099501528181610a3301528181610fc70152818161152501528181611aaf01528181611edb015281816122d9015281816126d401528181612af201528181612dc6015281816130b00152818161325e01526134a70152600050506000610c1a01526149456000f3fe608060405234801561001057600080fd5b506004361061027f5760003560e01c80638937e6ce1161015c578063ba087652116100ce578063d905777e11610087578063d905777e146108ac578063dd52c6af146108dc578063dd62ed3e146108f8578063ef8b30f714610928578063f2fde38b14610958578063f7f12c50146109745761027f565b8063ba0876521461079e578063bbde8be0146107ce578063c3fcab0f146107ec578063c63d75b61461081c578063c6e6f5921461084c578063ce96cb771461087c5761027f565b80639f522e85116101205780639f522e851461067e578063a9059cbb146106ae578063b3a42e1e146106de578063b3d7f6b91461070e578063b447966e1461073e578063b460af941461076e5761027f565b80638937e6ce146105da5780638da5cb5b146105f65780638e009b211461061457806394bf804d1461063057806395d89b41146106605761027f565b80633e232dae116101f55780636e553f65116101b95780636e553f65146104f25780636ed71ede1461052257806370a0823114610540578063715018a61461057057806374d1dbf01461057a57806385cc4d59146105aa5761027f565b80633e232dae14610416578063402d267d146104465780634cdad506146104765780636adeb158146104a65780636b9c9dc8146104c25761027f565b806318160ddd1161024757806318160ddd1461035057806318606b0e1461036e57806323b872dd1461038c578063313ce567146103bc57806338d52e0f146103da5780633b42fa6c146103f85761027f565b806301e1d1141461028457806306fdde03146102a257806307a2d13a146102c0578063095ea7b3146102f05780630a28a47714610320575b600080fd5b61028c610990565b6040516102999190613b30565b60405180910390f35b6102aa610ae5565b6040516102b79190613bdb565b60405180910390f35b6102da60048036038101906102d59190613c2e565b610b77565b6040516102e79190613b30565b60405180910390f35b61030a60048036038101906103059190613cb9565b610b81565b6040516103179190613d14565b60405180910390f35b61033a60048036038101906103359190613c2e565b610ba4565b6040516103479190613b30565b60405180910390f35b610358610bae565b6040516103659190613b30565b60405180910390f35b610376610bb8565b6040516103839190613d3e565b60405180910390f35b6103a660048036038101906103a19190613d59565b610bde565b6040516103b39190613d14565b60405180910390f35b6103c4610c0d565b6040516103d19190613dc8565b60405180910390f35b6103e2610c16565b6040516103ef9190613d3e565b60405180910390f35b610400610c3e565b60405161040d9190613d3e565b60405180910390f35b610430600480360381019061042b9190613de3565b610c64565b60405161043d9190613b30565b60405180910390f35b610460600480360381019061045b9190613de3565b610c7c565b60405161046d9190613b30565b60405180910390f35b610490600480360381019061048b9190613c2e565b610ca6565b60405161049d9190613b30565b60405180910390f35b6104c060048036038101906104bb9190613de3565b610cb8565b005b6104dc60048036038101906104d79190613e10565b610def565b6040516104e99190613b30565b60405180910390f35b61050c60048036038101906105079190613e63565b611465565b6040516105199190613b30565b60405180910390f35b61052a611775565b6040516105379190613ebc565b60405180910390f35b61055a60048036038101906105559190613de3565b61177b565b6040516105679190613b30565b60405180910390f35b6105786117c3565b005b610594600480360381019061058f9190613de3565b6117d7565b6040516105a19190613b30565b60405180910390f35b6105c460048036038101906105bf9190613de3565b6117ef565b6040516105d19190613b30565b60405180910390f35b6105f460048036038101906105ef9190613f03565b611807565b005b6105fe61188e565b60405161060b9190613d3e565b60405180910390f35b61062e60048036038101906106299190613de3565b6118b8565b005b61064a60048036038101906106459190613e63565b6119ef565b6040516106579190613b30565b60405180910390f35b610668611c59565b6040516106759190613bdb565b60405180910390f35b61069860048036038101906106939190613de3565b611ceb565b6040516106a59190613b30565b60405180910390f35b6106c860048036038101906106c39190613cb9565b611d03565b6040516106d59190613d14565b60405180910390f35b6106f860048036038101906106f39190613de3565b611d26565b6040516107059190613b30565b60405180910390f35b61072860048036038101906107239190613c2e565b611d3e565b6040516107359190613b30565b60405180910390f35b61075860048036038101906107539190613de3565b611d50565b6040516107659190613b30565b60405180910390f35b61078860048036038101906107839190613e10565b611d68565b6040516107959190613b30565b60405180910390f35b6107b860048036038101906107b39190613e10565b612173565b6040516107c59190613b30565b60405180910390f35b6107d66126cf565b6040516107e39190613b30565b60405180910390f35b61080660048036038101906108019190613de3565b6127a9565b6040516108139190613b30565b60405180910390f35b61083660048036038101906108319190613de3565b612985565b6040516108439190613b30565b60405180910390f35b61086660048036038101906108619190613c2e565b6129af565b6040516108739190613b30565b60405180910390f35b61089660048036038101906108919190613de3565b6129b9565b6040516108a39190613b30565b60405180910390f35b6108c660048036038101906108c19190613de3565b6129d5565b6040516108d39190613b30565b60405180910390f35b6108f660048036038101906108f19190613e63565b6129e7565b005b610912600480360381019061090d9190613f30565b612c22565b60405161091f9190613b30565b60405180910390f35b610942600480360381019061093d9190613c2e565b612ca9565b60405161094f9190613b30565b60405180910390f35b610972600480360381019061096d9190613de3565b612cbb565b005b61098e60048036038101906109899190613de3565b612d41565b005b6000807f000000000000000000000000000000000000000000000000000000000000000073ffffffffffffffffffffffffffffffffffffffff166370a08231306040518263ffffffff1660e01b81526004016109ec9190613d3e565b602060405180830381865afa158015610a09573d6000803e3d6000fd5b505050506040513d601f19601f82011682018060405250810190610a2d9190613f85565b905060007f000000000000000000000000000000000000000000000000000000000000000073ffffffffffffffffffffffffffffffffffffffff166307a2d13a836040518263ffffffff1660e01b8152600401610a8a9190613b30565b602060405180830381865afa158015610aa7573d6000803e3d6000fd5b505050506040513d601f19601f82011682018060405250810190610acb9190613f85565b905064e8d4a5100081610ade9190613fe1565b9250505090565b606060038054610af490614052565b80601f0160208091040260200160405190810160405280929190818152602001828054610b2090614052565b8015610b6d5780601f10610b4257610100808354040283529160200191610b6d565b820191906000526020600020905b815481529060010190602001808311610b5057829003601f168201915b5050505050905090565b6000819050919050565b600080610b8c612ef5565b9050610b99818585612efd565b600191505092915050565b6000819050919050565b6000600254905090565b600760009054906101000a900473ffffffffffffffffffffffffffffffffffffffff1681565b600080610be9612ef5565b9050610bf6858285612f0f565b610c01858585612fa4565b60019150509392505050565b60006012905090565b60007f0000000000000000000000000000000000000000000000000000000000000000905090565b600660009054906101000a900473ffffffffffffffffffffffffffffffffffffffff1681565b600a6020528060005260406000206000915090505481565b60007fffffffffffffffffffffffffffffffffffffffffffffffffffffffffffffffff9050919050565b6000610cb182613098565b9050919050565b610cc0613150565b600073ffffffffffffffffffffffffffffffffffffffff168173ffffffffffffffffffffffffffffffffffffffff1603610d2f576040517f08c379a0000000000000000000000000000000000000000000000000000000008152600401610d26906140cf565b60405180910390fd5b8073ffffffffffffffffffffffffffffffffffffffff16600760009054906101000a900473ffffffffffffffffffffffffffffffffffffffff1673ffffffffffffffffffffffffffffffffffffffff167fbcd6c29319f690b0b7656ca256c44fec30cd92c7b0a3e87c064d02be68427fd660405160405180910390a380600760006101000a81548173ffffffffffffffffffffffffffffffffffffffff021916908373ffffffffffffffffffffffffffffffffffffffff16021790555050565b6000808411610e33576040517f08c379a0000000000000000000000000000000000000000000000000000000008152600401610e2a9061413b565b60405180910390fd5b600073ffffffffffffffffffffffffffffffffffffffff168373ffffffffffffffffffffffffffffffffffffffff1603610ea2576040517f08c379a0000000000000000000000000000000000000000000000000000000008152600401610e99906141a7565b60405180910390fd5b8173ffffffffffffffffffffffffffffffffffffffff163373ffffffffffffffffffffffffffffffffffffffff1614610f3e576000610ee18333612c22565b905084811015610f26576040517f08c379a0000000000000000000000000000000000000000000000000000000008152600401610f1d90614213565b60405180910390fd5b610f3c83338784610f379190614233565b612efd565b505b6000610f4985610ca6565b90506000600e60008573ffffffffffffffffffffffffffffffffffffffff1673ffffffffffffffffffffffffffffffffffffffff1681526020019081526020016000205490506000808211610f9f576000610fa9565b610fa882610ca6565b5b905060008184610fb99190614267565b9050610fc586896131d7565b7f000000000000000000000000000000000000000000000000000000000000000073ffffffffffffffffffffffffffffffffffffffff1663a9059cbb88836040518363ffffffff1660e01b815260040161102092919061429b565b6020604051808303816000875af115801561103f573d6000803e3d6000fd5b505050506040513d601f19601f8201168201806040525081019061106391906142f0565b6110a2576040517f08c379a000000000000000000000000000000000000000000000000000000000815260040161109990614369565b60405180910390fd5b60008211156110fe5760006110b683613259565b905080600d60008973ffffffffffffffffffffffffffffffffffffffff1673ffffffffffffffffffffffffffffffffffffffff16815260200190815260200160002081905550505b87600960008873ffffffffffffffffffffffffffffffffffffffff1673ffffffffffffffffffffffffffffffffffffffff168152602001908152602001600020541061134e5787600960008873ffffffffffffffffffffffffffffffffffffffff1673ffffffffffffffffffffffffffffffffffffffff16815260200190815260200160002060008282546111939190614233565b9250508190555083600a60008873ffffffffffffffffffffffffffffffffffffffff1673ffffffffffffffffffffffffffffffffffffffff16815260200190815260200160002060008282546111e99190614233565b92505081905550600a60008773ffffffffffffffffffffffffffffffffffffffff1673ffffffffffffffffffffffffffffffffffffffff16815260200190815260200160002054600b60008873ffffffffffffffffffffffffffffffffffffffff1673ffffffffffffffffffffffffffffffffffffffff1681526020019081526020016000208190555060006112bd600b60008973ffffffffffffffffffffffffffffffffffffffff1673ffffffffffffffffffffffffffffffffffffffff16815260200190815260200160002054613259565b905080600c60008973ffffffffffffffffffffffffffffffffffffffff1673ffffffffffffffffffffffffffffffffffffffff168152602001908152602001600020819055506000600a60008973ffffffffffffffffffffffffffffffffffffffff1673ffffffffffffffffffffffffffffffffffffffff1681526020019081526020016000208190555050611394565b6000600960008873ffffffffffffffffffffffffffffffffffffffff1673ffffffffffffffffffffffffffffffffffffffff168152602001908152602001600020819055505b6000600e60008873ffffffffffffffffffffffffffffffffffffffff1673ffffffffffffffffffffffffffffffffffffffff168152602001908152602001600020819055508573ffffffffffffffffffffffffffffffffffffffff168773ffffffffffffffffffffffffffffffffffffffff163373ffffffffffffffffffffffffffffffffffffffff167ffbde797d201c681b91056529119e0b02407c7bb96a4a2c75c01fc9667232c8db8b8c60405161144f929190614389565b60405180910390a4809450505050509392505050565b60008083116114a9576040517f08c379a00000000000000000000000000000000000000000000000000000000081526004016114a0906143fe565b60405180910390fd5b600073ffffffffffffffffffffffffffffffffffffffff168273ffffffffffffffffffffffffffffffffffffffff1603611518576040517f08c379a000000000000000000000000000000000000000000000000000000000815260040161150f906141a7565b60405180910390fd5b61152183612ca9565b90507f000000000000000000000000000000000000000000000000000000000000000073ffffffffffffffffffffffffffffffffffffffff166323b872dd3330866040518463ffffffff1660e01b81526004016115809392919061441e565b6020604051808303816000875af115801561159f573d6000803e3d6000fd5b505050506040513d601f19601f820116820180604052508101906115c391906142f0565b611602576040517f08c379a00000000000000000000000000000000000000000000000000000000081526004016115f990614369565b60405180910390fd5b80600960008473ffffffffffffffffffffffffffffffffffffffff1673ffffffffffffffffffffffffffffffffffffffff16815260200190815260200160002060008282546116519190614267565b9250508190555082600a60008473ffffffffffffffffffffffffffffffffffffffff1673ffffffffffffffffffffffffffffffffffffffff16815260200190815260200160002060008282546116a79190614267565b925050819055506116b88282613301565b8173ffffffffffffffffffffffffffffffffffffffff167f73a19dd210f1a7f902193214c0ee91dd35ee5b4d920cba8d519eca65a7b488ca8283604051611700929190614389565b60405180910390a28173ffffffffffffffffffffffffffffffffffffffff163373ffffffffffffffffffffffffffffffffffffffff167fdcbc1c05240f31ff3ad067ef1ee35ce4997762752e3a095284754544f4c709d78384604051611767929190614389565b60405180910390a392915050565b60085481565b60008060008373ffffffffffffffffffffffffffffffffffffffff1673ffffffffffffffffffffffffffffffffffffffff168152602001908152602001600020549050919050565b6117cb613150565b6117d56000613383565b565b600e6020528060005260406000206000915090505481565b600c6020528060005260406000206000915090505481565b61180f613150565b6000801b8103611854576040517f08c379a000000000000000000000000000000000000000000000000000000000815260040161184b906144a1565b60405180910390fd5b806008547ff02e7948a555a0714ae90b9dd270e8a0a41a8398c4b00f94b3871ed848745e6e60405160405180910390a38060088190555050565b6000600560009054906101000a900473ffffffffffffffffffffffffffffffffffffffff16905090565b6118c0613150565b600073ffffffffffffffffffffffffffffffffffffffff168173ffffffffffffffffffffffffffffffffffffffff160361192f576040517f08c379a0000000000000000000000000000000000000000000000000000000008152600401611926906140cf565b60405180910390fd5b8073ffffffffffffffffffffffffffffffffffffffff16600660009054906101000a900473ffffffffffffffffffffffffffffffffffffffff1673ffffffffffffffffffffffffffffffffffffffff167f4751d9c3a861a2452b8c9d9e92df486b8f15d339adc9337b6935e3278d93500560405160405180910390a380600660006101000a81548173ffffffffffffffffffffffffffffffffffffffff021916908373ffffffffffffffffffffffffffffffffffffffff16021790555050565b6000808311611a33576040517f08c379a0000000000000000000000000000000000000000000000000000000008152600401611a2a9061450d565b60405180910390fd5b600073ffffffffffffffffffffffffffffffffffffffff168273ffffffffffffffffffffffffffffffffffffffff1603611aa2576040517f08c379a0000000000000000000000000000000000000000000000000000000008152600401611a99906141a7565b60405180910390fd5b611aab83611d3e565b90507f000000000000000000000000000000000000000000000000000000000000000073ffffffffffffffffffffffffffffffffffffffff166323b872dd3330846040518463ffffffff1660e01b8152600401611b0a9392919061441e565b6020604051808303816000875af1158015611b29573d6000803e3d6000fd5b505050506040513d601f19601f82011682018060405250810190611b4d91906142f0565b611b8c576040517f08c379a0000000000000000000000000000000000000000000000000000000008152600401611b8390614369565b60405180910390fd5b82600960008473ffffffffffffffffffffffffffffffffffffffff1673ffffffffffffffffffffffffffffffffffffffff1681526020019081526020016000206000828254611bdb9190614267565b92505081905550611bec8284613301565b8173ffffffffffffffffffffffffffffffffffffffff163373ffffffffffffffffffffffffffffffffffffffff167fdcbc1c05240f31ff3ad067ef1ee35ce4997762752e3a095284754544f4c709d78586604051611c4b929190614389565b60405180910390a392915050565b606060048054611c6890614052565b80601f0160208091040260200160405190810160405280929190818152602001828054611c9490614052565b8015611ce15780601f10611cb657610100808354040283529160200191611ce1565b820191906000526020600020905b815481529060010190602001808311611cc457829003601f168201915b5050505050905090565b600b6020528060005260406000206000915090505481565b600080611d0e612ef5565b9050611d1b818585612fa4565b600191505092915050565b60096020528060005260406000206000915090505481565b6000611d4982613098565b9050919050565b600d6020528060005260406000206000915090505481565b6000808411611dac576040517f08c379a0000000000000000000000000000000000000000000000000000000008152600401611da390614579565b60405180910390fd5b600073ffffffffffffffffffffffffffffffffffffffff168373ffffffffffffffffffffffffffffffffffffffff1603611e1b576040517f08c379a0000000000000000000000000000000000000000000000000000000008152600401611e12906141a7565b60405180910390fd5b611e2484610ba4565b90508173ffffffffffffffffffffffffffffffffffffffff163373ffffffffffffffffffffffffffffffffffffffff1614611ec2576000611e658333612c22565b905081811015611eaa576040517f08c379a0000000000000000000000000000000000000000000000000000000008152600401611ea190614213565b60405180910390fd5b611ec083338484611ebb9190614233565b612efd565b505b611ecc82826131d7565b6000611ed785613098565b90507f000000000000000000000000000000000000000000000000000000000000000073ffffffffffffffffffffffffffffffffffffffff1663a9059cbb85836040518363ffffffff1660e01b8152600401611f3492919061429b565b6020604051808303816000875af1158015611f53573d6000803e3d6000fd5b505050506040513d601f19601f82011682018060405250810190611f7791906142f0565b611fb6576040517f08c379a0000000000000000000000000000000000000000000000000000000008152600401611fad90614369565b60405180910390fd5b81600960008573ffffffffffffffffffffffffffffffffffffffff1673ffffffffffffffffffffffffffffffffffffffff16815260200190815260200160002054106120575781600960008573ffffffffffffffffffffffffffffffffffffffff1673ffffffffffffffffffffffffffffffffffffffff168152602001908152602001600020600082825461204b9190614233565b9250508190555061209d565b6000600960008573ffffffffffffffffffffffffffffffffffffffff1673ffffffffffffffffffffffffffffffffffffffff168152602001908152602001600020819055505b8273ffffffffffffffffffffffffffffffffffffffff167f92ccf450a286a957af52509bc1c9939d1a6a481783e142e41e2499f0bb66ebc686846040516120e5929190614389565b60405180910390a28273ffffffffffffffffffffffffffffffffffffffff168473ffffffffffffffffffffffffffffffffffffffff163373ffffffffffffffffffffffffffffffffffffffff167ffbde797d201c681b91056529119e0b02407c7bb96a4a2c75c01fc9667232c8db8886604051612163929190614389565b60405180910390a4509392505050565b60008084116121b7576040517f08c379a00000000000000000000000000000000000000000000000000000000081526004016121ae9061413b565b60405180910390fd5b600073ffffffffffffffffffffffffffffffffffffffff168373ffffffffffffffffffffffffffffffffffffffff1603612226576040517f08c379a000000000000000000000000000000000000000000000000000000000815260040161221d906141a7565b60405180910390fd5b8173ffffffffffffffffffffffffffffffffffffffff163373ffffffffffffffffffffffffffffffffffffffff16146122c25760006122658333612c22565b9050848110156122aa576040517f08c379a00000000000000000000000000000000000000000000000000000000081526004016122a190614213565b60405180910390fd5b6122c0833387846122bb9190614233565b612efd565b505b6122cb84610ca6565b90506122d782856131d7565b7f000000000000000000000000000000000000000000000000000000000000000073ffffffffffffffffffffffffffffffffffffffff1663a9059cbb84836040518363ffffffff1660e01b815260040161233292919061429b565b6020604051808303816000875af1158015612351573d6000803e3d6000fd5b505050506040513d601f19601f8201168201806040525081019061237591906142f0565b6123b4576040517f08c379a00000000000000000000000000000000000000000000000000000000081526004016123ab90614369565b60405180910390fd5b83600960008473ffffffffffffffffffffffffffffffffffffffff1673ffffffffffffffffffffffffffffffffffffffff16815260200190815260200160002054106126045783600960008473ffffffffffffffffffffffffffffffffffffffff1673ffffffffffffffffffffffffffffffffffffffff16815260200190815260200160002060008282546124499190614233565b9250508190555080600a60008473ffffffffffffffffffffffffffffffffffffffff1673ffffffffffffffffffffffffffffffffffffffff168152602001908152602001600020600082825461249f9190614233565b92505081905550600a60008373ffffffffffffffffffffffffffffffffffffffff1673ffffffffffffffffffffffffffffffffffffffff16815260200190815260200160002054600b60008473ffffffffffffffffffffffffffffffffffffffff1673ffffffffffffffffffffffffffffffffffffffff168152602001908152602001600020819055506000612573600b60008573ffffffffffffffffffffffffffffffffffffffff1673ffffffffffffffffffffffffffffffffffffffff16815260200190815260200160002054613259565b905080600c60008573ffffffffffffffffffffffffffffffffffffffff1673ffffffffffffffffffffffffffffffffffffffff168152602001908152602001600020819055506000600a60008573ffffffffffffffffffffffffffffffffffffffff1673ffffffffffffffffffffffffffffffffffffffff168152602001908152602001600020819055505061264a565b6000600960008473ffffffffffffffffffffffffffffffffffffffff1673ffffffffffffffffffffffffffffffffffffffff168152602001908152602001600020819055505b8173ffffffffffffffffffffffffffffffffffffffff168373ffffffffffffffffffffffffffffffffffffffff163373ffffffffffffffffffffffffffffffffffffffff167ffbde797d201c681b91056529119e0b02407c7bb96a4a2c75c01fc9667232c8db87886040516126c0929190614389565b60405180910390a49392505050565b6000807f000000000000000000000000000000000000000000000000000000000000000073ffffffffffffffffffffffffffffffffffffffff166370a08231306040518263ffffffff1660e01b815260040161272b9190613d3e565b602060405180830381865afa158015612748573d6000803e3d6000fd5b505050506040513d601f19601f8201168201806040525081019061276c9190613f85565b9050600061278061277b610bae565b613098565b90508082111561279f5780826127969190614233565b925050506127a6565b6000925050505b90565b600080600660009054906101000a900473ffffffffffffffffffffffffffffffffffffffff1673ffffffffffffffffffffffffffffffffffffffff16633859a1a2600854856040518363ffffffff1660e01b815260040161280b929190614599565b602060405180830381865afa158015612828573d6000803e3d6000fd5b505050506040513d601f19601f8201168201806040525081019061284c9190613f85565b905060008103612860576000915050612980565b6000600760009054906101000a900473ffffffffffffffffffffffffffffffffffffffff1673ffffffffffffffffffffffffffffffffffffffff1663a035b1fe6040518163ffffffff1660e01b8152600401602060405180830381865afa1580156128cf573d6000803e3d6000fd5b505050506040513d601f19601f820116820180604052508101906128f39190613f85565b90506000816ec097ce7bc90715b34b9f1000000000846129139190613fe1565b61291d91906145f1565b9050600064e8d4a51000826129329190613fe1565b905080600e60008873ffffffffffffffffffffffffffffffffffffffff1673ffffffffffffffffffffffffffffffffffffffff16815260200190815260200160002081905550809450505050505b919050565b60007fffffffffffffffffffffffffffffffffffffffffffffffffffffffffffffffff9050919050565b6000819050919050565b60006129ce6129c78361177b565b6000613449565b9050919050565b60006129e08261177b565b9050919050565b6129ef613150565b60008211612a32576040517f08c379a0000000000000000000000000000000000000000000000000000000008152600401612a2990614579565b60405180910390fd5b600073ffffffffffffffffffffffffffffffffffffffff168173ffffffffffffffffffffffffffffffffffffffff1603612aa1576040517f08c379a0000000000000000000000000000000000000000000000000000000008152600401612a989061466e565b60405180910390fd5b6000612aab6126cf565b905080831115612af0576040517f08c379a0000000000000000000000000000000000000000000000000000000008152600401612ae7906146da565b60405180910390fd5b7f000000000000000000000000000000000000000000000000000000000000000073ffffffffffffffffffffffffffffffffffffffff1663a9059cbb83856040518363ffffffff1660e01b8152600401612b4b92919061429b565b6020604051808303816000875af1158015612b6a573d6000803e3d6000fd5b505050506040513d601f19601f82011682018060405250810190612b8e91906142f0565b612bcd576040517f08c379a0000000000000000000000000000000000000000000000000000000008152600401612bc490614369565b60405180910390fd5b8173ffffffffffffffffffffffffffffffffffffffff167f2bf878084037ba4fb4363629d72708a5bb8e8e0de5af9fe03d987d5289f6f4a28442604051612c15929190614389565b60405180910390a2505050565b6000600160008473ffffffffffffffffffffffffffffffffffffffff1673ffffffffffffffffffffffffffffffffffffffff16815260200190815260200160002060008373ffffffffffffffffffffffffffffffffffffffff1673ffffffffffffffffffffffffffffffffffffffff16815260200190815260200160002054905092915050565b6000612cb4826134a2565b9050919050565b612cc3613150565b600073ffffffffffffffffffffffffffffffffffffffff168173ffffffffffffffffffffffffffffffffffffffff1603612d355760006040517f1e4fbdf7000000000000000000000000000000000000000000000000000000008152600401612d2c9190613d3e565b60405180910390fd5b612d3e81613383565b50565b612d49613150565b600073ffffffffffffffffffffffffffffffffffffffff168173ffffffffffffffffffffffffffffffffffffffff1603612db8576040517f08c379a0000000000000000000000000000000000000000000000000000000008152600401612daf9061466e565b60405180910390fd5b6000612dc26126cf565b90507f000000000000000000000000000000000000000000000000000000000000000073ffffffffffffffffffffffffffffffffffffffff1663a9059cbb83836040518363ffffffff1660e01b8152600401612e1f92919061429b565b6020604051808303816000875af1158015612e3e573d6000803e3d6000fd5b505050506040513d601f19601f82011682018060405250810190612e6291906142f0565b612ea1576040517f08c379a0000000000000000000000000000000000000000000000000000000008152600401612e9890614369565b60405180910390fd5b8173ffffffffffffffffffffffffffffffffffffffff167f2bf878084037ba4fb4363629d72708a5bb8e8e0de5af9fe03d987d5289f6f4a28242604051612ee9929190614389565b60405180910390a25050565b600033905090565b612f0a838383600161355a565b505050565b6000612f1b8484612c22565b90507fffffffffffffffffffffffffffffffffffffffffffffffffffffffffffffffff811015612f9e5781811015612f8e578281836040517ffb8f41b2000000000000000000000000000000000000000000000000000000008152600401612f85939291906146fa565b60405180910390fd5b612f9d8484848403600061355a565b5b50505050565b600073ffffffffffffffffffffffffffffffffffffffff168373ffffffffffffffffffffffffffffffffffffffff16036130165760006040517f96c6fd1e00000000000000000000000000000000000000000000000000000000815260040161300d9190613d3e565b60405180910390fd5b600073ffffffffffffffffffffffffffffffffffffffff168273ffffffffffffffffffffffffffffffffffffffff16036130885760006040517fec442f0500000000000000000000000000000000000000000000000000000000815260040161307f9190613d3e565b60405180910390fd5b613093838383613731565b505050565b60008064e8d4a51000836130ac91906145f1565b90507f000000000000000000000000000000000000000000000000000000000000000073ffffffffffffffffffffffffffffffffffffffff1663c6e6f592826040518263ffffffff1660e01b81526004016131079190613b30565b602060405180830381865afa158015613124573d6000803e3d6000fd5b505050506040513d601f19601f820116820180604052508101906131489190613f85565b915050919050565b613158612ef5565b73ffffffffffffffffffffffffffffffffffffffff1661317661188e565b73ffffffffffffffffffffffffffffffffffffffff16146131d557613199612ef5565b6040517f118cdaa70000000000000000000000000000000000000000000000000000000081526004016131cc9190613d3e565b60405180910390fd5b565b600073ffffffffffffffffffffffffffffffffffffffff168273ffffffffffffffffffffffffffffffffffffffff16036132495760006040517f96c6fd1e0000000000000000000000000000000000000000000000000000000081526004016132409190613d3e565b60405180910390fd5b61325582600083613731565b5050565b6000807f000000000000000000000000000000000000000000000000000000000000000073ffffffffffffffffffffffffffffffffffffffff166307a2d13a846040518263ffffffff1660e01b81526004016132b59190613b30565b602060405180830381865afa1580156132d2573d6000803e3d6000fd5b505050506040513d601f19601f820116820180604052508101906132f69190613f85565b905080915050919050565b600073ffffffffffffffffffffffffffffffffffffffff168273ffffffffffffffffffffffffffffffffffffffff16036133735760006040517fec442f0500000000000000000000000000000000000000000000000000000000815260040161336a9190613d3e565b60405180910390fd5b61337f60008383613731565b5050565b6000600560009054906101000a900473ffffffffffffffffffffffffffffffffffffffff16905081600560006101000a81548173ffffffffffffffffffffffffffffffffffffffff021916908373ffffffffffffffffffffffffffffffffffffffff1602179055508173ffffffffffffffffffffffffffffffffffffffff168173ffffffffffffffffffffffffffffffffffffffff167f8be0079c531659141344cd1fd0a4f28419497f9722a3daafe3b4186f6b6457e060405160405180910390a35050565b600061349a6001613458610990565b6134629190614267565b61346a613956565b600a6134769190614864565b61347e610bae565b6134889190614267565b848661395b909392919063ffffffff16565b905092915050565b6000807f000000000000000000000000000000000000000000000000000000000000000073ffffffffffffffffffffffffffffffffffffffff166307a2d13a846040518263ffffffff1660e01b81526004016134fe9190613b30565b602060405180830381865afa15801561351b573d6000803e3d6000fd5b505050506040513d601f19601f8201168201806040525081019061353f9190613f85565b905064e8d4a51000816135529190613fe1565b915050919050565b600073ffffffffffffffffffffffffffffffffffffffff168473ffffffffffffffffffffffffffffffffffffffff16036135cc5760006040517fe602df050000000000000000000000000000000000000000000000000000000081526004016135c39190613d3e565b60405180910390fd5b600073ffffffffffffffffffffffffffffffffffffffff168373ffffffffffffffffffffffffffffffffffffffff160361363e5760006040517f94280d620000000000000000000000000000000000000000000000000000000081526004016136359190613d3e565b60405180910390fd5b81600160008673ffffffffffffffffffffffffffffffffffffffff1673ffffffffffffffffffffffffffffffffffffffff16815260200190815260200160002060008573ffffffffffffffffffffffffffffffffffffffff1673ffffffffffffffffffffffffffffffffffffffff16815260200190815260200160002081905550801561372b578273ffffffffffffffffffffffffffffffffffffffff168473ffffffffffffffffffffffffffffffffffffffff167f8c5be1e5ebec7d5bd14f71427d1e84f3dd0314c0f7b2291e5b200ac8c7c3b925846040516137229190613b30565b60405180910390a35b50505050565b600073ffffffffffffffffffffffffffffffffffffffff168373ffffffffffffffffffffffffffffffffffffffff16036137835780600260008282546137779190614267565b92505081905550613856565b60008060008573ffffffffffffffffffffffffffffffffffffffff1673ffffffffffffffffffffffffffffffffffffffff1681526020019081526020016000205490508181101561380f578381836040517fe450d38c000000000000000000000000000000000000000000000000000000008152600401613806939291906146fa565b60405180910390fd5b8181036000808673ffffffffffffffffffffffffffffffffffffffff1673ffffffffffffffffffffffffffffffffffffffff16815260200190815260200160002081905550505b600073ffffffffffffffffffffffffffffffffffffffff168273ffffffffffffffffffffffffffffffffffffffff160361389f57806002600082825403925050819055506138ec565b806000808473ffffffffffffffffffffffffffffffffffffffff1673ffffffffffffffffffffffffffffffffffffffff168152602001908152602001600020600082825401925050819055505b8173ffffffffffffffffffffffffffffffffffffffff168373ffffffffffffffffffffffffffffffffffffffff167fddf252ad1be2c89b69c2b068fc378daa952ba7f163c4a11628f55a4df523b3ef836040516139499190613b30565b60405180910390a3505050565b600090565b600061398b613969836139aa565b8015613986575060008480613981576139806145c2565b5b868809115b6139d8565b6139968686866139e4565b6139a09190614267565b9050949350505050565b6000600160028360038111156139c3576139c26148af565b5b6139cd91906148de565b60ff16149050919050565b60008115159050919050565b60008060006139f38686613acc565b9150915060008203613a1957838181613a0f57613a0e6145c2565b5b0492505050613ac5565b818411613a3957613a38613a336000861460126011613aeb565b613b05565b5b600084868809905081811183039250808203915060008560000386169050808604955080830492506001818260000304019050808402831792506000600287600302189050808702600203810290508087026002038102905080870260020381029050808702600203810290508087026002038102905080870260020381029050808402955050505050505b9392505050565b6000806000198385098385029150818110828203039250509250929050565b6000613af6846139d8565b82841802821890509392505050565b634e487b71600052806020526024601cfd5b6000819050919050565b613b2a81613b17565b82525050565b6000602082019050613b456000830184613b21565b92915050565b600081519050919050565b600082825260208201905092915050565b60005b83811015613b85578082015181840152602081019050613b6a565b60008484015250505050565b6000601f19601f8301169050919050565b6000613bad82613b4b565b613bb78185613b56565b9350613bc7818560208601613b67565b613bd081613b91565b840191505092915050565b60006020820190508181036000830152613bf58184613ba2565b905092915050565b600080fd5b613c0b81613b17565b8114613c1657600080fd5b50565b600081359050613c2881613c02565b92915050565b600060208284031215613c4457613c43613bfd565b5b6000613c5284828501613c19565b91505092915050565b600073ffffffffffffffffffffffffffffffffffffffff82169050919050565b6000613c8682613c5b565b9050919050565b613c9681613c7b565b8114613ca157600080fd5b50565b600081359050613cb381613c8d565b92915050565b60008060408385031215613cd057613ccf613bfd565b5b6000613cde85828601613ca4565b9250506020613cef85828601613c19565b9150509250929050565b60008115159050919050565b613d0e81613cf9565b82525050565b6000602082019050613d296000830184613d05565b92915050565b613d3881613c7b565b82525050565b6000602082019050613d536000830184613d2f565b92915050565b600080600060608486031215613d7257613d71613bfd565b5b6000613d8086828701613ca4565b9350506020613d9186828701613ca4565b9250506040613da286828701613c19565b9150509250925092565b600060ff82169050919050565b613dc281613dac565b82525050565b6000602082019050613ddd6000830184613db9565b92915050565b600060208284031215613df957613df8613bfd565b5b6000613e0784828501613ca4565b91505092915050565b600080600060608486031215613e2957613e28613bfd565b5b6000613e3786828701613c19565b9350506020613e4886828701613ca4565b9250506040613e5986828701613ca4565b9150509250925092565b60008060408385031215613e7a57613e79613bfd565b5b6000613e8885828601613c19565b9250506020613e9985828601613ca4565b9150509250929050565b6000819050919050565b613eb681613ea3565b82525050565b6000602082019050613ed16000830184613ead565b92915050565b613ee081613ea3565b8114613eeb57600080fd5b50565b600081359050613efd81613ed7565b92915050565b600060208284031215613f1957613f18613bfd565b5b6000613f2784828501613eee565b91505092915050565b60008060408385031215613f4757613f46613bfd565b5b6000613f5585828601613ca4565b9250506020613f6685828601613ca4565b9150509250929050565b600081519050613f7f81613c02565b92915050565b600060208284031215613f9b57613f9a613bfd565b5b6000613fa984828501613f70565b91505092915050565b7f4e487b7100000000000000000000000000000000000000000000000000000000600052601160045260246000fd5b6000613fec82613b17565b9150613ff783613b17565b925082820261400581613b17565b9150828204841483151761401c5761401b613fb2565b5b5092915050565b7f4e487b7100000000000000000000000000000000000000000000000000000000600052602260045260246000fd5b6000600282049050600182168061406a57607f821691505b60208210810361407d5761407c614023565b5b50919050565b7f496e76616c696420616464726573730000000000000000000000000000000000600082015250565b60006140b9600f83613b56565b91506140c482614083565b602082019050919050565b600060208201905081810360008301526140e8816140ac565b9050919050565b7f43616e6e6f742072656465656d207a65726f0000000000000000000000000000600082015250565b6000614125601283613b56565b9150614130826140ef565b602082019050919050565b6000602082019050818103600083015261415481614118565b9050919050565b7f496e76616c696420726563656976657200000000000000000000000000000000600082015250565b6000614191601083613b56565b915061419c8261415b565b602082019050919050565b600060208201905081810360008301526141c081614184565b9050919050565b7f496e73756666696369656e7420616c6c6f77616e636500000000000000000000600082015250565b60006141fd601683613b56565b9150614208826141c7565b602082019050919050565b6000602082019050818103600083015261422c816141f0565b9050919050565b600061423e82613b17565b915061424983613b17565b925082820390508181111561426157614260613fb2565b5b92915050565b600061427282613b17565b915061427d83613b17565b925082820190508082111561429557614294613fb2565b5b92915050565b60006040820190506142b06000830185613d2f565b6142bd6020830184613b21565b9392505050565b6142cd81613cf9565b81146142d857600080fd5b50565b6000815190506142ea816142c4565b92915050565b60006020828403121561430657614305613bfd565b5b6000614314848285016142db565b91505092915050565b7f5472616e73666572206661696c65640000000000000000000000000000000000600082015250565b6000614353600f83613b56565b915061435e8261431d565b602082019050919050565b6000602082019050818103600083015261438281614346565b9050919050565b600060408201905061439e6000830185613b21565b6143ab6020830184613b21565b9392505050565b7f43616e6e6f74206465706f736974207a65726f00000000000000000000000000600082015250565b60006143e8601383613b56565b91506143f3826143b2565b602082019050919050565b60006020820190508181036000830152614417816143db565b9050919050565b60006060820190506144336000830186613d2f565b6144406020830185613d2f565b61444d6040830184613b21565b949350505050565b7f496e76616c6964206d61726b6574496400000000000000000000000000000000600082015250565b600061448b601083613b56565b915061449682614455565b602082019050919050565b600060208201905081810360008301526144ba8161447e565b9050919050565b7f43616e6e6f74206d696e74207a65726f00000000000000000000000000000000600082015250565b60006144f7601083613b56565b9150614502826144c1565b602082019050919050565b60006020820190508181036000830152614526816144ea565b9050919050565b7f43616e6e6f74207769746864726177207a65726f000000000000000000000000600082015250565b6000614563601483613b56565b915061456e8261452d565b602082019050919050565b6000602082019050818103600083015261459281614556565b9050919050565b60006040820190506145ae6000830185613ead565b6145bb6020830184613d2f565b9392505050565b7f4e487b7100000000000000000000000000000000000000000000000000000000600052601260045260246000fd5b60006145fc82613b17565b915061460783613b17565b925082614617576146166145c2565b5b828204905092915050565b7f496e76616c696420726563697069656e74000000000000000000000000000000600082015250565b6000614658601183613b56565b915061466382614622565b602082019050919050565b600060208201905081810360008301526146878161464b565b9050919050565b7f496e73756666696369656e7420616363756d756c61746564207969656c640000600082015250565b60006146c4601e83613b56565b91506146cf8261468e565b602082019050919050565b600060208201905081810360008301526146f3816146b7565b9050919050565b600060608201905061470f6000830186613d2f565b61471c6020830185613b21565b6147296040830184613b21565b949350505050565b60008160011c9050919050565b6000808291508390505b60018511156147885780860481111561476457614763613fb2565b5b60018516156147735780820291505b808102905061478185614731565b9450614748565b94509492505050565b6000826147a1576001905061485d565b816147af576000905061485d565b81600181146147c557600281146147cf576147fe565b600191505061485d565b60ff8411156147e1576147e0613fb2565b5b8360020a9150848211156147f8576147f7613fb2565b5b5061485d565b5060208310610133831016604e8410600b84101617156148335782820a90508381111561482e5761482d613fb2565b5b61485d565b614840848484600161473e565b9250905081840481111561485757614856613fb2565b5b81810290505b9392505050565b600061486f82613b17565b915061487a83613dac565b92506148a77fffffffffffffffffffffffffffffffffffffffffffffffffffffffffffffffff8484614791565b905092915050565b7f4e487b7100000000000000000000000000000000000000000000000000000000600052602160045260246000fd5b60006148e982613dac565b91506148f483613dac565b925082614904576149036145c2565b5b82820690509291505056fea2646970667358221220d14066f411080c1d3e70446e1a9a03cbbddae22569f8d1bce9a8ae615b7909d264736f6c63430008140033",
  "linkReferences": {},
  "deployedLinkReferences": {}
}