{
  "_format": "hh-sol-artifact-1",
  "contractName": "WmUSDC",
  "sourceName": "contracts/WmUSDC.sol",
  "abi": [
    {
      "inputs": [
        {
          "internalType": "address",
          "name": "vaultUSDC_",
          "type": "address"
        }
      ],
      "stateMutability": "nonpayable",
      "type": "constructor"
    },
    {
      "inputs": [
        {
          "internalType": "address",
          "name": "spender",
          "type": "address"
        },
        {
          "internalType": "uint256",
          "name": "allowance",
          "type": "uint256"
        },
        {
          "internalType": "uint256",
          "name": "needed",
          "type": "uint256"
        }
      ],
      "name": "ERC20InsufficientAllowance",
      "type": "error"
    },
    {
      "inputs": [
        {
          "internalType": "address",
          "name": "sender",
          "type": "address"
        },
        {
          "internalType": "uint256",
          "name": "balance",
          "type": "uint256"
        },
        {
          "internalType": "uint256",
          "name": "needed",
          "type": "uint256"
        }
      ],
      "name": "ERC20InsufficientBalance",
      "type": "error"
    },
    {
      "inputs": [
        {
          "internalType": "address",
          "name": "approver",
          "type": "address"
        }
      ],
      "name": "ERC20InvalidApprover",
      "type": "error"
    },
    {
      "inputs": [
        {
          "internalType": "address",
          "name": "receiver",
          "type": "address"
        }
      ],
      "name": "ERC20InvalidReceiver",
      "type": "error"
    },
    {
      "inputs": [
        {
          "internalType": "address",
          "name": "sender",
          "type": "address"
        }
      ],
      "name": "ERC20InvalidSender",
      "type": "error"
    },
    {
      "inputs": [
        {
          "internalType": "address",
          "name": "spender",
          "type": "address"
        }
      ],
      "name": "ERC20InvalidSpender",
      "type": "error"
    },
    {
      "inputs": [
        {
          "internalType": "address",
          "name": "receiver",
          "type": "address"
        },
        {
          "internalType": "uint256",
          "name": "assets",
          "type": "uint256"
        },
        {
          "internalType": "uint256",
          "name": "max",
          "type": "uint256"
        }
      ],
      "name": "ERC4626ExceededMaxDeposit",
      "type": "error"
    },
    {
      "inputs": [
        {
          "internalType": "address",
          "name": "receiver",
          "type": "address"
        },
        {
          "internalType": "uint256",
          "name": "shares",
          "type": "uint256"
        },
        {
          "internalType": "uint256",
          "name": "max",
          "type": "uint256"
        }
      ],
      "name": "ERC4626ExceededMaxMint",
      "type": "error"
    },
    {
      "inputs": [
        {
          "internalType": "address",
          "name": "owner",
          "type": "address"
        },
        {
          "internalType": "uint256",
          "name": "shares",
          "type": "uint256"
        },
        {
          "internalType": "uint256",
          "name": "max",
          "type": "uint256"
        }
      ],
      "name": "ERC4626ExceededMaxRedeem",
      "type": "error"
    },
    {
      "inputs": [
        {
          "internalType": "address",
          "name": "owner",
          "type": "address"
        },
        {
          "internalType": "uint256",
          "name": "assets",
          "type": "uint256"
        },
        {
          "internalType": "uint256",
          "name": "max",
          "type": "uint256"
        }
      ],
      "name": "ERC4626ExceededMaxWithdraw",
      "type": "error"
    },
    {
      "inputs": [
        {
          "internalType": "address",
          "name": "owner",
          "type": "address"
        }
      ],
      "name": "OwnableInvalidOwner",
      "type": "error"
    },
    {
      "inputs": [
        {
          "internalType": "address",
          "name": "account",
          "type": "address"
        }
      ],
      "name": "OwnableUnauthorizedAccount",
      "type": "error"
    },
    {
      "anonymous": false,
      "inputs": [
        {
          "indexed": true,
          "internalType": "address",
          "name": "owner",
          "type": "address"
        },
        {
          "indexed": true,
          "internalType": "address",
          "name": "spender",
          "type": "address"
        },
        {
          "indexed": false,
          "internalType": "uint256",
          "name": "value",
          "type": "uint256"
        }
      ],
      "name": "Approval",
      "type": "event"
    },
    {
      "anonymous": false,
      "inputs": [
        {
          "indexed": true,
          "internalType": "address",
          "name": "sender",
          "type": "address"
        },
        {
          "indexed": true,
          "internalType": "address",
          "name": "owner",
          "type": "address"
        },
        {
          "indexed": false,
          "internalType": "uint256",
          "name": "assets",
          "type": "uint256"
        },
        {
          "indexed": false,
          "internalType": "uint256",
          "name": "shares",
          "type": "uint256"
        }
      ],
      "name": "Deposit",
      "type": "event"
    },
    {
      "anonymous": false,
      "inputs": [
        {
          "indexed": true,
          "internalType": "address",
          "name": "user",
          "type": "address"
        },
        {
          "indexed": false,
          "internalType": "uint256",
          "name": "assets",
          "type": "uint256"
        },
        {
          "indexed": false,
          "internalType": "uint256",
          "name": "shares",
          "type": "uint256"
        }
      ],
      "name": "Deposited",
      "type": "event"
    },
    {
      "anonymous": false,
      "inputs": [
        {
          "indexed": true,
          "internalType": "address",
          "name": "previousOwner",
          "type": "address"
        },
        {
          "indexed": true,
          "internalType": "address",
          "name": "newOwner",
          "type": "address"
        }
      ],
      "name": "OwnershipTransferred",
      "type": "event"
    },
    {
      "anonymous": false,
      "inputs": [
        {
          "indexed": true,
          "internalType": "address",
          "name": "from",
          "type": "address"
        },
        {
          "indexed": true,
          "internalType": "address",
          "name": "to",
          "type": "address"
        },
        {
          "indexed": false,
          "internalType": "uint256",
          "name": "value",
          "type": "uint256"
        }
      ],
      "name": "Transfer",
      "type": "event"
    },
    {
      "anonymous": false,
      "inputs": [
        {
          "indexed": true,
          "internalType": "address",
          "name": "sender",
          "type": "address"
        },
        {
          "indexed": true,
          "internalType": "address",
          "name": "receiver",
          "type": "address"
        },
        {
          "indexed": true,
          "internalType": "address",
          "name": "owner",
          "type": "address"
        },
        {
          "indexed": false,
          "internalType": "uint256",
          "name": "assets",
          "type": "uint256"
        },
        {
          "indexed": false,
          "internalType": "uint256",
          "name": "shares",
          "type": "uint256"
        }
      ],
      "name": "Withdraw",
      "type": "event"
    },
    {
      "anonymous": false,
      "inputs": [
        {
          "indexed": true,
          "internalType": "address",
          "name": "user",
          "type": "address"
        },
        {
          "indexed": false,
          "internalType": "uint256",
          "name": "assets",
          "type": "uint256"
        },
        {
          "indexed": false,
          "internalType": "uint256",
          "name": "shares",
          "type": "uint256"
        }
      ],
      "name": "Withdrawn",
      "type": "event"
    },
    {
      "anonymous": false,
      "inputs": [
        {
          "indexed": true,
          "internalType": "address",
          "name": "recipient",
          "type": "address"
        },
        {
          "indexed": false,
          "internalType": "uint256",
          "name": "amount",
          "type": "uint256"
        },
        {
          "indexed": false,
          "internalType": "uint256",
          "name": "timestamp",
          "type": "uint256"
        }
      ],
      "name": "YieldWithdrawn",
      "type": "event"
    },
    {
      "inputs": [
        {
          "internalType": "address",
          "name": "owner",
          "type": "address"
        },
        {
          "internalType": "address",
          "name": "spender",
          "type": "address"
        }
      ],
      "name": "allowance",
      "outputs": [
        {
          "internalType": "uint256",
          "name": "",
          "type": "uint256"
        }
      ],
      "stateMutability": "view",
      "type": "function"
    },
    {
      "inputs": [
        {
          "internalType": "address",
          "name": "spender",
          "type": "address"
        },
        {
          "internalType": "uint256",
          "name": "value",
          "type": "uint256"
        }
      ],
      "name": "approve",
      "outputs": [
        {
          "internalType": "bool",
          "name": "",
          "type": "bool"
        }
      ],
      "stateMutability": "nonpayable",
      "type": "function"
    },
    {
      "inputs": [],
      "name": "asset",
      "outputs": [
        {
          "internalType": "address",
          "name": "",
          "type": "address"
        }
      ],
      "stateMutability": "view",
      "type": "function"
    },
    {
      "inputs": [
        {
          "internalType": "address",
          "name": "account",
          "type": "address"
        }
      ],
      "name": "balanceOf",
      "outputs": [
        {
          "internalType": "uint256",
          "name": "",
          "type": "uint256"
        }
      ],
      "stateMutability": "view",
      "type": "function"
    },
    {
      "inputs": [
        {
          "internalType": "uint256",
          "name": "shares",
          "type": "uint256"
        }
      ],
      "name": "convertToAssets",
      "outputs": [
        {
          "internalType": "uint256",
          "name": "",
          "type": "uint256"
        }
      ],
      "stateMutability": "pure",
      "type": "function"
    },
    {
      "inputs": [
        {
          "internalType": "uint256",
          "name": "assets",
          "type": "uint256"
        }
      ],
      "name": "convertToShares",
      "outputs": [
        {
          "internalType": "uint256",
          "name": "",
          "type": "uint256"
        }
      ],
      "stateMutability": "pure",
      "type": "function"
    },
    {
      "inputs": [],
      "name": "decimals",
      "outputs": [
        {
          "internalType": "uint8",
          "name": "",
          "type": "uint8"
        }
      ],
      "stateMutability": "pure",
      "type": "function"
    },
    {
      "inputs": [
        {
          "internalType": "uint256",
          "name": "assets",
          "type": "uint256"
        },
        {
          "internalType": "address",
          "name": "receiver",
          "type": "address"
        }
      ],
      "name": "deposit",
      "outputs": [
        {
          "internalType": "uint256",
          "name": "shares",
          "type": "uint256"
        }
      ],
      "stateMutability": "nonpayable",
      "type": "function"
    },
    {
      "inputs": [],
      "name": "getAccumulatedYield",
      "outputs": [
        {
          "internalType": "uint256",
          "name": "",
          "type": "uint256"
        }
      ],
      "stateMutability": "view",
      "type": "function"
    },
    {
      "inputs": [
        {
          "internalType": "address",
          "name": "",
          "type": "address"
        }
      ],
      "name": "maxDeposit",
      "outputs": [
        {
          "internalType": "uint256",
          "name": "",
          "type": "uint256"
        }
      ],
      "stateMutability": "view",
      "type": "function"
    },
    {
      "inputs": [
        {
          "internalType": "address",
          "name": "",
          "type": "address"
        }
      ],
      "name": "maxMint",
      "outputs": [
        {
          "internalType": "uint256",
          "name": "",
          "type": "uint256"
        }
      ],
      "stateMutability": "view",
      "type": "function"
    },
    {
      "inputs": [
        {
          "internalType": "address",
          "name": "owner",
          "type": "address"
        }
      ],
      "name": "maxRedeem",
      "outputs": [
        {
          "internalType": "uint256",
          "name": "",
          "type": "uint256"
        }
      ],
      "stateMutability": "view",
      "type": "function"
    },
    {
      "inputs": [
        {
          "internalType": "address",
          "name": "owner",
          "type": "address"
        }
      ],
      "name": "maxWithdraw",
      "outputs": [
        {
          "internalType": "uint256",
          "name": "",
          "type": "uint256"
        }
      ],
      "stateMutability": "view",
      "type": "function"
    },
    {
      "inputs": [
        {
          "internalType": "uint256",
          "name": "shares",
          "type": "uint256"
        },
        {
          "internalType": "address",
          "name": "receiver",
          "type": "address"
        }
      ],
      "name": "mint",
      "outputs": [
        {
          "internalType": "uint256",
          "name": "assets",
          "type": "uint256"
        }
      ],
      "stateMutability": "nonpayable",
      "type": "function"
    },
    {
      "inputs": [],
      "name": "name",
      "outputs": [
        {
          "internalType": "string",
          "name": "",
          "type": "string"
        }
      ],
      "stateMutability": "view",
      "type": "function"
    },
    {
      "inputs": [],
      "name": "owner",
      "outputs": [
        {
          "internalType": "address",
          "name": "",
          "type": "address"
        }
      ],
      "stateMutability": "view",
      "type": "function"
    },
    {
      "inputs": [
        {
          "internalType": "uint256",
          "name": "assets",
          "type": "uint256"
        }
      ],
      "name": "previewDeposit",
      "outputs": [
        {
          "internalType": "uint256",
          "name": "",
          "type": "uint256"
        }
      ],
      "stateMutability": "view",
      "type": "function"
    },
    {
      "inputs": [
        {
          "internalType": "uint256",
          "name": "shares",
          "type": "uint256"
        }
      ],
      "name": "previewMint",
      "outputs": [
        {
          "internalType": "uint256",
          "name": "",
          "type": "uint256"
        }
      ],
      "stateMutability": "view",
      "type": "function"
    },
    {
      "inputs": [
        {
          "internalType": "uint256",
          "name": "shares",
          "type": "uint256"
        }
      ],
      "name": "previewRedeem",
      "outputs": [
        {
          "internalType": "uint256",
          "name": "",
          "type": "uint256"
        }
      ],
      "stateMutability": "view",
      "type": "function"
    },
    {
      "inputs": [
        {
          "internalType": "uint256",
          "name": "assets",
          "type": "uint256"
        }
      ],
      "name": "previewWithdraw",
      "outputs": [
        {
          "internalType": "uint256",
          "name": "",
          "type": "uint256"
        }
      ],
      "stateMutability": "pure",
      "type": "function"
    },
    {
      "inputs": [
        {
          "internalType": "uint256",
          "name": "shares",
          "type": "uint256"
        },
        {
          "internalType": "address",
          "name": "receiver",
          "type": "address"
        },
        {
          "internalType": "address",
          "name": "owner",
          "type": "address"
        }
      ],
      "name": "redeem",
      "outputs": [
        {
          "internalType": "uint256",
          "name": "assets",
          "type": "uint256"
        }
      ],
      "stateMutability": "nonpayable",
      "type": "function"
    },
    {
      "inputs": [],
      "name": "renounceOwnership",
      "outputs": [],
      "stateMutability": "nonpayable",
      "type": "function"
    },
    {
      "inputs": [],
      "name": "symbol",
      "outputs": [
        {
          "internalType": "string",
          "name": "",
          "type": "string"
        }
      ],
      "stateMutability": "view",
      "type": "function"
    },
    {
      "inputs": [],
      "name": "totalAssets",
      "outputs": [
        {
          "internalType": "uint256",
          "name": "",
          "type": "uint256"
        }
      ],
      "stateMutability": "view",
      "type": "function"
    },
    {
      "inputs": [],
      "name": "totalSupply",
      "outputs": [
        {
          "internalType": "uint256",
          "name": "",
          "type": "uint256"
        }
      ],
      "stateMutability": "view",
      "type": "function"
    },
    {
      "inputs": [
        {
          "internalType": "address",
          "name": "to",
          "type": "address"
        },
        {
          "internalType": "uint256",
          "name": "value",
          "type": "uint256"
        }
      ],
      "name": "transfer",
      "outputs": [
        {
          "internalType": "bool",
          "name": "",
          "type": "bool"
        }
      ],
      "stateMutability": "nonpayable",
      "type": "function"
    },
    {
      "inputs": [
        {
          "internalType": "address",
          "name": "from",
          "type": "address"
        },
        {
          "internalType": "address",
          "name": "to",
          "type": "address"
        },
        {
          "internalType": "uint256",
          "name": "value",
          "type": "uint256"
        }
      ],
      "name": "transferFrom",
      "outputs": [
        {
          "internalType": "bool",
          "name": "",
          "type": "bool"
        }
      ],
      "stateMutability": "nonpayable",
      "type": "function"
    },
    {
      "inputs": [
        {
          "internalType": "address",
          "name": "newOwner",
          "type": "address"
        }
      ],
      "name": "transferOwnership",
      "outputs": [],
      "stateMutability": "nonpayable",
      "type": "function"
    },
    {
      "inputs": [
        {
          "internalType": "address",
          "name": "",
          "type": "address"
        }
      ],
      "name": "userDepositedAssets",
      "outputs": [
        {
          "internalType": "uint256",
          "name": "",
          "type": "uint256"
        }
      ],
      "stateMutability": "view",
      "type": "function"
    },
    {
      "inputs": [
        {
          "internalType": "address",
          "name": "",
          "type": "address"
        }
      ],
      "name": "userDepositedShares",
      "outputs": [
        {
          "internalType": "uint256",
          "name": "",
          "type": "uint256"
        }
      ],
      "stateMutability": "view",
      "type": "function"
    },
    {
      "inputs": [
        {
          "internalType": "address",
          "name": "",
          "type": "address"
        }
      ],
      "name": "userGeneratedYieldInShares",
      "outputs": [
        {
          "internalType": "uint256",
          "name": "",
          "type": "uint256"
        }
      ],
      "stateMutability": "view",
      "type": "function"
    },
    {
      "inputs": [
        {
          "internalType": "address",
          "name": "",
          "type": "address"
        }
      ],
      "name": "userGeneratedYieldInUSDC",
      "outputs": [
        {
          "internalType": "uint256",
          "name": "",
          "type": "uint256"
        }
      ],
      "stateMutability": "view",
      "type": "function"
    },
    {
      "inputs": [
        {
          "internalType": "uint256",
          "name": "assets",
          "type": "uint256"
        },
        {
          "internalType": "address",
          "name": "receiver",
          "type": "address"
        },
        {
          "internalType": "address",
          "name": "owner",
          "type": "address"
        }
      ],
      "name": "withdraw",
      "outputs": [
        {
          "internalType": "uint256",
          "name": "shares",
          "type": "uint256"
        }
      ],
      "stateMutability": "nonpayable",
      "type": "function"
    },
    {
      "inputs": [
        {
          "internalType": "uint256",
          "name": "amount",
          "type": "uint256"
        },
        {
          "internalType": "address",
          "name": "recipient",
          "type": "address"
        }
      ],
      "name": "withdrawAccumulatedYield",
      "outputs": [],
      "stateMutability": "nonpayable",
      "type": "function"
    },
    {
      "inputs": [
        {
          "internalType": "address",
          "name": "recipient",
          "type": "address"
        }
      ],
      "name": "withdrawAllAccumulatedYield",
      "outputs": [],
      "stateMutability": "nonpayable",
      "type": "function"
    }
  ],
  "bytecode": "0x60e06040523480156200001157600080fd5b506040516200447a3803806200447a8339818101604052810190620000379190620004b5565b33816040518060400160405280601981526020017f57726170706564204d6f7270686f205661756c742055534443000000000000008152506040518060400160405280600681526020017f576d5553444300000000000000000000000000000000000000000000000000008152508160039081620000b6919062000761565b508060049081620000c8919062000761565b505050600080620000df836200026b60201b60201c565b9150915081620000f1576012620000f3565b805b60ff1660a08160ff16815250508273ffffffffffffffffffffffffffffffffffffffff1660808173ffffffffffffffffffffffffffffffffffffffff1681525050505050600073ffffffffffffffffffffffffffffffffffffffff168173ffffffffffffffffffffffffffffffffffffffff1603620001ac5760006040517f1e4fbdf7000000000000000000000000000000000000000000000000000000008152600401620001a3919062000859565b60405180910390fd5b620001bd816200038560201b60201c565b50600073ffffffffffffffffffffffffffffffffffffffff168173ffffffffffffffffffffffffffffffffffffffff160362000230576040517f08c379a00000000000000000000000000000000000000000000000000000000081526004016200022790620008d7565b60405180910390fd5b8073ffffffffffffffffffffffffffffffffffffffff1660c08173ffffffffffffffffffffffffffffffffffffffff168152505050620009ee565b6000806000808473ffffffffffffffffffffffffffffffffffffffff1660405160240160405160208183030381529060405263313ce56760e01b6020820180517bffffffffffffffffffffffffffffffffffffffffffffffffffffffff8381831617835250505050604051620002e2919062000972565b600060405180830381855afa9150503d80600081146200031f576040519150601f19603f3d011682016040523d82523d6000602084013e62000324565b606091505b50915091508180156200033957506020815110155b156200037657600081806020019051810190620003579190620009bc565b905060ff8016811162000374576001819450945050505062000380565b505b6000809350935050505b915091565b6000600560009054906101000a900473ffffffffffffffffffffffffffffffffffffffff16905081600560006101000a81548173ffffffffffffffffffffffffffffffffffffffff021916908373ffffffffffffffffffffffffffffffffffffffff1602179055508173ffffffffffffffffffffffffffffffffffffffff168173ffffffffffffffffffffffffffffffffffffffff167f8be0079c531659141344cd1fd0a4f28419497f9722a3daafe3b4186f6b6457e060405160405180910390a35050565b600080fd5b600073ffffffffffffffffffffffffffffffffffffffff82169050919050565b60006200047d8262000450565b9050919050565b6200048f8162000470565b81146200049b57600080fd5b50565b600081519050620004af8162000484565b92915050565b600060208284031215620004ce57620004cd6200044b565b5b6000620004de848285016200049e565b91505092915050565b600081519050919050565b7f4e487b7100000000000000000000000000000000000000000000000000000000600052604160045260246000fd5b7f4e487b7100000000000000000000000000000000000000000000000000000000600052602260045260246000fd5b600060028204905060018216806200056957607f821691505b6020821081036200057f576200057e62000521565b5b50919050565b60008190508160005260206000209050919050565b60006020601f8301049050919050565b600082821b905092915050565b600060088302620005e97fffffffffffffffffffffffffffffffffffffffffffffffffffffffffffffffff82620005aa565b620005f58683620005aa565b95508019841693508086168417925050509392505050565b6000819050919050565b6000819050919050565b6000620006426200063c62000636846200060d565b62000617565b6200060d565b9050919050565b6000819050919050565b6200065e8362000621565b620006766200066d8262000649565b848454620005b7565b825550505050565b600090565b6200068d6200067e565b6200069a81848462000653565b505050565b5b81811015620006c257620006b660008262000683565b600181019050620006a0565b5050565b601f8211156200071157620006db8162000585565b620006e6846200059a565b81016020851015620006f6578190505b6200070e62000705856200059a565b8301826200069f565b50505b505050565b600082821c905092915050565b6000620007366000198460080262000716565b1980831691505092915050565b600062000751838362000723565b9150826002028217905092915050565b6200076c82620004e7565b67ffffffffffffffff811115620007885762000787620004f2565b5b62000794825462000550565b620007a1828285620006c6565b600060209050601f831160018114620007d95760008415620007c4578287015190505b620007d0858262000743565b86555062000840565b601f198416620007e98662000585565b60005b828110156200081357848901518255600182019150602085019450602081019050620007ec565b868310156200083357848901516200082f601f89168262000723565b8355505b6001600288020188555050505b505050505050565b620008538162000470565b82525050565b600060208201905062000870600083018462000848565b92915050565b600082825260208201905092915050565b7f496e76616c6964207661756c7455534443206164647265737300000000000000600082015250565b6000620008bf60198362000876565b9150620008cc8262000887565b602082019050919050565b60006020820190508181036000830152620008f281620008b0565b9050919050565b600081519050919050565b600081905092915050565b60005b838110156200092f57808201518184015260208101905062000912565b60008484015250505050565b60006200094882620008f9565b62000954818562000904565b9350620009668185602086016200090f565b80840191505092915050565b60006200098082846200093b565b915081905092915050565b62000996816200060d565b8114620009a257600080fd5b50565b600081519050620009b6816200098b565b92915050565b600060208284031215620009d557620009d46200044b565b5b6000620009e584828501620009a5565b91505092915050565b60805160a05160c051613a1262000a68600039600081816107b90152818161085701528181610b5001528181610efe015281816113120152818161171001528181611b0b01528181611d4d015281816120210152818161230b0152818161260101526127020152600050506000610a180152613a126000f3fe608060405234801561001057600080fd5b50600436106102115760003560e01c806394bf804d11610125578063c63d75b6116100ad578063dd52c6af1161007c578063dd52c6af14610700578063dd62ed3e1461071c578063ef8b30f71461074c578063f2fde38b1461077c578063f7f12c501461079857610211565b8063c63d75b614610640578063c6e6f59214610670578063ce96cb77146106a0578063d905777e146106d057610211565b8063b3a42e1e116100f4578063b3a42e1e14610562578063b3d7f6b914610592578063b460af94146105c2578063ba087652146105f2578063bbde8be01461062257610211565b806394bf804d146104b457806395d89b41146104e45780639f522e8514610502578063a9059cbb1461053257610211565b806338d52e0f116101a85780636e553f65116101775780636e553f65146103fc57806370a082311461042c578063715018a61461045c57806385cc4d59146104665780638da5cb5b1461049657610211565b806338d52e0f1461034e5780633e232dae1461036c578063402d267d1461039c5780634cdad506146103cc57610211565b80630a28a477116101e45780630a28a477146102b257806318160ddd146102e257806323b872dd14610300578063313ce5671461033057610211565b806301e1d1141461021657806306fdde031461023457806307a2d13a14610252578063095ea7b314610282575b600080fd5b61021e6107b4565b60405161022b9190612d8b565b60405180910390f35b61023c610909565b6040516102499190612e36565b60405180910390f35b61026c60048036038101906102679190612e89565b61099b565b6040516102799190612d8b565b60405180910390f35b61029c60048036038101906102979190612f14565b6109a5565b6040516102a99190612f6f565b60405180910390f35b6102cc60048036038101906102c79190612e89565b6109c8565b6040516102d99190612d8b565b60405180910390f35b6102ea6109d2565b6040516102f79190612d8b565b60405180910390f35b61031a60048036038101906103159190612f8a565b6109dc565b6040516103279190612f6f565b60405180910390f35b610338610a0b565b6040516103459190612ff9565b60405180910390f35b610356610a14565b6040516103639190613023565b60405180910390f35b6103866004803603810190610381919061303e565b610a3c565b6040516103939190612d8b565b60405180910390f35b6103b660048036038101906103b1919061303e565b610a54565b6040516103c39190612d8b565b60405180910390f35b6103e660048036038101906103e19190612e89565b610a7e565b6040516103f39190612d8b565b60405180910390f35b6104166004803603810190610411919061306b565b610a90565b6040516104239190612d8b565b60405180910390f35b6104466004803603810190610441919061303e565b610da0565b6040516104539190612d8b565b60405180910390f35b610464610de8565b005b610480600480360381019061047b919061303e565b610dfc565b60405161048d9190612d8b565b60405180910390f35b61049e610e14565b6040516104ab9190613023565b60405180910390f35b6104ce60048036038101906104c9919061306b565b610e3e565b6040516104db9190612d8b565b60405180910390f35b6104ec6110a8565b6040516104f99190612e36565b60405180910390f35b61051c6004803603810190610517919061303e565b61113a565b6040516105299190612d8b565b60405180910390f35b61054c60048036038101906105479190612f14565b611152565b6040516105599190612f6f565b60405180910390f35b61057c6004803603810190610577919061303e565b611175565b6040516105899190612d8b565b60405180910390f35b6105ac60048036038101906105a79190612e89565b61118d565b6040516105b99190612d8b565b60405180910390f35b6105dc60048036038101906105d791906130ab565b61119f565b6040516105e99190612d8b565b60405180910390f35b61060c600480360381019061060791906130ab565b6115aa565b6040516106199190612d8b565b60405180910390f35b61062a611b06565b6040516106379190612d8b565b60405180910390f35b61065a6004803603810190610655919061303e565b611be0565b6040516106679190612d8b565b60405180910390f35b61068a60048036038101906106859190612e89565b611c0a565b6040516106979190612d8b565b60405180910390f35b6106ba60048036038101906106b5919061303e565b611c14565b6040516106c79190612d8b565b60405180910390f35b6106ea60048036038101906106e5919061303e565b611c30565b6040516106f79190612d8b565b60405180910390f35b61071a6004803603810190610715919061306b565b611c42565b005b610736600480360381019061073191906130fe565b611e7d565b6040516107439190612d8b565b60405180910390f35b61076660048036038101906107619190612e89565b611f04565b6040516107739190612d8b565b60405180910390f35b6107966004803603810190610791919061303e565b611f16565b005b6107b260048036038101906107ad919061303e565b611f9c565b005b6000807f000000000000000000000000000000000000000000000000000000000000000073ffffffffffffffffffffffffffffffffffffffff166370a08231306040518263ffffffff1660e01b81526004016108109190613023565b602060405180830381865afa15801561082d573d6000803e3d6000fd5b505050506040513d601f19601f820116820180604052508101906108519190613153565b905060007f000000000000000000000000000000000000000000000000000000000000000073ffffffffffffffffffffffffffffffffffffffff166307a2d13a836040518263ffffffff1660e01b81526004016108ae9190612d8b565b602060405180830381865afa1580156108cb573d6000803e3d6000fd5b505050506040513d601f19601f820116820180604052508101906108ef9190613153565b905064e8d4a510008161090291906131af565b9250505090565b60606003805461091890613220565b80601f016020809104026020016040519081016040528092919081815260200182805461094490613220565b80156109915780601f1061096657610100808354040283529160200191610991565b820191906000526020600020905b81548152906001019060200180831161097457829003601f168201915b5050505050905090565b6000819050919050565b6000806109b0612150565b90506109bd818585612158565b600191505092915050565b6000819050919050565b6000600254905090565b6000806109e7612150565b90506109f485828561216a565b6109ff8585856121ff565b60019150509392505050565b60006012905090565b60007f0000000000000000000000000000000000000000000000000000000000000000905090565b60076020528060005260406000206000915090505481565b60007fffffffffffffffffffffffffffffffffffffffffffffffffffffffffffffffff9050919050565b6000610a89826122f3565b9050919050565b6000808311610ad4576040517f08c379a0000000000000000000000000000000000000000000000000000000008152600401610acb9061329d565b60405180910390fd5b600073ffffffffffffffffffffffffffffffffffffffff168273ffffffffffffffffffffffffffffffffffffffff1603610b43576040517f08c379a0000000000000000000000000000000000000000000000000000000008152600401610b3a90613309565b60405180910390fd5b610b4c83611f04565b90507f000000000000000000000000000000000000000000000000000000000000000073ffffffffffffffffffffffffffffffffffffffff166323b872dd3330866040518463ffffffff1660e01b8152600401610bab93929190613329565b6020604051808303816000875af1158015610bca573d6000803e3d6000fd5b505050506040513d601f19601f82011682018060405250810190610bee919061338c565b610c2d576040517f08c379a0000000000000000000000000000000000000000000000000000000008152600401610c2490613405565b60405180910390fd5b80600660008473ffffffffffffffffffffffffffffffffffffffff1673ffffffffffffffffffffffffffffffffffffffff1681526020019081526020016000206000828254610c7c9190613425565b9250508190555082600760008473ffffffffffffffffffffffffffffffffffffffff1673ffffffffffffffffffffffffffffffffffffffff1681526020019081526020016000206000828254610cd29190613425565b92505081905550610ce382826123ab565b8173ffffffffffffffffffffffffffffffffffffffff167f73a19dd210f1a7f902193214c0ee91dd35ee5b4d920cba8d519eca65a7b488ca8283604051610d2b929190613459565b60405180910390a28173ffffffffffffffffffffffffffffffffffffffff163373ffffffffffffffffffffffffffffffffffffffff167fdcbc1c05240f31ff3ad067ef1ee35ce4997762752e3a095284754544f4c709d78384604051610d92929190613459565b60405180910390a392915050565b60008060008373ffffffffffffffffffffffffffffffffffffffff1673ffffffffffffffffffffffffffffffffffffffff168152602001908152602001600020549050919050565b610df061242d565b610dfa60006124b4565b565b60096020528060005260406000206000915090505481565b6000600560009054906101000a900473ffffffffffffffffffffffffffffffffffffffff16905090565b6000808311610e82576040517f08c379a0000000000000000000000000000000000000000000000000000000008152600401610e79906134ce565b60405180910390fd5b600073ffffffffffffffffffffffffffffffffffffffff168273ffffffffffffffffffffffffffffffffffffffff1603610ef1576040517f08c379a0000000000000000000000000000000000000000000000000000000008152600401610ee890613309565b60405180910390fd5b610efa8361118d565b90507f000000000000000000000000000000000000000000000000000000000000000073ffffffffffffffffffffffffffffffffffffffff166323b872dd3330846040518463ffffffff1660e01b8152600401610f5993929190613329565b6020604051808303816000875af1158015610f78573d6000803e3d6000fd5b505050506040513d601f19601f82011682018060405250810190610f9c919061338c565b610fdb576040517f08c379a0000000000000000000000000000000000000000000000000000000008152600401610fd290613405565b60405180910390fd5b82600660008473ffffffffffffffffffffffffffffffffffffffff1673ffffffffffffffffffffffffffffffffffffffff168152602001908152602001600020600082825461102a9190613425565b9250508190555061103b82846123ab565b8173ffffffffffffffffffffffffffffffffffffffff163373ffffffffffffffffffffffffffffffffffffffff167fdcbc1c05240f31ff3ad067ef1ee35ce4997762752e3a095284754544f4c709d7858660405161109a929190613459565b60405180910390a392915050565b6060600480546110b790613220565b80601f01602080910402602001604051908101604052809291908181526020018280546110e390613220565b80156111305780601f1061110557610100808354040283529160200191611130565b820191906000526020600020905b81548152906001019060200180831161111357829003601f168201915b5050505050905090565b60086020528060005260406000206000915090505481565b60008061115d612150565b905061116a8185856121ff565b600191505092915050565b60066020528060005260406000206000915090505481565b6000611198826122f3565b9050919050565b60008084116111e3576040517f08c379a00000000000000000000000000000000000000000000000000000000081526004016111da9061353a565b60405180910390fd5b600073ffffffffffffffffffffffffffffffffffffffff168373ffffffffffffffffffffffffffffffffffffffff1603611252576040517f08c379a000000000000000000000000000000000000000000000000000000000815260040161124990613309565b60405180910390fd5b61125b846109c8565b90508173ffffffffffffffffffffffffffffffffffffffff163373ffffffffffffffffffffffffffffffffffffffff16146112f957600061129c8333611e7d565b9050818110156112e1576040517f08c379a00000000000000000000000000000000000000000000000000000000081526004016112d8906135a6565b60405180910390fd5b6112f7833384846112f291906135c6565b612158565b505b611303828261257a565b600061130e856122f3565b90507f000000000000000000000000000000000000000000000000000000000000000073ffffffffffffffffffffffffffffffffffffffff1663a9059cbb85836040518363ffffffff1660e01b815260040161136b9291906135fa565b6020604051808303816000875af115801561138a573d6000803e3d6000fd5b505050506040513d601f19601f820116820180604052508101906113ae919061338c565b6113ed576040517f08c379a00000000000000000000000000000000000000000000000000000000081526004016113e490613405565b60405180910390fd5b81600660008573ffffffffffffffffffffffffffffffffffffffff1673ffffffffffffffffffffffffffffffffffffffff168152602001908152602001600020541061148e5781600660008573ffffffffffffffffffffffffffffffffffffffff1673ffffffffffffffffffffffffffffffffffffffff168152602001908152602001600020600082825461148291906135c6565b925050819055506114d4565b6000600660008573ffffffffffffffffffffffffffffffffffffffff1673ffffffffffffffffffffffffffffffffffffffff168152602001908152602001600020819055505b8273ffffffffffffffffffffffffffffffffffffffff167f92ccf450a286a957af52509bc1c9939d1a6a481783e142e41e2499f0bb66ebc6868460405161151c929190613459565b60405180910390a28273ffffffffffffffffffffffffffffffffffffffff168473ffffffffffffffffffffffffffffffffffffffff163373ffffffffffffffffffffffffffffffffffffffff167ffbde797d201c681b91056529119e0b02407c7bb96a4a2c75c01fc9667232c8db888660405161159a929190613459565b60405180910390a4509392505050565b60008084116115ee576040517f08c379a00000000000000000000000000000000000000000000000000000000081526004016115e59061366f565b60405180910390fd5b600073ffffffffffffffffffffffffffffffffffffffff168373ffffffffffffffffffffffffffffffffffffffff160361165d576040517f08c379a000000000000000000000000000000000000000000000000000000000815260040161165490613309565b60405180910390fd5b8173ffffffffffffffffffffffffffffffffffffffff163373ffffffffffffffffffffffffffffffffffffffff16146116f957600061169c8333611e7d565b9050848110156116e1576040517f08c379a00000000000000000000000000000000000000000000000000000000081526004016116d8906135a6565b60405180910390fd5b6116f7833387846116f291906135c6565b612158565b505b61170284610a7e565b905061170e828561257a565b7f000000000000000000000000000000000000000000000000000000000000000073ffffffffffffffffffffffffffffffffffffffff1663a9059cbb84836040518363ffffffff1660e01b81526004016117699291906135fa565b6020604051808303816000875af1158015611788573d6000803e3d6000fd5b505050506040513d601f19601f820116820180604052508101906117ac919061338c565b6117eb576040517f08c379a00000000000000000000000000000000000000000000000000000000081526004016117e290613405565b60405180910390fd5b83600660008473ffffffffffffffffffffffffffffffffffffffff1673ffffffffffffffffffffffffffffffffffffffff1681526020019081526020016000205410611a3b5783600660008473ffffffffffffffffffffffffffffffffffffffff1673ffffffffffffffffffffffffffffffffffffffff168152602001908152602001600020600082825461188091906135c6565b9250508190555080600760008473ffffffffffffffffffffffffffffffffffffffff1673ffffffffffffffffffffffffffffffffffffffff16815260200190815260200160002060008282546118d691906135c6565b92505081905550600760008373ffffffffffffffffffffffffffffffffffffffff1673ffffffffffffffffffffffffffffffffffffffff16815260200190815260200160002054600860008473ffffffffffffffffffffffffffffffffffffffff1673ffffffffffffffffffffffffffffffffffffffff1681526020019081526020016000208190555060006119aa600860008573ffffffffffffffffffffffffffffffffffffffff1673ffffffffffffffffffffffffffffffffffffffff168152602001908152602001600020546125fc565b905080600960008573ffffffffffffffffffffffffffffffffffffffff1673ffffffffffffffffffffffffffffffffffffffff168152602001908152602001600020819055506000600760008573ffffffffffffffffffffffffffffffffffffffff1673ffffffffffffffffffffffffffffffffffffffff1681526020019081526020016000208190555050611a81565b6000600660008473ffffffffffffffffffffffffffffffffffffffff1673ffffffffffffffffffffffffffffffffffffffff168152602001908152602001600020819055505b8173ffffffffffffffffffffffffffffffffffffffff168373ffffffffffffffffffffffffffffffffffffffff163373ffffffffffffffffffffffffffffffffffffffff167ffbde797d201c681b91056529119e0b02407c7bb96a4a2c75c01fc9667232c8db8788604051611af7929190613459565b60405180910390a49392505050565b6000807f000000000000000000000000000000000000000000000000000000000000000073ffffffffffffffffffffffffffffffffffffffff166370a08231306040518263ffffffff1660e01b8152600401611b629190613023565b602060405180830381865afa158015611b7f573d6000803e3d6000fd5b505050506040513d601f19601f82011682018060405250810190611ba39190613153565b90506000611bb7611bb26109d2565b6122f3565b905080821115611bd6578082611bcd91906135c6565b92505050611bdd565b6000925050505b90565b60007fffffffffffffffffffffffffffffffffffffffffffffffffffffffffffffffff9050919050565b6000819050919050565b6000611c29611c2283610da0565b60006126a4565b9050919050565b6000611c3b82610da0565b9050919050565b611c4a61242d565b60008211611c8d576040517f08c379a0000000000000000000000000000000000000000000000000000000008152600401611c849061353a565b60405180910390fd5b600073ffffffffffffffffffffffffffffffffffffffff168173ffffffffffffffffffffffffffffffffffffffff1603611cfc576040517f08c379a0000000000000000000000000000000000000000000000000000000008152600401611cf3906136db565b60405180910390fd5b6000611d06611b06565b905080831115611d4b576040517f08c379a0000000000000000000000000000000000000000000000000000000008152600401611d4290613747565b60405180910390fd5b7f000000000000000000000000000000000000000000000000000000000000000073ffffffffffffffffffffffffffffffffffffffff1663a9059cbb83856040518363ffffffff1660e01b8152600401611da69291906135fa565b6020604051808303816000875af1158015611dc5573d6000803e3d6000fd5b505050506040513d601f19601f82011682018060405250810190611de9919061338c565b611e28576040517f08c379a0000000000000000000000000000000000000000000000000000000008152600401611e1f90613405565b60405180910390fd5b8173ffffffffffffffffffffffffffffffffffffffff167f2bf878084037ba4fb4363629d72708a5bb8e8e0de5af9fe03d987d5289f6f4a28442604051611e70929190613459565b60405180910390a2505050565b6000600160008473ffffffffffffffffffffffffffffffffffffffff1673ffffffffffffffffffffffffffffffffffffffff16815260200190815260200160002060008373ffffffffffffffffffffffffffffffffffffffff1673ffffffffffffffffffffffffffffffffffffffff16815260200190815260200160002054905092915050565b6000611f0f826126fd565b9050919050565b611f1e61242d565b600073ffffffffffffffffffffffffffffffffffffffff168173ffffffffffffffffffffffffffffffffffffffff1603611f905760006040517f1e4fbdf7000000000000000000000000000000000000000000000000000000008152600401611f879190613023565b60405180910390fd5b611f99816124b4565b50565b611fa461242d565b600073ffffffffffffffffffffffffffffffffffffffff168173ffffffffffffffffffffffffffffffffffffffff1603612013576040517f08c379a000000000000000000000000000000000000000000000000000000000815260040161200a906136db565b60405180910390fd5b600061201d611b06565b90507f000000000000000000000000000000000000000000000000000000000000000073ffffffffffffffffffffffffffffffffffffffff1663a9059cbb83836040518363ffffffff1660e01b815260040161207a9291906135fa565b6020604051808303816000875af1158015612099573d6000803e3d6000fd5b505050506040513d601f19601f820116820180604052508101906120bd919061338c565b6120fc576040517f08c379a00000000000000000000000000000000000000000000000000000000081526004016120f390613405565b60405180910390fd5b8173ffffffffffffffffffffffffffffffffffffffff167f2bf878084037ba4fb4363629d72708a5bb8e8e0de5af9fe03d987d5289f6f4a28242604051612144929190613459565b60405180910390a25050565b600033905090565b61216583838360016127b5565b505050565b60006121768484611e7d565b90507fffffffffffffffffffffffffffffffffffffffffffffffffffffffffffffffff8110156121f957818110156121e9578281836040517ffb8f41b20000000000000000000000000000000000000000000000000000000081526004016121e093929190613767565b60405180910390fd5b6121f8848484840360006127b5565b5b50505050565b600073ffffffffffffffffffffffffffffffffffffffff168373ffffffffffffffffffffffffffffffffffffffff16036122715760006040517f96c6fd1e0000000000000000000000000000000000000000000000000000000081526004016122689190613023565b60405180910390fd5b600073ffffffffffffffffffffffffffffffffffffffff168273ffffffffffffffffffffffffffffffffffffffff16036122e35760006040517fec442f050000000000000000000000000000000000000000000000000000000081526004016122da9190613023565b60405180910390fd5b6122ee83838361298c565b505050565b60008064e8d4a510008361230791906137cd565b90507f000000000000000000000000000000000000000000000000000000000000000073ffffffffffffffffffffffffffffffffffffffff1663c6e6f592826040518263ffffffff1660e01b81526004016123629190612d8b565b602060405180830381865afa15801561237f573d6000803e3d6000fd5b505050506040513d601f19601f820116820180604052508101906123a39190613153565b915050919050565b600073ffffffffffffffffffffffffffffffffffffffff168273ffffffffffffffffffffffffffffffffffffffff160361241d5760006040517fec442f050000000000000000000000000000000000000000000000000000000081526004016124149190613023565b60405180910390fd5b6124296000838361298c565b5050565b612435612150565b73ffffffffffffffffffffffffffffffffffffffff16612453610e14565b73ffffffffffffffffffffffffffffffffffffffff16146124b257612476612150565b6040517f118cdaa70000000000000000000000000000000000000000000000000000000081526004016124a99190613023565b60405180910390fd5b565b6000600560009054906101000a900473ffffffffffffffffffffffffffffffffffffffff16905081600560006101000a81548173ffffffffffffffffffffffffffffffffffffffff021916908373ffffffffffffffffffffffffffffffffffffffff1602179055508173ffffffffffffffffffffffffffffffffffffffff168173ffffffffffffffffffffffffffffffffffffffff167f8be0079c531659141344cd1fd0a4f28419497f9722a3daafe3b4186f6b6457e060405160405180910390a35050565b600073ffffffffffffffffffffffffffffffffffffffff168273ffffffffffffffffffffffffffffffffffffffff16036125ec5760006040517f96c6fd1e0000000000000000000000000000000000000000000000000000000081526004016125e39190613023565b60405180910390fd5b6125f88260008361298c565b5050565b6000807f000000000000000000000000000000000000000000000000000000000000000073ffffffffffffffffffffffffffffffffffffffff166307a2d13a846040518263ffffffff1660e01b81526004016126589190612d8b565b602060405180830381865afa158015612675573d6000803e3d6000fd5b505050506040513d601f19601f820116820180604052508101906126999190613153565b905080915050919050565b60006126f560016126b36107b4565b6126bd9190613425565b6126c5612bb1565b600a6126d19190613931565b6126d96109d2565b6126e39190613425565b8486612bb6909392919063ffffffff16565b905092915050565b6000807f000000000000000000000000000000000000000000000000000000000000000073ffffffffffffffffffffffffffffffffffffffff166307a2d13a846040518263ffffffff1660e01b81526004016127599190612d8b565b602060405180830381865afa158015612776573d6000803e3d6000fd5b505050506040513d601f19601f8201168201806040525081019061279a9190613153565b905064e8d4a51000816127ad91906131af565b915050919050565b600073ffffffffffffffffffffffffffffffffffffffff168473ffffffffffffffffffffffffffffffffffffffff16036128275760006040517fe602df0500000000000000000000000000000000000000000000000000000000815260040161281e9190613023565b60405180910390fd5b600073ffffffffffffffffffffffffffffffffffffffff168373ffffffffffffffffffffffffffffffffffffffff16036128995760006040517f94280d620000000000000000000000000000000000000000000000000000000081526004016128909190613023565b60405180910390fd5b81600160008673ffffffffffffffffffffffffffffffffffffffff1673ffffffffffffffffffffffffffffffffffffffff16815260200190815260200160002060008573ffffffffffffffffffffffffffffffffffffffff1673ffffffffffffffffffffffffffffffffffffffff168152602001908152602001600020819055508015612986578273ffffffffffffffffffffffffffffffffffffffff168473ffffffffffffffffffffffffffffffffffffffff167f8c5be1e5ebec7d5bd14f71427d1e84f3dd0314c0f7b2291e5b200ac8c7c3b9258460405161297d9190612d8b565b60405180910390a35b50505050565b600073ffffffffffffffffffffffffffffffffffffffff168373ffffffffffffffffffffffffffffffffffffffff16036129de5780600260008282546129d29190613425565b92505081905550612ab1565b60008060008573ffffffffffffffffffffffffffffffffffffffff1673ffffffffffffffffffffffffffffffffffffffff16815260200190815260200160002054905081811015612a6a578381836040517fe450d38c000000000000000000000000000000000000000000000000000000008152600401612a6193929190613767565b60405180910390fd5b8181036000808673ffffffffffffffffffffffffffffffffffffffff1673ffffffffffffffffffffffffffffffffffffffff16815260200190815260200160002081905550505b600073ffffffffffffffffffffffffffffffffffffffff168273ffffffffffffffffffffffffffffffffffffffff1603612afa5780600260008282540392505081905550612b47565b806000808473ffffffffffffffffffffffffffffffffffffffff1673ffffffffffffffffffffffffffffffffffffffff168152602001908152602001600020600082825401925050819055505b8173ffffffffffffffffffffffffffffffffffffffff168373ffffffffffffffffffffffffffffffffffffffff167fddf252ad1be2c89b69c2b068fc378daa952ba7f163c4a11628f55a4df523b3ef83604051612ba49190612d8b565b60405180910390a3505050565b600090565b6000612be6612bc483612c05565b8015612be1575060008480612bdc57612bdb61379e565b5b868809115b612c33565b612bf1868686612c3f565b612bfb9190613425565b9050949350505050565b600060016002836003811115612c1e57612c1d61397c565b5b612c2891906139ab565b60ff16149050919050565b60008115159050919050565b6000806000612c4e8686612d27565b9150915060008203612c7457838181612c6a57612c6961379e565b5b0492505050612d20565b818411612c9457612c93612c8e6000861460126011612d46565b612d60565b5b600084868809905081811183039250808203915060008560000386169050808604955080830492506001818260000304019050808402831792506000600287600302189050808702600203810290508087026002038102905080870260020381029050808702600203810290508087026002038102905080870260020381029050808402955050505050505b9392505050565b6000806000198385098385029150818110828203039250509250929050565b6000612d5184612c33565b82841802821890509392505050565b634e487b71600052806020526024601cfd5b6000819050919050565b612d8581612d72565b82525050565b6000602082019050612da06000830184612d7c565b92915050565b600081519050919050565b600082825260208201905092915050565b60005b83811015612de0578082015181840152602081019050612dc5565b60008484015250505050565b6000601f19601f8301169050919050565b6000612e0882612da6565b612e128185612db1565b9350612e22818560208601612dc2565b612e2b81612dec565b840191505092915050565b60006020820190508181036000830152612e508184612dfd565b905092915050565b600080fd5b612e6681612d72565b8114612e7157600080fd5b50565b600081359050612e8381612e5d565b92915050565b600060208284031215612e9f57612e9e612e58565b5b6000612ead84828501612e74565b91505092915050565b600073ffffffffffffffffffffffffffffffffffffffff82169050919050565b6000612ee182612eb6565b9050919050565b612ef181612ed6565b8114612efc57600080fd5b50565b600081359050612f0e81612ee8565b92915050565b60008060408385031215612f2b57612f2a612e58565b5b6000612f3985828601612eff565b9250506020612f4a85828601612e74565b9150509250929050565b60008115159050919050565b612f6981612f54565b82525050565b6000602082019050612f846000830184612f60565b92915050565b600080600060608486031215612fa357612fa2612e58565b5b6000612fb186828701612eff565b9350506020612fc286828701612eff565b9250506040612fd386828701612e74565b9150509250925092565b600060ff82169050919050565b612ff381612fdd565b82525050565b600060208201905061300e6000830184612fea565b92915050565b61301d81612ed6565b82525050565b60006020820190506130386000830184613014565b92915050565b60006020828403121561305457613053612e58565b5b600061306284828501612eff565b91505092915050565b6000806040838503121561308257613081612e58565b5b600061309085828601612e74565b92505060206130a185828601612eff565b9150509250929050565b6000806000606084860312156130c4576130c3612e58565b5b60006130d286828701612e74565b93505060206130e386828701612eff565b92505060406130f486828701612eff565b9150509250925092565b6000806040838503121561311557613114612e58565b5b600061312385828601612eff565b925050602061313485828601612eff565b9150509250929050565b60008151905061314d81612e5d565b92915050565b60006020828403121561316957613168612e58565b5b60006131778482850161313e565b91505092915050565b7f4e487b7100000000000000000000000000000000000000000000000000000000600052601160045260246000fd5b60006131ba82612d72565b91506131c583612d72565b92508282026131d381612d72565b915082820484148315176131ea576131e9613180565b5b5092915050565b7f4e487b7100000000000000000000000000000000000000000000000000000000600052602260045260246000fd5b6000600282049050600182168061323857607f821691505b60208210810361324b5761324a6131f1565b5b50919050565b7f43616e6e6f74206465706f736974207a65726f00000000000000000000000000600082015250565b6000613287601383612db1565b915061329282613251565b602082019050919050565b600060208201905081810360008301526132b68161327a565b9050919050565b7f496e76616c696420726563656976657200000000000000000000000000000000600082015250565b60006132f3601083612db1565b91506132fe826132bd565b602082019050919050565b60006020820190508181036000830152613322816132e6565b9050919050565b600060608201905061333e6000830186613014565b61334b6020830185613014565b6133586040830184612d7c565b949350505050565b61336981612f54565b811461337457600080fd5b50565b60008151905061338681613360565b92915050565b6000602082840312156133a2576133a1612e58565b5b60006133b084828501613377565b91505092915050565b7f5472616e73666572206661696c65640000000000000000000000000000000000600082015250565b60006133ef600f83612db1565b91506133fa826133b9565b602082019050919050565b6000602082019050818103600083015261341e816133e2565b9050919050565b600061343082612d72565b915061343b83612d72565b925082820190508082111561345357613452613180565b5b92915050565b600060408201905061346e6000830185612d7c565b61347b6020830184612d7c565b9392505050565b7f43616e6e6f74206d696e74207a65726f00000000000000000000000000000000600082015250565b60006134b8601083612db1565b91506134c382613482565b602082019050919050565b600060208201905081810360008301526134e7816134ab565b9050919050565b7f43616e6e6f74207769746864726177207a65726f000000000000000000000000600082015250565b6000613524601483612db1565b915061352f826134ee565b602082019050919050565b6000602082019050818103600083015261355381613517565b9050919050565b7f496e73756666696369656e7420616c6c6f77616e636500000000000000000000600082015250565b6000613590601683612db1565b915061359b8261355a565b602082019050919050565b600060208201905081810360008301526135bf81613583565b9050919050565b60006135d182612d72565b91506135dc83612d72565b92508282039050818111156135f4576135f3613180565b5b92915050565b600060408201905061360f6000830185613014565b61361c6020830184612d7c565b9392505050565b7f43616e6e6f742072656465656d207a65726f0000000000000000000000000000600082015250565b6000613659601283612db1565b915061366482613623565b602082019050919050565b600060208201905081810360008301526136888161364c565b9050919050565b7f496e76616c696420726563697069656e74000000000000000000000000000000600082015250565b60006136c5601183612db1565b91506136d08261368f565b602082019050919050565b600060208201905081810360008301526136f4816136b8565b9050919050565b7f496e73756666696369656e7420616363756d756c61746564207969656c640000600082015250565b6000613731601e83612db1565b915061373c826136fb565b602082019050919050565b6000602082019050818103600083015261376081613724565b9050919050565b600060608201905061377c6000830186613014565b6137896020830185612d7c565b6137966040830184612d7c565b949350505050565b7f4e487b7100000000000000000000000000000000000000000000000000000000600052601260045260246000fd5b60006137d882612d72565b91506137e383612d72565b9250826137f3576137f261379e565b5b828204905092915050565b60008160011c9050919050565b6000808291508390505b60018511156138555780860481111561383157613830613180565b5b60018516156138405780820291505b808102905061384e856137fe565b9450613815565b94509492505050565b60008261386e576001905061392a565b8161387c576000905061392a565b8160018114613892576002811461389c576138cb565b600191505061392a565b60ff8411156138ae576138ad613180565b5b8360020a9150848211156138c5576138c4613180565b5b5061392a565b5060208310610133831016604e8410600b84101617156139005782820a9050838111156138fb576138fa613180565b5b61392a565b61390d848484600161380b565b9250905081840481111561392457613923613180565b5b81810290505b9392505050565b600061393c82612d72565b915061394783612fdd565b92506139747fffffffffffffffffffffffffffffffffffffffffffffffffffffffffffffffff848461385e565b905092915050565b7f4e487b7100000000000000000000000000000000000000000000000000000000600052602160045260246000fd5b60006139b682612fdd565b91506139c183612fdd565b9250826139d1576139d061379e565b5b82820690509291505056fea26469706673582212208ae4ccc183df4da7a3adef490eee7d1c417cbcc28392efd59839b34d719f41a964736f6c63430008140033",
  "linkReferences": {},
  "deployedLinkReferences": {}
}