{
  "_format": "hh-sol-artifact-1",
  "contractName": "WmUSDC",
  "sourceName": "contracts/WmUSDC.sol",
  "abi": [
    {
      "inputs": [
        {
          "internalType": "address",
          "name": "vaultUSDC_",
          "type": "address"
        }
      ],
      "stateMutability": "nonpayable",
      "type": "constructor"
    },
    {
      "inputs": [
        {
          "internalType": "address",
          "name": "spender",
          "type": "address"
        },
        {
          "internalType": "uint256",
          "name": "allowance",
          "type": "uint256"
        },
        {
          "internalType": "uint256",
          "name": "needed",
          "type": "uint256"
        }
      ],
      "name": "ERC20InsufficientAllowance",
      "type": "error"
    },
    {
      "inputs": [
        {
          "internalType": "address",
          "name": "sender",
          "type": "address"
        },
        {
          "internalType": "uint256",
          "name": "balance",
          "type": "uint256"
        },
        {
          "internalType": "uint256",
          "name": "needed",
          "type": "uint256"
        }
      ],
      "name": "ERC20InsufficientBalance",
      "type": "error"
    },
    {
      "inputs": [
        {
          "internalType": "address",
          "name": "approver",
          "type": "address"
        }
      ],
      "name": "ERC20InvalidApprover",
      "type": "error"
    },
    {
      "inputs": [
        {
          "internalType": "address",
          "name": "receiver",
          "type": "address"
        }
      ],
      "name": "ERC20InvalidReceiver",
      "type": "error"
    },
    {
      "inputs": [
        {
          "internalType": "address",
          "name": "sender",
          "type": "address"
        }
      ],
      "name": "ERC20InvalidSender",
      "type": "error"
    },
    {
      "inputs": [
        {
          "internalType": "address",
          "name": "spender",
          "type": "address"
        }
      ],
      "name": "ERC20InvalidSpender",
      "type": "error"
    },
    {
      "inputs": [
        {
          "internalType": "address",
          "name": "receiver",
          "type": "address"
        },
        {
          "internalType": "uint256",
          "name": "assets",
          "type": "uint256"
        },
        {
          "internalType": "uint256",
          "name": "max",
          "type": "uint256"
        }
      ],
      "name": "ERC4626ExceededMaxDeposit",
      "type": "error"
    },
    {
      "inputs": [
        {
          "internalType": "address",
          "name": "receiver",
          "type": "address"
        },
        {
          "internalType": "uint256",
          "name": "shares",
          "type": "uint256"
        },
        {
          "internalType": "uint256",
          "name": "max",
          "type": "uint256"
        }
      ],
      "name": "ERC4626ExceededMaxMint",
      "type": "error"
    },
    {
      "inputs": [
        {
          "internalType": "address",
          "name": "owner",
          "type": "address"
        },
        {
          "internalType": "uint256",
          "name": "shares",
          "type": "uint256"
        },
        {
          "internalType": "uint256",
          "name": "max",
          "type": "uint256"
        }
      ],
      "name": "ERC4626ExceededMaxRedeem",
      "type": "error"
    },
    {
      "inputs": [
        {
          "internalType": "address",
          "name": "owner",
          "type": "address"
        },
        {
          "internalType": "uint256",
          "name": "assets",
          "type": "uint256"
        },
        {
          "internalType": "uint256",
          "name": "max",
          "type": "uint256"
        }
      ],
      "name": "ERC4626ExceededMaxWithdraw",
      "type": "error"
    },
    {
      "inputs": [
        {
          "internalType": "address",
          "name": "owner",
          "type": "address"
        }
      ],
      "name": "OwnableInvalidOwner",
      "type": "error"
    },
    {
      "inputs": [
        {
          "internalType": "address",
          "name": "account",
          "type": "address"
        }
      ],
      "name": "OwnableUnauthorizedAccount",
      "type": "error"
    },
    {
      "anonymous": false,
      "inputs": [
        {
          "indexed": true,
          "internalType": "address",
          "name": "owner",
          "type": "address"
        },
        {
          "indexed": true,
          "internalType": "address",
          "name": "spender",
          "type": "address"
        },
        {
          "indexed": false,
          "internalType": "uint256",
          "name": "value",
          "type": "uint256"
        }
      ],
      "name": "Approval",
      "type": "event"
    },
    {
      "anonymous": false,
      "inputs": [
        {
          "indexed": true,
          "internalType": "address",
          "name": "oldDebtLens",
          "type": "address"
        },
        {
          "indexed": true,
          "internalType": "address",
          "name": "newDebtLens",
          "type": "address"
        }
      ],
      "name": "DebtLensUpdated",
      "type": "event"
    },
    {
      "anonymous": false,
      "inputs": [
        {
          "indexed": true,
          "internalType": "address",
          "name": "sender",
          "type": "address"
        },
        {
          "indexed": true,
          "internalType": "address",
          "name": "owner",
          "type": "address"
        },
        {
          "indexed": false,
          "internalType": "uint256",
          "name": "assets",
          "type": "uint256"
        },
        {
          "indexed": false,
          "internalType": "uint256",
          "name": "shares",
          "type": "uint256"
        }
      ],
      "name": "Deposit",
      "type": "event"
    },
    {
      "anonymous": false,
      "inputs": [
        {
          "indexed": true,
          "internalType": "address",
          "name": "user",
          "type": "address"
        },
        {
          "indexed": false,
          "internalType": "uint256",
          "name": "assetsInMusdc",
          "type": "uint256"
        },
        {
          "indexed": false,
          "internalType": "uint256",
          "name": "sharesInWmusdc",
          "type": "uint256"
        }
      ],
      "name": "Deposited",
      "type": "event"
    },
    {
      "anonymous": false,
      "inputs": [
        {
          "indexed": true,
          "internalType": "address",
          "name": "user",
          "type": "address"
        },
        {
          "indexed": false,
          "internalType": "uint256",
          "name": "interestInMxnb",
          "type": "uint256"
        },
        {
          "indexed": false,
          "internalType": "uint256",
          "name": "oraclePrice",
          "type": "uint256"
        },
        {
          "indexed": false,
          "internalType": "uint256",
          "name": "userInterestSubsidyInWmUSDC",
          "type": "uint256"
        }
      ],
      "name": "GetSubsidy",
      "type": "event"
    },
    {
      "anonymous": false,
      "inputs": [
        {
          "indexed": true,
          "internalType": "bytes32",
          "name": "oldMarketId",
          "type": "bytes32"
        },
        {
          "indexed": true,
          "internalType": "bytes32",
          "name": "newMarketId",
          "type": "bytes32"
        }
      ],
      "name": "MarketIdUpdated",
      "type": "event"
    },
    {
      "anonymous": false,
      "inputs": [
        {
          "indexed": true,
          "internalType": "address",
          "name": "oldOracle",
          "type": "address"
        },
        {
          "indexed": true,
          "internalType": "address",
          "name": "newOracle",
          "type": "address"
        }
      ],
      "name": "MxnbUsdcOracleUpdated",
      "type": "event"
    },
    {
      "anonymous": false,
      "inputs": [
        {
          "indexed": true,
          "internalType": "address",
          "name": "previousOwner",
          "type": "address"
        },
        {
          "indexed": true,
          "internalType": "address",
          "name": "newOwner",
          "type": "address"
        }
      ],
      "name": "OwnershipTransferred",
      "type": "event"
    },
    {
      "anonymous": false,
      "inputs": [
        {
          "indexed": true,
          "internalType": "address",
          "name": "from",
          "type": "address"
        },
        {
          "indexed": true,
          "internalType": "address",
          "name": "to",
          "type": "address"
        },
        {
          "indexed": false,
          "internalType": "uint256",
          "name": "value",
          "type": "uint256"
        }
      ],
      "name": "Transfer",
      "type": "event"
    },
    {
      "anonymous": false,
      "inputs": [
        {
          "indexed": true,
          "internalType": "address",
          "name": "sender",
          "type": "address"
        },
        {
          "indexed": true,
          "internalType": "address",
          "name": "receiver",
          "type": "address"
        },
        {
          "indexed": true,
          "internalType": "address",
          "name": "owner",
          "type": "address"
        },
        {
          "indexed": false,
          "internalType": "uint256",
          "name": "assets",
          "type": "uint256"
        },
        {
          "indexed": false,
          "internalType": "uint256",
          "name": "shares",
          "type": "uint256"
        }
      ],
      "name": "Withdraw",
      "type": "event"
    },
    {
      "anonymous": false,
      "inputs": [
        {
          "indexed": true,
          "internalType": "address",
          "name": "owner",
          "type": "address"
        },
        {
          "indexed": false,
          "internalType": "address",
          "name": "receiver",
          "type": "address"
        },
        {
          "indexed": false,
          "internalType": "uint256",
          "name": "sharesInWmusdc",
          "type": "uint256"
        },
        {
          "indexed": false,
          "internalType": "uint256",
          "name": "assetsInMusdc",
          "type": "uint256"
        },
        {
          "indexed": false,
          "internalType": "uint256",
          "name": "yieldInMusdc",
          "type": "uint256"
        },
        {
          "indexed": false,
          "internalType": "uint256",
          "name": "yieldInUsdc",
          "type": "uint256"
        }
      ],
      "name": "Withdrawn",
      "type": "event"
    },
    {
      "anonymous": false,
      "inputs": [
        {
          "indexed": true,
          "internalType": "address",
          "name": "owner",
          "type": "address"
        },
        {
          "indexed": false,
          "internalType": "address",
          "name": "receiver",
          "type": "address"
        },
        {
          "indexed": false,
          "internalType": "uint256",
          "name": "sharesInWmusdc",
          "type": "uint256"
        },
        {
          "indexed": false,
          "internalType": "uint256",
          "name": "assetsInMusdc",
          "type": "uint256"
        },
        {
          "indexed": false,
          "internalType": "uint256",
          "name": "yieldInMusdc",
          "type": "uint256"
        },
        {
          "indexed": false,
          "internalType": "uint256",
          "name": "yieldInUsdc",
          "type": "uint256"
        },
        {
          "indexed": false,
          "internalType": "uint256",
          "name": "subsidyInMusdc",
          "type": "uint256"
        },
        {
          "indexed": false,
          "internalType": "uint256",
          "name": "subsidyInUsdc",
          "type": "uint256"
        }
      ],
      "name": "WithdrawnWithSubsidy",
      "type": "event"
    },
    {
      "anonymous": false,
      "inputs": [
        {
          "indexed": true,
          "internalType": "address",
          "name": "recipient",
          "type": "address"
        },
        {
          "indexed": false,
          "internalType": "uint256",
          "name": "amount",
          "type": "uint256"
        },
        {
          "indexed": false,
          "internalType": "uint256",
          "name": "timestamp",
          "type": "uint256"
        }
      ],
      "name": "YieldWithdrawn",
      "type": "event"
    },
    {
      "inputs": [
        {
          "internalType": "address",
          "name": "owner",
          "type": "address"
        },
        {
          "internalType": "address",
          "name": "spender",
          "type": "address"
        }
      ],
      "name": "allowance",
      "outputs": [
        {
          "internalType": "uint256",
          "name": "",
          "type": "uint256"
        }
      ],
      "stateMutability": "view",
      "type": "function"
    },
    {
      "inputs": [
        {
          "internalType": "address",
          "name": "spender",
          "type": "address"
        },
        {
          "internalType": "uint256",
          "name": "value",
          "type": "uint256"
        }
      ],
      "name": "approve",
      "outputs": [
        {
          "internalType": "bool",
          "name": "",
          "type": "bool"
        }
      ],
      "stateMutability": "nonpayable",
      "type": "function"
    },
    {
      "inputs": [],
      "name": "asset",
      "outputs": [
        {
          "internalType": "address",
          "name": "",
          "type": "address"
        }
      ],
      "stateMutability": "view",
      "type": "function"
    },
    {
      "inputs": [
        {
          "internalType": "address",
          "name": "account",
          "type": "address"
        }
      ],
      "name": "balanceOf",
      "outputs": [
        {
          "internalType": "uint256",
          "name": "",
          "type": "uint256"
        }
      ],
      "stateMutability": "view",
      "type": "function"
    },
    {
      "inputs": [
        {
          "internalType": "uint256",
          "name": "shares",
          "type": "uint256"
        }
      ],
      "name": "convertToAssets",
      "outputs": [
        {
          "internalType": "uint256",
          "name": "",
          "type": "uint256"
        }
      ],
      "stateMutability": "pure",
      "type": "function"
    },
    {
      "inputs": [
        {
          "internalType": "uint256",
          "name": "assets",
          "type": "uint256"
        }
      ],
      "name": "convertToShares",
      "outputs": [
        {
          "internalType": "uint256",
          "name": "",
          "type": "uint256"
        }
      ],
      "stateMutability": "pure",
      "type": "function"
    },
    {
      "inputs": [],
      "name": "debtLens",
      "outputs": [
        {
          "internalType": "address",
          "name": "",
          "type": "address"
        }
      ],
      "stateMutability": "view",
      "type": "function"
    },
    {
      "inputs": [],
      "name": "decimals",
      "outputs": [
        {
          "internalType": "uint8",
          "name": "",
          "type": "uint8"
        }
      ],
      "stateMutability": "pure",
      "type": "function"
    },
    {
      "inputs": [
        {
          "internalType": "uint256",
          "name": "assets",
          "type": "uint256"
        },
        {
          "internalType": "address",
          "name": "receiver",
          "type": "address"
        }
      ],
      "name": "deposit",
      "outputs": [
        {
          "internalType": "uint256",
          "name": "shares",
          "type": "uint256"
        }
      ],
      "stateMutability": "nonpayable",
      "type": "function"
    },
    {
      "inputs": [],
      "name": "getAccumulatedYield",
      "outputs": [
        {
          "internalType": "uint256",
          "name": "",
          "type": "uint256"
        }
      ],
      "stateMutability": "view",
      "type": "function"
    },
    {
      "inputs": [
        {
          "internalType": "address",
          "name": "user",
          "type": "address"
        }
      ],
      "name": "getInterestSubsidy",
      "outputs": [
        {
          "internalType": "uint256",
          "name": "subsidy",
          "type": "uint256"
        }
      ],
      "stateMutability": "nonpayable",
      "type": "function"
    },
    {
      "inputs": [],
      "name": "marketId",
      "outputs": [
        {
          "internalType": "bytes32",
          "name": "",
          "type": "bytes32"
        }
      ],
      "stateMutability": "view",
      "type": "function"
    },
    {
      "inputs": [
        {
          "internalType": "address",
          "name": "",
          "type": "address"
        }
      ],
      "name": "maxDeposit",
      "outputs": [
        {
          "internalType": "uint256",
          "name": "",
          "type": "uint256"
        }
      ],
      "stateMutability": "view",
      "type": "function"
    },
    {
      "inputs": [
        {
          "internalType": "address",
          "name": "",
          "type": "address"
        }
      ],
      "name": "maxMint",
      "outputs": [
        {
          "internalType": "uint256",
          "name": "",
          "type": "uint256"
        }
      ],
      "stateMutability": "view",
      "type": "function"
    },
    {
      "inputs": [
        {
          "internalType": "address",
          "name": "owner",
          "type": "address"
        }
      ],
      "name": "maxRedeem",
      "outputs": [
        {
          "internalType": "uint256",
          "name": "",
          "type": "uint256"
        }
      ],
      "stateMutability": "view",
      "type": "function"
    },
    {
      "inputs": [
        {
          "internalType": "address",
          "name": "owner",
          "type": "address"
        }
      ],
      "name": "maxWithdraw",
      "outputs": [
        {
          "internalType": "uint256",
          "name": "",
          "type": "uint256"
        }
      ],
      "stateMutability": "view",
      "type": "function"
    },
    {
      "inputs": [
        {
          "internalType": "uint256",
          "name": "shares",
          "type": "uint256"
        },
        {
          "internalType": "address",
          "name": "receiver",
          "type": "address"
        }
      ],
      "name": "mint",
      "outputs": [
        {
          "internalType": "uint256",
          "name": "assets",
          "type": "uint256"
        }
      ],
      "stateMutability": "nonpayable",
      "type": "function"
    },
    {
      "inputs": [],
      "name": "mxnbUsdcOracle",
      "outputs": [
        {
          "internalType": "address",
          "name": "",
          "type": "address"
        }
      ],
      "stateMutability": "view",
      "type": "function"
    },
    {
      "inputs": [],
      "name": "name",
      "outputs": [
        {
          "internalType": "string",
          "name": "",
          "type": "string"
        }
      ],
      "stateMutability": "view",
      "type": "function"
    },
    {
      "inputs": [],
      "name": "owner",
      "outputs": [
        {
          "internalType": "address",
          "name": "",
          "type": "address"
        }
      ],
      "stateMutability": "view",
      "type": "function"
    },
    {
      "inputs": [
        {
          "internalType": "uint256",
          "name": "assets",
          "type": "uint256"
        }
      ],
      "name": "previewDeposit",
      "outputs": [
        {
          "internalType": "uint256",
          "name": "",
          "type": "uint256"
        }
      ],
      "stateMutability": "view",
      "type": "function"
    },
    {
      "inputs": [
        {
          "internalType": "uint256",
          "name": "shares",
          "type": "uint256"
        }
      ],
      "name": "previewMint",
      "outputs": [
        {
          "internalType": "uint256",
          "name": "",
          "type": "uint256"
        }
      ],
      "stateMutability": "view",
      "type": "function"
    },
    {
      "inputs": [
        {
          "internalType": "uint256",
          "name": "shares",
          "type": "uint256"
        }
      ],
      "name": "previewRedeem",
      "outputs": [
        {
          "internalType": "uint256",
          "name": "",
          "type": "uint256"
        }
      ],
      "stateMutability": "view",
      "type": "function"
    },
    {
      "inputs": [
        {
          "internalType": "uint256",
          "name": "assets",
          "type": "uint256"
        }
      ],
      "name": "previewWithdraw",
      "outputs": [
        {
          "internalType": "uint256",
          "name": "",
          "type": "uint256"
        }
      ],
      "stateMutability": "pure",
      "type": "function"
    },
    {
      "inputs": [
        {
          "internalType": "uint256",
          "name": "shares",
          "type": "uint256"
        },
        {
          "internalType": "address",
          "name": "receiver",
          "type": "address"
        },
        {
          "internalType": "address",
          "name": "owner",
          "type": "address"
        }
      ],
      "name": "redeem",
      "outputs": [
        {
          "internalType": "uint256",
          "name": "assets",
          "type": "uint256"
        }
      ],
      "stateMutability": "nonpayable",
      "type": "function"
    },
    {
      "inputs": [
        {
          "internalType": "uint256",
          "name": "shares",
          "type": "uint256"
        },
        {
          "internalType": "address",
          "name": "receiver",
          "type": "address"
        },
        {
          "internalType": "address",
          "name": "owner",
          "type": "address"
        }
      ],
      "name": "redeemWithInterestSubsidy",
      "outputs": [
        {
          "internalType": "uint256",
          "name": "assets",
          "type": "uint256"
        }
      ],
      "stateMutability": "nonpayable",
      "type": "function"
    },
    {
      "inputs": [],
      "name": "renounceOwnership",
      "outputs": [],
      "stateMutability": "nonpayable",
      "type": "function"
    },
    {
      "inputs": [
        {
          "internalType": "address",
          "name": "_debtLens",
          "type": "address"
        }
      ],
      "name": "setDebtLens",
      "outputs": [],
      "stateMutability": "nonpayable",
      "type": "function"
    },
    {
      "inputs": [
        {
          "internalType": "bytes32",
          "name": "_marketId",
          "type": "bytes32"
        }
      ],
      "name": "setMarketId",
      "outputs": [],
      "stateMutability": "nonpayable",
      "type": "function"
    },
    {
      "inputs": [
        {
          "internalType": "address",
          "name": "_mxnbUsdcOracle",
          "type": "address"
        }
      ],
      "name": "setMxnbUsdcOracle",
      "outputs": [],
      "stateMutability": "nonpayable",
      "type": "function"
    },
    {
      "inputs": [],
      "name": "symbol",
      "outputs": [
        {
          "internalType": "string",
          "name": "",
          "type": "string"
        }
      ],
      "stateMutability": "view",
      "type": "function"
    },
    {
      "inputs": [],
      "name": "totalAssets",
      "outputs": [
        {
          "internalType": "uint256",
          "name": "",
          "type": "uint256"
        }
      ],
      "stateMutability": "view",
      "type": "function"
    },
    {
      "inputs": [],
      "name": "totalSupply",
      "outputs": [
        {
          "internalType": "uint256",
          "name": "",
          "type": "uint256"
        }
      ],
      "stateMutability": "view",
      "type": "function"
    },
    {
      "inputs": [
        {
          "internalType": "address",
          "name": "to",
          "type": "address"
        },
        {
          "internalType": "uint256",
          "name": "value",
          "type": "uint256"
        }
      ],
      "name": "transfer",
      "outputs": [
        {
          "internalType": "bool",
          "name": "",
          "type": "bool"
        }
      ],
      "stateMutability": "nonpayable",
      "type": "function"
    },
    {
      "inputs": [
        {
          "internalType": "address",
          "name": "from",
          "type": "address"
        },
        {
          "internalType": "address",
          "name": "to",
          "type": "address"
        },
        {
          "internalType": "uint256",
          "name": "value",
          "type": "uint256"
        }
      ],
      "name": "transferFrom",
      "outputs": [
        {
          "internalType": "bool",
          "name": "",
          "type": "bool"
        }
      ],
      "stateMutability": "nonpayable",
      "type": "function"
    },
    {
      "inputs": [
        {
          "internalType": "address",
          "name": "newOwner",
          "type": "address"
        }
      ],
      "name": "transferOwnership",
      "outputs": [],
      "stateMutability": "nonpayable",
      "type": "function"
    },
    {
      "inputs": [
        {
          "internalType": "address",
          "name": "",
          "type": "address"
        }
      ],
      "name": "userDepositedAssets",
      "outputs": [
        {
          "internalType": "uint256",
          "name": "",
          "type": "uint256"
        }
      ],
      "stateMutability": "view",
      "type": "function"
    },
    {
      "inputs": [
        {
          "internalType": "address",
          "name": "",
          "type": "address"
        }
      ],
      "name": "userDepositedShares",
      "outputs": [
        {
          "internalType": "uint256",
          "name": "",
          "type": "uint256"
        }
      ],
      "stateMutability": "view",
      "type": "function"
    },
    {
      "inputs": [
        {
          "internalType": "address",
          "name": "",
          "type": "address"
        }
      ],
      "name": "userGeneratedYieldInShares",
      "outputs": [
        {
          "internalType": "uint256",
          "name": "",
          "type": "uint256"
        }
      ],
      "stateMutability": "view",
      "type": "function"
    },
    {
      "inputs": [
        {
          "internalType": "address",
          "name": "",
          "type": "address"
        }
      ],
      "name": "userGeneratedYieldInUSDC",
      "outputs": [
        {
          "internalType": "uint256",
          "name": "",
          "type": "uint256"
        }
      ],
      "stateMutability": "view",
      "type": "function"
    },
    {
      "inputs": [
        {
          "internalType": "address",
          "name": "",
          "type": "address"
        }
      ],
      "name": "userInterestInMxnb",
      "outputs": [
        {
          "internalType": "uint256",
          "name": "",
          "type": "uint256"
        }
      ],
      "stateMutability": "view",
      "type": "function"
    },
    {
      "inputs": [
        {
          "internalType": "address",
          "name": "",
          "type": "address"
        }
      ],
      "name": "userInterestSubsidyInWmUSDC",
      "outputs": [
        {
          "internalType": "uint256",
          "name": "",
          "type": "uint256"
        }
      ],
      "stateMutability": "view",
      "type": "function"
    },
    {
      "inputs": [
        {
          "internalType": "address",
          "name": "",
          "type": "address"
        }
      ],
      "name": "userPaidSubsidyInUSDC",
      "outputs": [
        {
          "internalType": "uint256",
          "name": "",
          "type": "uint256"
        }
      ],
      "stateMutability": "view",
      "type": "function"
    },
    {
      "inputs": [
        {
          "internalType": "uint256",
          "name": "assets",
          "type": "uint256"
        },
        {
          "internalType": "address",
          "name": "receiver",
          "type": "address"
        },
        {
          "internalType": "address",
          "name": "owner",
          "type": "address"
        }
      ],
      "name": "withdraw",
      "outputs": [
        {
          "internalType": "uint256",
          "name": "shares",
          "type": "uint256"
        }
      ],
      "stateMutability": "nonpayable",
      "type": "function"
    },
    {
      "inputs": [
        {
          "internalType": "uint256",
          "name": "amount",
          "type": "uint256"
        },
        {
          "internalType": "address",
          "name": "recipient",
          "type": "address"
        }
      ],
      "name": "withdrawAccumulatedYield",
      "outputs": [],
      "stateMutability": "nonpayable",
      "type": "function"
    },
    {
      "inputs": [
        {
          "internalType": "address",
          "name": "recipient",
          "type": "address"
        }
      ],
      "name": "withdrawAllAccumulatedYield",
      "outputs": [],
      "stateMutability": "nonpayable",
      "type": "function"
    }
  ],
  "bytecode": "0x60e06040527314751f624968372878cde4238e84fb3d980c4f05600660006101000a81548173ffffffffffffffffffffffffffffffffffffffff021916908373ffffffffffffffffffffffffffffffffffffffff160217905550739f4b138bf3513866153af9f0a2794096dfebfad4600760006101000a81548173ffffffffffffffffffffffffffffffffffffffff021916908373ffffffffffffffffffffffffffffffffffffffff1602179055507ff912f62db71d01c572b28b6953c525851f9e0660df4e422cec986e620da726df60001b600855348015620000e257600080fd5b50604051620055a0380380620055a0833981810160405281019062000108919062000586565b33816040518060400160405280601981526020017f57726170706564204d6f7270686f205661756c742055534443000000000000008152506040518060400160405280600681526020017f576d555344430000000000000000000000000000000000000000000000000000815250816003908162000187919062000832565b50806004908162000199919062000832565b505050600080620001b0836200033c60201b60201c565b9150915081620001c2576012620001c4565b805b60ff1660a08160ff16815250508273ffffffffffffffffffffffffffffffffffffffff1660808173ffffffffffffffffffffffffffffffffffffffff1681525050505050600073ffffffffffffffffffffffffffffffffffffffff168173ffffffffffffffffffffffffffffffffffffffff16036200027d5760006040517f1e4fbdf70000000000000000000000000000000000000000000000000000000081526004016200027491906200092a565b60405180910390fd5b6200028e816200045660201b60201c565b50600073ffffffffffffffffffffffffffffffffffffffff168173ffffffffffffffffffffffffffffffffffffffff160362000301576040517f08c379a0000000000000000000000000000000000000000000000000000000008152600401620002f890620009a8565b60405180910390fd5b8073ffffffffffffffffffffffffffffffffffffffff1660c08173ffffffffffffffffffffffffffffffffffffffff16815250505062000abf565b6000806000808473ffffffffffffffffffffffffffffffffffffffff1660405160240160405160208183030381529060405263313ce56760e01b6020820180517bffffffffffffffffffffffffffffffffffffffffffffffffffffffff8381831617835250505050604051620003b3919062000a43565b600060405180830381855afa9150503d8060008114620003f0576040519150601f19603f3d011682016040523d82523d6000602084013e620003f5565b606091505b50915091508180156200040a57506020815110155b15620004475760008180602001905181019062000428919062000a8d565b905060ff8016811162000445576001819450945050505062000451565b505b6000809350935050505b915091565b6000600560009054906101000a900473ffffffffffffffffffffffffffffffffffffffff16905081600560006101000a81548173ffffffffffffffffffffffffffffffffffffffff021916908373ffffffffffffffffffffffffffffffffffffffff1602179055508173ffffffffffffffffffffffffffffffffffffffff168173ffffffffffffffffffffffffffffffffffffffff167f8be0079c531659141344cd1fd0a4f28419497f9722a3daafe3b4186f6b6457e060405160405180910390a35050565b600080fd5b600073ffffffffffffffffffffffffffffffffffffffff82169050919050565b60006200054e8262000521565b9050919050565b620005608162000541565b81146200056c57600080fd5b50565b600081519050620005808162000555565b92915050565b6000602082840312156200059f576200059e6200051c565b5b6000620005af848285016200056f565b91505092915050565b600081519050919050565b7f4e487b7100000000000000000000000000000000000000000000000000000000600052604160045260246000fd5b7f4e487b7100000000000000000000000000000000000000000000000000000000600052602260045260246000fd5b600060028204905060018216806200063a57607f821691505b60208210810362000650576200064f620005f2565b5b50919050565b60008190508160005260206000209050919050565b60006020601f8301049050919050565b600082821b905092915050565b600060088302620006ba7fffffffffffffffffffffffffffffffffffffffffffffffffffffffffffffffff826200067b565b620006c686836200067b565b95508019841693508086168417925050509392505050565b6000819050919050565b6000819050919050565b6000620007136200070d6200070784620006de565b620006e8565b620006de565b9050919050565b6000819050919050565b6200072f83620006f2565b620007476200073e826200071a565b84845462000688565b825550505050565b600090565b6200075e6200074f565b6200076b81848462000724565b505050565b5b8181101562000793576200078760008262000754565b60018101905062000771565b5050565b601f821115620007e257620007ac8162000656565b620007b7846200066b565b81016020851015620007c7578190505b620007df620007d6856200066b565b83018262000770565b50505b505050565b600082821c905092915050565b60006200080760001984600802620007e7565b1980831691505092915050565b6000620008228383620007f4565b9150826002028217905092915050565b6200083d82620005b8565b67ffffffffffffffff811115620008595762000858620005c3565b5b62000865825462000621565b6200087282828562000797565b600060209050601f831160018114620008aa576000841562000895578287015190505b620008a1858262000814565b86555062000911565b601f198416620008ba8662000656565b60005b82811015620008e457848901518255600182019150602085019450602081019050620008bd565b8683101562000904578489015162000900601f891682620007f4565b8355505b6001600288020188555050505b505050505050565b620009248162000541565b82525050565b600060208201905062000941600083018462000919565b92915050565b600082825260208201905092915050565b7f496e76616c6964207661756c7455534443206164647265737300000000000000600082015250565b60006200099060198362000947565b91506200099d8262000958565b602082019050919050565b60006020820190508181036000830152620009c38162000981565b9050919050565b600081519050919050565b600081905092915050565b60005b8381101562000a00578082015181840152602081019050620009e3565b60008484015250505050565b600062000a1982620009ca565b62000a258185620009d5565b935062000a37818560208601620009e0565b80840191505092915050565b600062000a51828462000a0c565b915081905092915050565b62000a6781620006de565b811462000a7357600080fd5b50565b60008151905062000a878162000a5c565b92915050565b60006020828403121562000aa65762000aa56200051c565b5b600062000ab68482850162000a76565b91505092915050565b60805160a05160c051614a6062000b40600039600081816109d001528181610a6e015281816110c6015281816115e501528181611af001528181611f1c0152818161224c0152818161265e01528181612b1401528181612de8015281816130d2015281816131fe01526134c90152600050506000610c6d0152614a606000f3fe608060405234801561001057600080fd5b506004361061028a5760003560e01c80638da5cb5b1161015c578063bbde8be0116100ce578063d905777e11610087578063d905777e146108e7578063dd52c6af14610917578063dd62ed3e14610933578063ef8b30f714610963578063f2fde38b14610993578063f7f12c50146109af5761028a565b8063bbde8be0146107d9578063c3fcab0f146107f7578063c63d75b614610827578063c6e6f59214610857578063ce96cb7714610887578063d6216932146108b75761028a565b8063a48aad2d11610120578063a48aad2d146106b9578063a9059cbb146106e9578063b3a42e1e14610719578063b3d7f6b914610749578063b460af9414610779578063ba087652146107a95761028a565b80638da5cb5b146106015780638e009b211461061f57806394bf804d1461063b57806395d89b411461066b5780639f522e85146106895761028a565b80633b42fa6c116102005780636e553f65116101b95780636e553f651461052d5780636ed71ede1461055d57806370a082311461057b578063715018a6146105ab57806385cc4d59146105b55780638937e6ce146105e55761028a565b80633b42fa6c146104335780633e232dae14610451578063402d267d146104815780634cdad506146104b15780636adeb158146104e15780636b9c9dc8146104fd5761028a565b806318160ddd1161025257806318160ddd1461035b57806318606b0e1461037957806323b872dd14610397578063259d8873146103c7578063313ce567146103f757806338d52e0f146104155761028a565b806301e1d1141461028f57806306fdde03146102ad57806307a2d13a146102cb578063095ea7b3146102fb5780630a28a4771461032b575b600080fd5b6102976109cb565b6040516102a49190613b52565b60405180910390f35b6102b5610b20565b6040516102c29190613bfd565b60405180910390f35b6102e560048036038101906102e09190613c50565b610bb2565b6040516102f29190613b52565b60405180910390f35b61031560048036038101906103109190613cdb565b610bbc565b6040516103229190613d36565b60405180910390f35b61034560048036038101906103409190613c50565b610bdf565b6040516103529190613b52565b60405180910390f35b610363610be9565b6040516103709190613b52565b60405180910390f35b610381610bf3565b60405161038e9190613d60565b60405180910390f35b6103b160048036038101906103ac9190613d7b565b610c19565b6040516103be9190613d36565b60405180910390f35b6103e160048036038101906103dc9190613dce565b610c48565b6040516103ee9190613b52565b60405180910390f35b6103ff610c60565b60405161040c9190613e17565b60405180910390f35b61041d610c69565b60405161042a9190613d60565b60405180910390f35b61043b610c91565b6040516104489190613d60565b60405180910390f35b61046b60048036038101906104669190613dce565b610cb7565b6040516104789190613b52565b60405180910390f35b61049b60048036038101906104969190613dce565b610ccf565b6040516104a89190613b52565b60405180910390f35b6104cb60048036038101906104c69190613c50565b610cf9565b6040516104d89190613b52565b60405180910390f35b6104fb60048036038101906104f69190613dce565b610d0b565b005b61051760048036038101906105129190613e32565b610e42565b6040516105249190613b52565b60405180910390f35b61054760048036038101906105429190613e85565b611525565b6040516105549190613b52565b60405180910390f35b6105656117ce565b6040516105729190613ede565b60405180910390f35b61059560048036038101906105909190613dce565b6117d4565b6040516105a29190613b52565b60405180910390f35b6105b361181c565b005b6105cf60048036038101906105ca9190613dce565b611830565b6040516105dc9190613b52565b60405180910390f35b6105ff60048036038101906105fa9190613f25565b611848565b005b6106096118cf565b6040516106169190613d60565b60405180910390f35b61063960048036038101906106349190613dce565b6118f9565b005b61065560048036038101906106509190613e85565b611a30565b6040516106629190613b52565b60405180910390f35b610673611c9a565b6040516106809190613bfd565b60405180910390f35b6106a3600480360381019061069e9190613dce565b611d2c565b6040516106b09190613b52565b60405180910390f35b6106d360048036038101906106ce9190613dce565b611d44565b6040516106e09190613b52565b60405180910390f35b61070360048036038101906106fe9190613cdb565b611d5c565b6040516107109190613d36565b60405180910390f35b610733600480360381019061072e9190613dce565b611d7f565b6040516107409190613b52565b60405180910390f35b610763600480360381019061075e9190613c50565b611d97565b6040516107709190613b52565b60405180910390f35b610793600480360381019061078e9190613e32565b611da9565b6040516107a09190613b52565b60405180910390f35b6107c360048036038101906107be9190613e32565b6120e6565b6040516107d09190613b52565b60405180910390f35b6107e1612659565b6040516107ee9190613b52565b60405180910390f35b610811600480360381019061080c9190613dce565b612733565b60405161081e9190613b52565b60405180910390f35b610841600480360381019061083c9190613dce565b61298f565b60405161084e9190613b52565b60405180910390f35b610871600480360381019061086c9190613c50565b6129b9565b60405161087e9190613b52565b60405180910390f35b6108a1600480360381019061089c9190613dce565b6129c3565b6040516108ae9190613b52565b60405180910390f35b6108d160048036038101906108cc9190613dce565b6129df565b6040516108de9190613b52565b60405180910390f35b61090160048036038101906108fc9190613dce565b6129f7565b60405161090e9190613b52565b60405180910390f35b610931600480360381019061092c9190613e85565b612a09565b005b61094d60048036038101906109489190613f52565b612c44565b60405161095a9190613b52565b60405180910390f35b61097d60048036038101906109789190613c50565b612ccb565b60405161098a9190613b52565b60405180910390f35b6109ad60048036038101906109a89190613dce565b612cdd565b005b6109c960048036038101906109c49190613dce565b612d63565b005b6000807f000000000000000000000000000000000000000000000000000000000000000073ffffffffffffffffffffffffffffffffffffffff166370a08231306040518263ffffffff1660e01b8152600401610a279190613d60565b602060405180830381865afa158015610a44573d6000803e3d6000fd5b505050506040513d601f19601f82011682018060405250810190610a689190613fa7565b905060007f000000000000000000000000000000000000000000000000000000000000000073ffffffffffffffffffffffffffffffffffffffff166307a2d13a836040518263ffffffff1660e01b8152600401610ac59190613b52565b602060405180830381865afa158015610ae2573d6000803e3d6000fd5b505050506040513d601f19601f82011682018060405250810190610b069190613fa7565b905064e8d4a5100081610b199190614003565b9250505090565b606060038054610b2f90614074565b80601f0160208091040260200160405190810160405280929190818152602001828054610b5b90614074565b8015610ba85780601f10610b7d57610100808354040283529160200191610ba8565b820191906000526020600020905b815481529060010190602001808311610b8b57829003601f168201915b5050505050905090565b6000819050919050565b600080610bc7612f17565b9050610bd4818585612f1f565b600191505092915050565b6000819050919050565b6000600254905090565b600760009054906101000a900473ffffffffffffffffffffffffffffffffffffffff1681565b600080610c24612f17565b9050610c31858285612f31565b610c3c858585612fc6565b60019150509392505050565b600e6020528060005260406000206000915090505481565b60006012905090565b60007f0000000000000000000000000000000000000000000000000000000000000000905090565b600660009054906101000a900473ffffffffffffffffffffffffffffffffffffffff1681565b600a6020528060005260406000206000915090505481565b60007fffffffffffffffffffffffffffffffffffffffffffffffffffffffffffffffff9050919050565b6000610d04826130ba565b9050919050565b610d13613172565b600073ffffffffffffffffffffffffffffffffffffffff168173ffffffffffffffffffffffffffffffffffffffff1603610d82576040517f08c379a0000000000000000000000000000000000000000000000000000000008152600401610d79906140f1565b60405180910390fd5b8073ffffffffffffffffffffffffffffffffffffffff16600760009054906101000a900473ffffffffffffffffffffffffffffffffffffffff1673ffffffffffffffffffffffffffffffffffffffff167fbcd6c29319f690b0b7656ca256c44fec30cd92c7b0a3e87c064d02be68427fd660405160405180910390a380600760006101000a81548173ffffffffffffffffffffffffffffffffffffffff021916908373ffffffffffffffffffffffffffffffffffffffff16021790555050565b6000808411610e86576040517f08c379a0000000000000000000000000000000000000000000000000000000008152600401610e7d9061415d565b60405180910390fd5b600073ffffffffffffffffffffffffffffffffffffffff168373ffffffffffffffffffffffffffffffffffffffff1603610ef5576040517f08c379a0000000000000000000000000000000000000000000000000000000008152600401610eec906141c9565b60405180910390fd5b8173ffffffffffffffffffffffffffffffffffffffff163373ffffffffffffffffffffffffffffffffffffffff1614610f91576000610f348333612c44565b905084811015610f79576040517f08c379a0000000000000000000000000000000000000000000000000000000008152600401610f7090614235565b60405180910390fd5b610f8f83338784610f8a9190614255565b612f1f565b505b6000610f9c85610cf9565b90506000600d60008573ffffffffffffffffffffffffffffffffffffffff1673ffffffffffffffffffffffffffffffffffffffff1681526020019081526020016000205490506000808211610ff2576000610ffc565b610ffb82610cf9565b5b9050600083600a60008873ffffffffffffffffffffffffffffffffffffffff1673ffffffffffffffffffffffffffffffffffffffff1681526020019081526020016000205461104b9190614255565b905060008490506000838311156110ba5783866110689190614289565b9150611073846131f9565b905080600f60008a73ffffffffffffffffffffffffffffffffffffffff1673ffffffffffffffffffffffffffffffffffffffff168152602001908152602001600020819055505b6110c4888b6132a1565b7f000000000000000000000000000000000000000000000000000000000000000073ffffffffffffffffffffffffffffffffffffffff1663a9059cbb8a846040518363ffffffff1660e01b815260040161111f9291906142bd565b6020604051808303816000875af115801561113e573d6000803e3d6000fd5b505050506040513d601f19601f820116820180604052508101906111629190614312565b6111a1576040517f08c379a00000000000000000000000000000000000000000000000000000000081526004016111989061438b565b60405180910390fd5b60008a600960008b73ffffffffffffffffffffffffffffffffffffffff1673ffffffffffffffffffffffffffffffffffffffff16815260200190815260200160002054106113f0578a600960008b73ffffffffffffffffffffffffffffffffffffffff1673ffffffffffffffffffffffffffffffffffffffff16815260200190815260200160002060008282546112389190614255565b9250508190555086600a60008b73ffffffffffffffffffffffffffffffffffffffff1673ffffffffffffffffffffffffffffffffffffffff168152602001908152602001600020600082825461128e9190614255565b92505081905550600a60008a73ffffffffffffffffffffffffffffffffffffffff1673ffffffffffffffffffffffffffffffffffffffff16815260200190815260200160002054600b60008b73ffffffffffffffffffffffffffffffffffffffff1673ffffffffffffffffffffffffffffffffffffffff16815260200190815260200160002081905550611360600b60008b73ffffffffffffffffffffffffffffffffffffffff1673ffffffffffffffffffffffffffffffffffffffff168152602001908152602001600020546131f9565b905080600c60008b73ffffffffffffffffffffffffffffffffffffffff1673ffffffffffffffffffffffffffffffffffffffff168152602001908152602001600020819055506000600a60008b73ffffffffffffffffffffffffffffffffffffffff1673ffffffffffffffffffffffffffffffffffffffff16815260200190815260200160002081905550611436565b6000600960008b73ffffffffffffffffffffffffffffffffffffffff1673ffffffffffffffffffffffffffffffffffffffff168152602001908152602001600020819055505b6000600d60008b73ffffffffffffffffffffffffffffffffffffffff1673ffffffffffffffffffffffffffffffffffffffff168152602001908152602001600020819055508873ffffffffffffffffffffffffffffffffffffffff167f319485033b4f27bca0afed7c42c728a3c3a50023954977a3b257921c7bd5d7db8b8d8b600b60008f73ffffffffffffffffffffffffffffffffffffffff1673ffffffffffffffffffffffffffffffffffffffff16815260200190815260200160002054868b8960405161150c97969594939291906143ab565b60405180910390a2829750505050505050509392505050565b6000808311611569576040517f08c379a000000000000000000000000000000000000000000000000000000000815260040161156090614466565b60405180910390fd5b600073ffffffffffffffffffffffffffffffffffffffff168273ffffffffffffffffffffffffffffffffffffffff16036115d8576040517f08c379a00000000000000000000000000000000000000000000000000000000081526004016115cf906141c9565b60405180910390fd5b6115e183612ccb565b90507f000000000000000000000000000000000000000000000000000000000000000073ffffffffffffffffffffffffffffffffffffffff166323b872dd3330866040518463ffffffff1660e01b815260040161164093929190614486565b6020604051808303816000875af115801561165f573d6000803e3d6000fd5b505050506040513d601f19601f820116820180604052508101906116839190614312565b6116c2576040517f08c379a00000000000000000000000000000000000000000000000000000000081526004016116b99061438b565b60405180910390fd5b80600960008473ffffffffffffffffffffffffffffffffffffffff1673ffffffffffffffffffffffffffffffffffffffff16815260200190815260200160002060008282546117119190614289565b9250508190555082600a60008473ffffffffffffffffffffffffffffffffffffffff1673ffffffffffffffffffffffffffffffffffffffff16815260200190815260200160002060008282546117679190614289565b925050819055506117788282613323565b8173ffffffffffffffffffffffffffffffffffffffff167f73a19dd210f1a7f902193214c0ee91dd35ee5b4d920cba8d519eca65a7b488ca84836040516117c09291906144bd565b60405180910390a292915050565b60085481565b60008060008373ffffffffffffffffffffffffffffffffffffffff1673ffffffffffffffffffffffffffffffffffffffff168152602001908152602001600020549050919050565b611824613172565b61182e60006133a5565b565b600c6020528060005260406000206000915090505481565b611850613172565b6000801b8103611895576040517f08c379a000000000000000000000000000000000000000000000000000000000815260040161188c90614532565b60405180910390fd5b806008547ff02e7948a555a0714ae90b9dd270e8a0a41a8398c4b00f94b3871ed848745e6e60405160405180910390a38060088190555050565b6000600560009054906101000a900473ffffffffffffffffffffffffffffffffffffffff16905090565b611901613172565b600073ffffffffffffffffffffffffffffffffffffffff168173ffffffffffffffffffffffffffffffffffffffff1603611970576040517f08c379a0000000000000000000000000000000000000000000000000000000008152600401611967906140f1565b60405180910390fd5b8073ffffffffffffffffffffffffffffffffffffffff16600660009054906101000a900473ffffffffffffffffffffffffffffffffffffffff1673ffffffffffffffffffffffffffffffffffffffff167f4751d9c3a861a2452b8c9d9e92df486b8f15d339adc9337b6935e3278d93500560405160405180910390a380600660006101000a81548173ffffffffffffffffffffffffffffffffffffffff021916908373ffffffffffffffffffffffffffffffffffffffff16021790555050565b6000808311611a74576040517f08c379a0000000000000000000000000000000000000000000000000000000008152600401611a6b9061459e565b60405180910390fd5b600073ffffffffffffffffffffffffffffffffffffffff168273ffffffffffffffffffffffffffffffffffffffff1603611ae3576040517f08c379a0000000000000000000000000000000000000000000000000000000008152600401611ada906141c9565b60405180910390fd5b611aec83611d97565b90507f000000000000000000000000000000000000000000000000000000000000000073ffffffffffffffffffffffffffffffffffffffff166323b872dd3330846040518463ffffffff1660e01b8152600401611b4b93929190614486565b6020604051808303816000875af1158015611b6a573d6000803e3d6000fd5b505050506040513d601f19601f82011682018060405250810190611b8e9190614312565b611bcd576040517f08c379a0000000000000000000000000000000000000000000000000000000008152600401611bc49061438b565b60405180910390fd5b82600960008473ffffffffffffffffffffffffffffffffffffffff1673ffffffffffffffffffffffffffffffffffffffff1681526020019081526020016000206000828254611c1c9190614289565b92505081905550611c2d8284613323565b8173ffffffffffffffffffffffffffffffffffffffff163373ffffffffffffffffffffffffffffffffffffffff167fdcbc1c05240f31ff3ad067ef1ee35ce4997762752e3a095284754544f4c709d78586604051611c8c9291906144bd565b60405180910390a392915050565b606060048054611ca990614074565b80601f0160208091040260200160405190810160405280929190818152602001828054611cd590614074565b8015611d225780601f10611cf757610100808354040283529160200191611d22565b820191906000526020600020905b815481529060010190602001808311611d0557829003601f168201915b5050505050905090565b600b6020528060005260406000206000915090505481565b600d6020528060005260406000206000915090505481565b600080611d67612f17565b9050611d74818585612fc6565b600191505092915050565b60096020528060005260406000206000915090505481565b6000611da2826130ba565b9050919050565b6000808411611ded576040517f08c379a0000000000000000000000000000000000000000000000000000000008152600401611de49061460a565b60405180910390fd5b600073ffffffffffffffffffffffffffffffffffffffff168373ffffffffffffffffffffffffffffffffffffffff1603611e5c576040517f08c379a0000000000000000000000000000000000000000000000000000000008152600401611e53906141c9565b60405180910390fd5b611e6584610bdf565b90508173ffffffffffffffffffffffffffffffffffffffff163373ffffffffffffffffffffffffffffffffffffffff1614611f03576000611ea68333612c44565b905081811015611eeb576040517f08c379a0000000000000000000000000000000000000000000000000000000008152600401611ee290614235565b60405180910390fd5b611f0183338484611efc9190614255565b612f1f565b505b611f0d82826132a1565b6000611f18856130ba565b90507f000000000000000000000000000000000000000000000000000000000000000073ffffffffffffffffffffffffffffffffffffffff1663a9059cbb85836040518363ffffffff1660e01b8152600401611f759291906142bd565b6020604051808303816000875af1158015611f94573d6000803e3d6000fd5b505050506040513d601f19601f82011682018060405250810190611fb89190614312565b611ff7576040517f08c379a0000000000000000000000000000000000000000000000000000000008152600401611fee9061438b565b60405180910390fd5b81600960008573ffffffffffffffffffffffffffffffffffffffff1673ffffffffffffffffffffffffffffffffffffffff16815260200190815260200160002054106120985781600960008573ffffffffffffffffffffffffffffffffffffffff1673ffffffffffffffffffffffffffffffffffffffff168152602001908152602001600020600082825461208c9190614255565b925050819055506120de565b6000600960008573ffffffffffffffffffffffffffffffffffffffff1673ffffffffffffffffffffffffffffffffffffffff168152602001908152602001600020819055505b509392505050565b600080841161212a576040517f08c379a00000000000000000000000000000000000000000000000000000000081526004016121219061415d565b60405180910390fd5b600073ffffffffffffffffffffffffffffffffffffffff168373ffffffffffffffffffffffffffffffffffffffff1603612199576040517f08c379a0000000000000000000000000000000000000000000000000000000008152600401612190906141c9565b60405180910390fd5b8173ffffffffffffffffffffffffffffffffffffffff163373ffffffffffffffffffffffffffffffffffffffff16146122355760006121d88333612c44565b90508481101561221d576040517f08c379a000000000000000000000000000000000000000000000000000000000815260040161221490614235565b60405180910390fd5b6122338333878461222e9190614255565b612f1f565b505b61223e84610cf9565b905061224a82856132a1565b7f000000000000000000000000000000000000000000000000000000000000000073ffffffffffffffffffffffffffffffffffffffff1663a9059cbb84836040518363ffffffff1660e01b81526004016122a59291906142bd565b6020604051808303816000875af11580156122c4573d6000803e3d6000fd5b505050506040513d601f19601f820116820180604052508101906122e89190614312565b612327576040517f08c379a000000000000000000000000000000000000000000000000000000000815260040161231e9061438b565b60405180910390fd5b600084600960008573ffffffffffffffffffffffffffffffffffffffff1673ffffffffffffffffffffffffffffffffffffffff16815260200190815260200160002054106125765784600960008573ffffffffffffffffffffffffffffffffffffffff1673ffffffffffffffffffffffffffffffffffffffff16815260200190815260200160002060008282546123be9190614255565b9250508190555081600a60008573ffffffffffffffffffffffffffffffffffffffff1673ffffffffffffffffffffffffffffffffffffffff16815260200190815260200160002060008282546124149190614255565b92505081905550600a60008473ffffffffffffffffffffffffffffffffffffffff1673ffffffffffffffffffffffffffffffffffffffff16815260200190815260200160002054600b60008573ffffffffffffffffffffffffffffffffffffffff1673ffffffffffffffffffffffffffffffffffffffff168152602001908152602001600020819055506124e6600b60008573ffffffffffffffffffffffffffffffffffffffff1673ffffffffffffffffffffffffffffffffffffffff168152602001908152602001600020546131f9565b905080600c60008573ffffffffffffffffffffffffffffffffffffffff1673ffffffffffffffffffffffffffffffffffffffff168152602001908152602001600020819055506000600a60008573ffffffffffffffffffffffffffffffffffffffff1673ffffffffffffffffffffffffffffffffffffffff168152602001908152602001600020819055506125bc565b6000600960008573ffffffffffffffffffffffffffffffffffffffff1673ffffffffffffffffffffffffffffffffffffffff168152602001908152602001600020819055505b8273ffffffffffffffffffffffffffffffffffffffff167ffabb9e7afa4ef595f60e1ae9041b2b311b4acb27aeaed4b11b6f2abf689af10a858785600b60008973ffffffffffffffffffffffffffffffffffffffff1673ffffffffffffffffffffffffffffffffffffffff168152602001908152602001600020548660405161264995949392919061462a565b60405180910390a2509392505050565b6000807f000000000000000000000000000000000000000000000000000000000000000073ffffffffffffffffffffffffffffffffffffffff166370a08231306040518263ffffffff1660e01b81526004016126b59190613d60565b602060405180830381865afa1580156126d2573d6000803e3d6000fd5b505050506040513d601f19601f820116820180604052508101906126f69190613fa7565b9050600061270a612705610be9565b6130ba565b9050808211156127295780826127209190614255565b92505050612730565b6000925050505b90565b600080600660009054906101000a900473ffffffffffffffffffffffffffffffffffffffff1673ffffffffffffffffffffffffffffffffffffffff16633859a1a2600854856040518363ffffffff1660e01b815260040161279592919061467d565b602060405180830381865afa1580156127b2573d6000803e3d6000fd5b505050506040513d601f19601f820116820180604052508101906127d69190613fa7565b905080600e60008573ffffffffffffffffffffffffffffffffffffffff1673ffffffffffffffffffffffffffffffffffffffff168152602001908152602001600020819055506000810361282e57600091505061298a565b6000600760009054906101000a900473ffffffffffffffffffffffffffffffffffffffff1673ffffffffffffffffffffffffffffffffffffffff1663a035b1fe6040518163ffffffff1660e01b8152600401602060405180830381865afa15801561289d573d6000803e3d6000fd5b505050506040513d601f19601f820116820180604052508101906128c19190613fa7565b90506000816ec097ce7bc90715b34b9f1000000000846128e19190614003565b6128eb91906146d5565b905080600d60008773ffffffffffffffffffffffffffffffffffffffff1673ffffffffffffffffffffffffffffffffffffffff168152602001908152602001600020819055508473ffffffffffffffffffffffffffffffffffffffff167f7676685c2d67543a185b43881a7b8432f7e03286ea751d2ad6c14462ebd4115b84848460405161297b93929190614706565b60405180910390a28093505050505b919050565b60007fffffffffffffffffffffffffffffffffffffffffffffffffffffffffffffffff9050919050565b6000819050919050565b60006129d86129d1836117d4565b600061346b565b9050919050565b600f6020528060005260406000206000915090505481565b6000612a02826117d4565b9050919050565b612a11613172565b60008211612a54576040517f08c379a0000000000000000000000000000000000000000000000000000000008152600401612a4b9061460a565b60405180910390fd5b600073ffffffffffffffffffffffffffffffffffffffff168173ffffffffffffffffffffffffffffffffffffffff1603612ac3576040517f08c379a0000000000000000000000000000000000000000000000000000000008152600401612aba90614789565b60405180910390fd5b6000612acd612659565b905080831115612b12576040517f08c379a0000000000000000000000000000000000000000000000000000000008152600401612b09906147f5565b60405180910390fd5b7f000000000000000000000000000000000000000000000000000000000000000073ffffffffffffffffffffffffffffffffffffffff1663a9059cbb83856040518363ffffffff1660e01b8152600401612b6d9291906142bd565b6020604051808303816000875af1158015612b8c573d6000803e3d6000fd5b505050506040513d601f19601f82011682018060405250810190612bb09190614312565b612bef576040517f08c379a0000000000000000000000000000000000000000000000000000000008152600401612be69061438b565b60405180910390fd5b8173ffffffffffffffffffffffffffffffffffffffff167f2bf878084037ba4fb4363629d72708a5bb8e8e0de5af9fe03d987d5289f6f4a28442604051612c379291906144bd565b60405180910390a2505050565b6000600160008473ffffffffffffffffffffffffffffffffffffffff1673ffffffffffffffffffffffffffffffffffffffff16815260200190815260200160002060008373ffffffffffffffffffffffffffffffffffffffff1673ffffffffffffffffffffffffffffffffffffffff16815260200190815260200160002054905092915050565b6000612cd6826134c4565b9050919050565b612ce5613172565b600073ffffffffffffffffffffffffffffffffffffffff168173ffffffffffffffffffffffffffffffffffffffff1603612d575760006040517f1e4fbdf7000000000000000000000000000000000000000000000000000000008152600401612d4e9190613d60565b60405180910390fd5b612d60816133a5565b50565b612d6b613172565b600073ffffffffffffffffffffffffffffffffffffffff168173ffffffffffffffffffffffffffffffffffffffff1603612dda576040517f08c379a0000000000000000000000000000000000000000000000000000000008152600401612dd190614789565b60405180910390fd5b6000612de4612659565b90507f000000000000000000000000000000000000000000000000000000000000000073ffffffffffffffffffffffffffffffffffffffff1663a9059cbb83836040518363ffffffff1660e01b8152600401612e419291906142bd565b6020604051808303816000875af1158015612e60573d6000803e3d6000fd5b505050506040513d601f19601f82011682018060405250810190612e849190614312565b612ec3576040517f08c379a0000000000000000000000000000000000000000000000000000000008152600401612eba9061438b565b60405180910390fd5b8173ffffffffffffffffffffffffffffffffffffffff167f2bf878084037ba4fb4363629d72708a5bb8e8e0de5af9fe03d987d5289f6f4a28242604051612f0b9291906144bd565b60405180910390a25050565b600033905090565b612f2c838383600161357c565b505050565b6000612f3d8484612c44565b90507fffffffffffffffffffffffffffffffffffffffffffffffffffffffffffffffff811015612fc05781811015612fb0578281836040517ffb8f41b2000000000000000000000000000000000000000000000000000000008152600401612fa793929190614815565b60405180910390fd5b612fbf8484848403600061357c565b5b50505050565b600073ffffffffffffffffffffffffffffffffffffffff168373ffffffffffffffffffffffffffffffffffffffff16036130385760006040517f96c6fd1e00000000000000000000000000000000000000000000000000000000815260040161302f9190613d60565b60405180910390fd5b600073ffffffffffffffffffffffffffffffffffffffff168273ffffffffffffffffffffffffffffffffffffffff16036130aa5760006040517fec442f050000000000000000000000000000000000000000000000000000000081526004016130a19190613d60565b60405180910390fd5b6130b5838383613753565b505050565b60008064e8d4a51000836130ce91906146d5565b90507f000000000000000000000000000000000000000000000000000000000000000073ffffffffffffffffffffffffffffffffffffffff1663c6e6f592826040518263ffffffff1660e01b81526004016131299190613b52565b602060405180830381865afa158015613146573d6000803e3d6000fd5b505050506040513d601f19601f8201168201806040525081019061316a9190613fa7565b915050919050565b61317a612f17565b73ffffffffffffffffffffffffffffffffffffffff166131986118cf565b73ffffffffffffffffffffffffffffffffffffffff16146131f7576131bb612f17565b6040517f118cdaa70000000000000000000000000000000000000000000000000000000081526004016131ee9190613d60565b60405180910390fd5b565b6000807f000000000000000000000000000000000000000000000000000000000000000073ffffffffffffffffffffffffffffffffffffffff166307a2d13a846040518263ffffffff1660e01b81526004016132559190613b52565b602060405180830381865afa158015613272573d6000803e3d6000fd5b505050506040513d601f19601f820116820180604052508101906132969190613fa7565b905080915050919050565b600073ffffffffffffffffffffffffffffffffffffffff168273ffffffffffffffffffffffffffffffffffffffff16036133135760006040517f96c6fd1e00000000000000000000000000000000000000000000000000000000815260040161330a9190613d60565b60405180910390fd5b61331f82600083613753565b5050565b600073ffffffffffffffffffffffffffffffffffffffff168273ffffffffffffffffffffffffffffffffffffffff16036133955760006040517fec442f0500000000000000000000000000000000000000000000000000000000815260040161338c9190613d60565b60405180910390fd5b6133a160008383613753565b5050565b6000600560009054906101000a900473ffffffffffffffffffffffffffffffffffffffff16905081600560006101000a81548173ffffffffffffffffffffffffffffffffffffffff021916908373ffffffffffffffffffffffffffffffffffffffff1602179055508173ffffffffffffffffffffffffffffffffffffffff168173ffffffffffffffffffffffffffffffffffffffff167f8be0079c531659141344cd1fd0a4f28419497f9722a3daafe3b4186f6b6457e060405160405180910390a35050565b60006134bc600161347a6109cb565b6134849190614289565b61348c613978565b600a613498919061497f565b6134a0610be9565b6134aa9190614289565b848661397d909392919063ffffffff16565b905092915050565b6000807f000000000000000000000000000000000000000000000000000000000000000073ffffffffffffffffffffffffffffffffffffffff166307a2d13a846040518263ffffffff1660e01b81526004016135209190613b52565b602060405180830381865afa15801561353d573d6000803e3d6000fd5b505050506040513d601f19601f820116820180604052508101906135619190613fa7565b905064e8d4a51000816135749190614003565b915050919050565b600073ffffffffffffffffffffffffffffffffffffffff168473ffffffffffffffffffffffffffffffffffffffff16036135ee5760006040517fe602df050000000000000000000000000000000000000000000000000000000081526004016135e59190613d60565b60405180910390fd5b600073ffffffffffffffffffffffffffffffffffffffff168373ffffffffffffffffffffffffffffffffffffffff16036136605760006040517f94280d620000000000000000000000000000000000000000000000000000000081526004016136579190613d60565b60405180910390fd5b81600160008673ffffffffffffffffffffffffffffffffffffffff1673ffffffffffffffffffffffffffffffffffffffff16815260200190815260200160002060008573ffffffffffffffffffffffffffffffffffffffff1673ffffffffffffffffffffffffffffffffffffffff16815260200190815260200160002081905550801561374d578273ffffffffffffffffffffffffffffffffffffffff168473ffffffffffffffffffffffffffffffffffffffff167f8c5be1e5ebec7d5bd14f71427d1e84f3dd0314c0f7b2291e5b200ac8c7c3b925846040516137449190613b52565b60405180910390a35b50505050565b600073ffffffffffffffffffffffffffffffffffffffff168373ffffffffffffffffffffffffffffffffffffffff16036137a55780600260008282546137999190614289565b92505081905550613878565b60008060008573ffffffffffffffffffffffffffffffffffffffff1673ffffffffffffffffffffffffffffffffffffffff16815260200190815260200160002054905081811015613831578381836040517fe450d38c00000000000000000000000000000000000000000000000000000000815260040161382893929190614815565b60405180910390fd5b8181036000808673ffffffffffffffffffffffffffffffffffffffff1673ffffffffffffffffffffffffffffffffffffffff16815260200190815260200160002081905550505b600073ffffffffffffffffffffffffffffffffffffffff168273ffffffffffffffffffffffffffffffffffffffff16036138c1578060026000828254039250508190555061390e565b806000808473ffffffffffffffffffffffffffffffffffffffff1673ffffffffffffffffffffffffffffffffffffffff168152602001908152602001600020600082825401925050819055505b8173ffffffffffffffffffffffffffffffffffffffff168373ffffffffffffffffffffffffffffffffffffffff167fddf252ad1be2c89b69c2b068fc378daa952ba7f163c4a11628f55a4df523b3ef8360405161396b9190613b52565b60405180910390a3505050565b600090565b60006139ad61398b836139cc565b80156139a85750600084806139a3576139a26146a6565b5b868809115b6139fa565b6139b8868686613a06565b6139c29190614289565b9050949350505050565b6000600160028360038111156139e5576139e46149ca565b5b6139ef91906149f9565b60ff16149050919050565b60008115159050919050565b6000806000613a158686613aee565b9150915060008203613a3b57838181613a3157613a306146a6565b5b0492505050613ae7565b818411613a5b57613a5a613a556000861460126011613b0d565b613b27565b5b600084868809905081811183039250808203915060008560000386169050808604955080830492506001818260000304019050808402831792506000600287600302189050808702600203810290508087026002038102905080870260020381029050808702600203810290508087026002038102905080870260020381029050808402955050505050505b9392505050565b6000806000198385098385029150818110828203039250509250929050565b6000613b18846139fa565b82841802821890509392505050565b634e487b71600052806020526024601cfd5b6000819050919050565b613b4c81613b39565b82525050565b6000602082019050613b676000830184613b43565b92915050565b600081519050919050565b600082825260208201905092915050565b60005b83811015613ba7578082015181840152602081019050613b8c565b60008484015250505050565b6000601f19601f8301169050919050565b6000613bcf82613b6d565b613bd98185613b78565b9350613be9818560208601613b89565b613bf281613bb3565b840191505092915050565b60006020820190508181036000830152613c178184613bc4565b905092915050565b600080fd5b613c2d81613b39565b8114613c3857600080fd5b50565b600081359050613c4a81613c24565b92915050565b600060208284031215613c6657613c65613c1f565b5b6000613c7484828501613c3b565b91505092915050565b600073ffffffffffffffffffffffffffffffffffffffff82169050919050565b6000613ca882613c7d565b9050919050565b613cb881613c9d565b8114613cc357600080fd5b50565b600081359050613cd581613caf565b92915050565b60008060408385031215613cf257613cf1613c1f565b5b6000613d0085828601613cc6565b9250506020613d1185828601613c3b565b9150509250929050565b60008115159050919050565b613d3081613d1b565b82525050565b6000602082019050613d4b6000830184613d27565b92915050565b613d5a81613c9d565b82525050565b6000602082019050613d756000830184613d51565b92915050565b600080600060608486031215613d9457613d93613c1f565b5b6000613da286828701613cc6565b9350506020613db386828701613cc6565b9250506040613dc486828701613c3b565b9150509250925092565b600060208284031215613de457613de3613c1f565b5b6000613df284828501613cc6565b91505092915050565b600060ff82169050919050565b613e1181613dfb565b82525050565b6000602082019050613e2c6000830184613e08565b92915050565b600080600060608486031215613e4b57613e4a613c1f565b5b6000613e5986828701613c3b565b9350506020613e6a86828701613cc6565b9250506040613e7b86828701613cc6565b9150509250925092565b60008060408385031215613e9c57613e9b613c1f565b5b6000613eaa85828601613c3b565b9250506020613ebb85828601613cc6565b9150509250929050565b6000819050919050565b613ed881613ec5565b82525050565b6000602082019050613ef36000830184613ecf565b92915050565b613f0281613ec5565b8114613f0d57600080fd5b50565b600081359050613f1f81613ef9565b92915050565b600060208284031215613f3b57613f3a613c1f565b5b6000613f4984828501613f10565b91505092915050565b60008060408385031215613f6957613f68613c1f565b5b6000613f7785828601613cc6565b9250506020613f8885828601613cc6565b9150509250929050565b600081519050613fa181613c24565b92915050565b600060208284031215613fbd57613fbc613c1f565b5b6000613fcb84828501613f92565b91505092915050565b7f4e487b7100000000000000000000000000000000000000000000000000000000600052601160045260246000fd5b600061400e82613b39565b915061401983613b39565b925082820261402781613b39565b9150828204841483151761403e5761403d613fd4565b5b5092915050565b7f4e487b7100000000000000000000000000000000000000000000000000000000600052602260045260246000fd5b6000600282049050600182168061408c57607f821691505b60208210810361409f5761409e614045565b5b50919050565b7f496e76616c696420616464726573730000000000000000000000000000000000600082015250565b60006140db600f83613b78565b91506140e6826140a5565b602082019050919050565b6000602082019050818103600083015261410a816140ce565b9050919050565b7f43616e6e6f742072656465656d207a65726f0000000000000000000000000000600082015250565b6000614147601283613b78565b915061415282614111565b602082019050919050565b600060208201905081810360008301526141768161413a565b9050919050565b7f496e76616c696420726563656976657200000000000000000000000000000000600082015250565b60006141b3601083613b78565b91506141be8261417d565b602082019050919050565b600060208201905081810360008301526141e2816141a6565b9050919050565b7f496e73756666696369656e7420616c6c6f77616e636500000000000000000000600082015250565b600061421f601683613b78565b915061422a826141e9565b602082019050919050565b6000602082019050818103600083015261424e81614212565b9050919050565b600061426082613b39565b915061426b83613b39565b925082820390508181111561428357614282613fd4565b5b92915050565b600061429482613b39565b915061429f83613b39565b92508282019050808211156142b7576142b6613fd4565b5b92915050565b60006040820190506142d26000830185613d51565b6142df6020830184613b43565b9392505050565b6142ef81613d1b565b81146142fa57600080fd5b50565b60008151905061430c816142e6565b92915050565b60006020828403121561432857614327613c1f565b5b6000614336848285016142fd565b91505092915050565b7f5472616e73666572206661696c65640000000000000000000000000000000000600082015250565b6000614375600f83613b78565b91506143808261433f565b602082019050919050565b600060208201905081810360008301526143a481614368565b9050919050565b600060e0820190506143c0600083018a613d51565b6143cd6020830189613b43565b6143da6040830188613b43565b6143e76060830187613b43565b6143f46080830186613b43565b61440160a0830185613b43565b61440e60c0830184613b43565b98975050505050505050565b7f43616e6e6f74206465706f736974207a65726f00000000000000000000000000600082015250565b6000614450601383613b78565b915061445b8261441a565b602082019050919050565b6000602082019050818103600083015261447f81614443565b9050919050565b600060608201905061449b6000830186613d51565b6144a86020830185613d51565b6144b56040830184613b43565b949350505050565b60006040820190506144d26000830185613b43565b6144df6020830184613b43565b9392505050565b7f496e76616c6964206d61726b6574496400000000000000000000000000000000600082015250565b600061451c601083613b78565b9150614527826144e6565b602082019050919050565b6000602082019050818103600083015261454b8161450f565b9050919050565b7f43616e6e6f74206d696e74207a65726f00000000000000000000000000000000600082015250565b6000614588601083613b78565b915061459382614552565b602082019050919050565b600060208201905081810360008301526145b78161457b565b9050919050565b7f43616e6e6f74207769746864726177207a65726f000000000000000000000000600082015250565b60006145f4601483613b78565b91506145ff826145be565b602082019050919050565b60006020820190508181036000830152614623816145e7565b9050919050565b600060a08201905061463f6000830188613d51565b61464c6020830187613b43565b6146596040830186613b43565b6146666060830185613b43565b6146736080830184613b43565b9695505050505050565b60006040820190506146926000830185613ecf565b61469f6020830184613d51565b9392505050565b7f4e487b7100000000000000000000000000000000000000000000000000000000600052601260045260246000fd5b60006146e082613b39565b91506146eb83613b39565b9250826146fb576146fa6146a6565b5b828204905092915050565b600060608201905061471b6000830186613b43565b6147286020830185613b43565b6147356040830184613b43565b949350505050565b7f496e76616c696420726563697069656e74000000000000000000000000000000600082015250565b6000614773601183613b78565b915061477e8261473d565b602082019050919050565b600060208201905081810360008301526147a281614766565b9050919050565b7f496e73756666696369656e7420616363756d756c61746564207969656c640000600082015250565b60006147df601e83613b78565b91506147ea826147a9565b602082019050919050565b6000602082019050818103600083015261480e816147d2565b9050919050565b600060608201905061482a6000830186613d51565b6148376020830185613b43565b6148446040830184613b43565b949350505050565b60008160011c9050919050565b6000808291508390505b60018511156148a35780860481111561487f5761487e613fd4565b5b600185161561488e5780820291505b808102905061489c8561484c565b9450614863565b94509492505050565b6000826148bc5760019050614978565b816148ca5760009050614978565b81600181146148e057600281146148ea57614919565b6001915050614978565b60ff8411156148fc576148fb613fd4565b5b8360020a91508482111561491357614912613fd4565b5b50614978565b5060208310610133831016604e8410600b841016171561494e5782820a90508381111561494957614948613fd4565b5b614978565b61495b8484846001614859565b9250905081840481111561497257614971613fd4565b5b81810290505b9392505050565b600061498a82613b39565b915061499583613dfb565b92506149c27fffffffffffffffffffffffffffffffffffffffffffffffffffffffffffffffff84846148ac565b905092915050565b7f4e487b7100000000000000000000000000000000000000000000000000000000600052602160045260246000fd5b6000614a0482613dfb565b9150614a0f83613dfb565b925082614a1f57614a1e6146a6565b5b82820690509291505056fea2646970667358221220d9bd878f07f996e0018146e66d2587c5792f108c0d0160b9495f55f1e8c2fa4864736f6c63430008140033",
  "linkReferences": {},
  "deployedLinkReferences": {}
}