{
  "_format": "hh-sol-artifact-1",
  "contractName": "WmUSDC",
  "sourceName": "contracts/WmUSDC.sol",
  "abi": [
    {
      "inputs": [
        {
          "internalType": "address",
          "name": "vaultUSDC_",
          "type": "address"
        }
      ],
      "stateMutability": "nonpayable",
      "type": "constructor"
    },
    {
      "inputs": [
        {
          "internalType": "address",
          "name": "spender",
          "type": "address"
        },
        {
          "internalType": "uint256",
          "name": "allowance",
          "type": "uint256"
        },
        {
          "internalType": "uint256",
          "name": "needed",
          "type": "uint256"
        }
      ],
      "name": "ERC20InsufficientAllowance",
      "type": "error"
    },
    {
      "inputs": [
        {
          "internalType": "address",
          "name": "sender",
          "type": "address"
        },
        {
          "internalType": "uint256",
          "name": "balance",
          "type": "uint256"
        },
        {
          "internalType": "uint256",
          "name": "needed",
          "type": "uint256"
        }
      ],
      "name": "ERC20InsufficientBalance",
      "type": "error"
    },
    {
      "inputs": [
        {
          "internalType": "address",
          "name": "approver",
          "type": "address"
        }
      ],
      "name": "ERC20InvalidApprover",
      "type": "error"
    },
    {
      "inputs": [
        {
          "internalType": "address",
          "name": "receiver",
          "type": "address"
        }
      ],
      "name": "ERC20InvalidReceiver",
      "type": "error"
    },
    {
      "inputs": [
        {
          "internalType": "address",
          "name": "sender",
          "type": "address"
        }
      ],
      "name": "ERC20InvalidSender",
      "type": "error"
    },
    {
      "inputs": [
        {
          "internalType": "address",
          "name": "spender",
          "type": "address"
        }
      ],
      "name": "ERC20InvalidSpender",
      "type": "error"
    },
    {
      "inputs": [
        {
          "internalType": "address",
          "name": "receiver",
          "type": "address"
        },
        {
          "internalType": "uint256",
          "name": "assets",
          "type": "uint256"
        },
        {
          "internalType": "uint256",
          "name": "max",
          "type": "uint256"
        }
      ],
      "name": "ERC4626ExceededMaxDeposit",
      "type": "error"
    },
    {
      "inputs": [
        {
          "internalType": "address",
          "name": "receiver",
          "type": "address"
        },
        {
          "internalType": "uint256",
          "name": "shares",
          "type": "uint256"
        },
        {
          "internalType": "uint256",
          "name": "max",
          "type": "uint256"
        }
      ],
      "name": "ERC4626ExceededMaxMint",
      "type": "error"
    },
    {
      "inputs": [
        {
          "internalType": "address",
          "name": "owner",
          "type": "address"
        },
        {
          "internalType": "uint256",
          "name": "shares",
          "type": "uint256"
        },
        {
          "internalType": "uint256",
          "name": "max",
          "type": "uint256"
        }
      ],
      "name": "ERC4626ExceededMaxRedeem",
      "type": "error"
    },
    {
      "inputs": [
        {
          "internalType": "address",
          "name": "owner",
          "type": "address"
        },
        {
          "internalType": "uint256",
          "name": "assets",
          "type": "uint256"
        },
        {
          "internalType": "uint256",
          "name": "max",
          "type": "uint256"
        }
      ],
      "name": "ERC4626ExceededMaxWithdraw",
      "type": "error"
    },
    {
      "inputs": [
        {
          "internalType": "address",
          "name": "owner",
          "type": "address"
        }
      ],
      "name": "OwnableInvalidOwner",
      "type": "error"
    },
    {
      "inputs": [
        {
          "internalType": "address",
          "name": "account",
          "type": "address"
        }
      ],
      "name": "OwnableUnauthorizedAccount",
      "type": "error"
    },
    {
      "anonymous": false,
      "inputs": [
        {
          "indexed": true,
          "internalType": "address",
          "name": "owner",
          "type": "address"
        },
        {
          "indexed": true,
          "internalType": "address",
          "name": "spender",
          "type": "address"
        },
        {
          "indexed": false,
          "internalType": "uint256",
          "name": "value",
          "type": "uint256"
        }
      ],
      "name": "Approval",
      "type": "event"
    },
    {
      "anonymous": false,
      "inputs": [
        {
          "indexed": true,
          "internalType": "address",
          "name": "sender",
          "type": "address"
        },
        {
          "indexed": true,
          "internalType": "address",
          "name": "owner",
          "type": "address"
        },
        {
          "indexed": false,
          "internalType": "uint256",
          "name": "assets",
          "type": "uint256"
        },
        {
          "indexed": false,
          "internalType": "uint256",
          "name": "shares",
          "type": "uint256"
        }
      ],
      "name": "Deposit",
      "type": "event"
    },
    {
      "anonymous": false,
      "inputs": [
        {
          "indexed": true,
          "internalType": "address",
          "name": "user",
          "type": "address"
        },
        {
          "indexed": false,
          "internalType": "uint256",
          "name": "assets",
          "type": "uint256"
        },
        {
          "indexed": false,
          "internalType": "uint256",
          "name": "shares",
          "type": "uint256"
        }
      ],
      "name": "Deposited",
      "type": "event"
    },
    {
      "anonymous": false,
      "inputs": [
        {
          "indexed": true,
          "internalType": "address",
          "name": "previousOwner",
          "type": "address"
        },
        {
          "indexed": true,
          "internalType": "address",
          "name": "newOwner",
          "type": "address"
        }
      ],
      "name": "OwnershipTransferred",
      "type": "event"
    },
    {
      "anonymous": false,
      "inputs": [
        {
          "indexed": true,
          "internalType": "address",
          "name": "from",
          "type": "address"
        },
        {
          "indexed": true,
          "internalType": "address",
          "name": "to",
          "type": "address"
        },
        {
          "indexed": false,
          "internalType": "uint256",
          "name": "value",
          "type": "uint256"
        }
      ],
      "name": "Transfer",
      "type": "event"
    },
    {
      "anonymous": false,
      "inputs": [
        {
          "indexed": true,
          "internalType": "address",
          "name": "sender",
          "type": "address"
        },
        {
          "indexed": true,
          "internalType": "address",
          "name": "receiver",
          "type": "address"
        },
        {
          "indexed": true,
          "internalType": "address",
          "name": "owner",
          "type": "address"
        },
        {
          "indexed": false,
          "internalType": "uint256",
          "name": "assets",
          "type": "uint256"
        },
        {
          "indexed": false,
          "internalType": "uint256",
          "name": "shares",
          "type": "uint256"
        }
      ],
      "name": "Withdraw",
      "type": "event"
    },
    {
      "anonymous": false,
      "inputs": [
        {
          "indexed": true,
          "internalType": "address",
          "name": "user",
          "type": "address"
        },
        {
          "indexed": false,
          "internalType": "uint256",
          "name": "assets",
          "type": "uint256"
        },
        {
          "indexed": false,
          "internalType": "uint256",
          "name": "shares",
          "type": "uint256"
        }
      ],
      "name": "Withdrawn",
      "type": "event"
    },
    {
      "anonymous": false,
      "inputs": [
        {
          "indexed": true,
          "internalType": "address",
          "name": "recipient",
          "type": "address"
        },
        {
          "indexed": false,
          "internalType": "uint256",
          "name": "amount",
          "type": "uint256"
        },
        {
          "indexed": false,
          "internalType": "uint256",
          "name": "timestamp",
          "type": "uint256"
        }
      ],
      "name": "YieldWithdrawn",
      "type": "event"
    },
    {
      "inputs": [],
      "name": "DEBT_LENS",
      "outputs": [
        {
          "internalType": "address",
          "name": "",
          "type": "address"
        }
      ],
      "stateMutability": "view",
      "type": "function"
    },
    {
      "inputs": [],
      "name": "MXNB_USDC_ORACLE",
      "outputs": [
        {
          "internalType": "address",
          "name": "",
          "type": "address"
        }
      ],
      "stateMutability": "view",
      "type": "function"
    },
    {
      "inputs": [
        {
          "internalType": "address",
          "name": "owner",
          "type": "address"
        },
        {
          "internalType": "address",
          "name": "spender",
          "type": "address"
        }
      ],
      "name": "allowance",
      "outputs": [
        {
          "internalType": "uint256",
          "name": "",
          "type": "uint256"
        }
      ],
      "stateMutability": "view",
      "type": "function"
    },
    {
      "inputs": [
        {
          "internalType": "address",
          "name": "spender",
          "type": "address"
        },
        {
          "internalType": "uint256",
          "name": "value",
          "type": "uint256"
        }
      ],
      "name": "approve",
      "outputs": [
        {
          "internalType": "bool",
          "name": "",
          "type": "bool"
        }
      ],
      "stateMutability": "nonpayable",
      "type": "function"
    },
    {
      "inputs": [],
      "name": "asset",
      "outputs": [
        {
          "internalType": "address",
          "name": "",
          "type": "address"
        }
      ],
      "stateMutability": "view",
      "type": "function"
    },
    {
      "inputs": [
        {
          "internalType": "address",
          "name": "account",
          "type": "address"
        }
      ],
      "name": "balanceOf",
      "outputs": [
        {
          "internalType": "uint256",
          "name": "",
          "type": "uint256"
        }
      ],
      "stateMutability": "view",
      "type": "function"
    },
    {
      "inputs": [
        {
          "internalType": "uint256",
          "name": "shares",
          "type": "uint256"
        }
      ],
      "name": "convertToAssets",
      "outputs": [
        {
          "internalType": "uint256",
          "name": "",
          "type": "uint256"
        }
      ],
      "stateMutability": "pure",
      "type": "function"
    },
    {
      "inputs": [
        {
          "internalType": "uint256",
          "name": "assets",
          "type": "uint256"
        }
      ],
      "name": "convertToShares",
      "outputs": [
        {
          "internalType": "uint256",
          "name": "",
          "type": "uint256"
        }
      ],
      "stateMutability": "pure",
      "type": "function"
    },
    {
      "inputs": [],
      "name": "decimals",
      "outputs": [
        {
          "internalType": "uint8",
          "name": "",
          "type": "uint8"
        }
      ],
      "stateMutability": "pure",
      "type": "function"
    },
    {
      "inputs": [
        {
          "internalType": "uint256",
          "name": "assets",
          "type": "uint256"
        },
        {
          "internalType": "address",
          "name": "receiver",
          "type": "address"
        }
      ],
      "name": "deposit",
      "outputs": [
        {
          "internalType": "uint256",
          "name": "shares",
          "type": "uint256"
        }
      ],
      "stateMutability": "nonpayable",
      "type": "function"
    },
    {
      "inputs": [],
      "name": "getAccumulatedYield",
      "outputs": [
        {
          "internalType": "uint256",
          "name": "",
          "type": "uint256"
        }
      ],
      "stateMutability": "view",
      "type": "function"
    },
    {
      "inputs": [
        {
          "internalType": "address",
          "name": "user",
          "type": "address"
        }
      ],
      "name": "getInterestSubsidy",
      "outputs": [
        {
          "internalType": "uint256",
          "name": "",
          "type": "uint256"
        }
      ],
      "stateMutability": "nonpayable",
      "type": "function"
    },
    {
      "inputs": [
        {
          "internalType": "address",
          "name": "",
          "type": "address"
        }
      ],
      "name": "interestSubsidyInWmUSDC",
      "outputs": [
        {
          "internalType": "uint256",
          "name": "",
          "type": "uint256"
        }
      ],
      "stateMutability": "view",
      "type": "function"
    },
    {
      "inputs": [],
      "name": "marketId",
      "outputs": [
        {
          "internalType": "bytes32",
          "name": "",
          "type": "bytes32"
        }
      ],
      "stateMutability": "view",
      "type": "function"
    },
    {
      "inputs": [
        {
          "internalType": "address",
          "name": "",
          "type": "address"
        }
      ],
      "name": "maxDeposit",
      "outputs": [
        {
          "internalType": "uint256",
          "name": "",
          "type": "uint256"
        }
      ],
      "stateMutability": "view",
      "type": "function"
    },
    {
      "inputs": [
        {
          "internalType": "address",
          "name": "",
          "type": "address"
        }
      ],
      "name": "maxMint",
      "outputs": [
        {
          "internalType": "uint256",
          "name": "",
          "type": "uint256"
        }
      ],
      "stateMutability": "view",
      "type": "function"
    },
    {
      "inputs": [
        {
          "internalType": "address",
          "name": "owner",
          "type": "address"
        }
      ],
      "name": "maxRedeem",
      "outputs": [
        {
          "internalType": "uint256",
          "name": "",
          "type": "uint256"
        }
      ],
      "stateMutability": "view",
      "type": "function"
    },
    {
      "inputs": [
        {
          "internalType": "address",
          "name": "owner",
          "type": "address"
        }
      ],
      "name": "maxWithdraw",
      "outputs": [
        {
          "internalType": "uint256",
          "name": "",
          "type": "uint256"
        }
      ],
      "stateMutability": "view",
      "type": "function"
    },
    {
      "inputs": [
        {
          "internalType": "uint256",
          "name": "shares",
          "type": "uint256"
        },
        {
          "internalType": "address",
          "name": "receiver",
          "type": "address"
        }
      ],
      "name": "mint",
      "outputs": [
        {
          "internalType": "uint256",
          "name": "assets",
          "type": "uint256"
        }
      ],
      "stateMutability": "nonpayable",
      "type": "function"
    },
    {
      "inputs": [],
      "name": "name",
      "outputs": [
        {
          "internalType": "string",
          "name": "",
          "type": "string"
        }
      ],
      "stateMutability": "view",
      "type": "function"
    },
    {
      "inputs": [],
      "name": "owner",
      "outputs": [
        {
          "internalType": "address",
          "name": "",
          "type": "address"
        }
      ],
      "stateMutability": "view",
      "type": "function"
    },
    {
      "inputs": [
        {
          "internalType": "uint256",
          "name": "assets",
          "type": "uint256"
        }
      ],
      "name": "previewDeposit",
      "outputs": [
        {
          "internalType": "uint256",
          "name": "",
          "type": "uint256"
        }
      ],
      "stateMutability": "view",
      "type": "function"
    },
    {
      "inputs": [
        {
          "internalType": "uint256",
          "name": "shares",
          "type": "uint256"
        }
      ],
      "name": "previewMint",
      "outputs": [
        {
          "internalType": "uint256",
          "name": "",
          "type": "uint256"
        }
      ],
      "stateMutability": "view",
      "type": "function"
    },
    {
      "inputs": [
        {
          "internalType": "uint256",
          "name": "shares",
          "type": "uint256"
        }
      ],
      "name": "previewRedeem",
      "outputs": [
        {
          "internalType": "uint256",
          "name": "",
          "type": "uint256"
        }
      ],
      "stateMutability": "view",
      "type": "function"
    },
    {
      "inputs": [
        {
          "internalType": "uint256",
          "name": "assets",
          "type": "uint256"
        }
      ],
      "name": "previewWithdraw",
      "outputs": [
        {
          "internalType": "uint256",
          "name": "",
          "type": "uint256"
        }
      ],
      "stateMutability": "pure",
      "type": "function"
    },
    {
      "inputs": [
        {
          "internalType": "uint256",
          "name": "shares",
          "type": "uint256"
        },
        {
          "internalType": "address",
          "name": "receiver",
          "type": "address"
        },
        {
          "internalType": "address",
          "name": "owner",
          "type": "address"
        }
      ],
      "name": "redeem",
      "outputs": [
        {
          "internalType": "uint256",
          "name": "assets",
          "type": "uint256"
        }
      ],
      "stateMutability": "nonpayable",
      "type": "function"
    },
    {
      "inputs": [
        {
          "internalType": "uint256",
          "name": "shares",
          "type": "uint256"
        },
        {
          "internalType": "address",
          "name": "receiver",
          "type": "address"
        },
        {
          "internalType": "address",
          "name": "owner",
          "type": "address"
        }
      ],
      "name": "redeemWithInterestSubsidy",
      "outputs": [
        {
          "internalType": "uint256",
          "name": "assets",
          "type": "uint256"
        }
      ],
      "stateMutability": "nonpayable",
      "type": "function"
    },
    {
      "inputs": [],
      "name": "renounceOwnership",
      "outputs": [],
      "stateMutability": "nonpayable",
      "type": "function"
    },
    {
      "inputs": [],
      "name": "symbol",
      "outputs": [
        {
          "internalType": "string",
          "name": "",
          "type": "string"
        }
      ],
      "stateMutability": "view",
      "type": "function"
    },
    {
      "inputs": [],
      "name": "totalAssets",
      "outputs": [
        {
          "internalType": "uint256",
          "name": "",
          "type": "uint256"
        }
      ],
      "stateMutability": "view",
      "type": "function"
    },
    {
      "inputs": [],
      "name": "totalSupply",
      "outputs": [
        {
          "internalType": "uint256",
          "name": "",
          "type": "uint256"
        }
      ],
      "stateMutability": "view",
      "type": "function"
    },
    {
      "inputs": [
        {
          "internalType": "address",
          "name": "to",
          "type": "address"
        },
        {
          "internalType": "uint256",
          "name": "value",
          "type": "uint256"
        }
      ],
      "name": "transfer",
      "outputs": [
        {
          "internalType": "bool",
          "name": "",
          "type": "bool"
        }
      ],
      "stateMutability": "nonpayable",
      "type": "function"
    },
    {
      "inputs": [
        {
          "internalType": "address",
          "name": "from",
          "type": "address"
        },
        {
          "internalType": "address",
          "name": "to",
          "type": "address"
        },
        {
          "internalType": "uint256",
          "name": "value",
          "type": "uint256"
        }
      ],
      "name": "transferFrom",
      "outputs": [
        {
          "internalType": "bool",
          "name": "",
          "type": "bool"
        }
      ],
      "stateMutability": "nonpayable",
      "type": "function"
    },
    {
      "inputs": [
        {
          "internalType": "address",
          "name": "newOwner",
          "type": "address"
        }
      ],
      "name": "transferOwnership",
      "outputs": [],
      "stateMutability": "nonpayable",
      "type": "function"
    },
    {
      "inputs": [
        {
          "internalType": "address",
          "name": "",
          "type": "address"
        }
      ],
      "name": "userDepositedAssets",
      "outputs": [
        {
          "internalType": "uint256",
          "name": "",
          "type": "uint256"
        }
      ],
      "stateMutability": "view",
      "type": "function"
    },
    {
      "inputs": [
        {
          "internalType": "address",
          "name": "",
          "type": "address"
        }
      ],
      "name": "userDepositedShares",
      "outputs": [
        {
          "internalType": "uint256",
          "name": "",
          "type": "uint256"
        }
      ],
      "stateMutability": "view",
      "type": "function"
    },
    {
      "inputs": [
        {
          "internalType": "address",
          "name": "",
          "type": "address"
        }
      ],
      "name": "userGeneratedYieldInShares",
      "outputs": [
        {
          "internalType": "uint256",
          "name": "",
          "type": "uint256"
        }
      ],
      "stateMutability": "view",
      "type": "function"
    },
    {
      "inputs": [
        {
          "internalType": "address",
          "name": "",
          "type": "address"
        }
      ],
      "name": "userGeneratedYieldInUSDC",
      "outputs": [
        {
          "internalType": "uint256",
          "name": "",
          "type": "uint256"
        }
      ],
      "stateMutability": "view",
      "type": "function"
    },
    {
      "inputs": [
        {
          "internalType": "address",
          "name": "",
          "type": "address"
        }
      ],
      "name": "userSubsidyInUSDC",
      "outputs": [
        {
          "internalType": "uint256",
          "name": "",
          "type": "uint256"
        }
      ],
      "stateMutability": "view",
      "type": "function"
    },
    {
      "inputs": [
        {
          "internalType": "uint256",
          "name": "assets",
          "type": "uint256"
        },
        {
          "internalType": "address",
          "name": "receiver",
          "type": "address"
        },
        {
          "internalType": "address",
          "name": "owner",
          "type": "address"
        }
      ],
      "name": "withdraw",
      "outputs": [
        {
          "internalType": "uint256",
          "name": "shares",
          "type": "uint256"
        }
      ],
      "stateMutability": "nonpayable",
      "type": "function"
    },
    {
      "inputs": [
        {
          "internalType": "uint256",
          "name": "amount",
          "type": "uint256"
        },
        {
          "internalType": "address",
          "name": "recipient",
          "type": "address"
        }
      ],
      "name": "withdrawAccumulatedYield",
      "outputs": [],
      "stateMutability": "nonpayable",
      "type": "function"
    },
    {
      "inputs": [
        {
          "internalType": "address",
          "name": "recipient",
          "type": "address"
        }
      ],
      "name": "withdrawAllAccumulatedYield",
      "outputs": [],
      "stateMutability": "nonpayable",
      "type": "function"
    }
  ],
  "bytecode": "0x60e06040523480156200001157600080fd5b5060405162004f2338038062004f238339818101604052810190620000379190620004b5565b33816040518060400160405280601981526020017f57726170706564204d6f7270686f205661756c742055534443000000000000008152506040518060400160405280600681526020017f576d5553444300000000000000000000000000000000000000000000000000008152508160039081620000b6919062000761565b508060049081620000c8919062000761565b505050600080620000df836200026b60201b60201c565b9150915081620000f1576012620000f3565b805b60ff1660a08160ff16815250508273ffffffffffffffffffffffffffffffffffffffff1660808173ffffffffffffffffffffffffffffffffffffffff1681525050505050600073ffffffffffffffffffffffffffffffffffffffff168173ffffffffffffffffffffffffffffffffffffffff1603620001ac5760006040517f1e4fbdf7000000000000000000000000000000000000000000000000000000008152600401620001a3919062000859565b60405180910390fd5b620001bd816200038560201b60201c565b50600073ffffffffffffffffffffffffffffffffffffffff168173ffffffffffffffffffffffffffffffffffffffff160362000230576040517f08c379a00000000000000000000000000000000000000000000000000000000081526004016200022790620008d7565b60405180910390fd5b8073ffffffffffffffffffffffffffffffffffffffff1660c08173ffffffffffffffffffffffffffffffffffffffff168152505050620009ee565b6000806000808473ffffffffffffffffffffffffffffffffffffffff1660405160240160405160208183030381529060405263313ce56760e01b6020820180517bffffffffffffffffffffffffffffffffffffffffffffffffffffffff8381831617835250505050604051620002e2919062000972565b600060405180830381855afa9150503d80600081146200031f576040519150601f19603f3d011682016040523d82523d6000602084013e62000324565b606091505b50915091508180156200033957506020815110155b156200037657600081806020019051810190620003579190620009bc565b905060ff8016811162000374576001819450945050505062000380565b505b6000809350935050505b915091565b6000600560009054906101000a900473ffffffffffffffffffffffffffffffffffffffff16905081600560006101000a81548173ffffffffffffffffffffffffffffffffffffffff021916908373ffffffffffffffffffffffffffffffffffffffff1602179055508173ffffffffffffffffffffffffffffffffffffffff168173ffffffffffffffffffffffffffffffffffffffff167f8be0079c531659141344cd1fd0a4f28419497f9722a3daafe3b4186f6b6457e060405160405180910390a35050565b600080fd5b600073ffffffffffffffffffffffffffffffffffffffff82169050919050565b60006200047d8262000450565b9050919050565b6200048f8162000470565b81146200049b57600080fd5b50565b600081519050620004af8162000484565b92915050565b600060208284031215620004ce57620004cd6200044b565b5b6000620004de848285016200049e565b91505092915050565b600081519050919050565b7f4e487b7100000000000000000000000000000000000000000000000000000000600052604160045260246000fd5b7f4e487b7100000000000000000000000000000000000000000000000000000000600052602260045260246000fd5b600060028204905060018216806200056957607f821691505b6020821081036200057f576200057e62000521565b5b50919050565b60008190508160005260206000209050919050565b60006020601f8301049050919050565b600082821b905092915050565b600060088302620005e97fffffffffffffffffffffffffffffffffffffffffffffffffffffffffffffffff82620005aa565b620005f58683620005aa565b95508019841693508086168417925050509392505050565b6000819050919050565b6000819050919050565b6000620006426200063c62000636846200060d565b62000617565b6200060d565b9050919050565b6000819050919050565b6200065e8362000621565b620006766200066d8262000649565b848454620005b7565b825550505050565b600090565b6200068d6200067e565b6200069a81848462000653565b505050565b5b81811015620006c257620006b660008262000683565b600181019050620006a0565b5050565b601f8211156200071157620006db8162000585565b620006e6846200059a565b81016020851015620006f6578190505b6200070e62000705856200059a565b8301826200069f565b50505b505050565b600082821c905092915050565b6000620007366000198460080262000716565b1980831691505092915050565b600062000751838362000723565b9150826002028217905092915050565b6200076c82620004e7565b67ffffffffffffffff811115620007885762000787620004f2565b5b62000794825462000550565b620007a1828285620006c6565b600060209050601f831160018114620007d95760008415620007c4578287015190505b620007d0858262000743565b86555062000840565b601f198416620007e98662000585565b60005b828110156200081357848901518255600182019150602085019450602081019050620007ec565b868310156200083357848901516200082f601f89168262000723565b8355505b6001600288020188555050505b505050505050565b620008538162000470565b82525050565b600060208201905062000870600083018462000848565b92915050565b600082825260208201905092915050565b7f496e76616c6964207661756c7455534443206164647265737300000000000000600082015250565b6000620008bf60198362000876565b9150620008cc8262000887565b602082019050919050565b60006020820190508181036000830152620008f281620008b0565b9050919050565b600081519050919050565b600081905092915050565b60005b838110156200092f57808201518184015260208101905062000912565b60008484015250505050565b60006200094882620008f9565b62000954818562000904565b9350620009668185602086016200090f565b80840191505092915050565b60006200098082846200093b565b915081905092915050565b62000996816200060d565b8114620009a257600080fd5b50565b600081519050620009b6816200098b565b92915050565b600060208284031215620009d557620009d46200044b565b5b6000620009e584828501620009a5565b91505092915050565b60805160a05160c0516144b462000a6f60003960008181610920015281816109be01528181610dcf0152818161132d0152818161171a01528181611b4601528181611f440152818161233f0152818161276201528181612a6601528181612d5001528181612e7701526131470152600050506000610b7f01526144b46000f3fe608060405234801561001057600080fd5b506004361061025e5760003560e01c806395d89b4111610146578063c63d75b6116100c3578063dd62ed3e11610087578063dd62ed3e14610847578063dfbb180514610877578063e4a0d52d14610895578063ef8b30f7146108b3578063f2fde38b146108e3578063f7f12c50146108ff5761025e565b8063c63d75b61461076b578063c6e6f5921461079b578063ce96cb77146107cb578063d905777e146107fb578063dd52c6af1461082b5761025e565b8063b447966e1161010a578063b447966e1461068d578063b460af94146106bd578063ba087652146106ed578063bbde8be01461071d578063c3fcab0f1461073b5761025e565b806395d89b41146105af5780639f522e85146105cd578063a9059cbb146105fd578063b3a42e1e1461062d578063b3d7f6b91461065d5761025e565b8063402d267d116101df57806370a08231116101a357806370a08231146104c7578063715018a6146104f757806374d1dbf01461050157806385cc4d59146105315780638da5cb5b1461056157806394bf804d1461057f5761025e565b8063402d267d146103e95780634cdad506146104195780636b9c9dc8146104495780636e553f65146104795780636ed71ede146104a95761025e565b806318160ddd1161022657806318160ddd1461032f57806323b872dd1461034d578063313ce5671461037d57806338d52e0f1461039b5780633e232dae146103b95761025e565b806301e1d1141461026357806306fdde031461028157806307a2d13a1461029f578063095ea7b3146102cf5780630a28a477146102ff575b600080fd5b61026b61091b565b60405161027891906137d0565b60405180910390f35b610289610a70565b604051610296919061387b565b60405180910390f35b6102b960048036038101906102b491906138ce565b610b02565b6040516102c691906137d0565b60405180910390f35b6102e960048036038101906102e49190613959565b610b0c565b6040516102f691906139b4565b60405180910390f35b610319600480360381019061031491906138ce565b610b2f565b60405161032691906137d0565b60405180910390f35b610337610b39565b60405161034491906137d0565b60405180910390f35b610367600480360381019061036291906139cf565b610b43565b60405161037491906139b4565b60405180910390f35b610385610b72565b6040516103929190613a3e565b60405180910390f35b6103a3610b7b565b6040516103b09190613a68565b60405180910390f35b6103d360048036038101906103ce9190613a83565b610ba3565b6040516103e091906137d0565b60405180910390f35b61040360048036038101906103fe9190613a83565b610bbb565b60405161041091906137d0565b60405180910390f35b610433600480360381019061042e91906138ce565b610be5565b60405161044091906137d0565b60405180910390f35b610463600480360381019061045e9190613ab0565b610bf7565b60405161047091906137d0565b60405180910390f35b610493600480360381019061048e9190613b03565b61126d565b6040516104a091906137d0565b60405180910390f35b6104b161157d565b6040516104be9190613b5c565b60405180910390f35b6104e160048036038101906104dc9190613a83565b6115a4565b6040516104ee91906137d0565b60405180910390f35b6104ff6115ec565b005b61051b60048036038101906105169190613a83565b611600565b60405161052891906137d0565b60405180910390f35b61054b60048036038101906105469190613a83565b611618565b60405161055891906137d0565b60405180910390f35b610569611630565b6040516105769190613a68565b60405180910390f35b61059960048036038101906105949190613b03565b61165a565b6040516105a691906137d0565b60405180910390f35b6105b76118c4565b6040516105c4919061387b565b60405180910390f35b6105e760048036038101906105e29190613a83565b611956565b6040516105f491906137d0565b60405180910390f35b61061760048036038101906106129190613959565b61196e565b60405161062491906139b4565b60405180910390f35b61064760048036038101906106429190613a83565b611991565b60405161065491906137d0565b60405180910390f35b610677600480360381019061067291906138ce565b6119a9565b60405161068491906137d0565b60405180910390f35b6106a760048036038101906106a29190613a83565b6119bb565b6040516106b491906137d0565b60405180910390f35b6106d760048036038101906106d29190613ab0565b6119d3565b6040516106e491906137d0565b60405180910390f35b61070760048036038101906107029190613ab0565b611dde565b60405161071491906137d0565b60405180910390f35b61072561233a565b60405161073291906137d0565b60405180910390f35b61075560048036038101906107509190613a83565b612414565b60405161076291906137d0565b60405180910390f35b61078560048036038101906107809190613a83565b6125f5565b60405161079291906137d0565b60405180910390f35b6107b560048036038101906107b091906138ce565b61261f565b6040516107c291906137d0565b60405180910390f35b6107e560048036038101906107e09190613a83565b612629565b6040516107f291906137d0565b60405180910390f35b61081560048036038101906108109190613a83565b612645565b60405161082291906137d0565b60405180910390f35b61084560048036038101906108409190613b03565b612657565b005b610861600480360381019061085c9190613b77565b612892565b60405161086e91906137d0565b60405180910390f35b61087f612919565b60405161088c9190613a68565b60405180910390f35b61089d612931565b6040516108aa9190613a68565b60405180910390f35b6108cd60048036038101906108c891906138ce565b612949565b6040516108da91906137d0565b60405180910390f35b6108fd60048036038101906108f89190613a83565b61295b565b005b61091960048036038101906109149190613a83565b6129e1565b005b6000807f000000000000000000000000000000000000000000000000000000000000000073ffffffffffffffffffffffffffffffffffffffff166370a08231306040518263ffffffff1660e01b81526004016109779190613a68565b602060405180830381865afa158015610994573d6000803e3d6000fd5b505050506040513d601f19601f820116820180604052508101906109b89190613bcc565b905060007f000000000000000000000000000000000000000000000000000000000000000073ffffffffffffffffffffffffffffffffffffffff166307a2d13a836040518263ffffffff1660e01b8152600401610a1591906137d0565b602060405180830381865afa158015610a32573d6000803e3d6000fd5b505050506040513d601f19601f82011682018060405250810190610a569190613bcc565b905064e8d4a5100081610a699190613c28565b9250505090565b606060038054610a7f90613c99565b80601f0160208091040260200160405190810160405280929190818152602001828054610aab90613c99565b8015610af85780601f10610acd57610100808354040283529160200191610af8565b820191906000526020600020905b815481529060010190602001808311610adb57829003601f168201915b5050505050905090565b6000819050919050565b600080610b17612b95565b9050610b24818585612b9d565b600191505092915050565b6000819050919050565b6000600254905090565b600080610b4e612b95565b9050610b5b858285612baf565b610b66858585612c44565b60019150509392505050565b60006012905090565b60007f0000000000000000000000000000000000000000000000000000000000000000905090565b60076020528060005260406000206000915090505481565b60007fffffffffffffffffffffffffffffffffffffffffffffffffffffffffffffffff9050919050565b6000610bf082612d38565b9050919050565b6000808411610c3b576040517f08c379a0000000000000000000000000000000000000000000000000000000008152600401610c3290613d16565b60405180910390fd5b600073ffffffffffffffffffffffffffffffffffffffff168373ffffffffffffffffffffffffffffffffffffffff1603610caa576040517f08c379a0000000000000000000000000000000000000000000000000000000008152600401610ca190613d82565b60405180910390fd5b8173ffffffffffffffffffffffffffffffffffffffff163373ffffffffffffffffffffffffffffffffffffffff1614610d46576000610ce98333612892565b905084811015610d2e576040517f08c379a0000000000000000000000000000000000000000000000000000000008152600401610d2590613dee565b60405180910390fd5b610d4483338784610d3f9190613e0e565b612b9d565b505b6000610d5185610be5565b90506000600b60008573ffffffffffffffffffffffffffffffffffffffff1673ffffffffffffffffffffffffffffffffffffffff1681526020019081526020016000205490506000808211610da7576000610db1565b610db082610be5565b5b905060008184610dc19190613e42565b9050610dcd8689612df0565b7f000000000000000000000000000000000000000000000000000000000000000073ffffffffffffffffffffffffffffffffffffffff1663a9059cbb88836040518363ffffffff1660e01b8152600401610e28929190613e76565b6020604051808303816000875af1158015610e47573d6000803e3d6000fd5b505050506040513d601f19601f82011682018060405250810190610e6b9190613ecb565b610eaa576040517f08c379a0000000000000000000000000000000000000000000000000000000008152600401610ea190613f44565b60405180910390fd5b6000821115610f06576000610ebe83612e72565b905080600a60008973ffffffffffffffffffffffffffffffffffffffff1673ffffffffffffffffffffffffffffffffffffffff16815260200190815260200160002081905550505b87600660008873ffffffffffffffffffffffffffffffffffffffff1673ffffffffffffffffffffffffffffffffffffffff16815260200190815260200160002054106111565787600660008873ffffffffffffffffffffffffffffffffffffffff1673ffffffffffffffffffffffffffffffffffffffff1681526020019081526020016000206000828254610f9b9190613e0e565b9250508190555083600760008873ffffffffffffffffffffffffffffffffffffffff1673ffffffffffffffffffffffffffffffffffffffff1681526020019081526020016000206000828254610ff19190613e0e565b92505081905550600760008773ffffffffffffffffffffffffffffffffffffffff1673ffffffffffffffffffffffffffffffffffffffff16815260200190815260200160002054600860008873ffffffffffffffffffffffffffffffffffffffff1673ffffffffffffffffffffffffffffffffffffffff1681526020019081526020016000208190555060006110c5600860008973ffffffffffffffffffffffffffffffffffffffff1673ffffffffffffffffffffffffffffffffffffffff16815260200190815260200160002054612e72565b905080600960008973ffffffffffffffffffffffffffffffffffffffff1673ffffffffffffffffffffffffffffffffffffffff168152602001908152602001600020819055506000600760008973ffffffffffffffffffffffffffffffffffffffff1673ffffffffffffffffffffffffffffffffffffffff168152602001908152602001600020819055505061119c565b6000600660008873ffffffffffffffffffffffffffffffffffffffff1673ffffffffffffffffffffffffffffffffffffffff168152602001908152602001600020819055505b6000600b60008873ffffffffffffffffffffffffffffffffffffffff1673ffffffffffffffffffffffffffffffffffffffff168152602001908152602001600020819055508573ffffffffffffffffffffffffffffffffffffffff168773ffffffffffffffffffffffffffffffffffffffff163373ffffffffffffffffffffffffffffffffffffffff167ffbde797d201c681b91056529119e0b02407c7bb96a4a2c75c01fc9667232c8db8b8c604051611257929190613f64565b60405180910390a4809450505050509392505050565b60008083116112b1576040517f08c379a00000000000000000000000000000000000000000000000000000000081526004016112a890613fd9565b60405180910390fd5b600073ffffffffffffffffffffffffffffffffffffffff168273ffffffffffffffffffffffffffffffffffffffff1603611320576040517f08c379a000000000000000000000000000000000000000000000000000000000815260040161131790613d82565b60405180910390fd5b61132983612949565b90507f000000000000000000000000000000000000000000000000000000000000000073ffffffffffffffffffffffffffffffffffffffff166323b872dd3330866040518463ffffffff1660e01b815260040161138893929190613ff9565b6020604051808303816000875af11580156113a7573d6000803e3d6000fd5b505050506040513d601f19601f820116820180604052508101906113cb9190613ecb565b61140a576040517f08c379a000000000000000000000000000000000000000000000000000000000815260040161140190613f44565b60405180910390fd5b80600660008473ffffffffffffffffffffffffffffffffffffffff1673ffffffffffffffffffffffffffffffffffffffff16815260200190815260200160002060008282546114599190613e42565b9250508190555082600760008473ffffffffffffffffffffffffffffffffffffffff1673ffffffffffffffffffffffffffffffffffffffff16815260200190815260200160002060008282546114af9190613e42565b925050819055506114c08282612f1a565b8173ffffffffffffffffffffffffffffffffffffffff167f73a19dd210f1a7f902193214c0ee91dd35ee5b4d920cba8d519eca65a7b488ca8283604051611508929190613f64565b60405180910390a28173ffffffffffffffffffffffffffffffffffffffff163373ffffffffffffffffffffffffffffffffffffffff167fdcbc1c05240f31ff3ad067ef1ee35ce4997762752e3a095284754544f4c709d7838460405161156f929190613f64565b60405180910390a392915050565b7ff912f62db71d01c572b28b6953c525851f9e0660df4e422cec986e620da726df60001b81565b60008060008373ffffffffffffffffffffffffffffffffffffffff1673ffffffffffffffffffffffffffffffffffffffff168152602001908152602001600020549050919050565b6115f4612f9c565b6115fe6000613023565b565b600b6020528060005260406000206000915090505481565b60096020528060005260406000206000915090505481565b6000600560009054906101000a900473ffffffffffffffffffffffffffffffffffffffff16905090565b600080831161169e576040517f08c379a00000000000000000000000000000000000000000000000000000000081526004016116959061407c565b60405180910390fd5b600073ffffffffffffffffffffffffffffffffffffffff168273ffffffffffffffffffffffffffffffffffffffff160361170d576040517f08c379a000000000000000000000000000000000000000000000000000000000815260040161170490613d82565b60405180910390fd5b611716836119a9565b90507f000000000000000000000000000000000000000000000000000000000000000073ffffffffffffffffffffffffffffffffffffffff166323b872dd3330846040518463ffffffff1660e01b815260040161177593929190613ff9565b6020604051808303816000875af1158015611794573d6000803e3d6000fd5b505050506040513d601f19601f820116820180604052508101906117b89190613ecb565b6117f7576040517f08c379a00000000000000000000000000000000000000000000000000000000081526004016117ee90613f44565b60405180910390fd5b82600660008473ffffffffffffffffffffffffffffffffffffffff1673ffffffffffffffffffffffffffffffffffffffff16815260200190815260200160002060008282546118469190613e42565b925050819055506118578284612f1a565b8173ffffffffffffffffffffffffffffffffffffffff163373ffffffffffffffffffffffffffffffffffffffff167fdcbc1c05240f31ff3ad067ef1ee35ce4997762752e3a095284754544f4c709d785866040516118b6929190613f64565b60405180910390a392915050565b6060600480546118d390613c99565b80601f01602080910402602001604051908101604052809291908181526020018280546118ff90613c99565b801561194c5780601f106119215761010080835404028352916020019161194c565b820191906000526020600020905b81548152906001019060200180831161192f57829003601f168201915b5050505050905090565b60086020528060005260406000206000915090505481565b600080611979612b95565b9050611986818585612c44565b600191505092915050565b60066020528060005260406000206000915090505481565b60006119b482612d38565b9050919050565b600a6020528060005260406000206000915090505481565b6000808411611a17576040517f08c379a0000000000000000000000000000000000000000000000000000000008152600401611a0e906140e8565b60405180910390fd5b600073ffffffffffffffffffffffffffffffffffffffff168373ffffffffffffffffffffffffffffffffffffffff1603611a86576040517f08c379a0000000000000000000000000000000000000000000000000000000008152600401611a7d90613d82565b60405180910390fd5b611a8f84610b2f565b90508173ffffffffffffffffffffffffffffffffffffffff163373ffffffffffffffffffffffffffffffffffffffff1614611b2d576000611ad08333612892565b905081811015611b15576040517f08c379a0000000000000000000000000000000000000000000000000000000008152600401611b0c90613dee565b60405180910390fd5b611b2b83338484611b269190613e0e565b612b9d565b505b611b378282612df0565b6000611b4285612d38565b90507f000000000000000000000000000000000000000000000000000000000000000073ffffffffffffffffffffffffffffffffffffffff1663a9059cbb85836040518363ffffffff1660e01b8152600401611b9f929190613e76565b6020604051808303816000875af1158015611bbe573d6000803e3d6000fd5b505050506040513d601f19601f82011682018060405250810190611be29190613ecb565b611c21576040517f08c379a0000000000000000000000000000000000000000000000000000000008152600401611c1890613f44565b60405180910390fd5b81600660008573ffffffffffffffffffffffffffffffffffffffff1673ffffffffffffffffffffffffffffffffffffffff1681526020019081526020016000205410611cc25781600660008573ffffffffffffffffffffffffffffffffffffffff1673ffffffffffffffffffffffffffffffffffffffff1681526020019081526020016000206000828254611cb69190613e0e565b92505081905550611d08565b6000600660008573ffffffffffffffffffffffffffffffffffffffff1673ffffffffffffffffffffffffffffffffffffffff168152602001908152602001600020819055505b8273ffffffffffffffffffffffffffffffffffffffff167f92ccf450a286a957af52509bc1c9939d1a6a481783e142e41e2499f0bb66ebc68684604051611d50929190613f64565b60405180910390a28273ffffffffffffffffffffffffffffffffffffffff168473ffffffffffffffffffffffffffffffffffffffff163373ffffffffffffffffffffffffffffffffffffffff167ffbde797d201c681b91056529119e0b02407c7bb96a4a2c75c01fc9667232c8db8886604051611dce929190613f64565b60405180910390a4509392505050565b6000808411611e22576040517f08c379a0000000000000000000000000000000000000000000000000000000008152600401611e1990613d16565b60405180910390fd5b600073ffffffffffffffffffffffffffffffffffffffff168373ffffffffffffffffffffffffffffffffffffffff1603611e91576040517f08c379a0000000000000000000000000000000000000000000000000000000008152600401611e8890613d82565b60405180910390fd5b8173ffffffffffffffffffffffffffffffffffffffff163373ffffffffffffffffffffffffffffffffffffffff1614611f2d576000611ed08333612892565b905084811015611f15576040517f08c379a0000000000000000000000000000000000000000000000000000000008152600401611f0c90613dee565b60405180910390fd5b611f2b83338784611f269190613e0e565b612b9d565b505b611f3684610be5565b9050611f428285612df0565b7f000000000000000000000000000000000000000000000000000000000000000073ffffffffffffffffffffffffffffffffffffffff1663a9059cbb84836040518363ffffffff1660e01b8152600401611f9d929190613e76565b6020604051808303816000875af1158015611fbc573d6000803e3d6000fd5b505050506040513d601f19601f82011682018060405250810190611fe09190613ecb565b61201f576040517f08c379a000000000000000000000000000000000000000000000000000000000815260040161201690613f44565b60405180910390fd5b83600660008473ffffffffffffffffffffffffffffffffffffffff1673ffffffffffffffffffffffffffffffffffffffff168152602001908152602001600020541061226f5783600660008473ffffffffffffffffffffffffffffffffffffffff1673ffffffffffffffffffffffffffffffffffffffff16815260200190815260200160002060008282546120b49190613e0e565b9250508190555080600760008473ffffffffffffffffffffffffffffffffffffffff1673ffffffffffffffffffffffffffffffffffffffff168152602001908152602001600020600082825461210a9190613e0e565b92505081905550600760008373ffffffffffffffffffffffffffffffffffffffff1673ffffffffffffffffffffffffffffffffffffffff16815260200190815260200160002054600860008473ffffffffffffffffffffffffffffffffffffffff1673ffffffffffffffffffffffffffffffffffffffff1681526020019081526020016000208190555060006121de600860008573ffffffffffffffffffffffffffffffffffffffff1673ffffffffffffffffffffffffffffffffffffffff16815260200190815260200160002054612e72565b905080600960008573ffffffffffffffffffffffffffffffffffffffff1673ffffffffffffffffffffffffffffffffffffffff168152602001908152602001600020819055506000600760008573ffffffffffffffffffffffffffffffffffffffff1673ffffffffffffffffffffffffffffffffffffffff16815260200190815260200160002081905550506122b5565b6000600660008473ffffffffffffffffffffffffffffffffffffffff1673ffffffffffffffffffffffffffffffffffffffff168152602001908152602001600020819055505b8173ffffffffffffffffffffffffffffffffffffffff168373ffffffffffffffffffffffffffffffffffffffff163373ffffffffffffffffffffffffffffffffffffffff167ffbde797d201c681b91056529119e0b02407c7bb96a4a2c75c01fc9667232c8db878860405161232b929190613f64565b60405180910390a49392505050565b6000807f000000000000000000000000000000000000000000000000000000000000000073ffffffffffffffffffffffffffffffffffffffff166370a08231306040518263ffffffff1660e01b81526004016123969190613a68565b602060405180830381865afa1580156123b3573d6000803e3d6000fd5b505050506040513d601f19601f820116820180604052508101906123d79190613bcc565b905060006123eb6123e6610b39565b612d38565b90508082111561240a5780826124019190613e0e565b92505050612411565b6000925050505b90565b6000807314751f624968372878cde4238e84fb3d980c4f0573ffffffffffffffffffffffffffffffffffffffff16633859a1a27ff912f62db71d01c572b28b6953c525851f9e0660df4e422cec986e620da726df60001b856040518363ffffffff1660e01b8152600401612489929190614108565b602060405180830381865afa1580156124a6573d6000803e3d6000fd5b505050506040513d601f19601f820116820180604052508101906124ca9190613bcc565b9050600081036124de5760009150506125f0565b6000739f4b138bf3513866153af9f0a2794096dfebfad473ffffffffffffffffffffffffffffffffffffffff1663a035b1fe6040518163ffffffff1660e01b8152600401602060405180830381865afa15801561253f573d6000803e3d6000fd5b505050506040513d601f19601f820116820180604052508101906125639190613bcc565b90506000816ec097ce7bc90715b34b9f1000000000846125839190613c28565b61258d9190614160565b9050600064e8d4a51000826125a29190613c28565b905080600b60008873ffffffffffffffffffffffffffffffffffffffff1673ffffffffffffffffffffffffffffffffffffffff16815260200190815260200160002081905550809450505050505b919050565b60007fffffffffffffffffffffffffffffffffffffffffffffffffffffffffffffffff9050919050565b6000819050919050565b600061263e612637836115a4565b60006130e9565b9050919050565b6000612650826115a4565b9050919050565b61265f612f9c565b600082116126a2576040517f08c379a0000000000000000000000000000000000000000000000000000000008152600401612699906140e8565b60405180910390fd5b600073ffffffffffffffffffffffffffffffffffffffff168173ffffffffffffffffffffffffffffffffffffffff1603612711576040517f08c379a0000000000000000000000000000000000000000000000000000000008152600401612708906141dd565b60405180910390fd5b600061271b61233a565b905080831115612760576040517f08c379a000000000000000000000000000000000000000000000000000000000815260040161275790614249565b60405180910390fd5b7f000000000000000000000000000000000000000000000000000000000000000073ffffffffffffffffffffffffffffffffffffffff1663a9059cbb83856040518363ffffffff1660e01b81526004016127bb929190613e76565b6020604051808303816000875af11580156127da573d6000803e3d6000fd5b505050506040513d601f19601f820116820180604052508101906127fe9190613ecb565b61283d576040517f08c379a000000000000000000000000000000000000000000000000000000000815260040161283490613f44565b60405180910390fd5b8173ffffffffffffffffffffffffffffffffffffffff167f2bf878084037ba4fb4363629d72708a5bb8e8e0de5af9fe03d987d5289f6f4a28442604051612885929190613f64565b60405180910390a2505050565b6000600160008473ffffffffffffffffffffffffffffffffffffffff1673ffffffffffffffffffffffffffffffffffffffff16815260200190815260200160002060008373ffffffffffffffffffffffffffffffffffffffff1673ffffffffffffffffffffffffffffffffffffffff16815260200190815260200160002054905092915050565b7314751f624968372878cde4238e84fb3d980c4f0581565b739f4b138bf3513866153af9f0a2794096dfebfad481565b600061295482613142565b9050919050565b612963612f9c565b600073ffffffffffffffffffffffffffffffffffffffff168173ffffffffffffffffffffffffffffffffffffffff16036129d55760006040517f1e4fbdf70000000000000000000000000000000000000000000000000000000081526004016129cc9190613a68565b60405180910390fd5b6129de81613023565b50565b6129e9612f9c565b600073ffffffffffffffffffffffffffffffffffffffff168173ffffffffffffffffffffffffffffffffffffffff1603612a58576040517f08c379a0000000000000000000000000000000000000000000000000000000008152600401612a4f906141dd565b60405180910390fd5b6000612a6261233a565b90507f000000000000000000000000000000000000000000000000000000000000000073ffffffffffffffffffffffffffffffffffffffff1663a9059cbb83836040518363ffffffff1660e01b8152600401612abf929190613e76565b6020604051808303816000875af1158015612ade573d6000803e3d6000fd5b505050506040513d601f19601f82011682018060405250810190612b029190613ecb565b612b41576040517f08c379a0000000000000000000000000000000000000000000000000000000008152600401612b3890613f44565b60405180910390fd5b8173ffffffffffffffffffffffffffffffffffffffff167f2bf878084037ba4fb4363629d72708a5bb8e8e0de5af9fe03d987d5289f6f4a28242604051612b89929190613f64565b60405180910390a25050565b600033905090565b612baa83838360016131fa565b505050565b6000612bbb8484612892565b90507fffffffffffffffffffffffffffffffffffffffffffffffffffffffffffffffff811015612c3e5781811015612c2e578281836040517ffb8f41b2000000000000000000000000000000000000000000000000000000008152600401612c2593929190614269565b60405180910390fd5b612c3d848484840360006131fa565b5b50505050565b600073ffffffffffffffffffffffffffffffffffffffff168373ffffffffffffffffffffffffffffffffffffffff1603612cb65760006040517f96c6fd1e000000000000000000000000000000000000000000000000000000008152600401612cad9190613a68565b60405180910390fd5b600073ffffffffffffffffffffffffffffffffffffffff168273ffffffffffffffffffffffffffffffffffffffff1603612d285760006040517fec442f05000000000000000000000000000000000000000000000000000000008152600401612d1f9190613a68565b60405180910390fd5b612d338383836133d1565b505050565b60008064e8d4a5100083612d4c9190614160565b90507f000000000000000000000000000000000000000000000000000000000000000073ffffffffffffffffffffffffffffffffffffffff1663c6e6f592826040518263ffffffff1660e01b8152600401612da791906137d0565b602060405180830381865afa158015612dc4573d6000803e3d6000fd5b505050506040513d601f19601f82011682018060405250810190612de89190613bcc565b915050919050565b600073ffffffffffffffffffffffffffffffffffffffff168273ffffffffffffffffffffffffffffffffffffffff1603612e625760006040517f96c6fd1e000000000000000000000000000000000000000000000000000000008152600401612e599190613a68565b60405180910390fd5b612e6e826000836133d1565b5050565b6000807f000000000000000000000000000000000000000000000000000000000000000073ffffffffffffffffffffffffffffffffffffffff166307a2d13a846040518263ffffffff1660e01b8152600401612ece91906137d0565b602060405180830381865afa158015612eeb573d6000803e3d6000fd5b505050506040513d601f19601f82011682018060405250810190612f0f9190613bcc565b905080915050919050565b600073ffffffffffffffffffffffffffffffffffffffff168273ffffffffffffffffffffffffffffffffffffffff1603612f8c5760006040517fec442f05000000000000000000000000000000000000000000000000000000008152600401612f839190613a68565b60405180910390fd5b612f98600083836133d1565b5050565b612fa4612b95565b73ffffffffffffffffffffffffffffffffffffffff16612fc2611630565b73ffffffffffffffffffffffffffffffffffffffff161461302157612fe5612b95565b6040517f118cdaa70000000000000000000000000000000000000000000000000000000081526004016130189190613a68565b60405180910390fd5b565b6000600560009054906101000a900473ffffffffffffffffffffffffffffffffffffffff16905081600560006101000a81548173ffffffffffffffffffffffffffffffffffffffff021916908373ffffffffffffffffffffffffffffffffffffffff1602179055508173ffffffffffffffffffffffffffffffffffffffff168173ffffffffffffffffffffffffffffffffffffffff167f8be0079c531659141344cd1fd0a4f28419497f9722a3daafe3b4186f6b6457e060405160405180910390a35050565b600061313a60016130f861091b565b6131029190613e42565b61310a6135f6565b600a61311691906143d3565b61311e610b39565b6131289190613e42565b84866135fb909392919063ffffffff16565b905092915050565b6000807f000000000000000000000000000000000000000000000000000000000000000073ffffffffffffffffffffffffffffffffffffffff166307a2d13a846040518263ffffffff1660e01b815260040161319e91906137d0565b602060405180830381865afa1580156131bb573d6000803e3d6000fd5b505050506040513d601f19601f820116820180604052508101906131df9190613bcc565b905064e8d4a51000816131f29190613c28565b915050919050565b600073ffffffffffffffffffffffffffffffffffffffff168473ffffffffffffffffffffffffffffffffffffffff160361326c5760006040517fe602df050000000000000000000000000000000000000000000000000000000081526004016132639190613a68565b60405180910390fd5b600073ffffffffffffffffffffffffffffffffffffffff168373ffffffffffffffffffffffffffffffffffffffff16036132de5760006040517f94280d620000000000000000000000000000000000000000000000000000000081526004016132d59190613a68565b60405180910390fd5b81600160008673ffffffffffffffffffffffffffffffffffffffff1673ffffffffffffffffffffffffffffffffffffffff16815260200190815260200160002060008573ffffffffffffffffffffffffffffffffffffffff1673ffffffffffffffffffffffffffffffffffffffff1681526020019081526020016000208190555080156133cb578273ffffffffffffffffffffffffffffffffffffffff168473ffffffffffffffffffffffffffffffffffffffff167f8c5be1e5ebec7d5bd14f71427d1e84f3dd0314c0f7b2291e5b200ac8c7c3b925846040516133c291906137d0565b60405180910390a35b50505050565b600073ffffffffffffffffffffffffffffffffffffffff168373ffffffffffffffffffffffffffffffffffffffff16036134235780600260008282546134179190613e42565b925050819055506134f6565b60008060008573ffffffffffffffffffffffffffffffffffffffff1673ffffffffffffffffffffffffffffffffffffffff168152602001908152602001600020549050818110156134af578381836040517fe450d38c0000000000000000000000000000000000000000000000000000000081526004016134a693929190614269565b60405180910390fd5b8181036000808673ffffffffffffffffffffffffffffffffffffffff1673ffffffffffffffffffffffffffffffffffffffff16815260200190815260200160002081905550505b600073ffffffffffffffffffffffffffffffffffffffff168273ffffffffffffffffffffffffffffffffffffffff160361353f578060026000828254039250508190555061358c565b806000808473ffffffffffffffffffffffffffffffffffffffff1673ffffffffffffffffffffffffffffffffffffffff168152602001908152602001600020600082825401925050819055505b8173ffffffffffffffffffffffffffffffffffffffff168373ffffffffffffffffffffffffffffffffffffffff167fddf252ad1be2c89b69c2b068fc378daa952ba7f163c4a11628f55a4df523b3ef836040516135e991906137d0565b60405180910390a3505050565b600090565b600061362b6136098361364a565b801561362657506000848061362157613620614131565b5b868809115b613678565b613636868686613684565b6136409190613e42565b9050949350505050565b6000600160028360038111156136635761366261441e565b5b61366d919061444d565b60ff16149050919050565b60008115159050919050565b6000806000613693868661376c565b91509150600082036136b9578381816136af576136ae614131565b5b0492505050613765565b8184116136d9576136d86136d3600086146012601161378b565b6137a5565b5b600084868809905081811183039250808203915060008560000386169050808604955080830492506001818260000304019050808402831792506000600287600302189050808702600203810290508087026002038102905080870260020381029050808702600203810290508087026002038102905080870260020381029050808402955050505050505b9392505050565b6000806000198385098385029150818110828203039250509250929050565b600061379684613678565b82841802821890509392505050565b634e487b71600052806020526024601cfd5b6000819050919050565b6137ca816137b7565b82525050565b60006020820190506137e560008301846137c1565b92915050565b600081519050919050565b600082825260208201905092915050565b60005b8381101561382557808201518184015260208101905061380a565b60008484015250505050565b6000601f19601f8301169050919050565b600061384d826137eb565b61385781856137f6565b9350613867818560208601613807565b61387081613831565b840191505092915050565b600060208201905081810360008301526138958184613842565b905092915050565b600080fd5b6138ab816137b7565b81146138b657600080fd5b50565b6000813590506138c8816138a2565b92915050565b6000602082840312156138e4576138e361389d565b5b60006138f2848285016138b9565b91505092915050565b600073ffffffffffffffffffffffffffffffffffffffff82169050919050565b6000613926826138fb565b9050919050565b6139368161391b565b811461394157600080fd5b50565b6000813590506139538161392d565b92915050565b600080604083850312156139705761396f61389d565b5b600061397e85828601613944565b925050602061398f858286016138b9565b9150509250929050565b60008115159050919050565b6139ae81613999565b82525050565b60006020820190506139c960008301846139a5565b92915050565b6000806000606084860312156139e8576139e761389d565b5b60006139f686828701613944565b9350506020613a0786828701613944565b9250506040613a18868287016138b9565b9150509250925092565b600060ff82169050919050565b613a3881613a22565b82525050565b6000602082019050613a536000830184613a2f565b92915050565b613a628161391b565b82525050565b6000602082019050613a7d6000830184613a59565b92915050565b600060208284031215613a9957613a9861389d565b5b6000613aa784828501613944565b91505092915050565b600080600060608486031215613ac957613ac861389d565b5b6000613ad7868287016138b9565b9350506020613ae886828701613944565b9250506040613af986828701613944565b9150509250925092565b60008060408385031215613b1a57613b1961389d565b5b6000613b28858286016138b9565b9250506020613b3985828601613944565b9150509250929050565b6000819050919050565b613b5681613b43565b82525050565b6000602082019050613b716000830184613b4d565b92915050565b60008060408385031215613b8e57613b8d61389d565b5b6000613b9c85828601613944565b9250506020613bad85828601613944565b9150509250929050565b600081519050613bc6816138a2565b92915050565b600060208284031215613be257613be161389d565b5b6000613bf084828501613bb7565b91505092915050565b7f4e487b7100000000000000000000000000000000000000000000000000000000600052601160045260246000fd5b6000613c33826137b7565b9150613c3e836137b7565b9250828202613c4c816137b7565b91508282048414831517613c6357613c62613bf9565b5b5092915050565b7f4e487b7100000000000000000000000000000000000000000000000000000000600052602260045260246000fd5b60006002820490506001821680613cb157607f821691505b602082108103613cc457613cc3613c6a565b5b50919050565b7f43616e6e6f742072656465656d207a65726f0000000000000000000000000000600082015250565b6000613d006012836137f6565b9150613d0b82613cca565b602082019050919050565b60006020820190508181036000830152613d2f81613cf3565b9050919050565b7f496e76616c696420726563656976657200000000000000000000000000000000600082015250565b6000613d6c6010836137f6565b9150613d7782613d36565b602082019050919050565b60006020820190508181036000830152613d9b81613d5f565b9050919050565b7f496e73756666696369656e7420616c6c6f77616e636500000000000000000000600082015250565b6000613dd86016836137f6565b9150613de382613da2565b602082019050919050565b60006020820190508181036000830152613e0781613dcb565b9050919050565b6000613e19826137b7565b9150613e24836137b7565b9250828203905081811115613e3c57613e3b613bf9565b5b92915050565b6000613e4d826137b7565b9150613e58836137b7565b9250828201905080821115613e7057613e6f613bf9565b5b92915050565b6000604082019050613e8b6000830185613a59565b613e9860208301846137c1565b9392505050565b613ea881613999565b8114613eb357600080fd5b50565b600081519050613ec581613e9f565b92915050565b600060208284031215613ee157613ee061389d565b5b6000613eef84828501613eb6565b91505092915050565b7f5472616e73666572206661696c65640000000000000000000000000000000000600082015250565b6000613f2e600f836137f6565b9150613f3982613ef8565b602082019050919050565b60006020820190508181036000830152613f5d81613f21565b9050919050565b6000604082019050613f7960008301856137c1565b613f8660208301846137c1565b9392505050565b7f43616e6e6f74206465706f736974207a65726f00000000000000000000000000600082015250565b6000613fc36013836137f6565b9150613fce82613f8d565b602082019050919050565b60006020820190508181036000830152613ff281613fb6565b9050919050565b600060608201905061400e6000830186613a59565b61401b6020830185613a59565b61402860408301846137c1565b949350505050565b7f43616e6e6f74206d696e74207a65726f00000000000000000000000000000000600082015250565b60006140666010836137f6565b915061407182614030565b602082019050919050565b6000602082019050818103600083015261409581614059565b9050919050565b7f43616e6e6f74207769746864726177207a65726f000000000000000000000000600082015250565b60006140d26014836137f6565b91506140dd8261409c565b602082019050919050565b60006020820190508181036000830152614101816140c5565b9050919050565b600060408201905061411d6000830185613b4d565b61412a6020830184613a59565b9392505050565b7f4e487b7100000000000000000000000000000000000000000000000000000000600052601260045260246000fd5b600061416b826137b7565b9150614176836137b7565b92508261418657614185614131565b5b828204905092915050565b7f496e76616c696420726563697069656e74000000000000000000000000000000600082015250565b60006141c76011836137f6565b91506141d282614191565b602082019050919050565b600060208201905081810360008301526141f6816141ba565b9050919050565b7f496e73756666696369656e7420616363756d756c61746564207969656c640000600082015250565b6000614233601e836137f6565b915061423e826141fd565b602082019050919050565b6000602082019050818103600083015261426281614226565b9050919050565b600060608201905061427e6000830186613a59565b61428b60208301856137c1565b61429860408301846137c1565b949350505050565b60008160011c9050919050565b6000808291508390505b60018511156142f7578086048111156142d3576142d2613bf9565b5b60018516156142e25780820291505b80810290506142f0856142a0565b94506142b7565b94509492505050565b60008261431057600190506143cc565b8161431e57600090506143cc565b8160018114614334576002811461433e5761436d565b60019150506143cc565b60ff8411156143505761434f613bf9565b5b8360020a91508482111561436757614366613bf9565b5b506143cc565b5060208310610133831016604e8410600b84101617156143a25782820a90508381111561439d5761439c613bf9565b5b6143cc565b6143af84848460016142ad565b925090508184048111156143c6576143c5613bf9565b5b81810290505b9392505050565b60006143de826137b7565b91506143e983613a22565b92506144167fffffffffffffffffffffffffffffffffffffffffffffffffffffffffffffffff8484614300565b905092915050565b7f4e487b7100000000000000000000000000000000000000000000000000000000600052602160045260246000fd5b600061445882613a22565b915061446383613a22565b92508261447357614472614131565b5b82820690509291505056fea26469706673582212205488467c77bb0131a67135e8e128f51cb42367f8a72717bb7b127daa0e00a57064736f6c63430008140033",
  "linkReferences": {},
  "deployedLinkReferences": {}
}