{
  "_format": "hh-sol-artifact-1",
  "contractName": "MXNBFaucet",
  "sourceName": "contracts/MXNBFaucet.sol",
  "abi": [
    {
      "inputs": [
        {
          "internalType": "address",
          "name": "_mxnbToken",
          "type": "address"
        }
      ],
      "stateMutability": "nonpayable",
      "type": "constructor"
    },
    {
      "inputs": [
        {
          "internalType": "address",
          "name": "owner",
          "type": "address"
        }
      ],
      "name": "OwnableInvalidOwner",
      "type": "error"
    },
    {
      "inputs": [
        {
          "internalType": "address",
          "name": "account",
          "type": "address"
        }
      ],
      "name": "OwnableUnauthorizedAccount",
      "type": "error"
    },
    {
      "anonymous": false,
      "inputs": [
        {
          "indexed": true,
          "internalType": "address",
          "name": "to",
          "type": "address"
        },
        {
          "indexed": false,
          "internalType": "uint256",
          "name": "amount",
          "type": "uint256"
        }
      ],
      "name": "EthWithdrawn",
      "type": "event"
    },
    {
      "anonymous": false,
      "inputs": [
        {
          "indexed": true,
          "internalType": "address",
          "name": "to",
          "type": "address"
        },
        {
          "indexed": false,
          "internalType": "uint256",
          "name": "amount",
          "type": "uint256"
        }
      ],
      "name": "MxnbWithdrawn",
      "type": "event"
    },
    {
      "anonymous": false,
      "inputs": [
        {
          "indexed": true,
          "internalType": "address",
          "name": "previousOwner",
          "type": "address"
        },
        {
          "indexed": true,
          "internalType": "address",
          "name": "newOwner",
          "type": "address"
        }
      ],
      "name": "OwnershipTransferred",
      "type": "event"
    },
    {
      "anonymous": false,
      "inputs": [
        {
          "indexed": true,
          "internalType": "address",
          "name": "user",
          "type": "address"
        },
        {
          "indexed": false,
          "internalType": "uint256",
          "name": "ethAmount",
          "type": "uint256"
        },
        {
          "indexed": false,
          "internalType": "uint256",
          "name": "mxnbAmount",
          "type": "uint256"
        }
      ],
      "name": "Swapped",
      "type": "event"
    },
    {
      "inputs": [],
      "name": "EXCHANGE_RATE",
      "outputs": [
        {
          "internalType": "uint256",
          "name": "",
          "type": "uint256"
        }
      ],
      "stateMutability": "view",
      "type": "function"
    },
    {
      "inputs": [],
      "name": "MAX_PER_WALLET",
      "outputs": [
        {
          "internalType": "uint256",
          "name": "",
          "type": "uint256"
        }
      ],
      "stateMutability": "view",
      "type": "function"
    },
    {
      "inputs": [
        {
          "internalType": "address",
          "name": "",
          "type": "address"
        }
      ],
      "name": "claimedAmount",
      "outputs": [
        {
          "internalType": "uint256",
          "name": "",
          "type": "uint256"
        }
      ],
      "stateMutability": "view",
      "type": "function"
    },
    {
      "inputs": [
        {
          "internalType": "address",
          "name": "user",
          "type": "address"
        }
      ],
      "name": "getRemainingClaim",
      "outputs": [
        {
          "internalType": "uint256",
          "name": "",
          "type": "uint256"
        }
      ],
      "stateMutability": "view",
      "type": "function"
    },
    {
      "inputs": [],
      "name": "mxnbToken",
      "outputs": [
        {
          "internalType": "contract IERC20",
          "name": "",
          "type": "address"
        }
      ],
      "stateMutability": "view",
      "type": "function"
    },
    {
      "inputs": [],
      "name": "owner",
      "outputs": [
        {
          "internalType": "address",
          "name": "",
          "type": "address"
        }
      ],
      "stateMutability": "view",
      "type": "function"
    },
    {
      "inputs": [],
      "name": "renounceOwnership",
      "outputs": [],
      "stateMutability": "nonpayable",
      "type": "function"
    },
    {
      "inputs": [],
      "name": "swapEthForMxnb",
      "outputs": [],
      "stateMutability": "payable",
      "type": "function"
    },
    {
      "inputs": [],
      "name": "totalEthReceived",
      "outputs": [
        {
          "internalType": "uint256",
          "name": "",
          "type": "uint256"
        }
      ],
      "stateMutability": "view",
      "type": "function"
    },
    {
      "inputs": [],
      "name": "totalMxnbDistributed",
      "outputs": [
        {
          "internalType": "uint256",
          "name": "",
          "type": "uint256"
        }
      ],
      "stateMutability": "view",
      "type": "function"
    },
    {
      "inputs": [
        {
          "internalType": "address",
          "name": "newOwner",
          "type": "address"
        }
      ],
      "name": "transferOwnership",
      "outputs": [],
      "stateMutability": "nonpayable",
      "type": "function"
    },
    {
      "inputs": [
        {
          "internalType": "address payable",
          "name": "to",
          "type": "address"
        },
        {
          "internalType": "uint256",
          "name": "amount",
          "type": "uint256"
        }
      ],
      "name": "withdrawEth",
      "outputs": [],
      "stateMutability": "nonpayable",
      "type": "function"
    },
    {
      "inputs": [],
      "name": "withdrawEthToSelf",
      "outputs": [],
      "stateMutability": "payable",
      "type": "function"
    },
    {
      "inputs": [
        {
          "internalType": "address",
          "name": "to",
          "type": "address"
        },
        {
          "internalType": "uint256",
          "name": "amount",
          "type": "uint256"
        }
      ],
      "name": "withdrawMxnb",
      "outputs": [],
      "stateMutability": "nonpayable",
      "type": "function"
    },
    {
      "stateMutability": "payable",
      "type": "receive"
    }
  ],
  "bytecode": "0x60806040523480156200001157600080fd5b5060405162001a1738038062001a178339818101604052810190620000379190620002a7565b33600073ffffffffffffffffffffffffffffffffffffffff168173ffffffffffffffffffffffffffffffffffffffff1603620000ad5760006040517f1e4fbdf7000000000000000000000000000000000000000000000000000000008152600401620000a49190620002ea565b60405180910390fd5b620000be816200017960201b60201c565b50600073ffffffffffffffffffffffffffffffffffffffff168173ffffffffffffffffffffffffffffffffffffffff160362000131576040517f08c379a0000000000000000000000000000000000000000000000000000000008152600401620001289062000368565b60405180910390fd5b80600160006101000a81548173ffffffffffffffffffffffffffffffffffffffff021916908373ffffffffffffffffffffffffffffffffffffffff160217905550506200038a565b60008060009054906101000a900473ffffffffffffffffffffffffffffffffffffffff169050816000806101000a81548173ffffffffffffffffffffffffffffffffffffffff021916908373ffffffffffffffffffffffffffffffffffffffff1602179055508173ffffffffffffffffffffffffffffffffffffffff168173ffffffffffffffffffffffffffffffffffffffff167f8be0079c531659141344cd1fd0a4f28419497f9722a3daafe3b4186f6b6457e060405160405180910390a35050565b600080fd5b600073ffffffffffffffffffffffffffffffffffffffff82169050919050565b60006200026f8262000242565b9050919050565b620002818162000262565b81146200028d57600080fd5b50565b600081519050620002a18162000276565b92915050565b600060208284031215620002c057620002bf6200023d565b5b6000620002d08482850162000290565b91505092915050565b620002e48162000262565b82525050565b6000602082019050620003016000830184620002d9565b92915050565b600082825260208201905092915050565b7f496e76616c6964204d584e4220746f6b656e2061646472657373000000000000600082015250565b600062000350601a8362000307565b91506200035d8262000318565b602082019050919050565b60006020820190508181036000830152620003838162000341565b9050919050565b61167d806200039a6000396000f3fe6080604052600436106100e15760003560e01c806344b3c2ff1161007f5780638da5cb5b116100595780638da5cb5b1461028e578063a9a18dda146102b9578063f2fde38b146102e4578063fb27a8a21461030d576100f0565b806344b3c2ff14610242578063715018a61461024c5780637fcd218914610263576100f0565b806315366ee9116100bb57806315366ee9146101885780631b9a91a4146101c55780632b52e308146101ee5780634043cd9514610217576100f0565b806304e86903146100f55780630f2cdd6c1461013257806314a8bd0d1461015d576100f0565b366100f0576100ee610317565b005b600080fd5b34801561010157600080fd5b5061011c60048036038101906101179190610e49565b6106a6565b6040516101299190610e8f565b60405180910390f35b34801561013e57600080fd5b506101476106be565b6040516101549190610e8f565b60405180910390f35b34801561016957600080fd5b506101726106c7565b60405161017f9190610e8f565b60405180910390f35b34801561019457600080fd5b506101af60048036038101906101aa9190610e49565b6106d0565b6040516101bc9190610e8f565b60405180910390f35b3480156101d157600080fd5b506101ec60048036038101906101e79190610f14565b610745565b005b3480156101fa57600080fd5b5061021560048036038101906102109190610f54565b6108fe565b005b34801561022357600080fd5b5061022c610b8a565b6040516102399190610ff3565b60405180910390f35b61024a610bb0565b005b34801561025857600080fd5b50610261610bba565b005b34801561026f57600080fd5b50610278610bce565b6040516102859190610e8f565b60405180910390f35b34801561029a57600080fd5b506102a3610bd4565b6040516102b0919061101d565b60405180910390f35b3480156102c557600080fd5b506102ce610bfd565b6040516102db9190610e8f565b60405180910390f35b3480156102f057600080fd5b5061030b60048036038101906103069190610e49565b610c03565b005b610315610c89565b005b6000341161035a576040517f08c379a000000000000000000000000000000000000000000000000000000000815260040161035190611095565b60405180910390fd5b6000670de0b6b3a76400006407cfab21703461037691906110e4565b6103809190611155565b9050600081600260003373ffffffffffffffffffffffffffffffffffffffff1673ffffffffffffffffffffffffffffffffffffffff168152602001908152602001600020546103cf9190611186565b90506404a817c800811115610419576040517f08c379a00000000000000000000000000000000000000000000000000000000081526004016104109061122c565b60405180910390fd5b6000600160009054906101000a900473ffffffffffffffffffffffffffffffffffffffff1673ffffffffffffffffffffffffffffffffffffffff166370a08231306040518263ffffffff1660e01b8152600401610476919061101d565b602060405180830381865afa158015610493573d6000803e3d6000fd5b505050506040513d601f19601f820116820180604052508101906104b79190611261565b9050828110156104fc576040517f08c379a00000000000000000000000000000000000000000000000000000000081526004016104f3906112da565b60405180910390fd5b81600260003373ffffffffffffffffffffffffffffffffffffffff1673ffffffffffffffffffffffffffffffffffffffff1681526020019081526020016000208190555034600360008282546105529190611186565b92505081905550826004600082825461056b9190611186565b92505081905550600160009054906101000a900473ffffffffffffffffffffffffffffffffffffffff1673ffffffffffffffffffffffffffffffffffffffff1663a9059cbb33856040518363ffffffff1660e01b81526004016105cf9291906112fa565b6020604051808303816000875af11580156105ee573d6000803e3d6000fd5b505050506040513d601f19601f82011682018060405250810190610612919061135b565b610651576040517f08c379a0000000000000000000000000000000000000000000000000000000008152600401610648906113d4565b60405180910390fd5b3373ffffffffffffffffffffffffffffffffffffffff167f3a9a9f34f5831e9c8ecb66ab3aa308b2ff31eaca434615f6c9cadc656a9af71c34856040516106999291906113f4565b60405180910390a2505050565b60026020528060005260406000206000915090505481565b6404a817c80081565b6407cfab217081565b600080600260008473ffffffffffffffffffffffffffffffffffffffff1673ffffffffffffffffffffffffffffffffffffffff1681526020019081526020016000205490506404a817c800811061072b576000915050610740565b806404a817c80061073c919061141d565b9150505b919050565b61074d610c93565b600073ffffffffffffffffffffffffffffffffffffffff168273ffffffffffffffffffffffffffffffffffffffff16036107bc576040517f08c379a00000000000000000000000000000000000000000000000000000000081526004016107b39061149d565b60405180910390fd5b478111156107ff576040517f08c379a00000000000000000000000000000000000000000000000000000000081526004016107f690611509565b60405180910390fd5b60008273ffffffffffffffffffffffffffffffffffffffff16826040516108259061155a565b60006040518083038185875af1925050503d8060008114610862576040519150601f19603f3d011682016040523d82523d6000602084013e610867565b606091505b50509050806108ab576040517f08c379a00000000000000000000000000000000000000000000000000000000081526004016108a2906115bb565b60405180910390fd5b8273ffffffffffffffffffffffffffffffffffffffff167f8455ae6be5d92f1df1c3c1484388e247a36c7e60d72055ae216dbc258f257d4b836040516108f19190610e8f565b60405180910390a2505050565b610906610c93565b600073ffffffffffffffffffffffffffffffffffffffff168273ffffffffffffffffffffffffffffffffffffffff1603610975576040517f08c379a000000000000000000000000000000000000000000000000000000000815260040161096c9061149d565b60405180910390fd5b6000600160009054906101000a900473ffffffffffffffffffffffffffffffffffffffff1673ffffffffffffffffffffffffffffffffffffffff166370a08231306040518263ffffffff1660e01b81526004016109d2919061101d565b602060405180830381865afa1580156109ef573d6000803e3d6000fd5b505050506040513d601f19601f82011682018060405250810190610a139190611261565b905080821115610a58576040517f08c379a0000000000000000000000000000000000000000000000000000000008152600401610a4f90611627565b60405180910390fd5b600160009054906101000a900473ffffffffffffffffffffffffffffffffffffffff1673ffffffffffffffffffffffffffffffffffffffff1663a9059cbb84846040518363ffffffff1660e01b8152600401610ab59291906112fa565b6020604051808303816000875af1158015610ad4573d6000803e3d6000fd5b505050506040513d601f19601f82011682018060405250810190610af8919061135b565b610b37576040517f08c379a0000000000000000000000000000000000000000000000000000000008152600401610b2e906113d4565b60405180910390fd5b8273ffffffffffffffffffffffffffffffffffffffff167f420b2f020132c3ffd0a4f84d11cfcd31b4f87ffcb0db6682eb982b42bd9e43a983604051610b7d9190610e8f565b60405180910390a2505050565b600160009054906101000a900473ffffffffffffffffffffffffffffffffffffffff1681565b610bb8610c93565b565b610bc2610c93565b610bcc6000610d1a565b565b60045481565b60008060009054906101000a900473ffffffffffffffffffffffffffffffffffffffff16905090565b60035481565b610c0b610c93565b600073ffffffffffffffffffffffffffffffffffffffff168173ffffffffffffffffffffffffffffffffffffffff1603610c7d5760006040517f1e4fbdf7000000000000000000000000000000000000000000000000000000008152600401610c74919061101d565b60405180910390fd5b610c8681610d1a565b50565b610c91610317565b565b610c9b610dde565b73ffffffffffffffffffffffffffffffffffffffff16610cb9610bd4565b73ffffffffffffffffffffffffffffffffffffffff1614610d1857610cdc610dde565b6040517f118cdaa7000000000000000000000000000000000000000000000000000000008152600401610d0f919061101d565b60405180910390fd5b565b60008060009054906101000a900473ffffffffffffffffffffffffffffffffffffffff169050816000806101000a81548173ffffffffffffffffffffffffffffffffffffffff021916908373ffffffffffffffffffffffffffffffffffffffff1602179055508173ffffffffffffffffffffffffffffffffffffffff168173ffffffffffffffffffffffffffffffffffffffff167f8be0079c531659141344cd1fd0a4f28419497f9722a3daafe3b4186f6b6457e060405160405180910390a35050565b600033905090565b600080fd5b600073ffffffffffffffffffffffffffffffffffffffff82169050919050565b6000610e1682610deb565b9050919050565b610e2681610e0b565b8114610e3157600080fd5b50565b600081359050610e4381610e1d565b92915050565b600060208284031215610e5f57610e5e610de6565b5b6000610e6d84828501610e34565b91505092915050565b6000819050919050565b610e8981610e76565b82525050565b6000602082019050610ea46000830184610e80565b92915050565b6000610eb582610deb565b9050919050565b610ec581610eaa565b8114610ed057600080fd5b50565b600081359050610ee281610ebc565b92915050565b610ef181610e76565b8114610efc57600080fd5b50565b600081359050610f0e81610ee8565b92915050565b60008060408385031215610f2b57610f2a610de6565b5b6000610f3985828601610ed3565b9250506020610f4a85828601610eff565b9150509250929050565b60008060408385031215610f6b57610f6a610de6565b5b6000610f7985828601610e34565b9250506020610f8a85828601610eff565b9150509250929050565b6000819050919050565b6000610fb9610fb4610faf84610deb565b610f94565b610deb565b9050919050565b6000610fcb82610f9e565b9050919050565b6000610fdd82610fc0565b9050919050565b610fed81610fd2565b82525050565b60006020820190506110086000830184610fe4565b92915050565b61101781610e0b565b82525050565b6000602082019050611032600083018461100e565b92915050565b600082825260208201905092915050565b7f4d7573742073656e642045544800000000000000000000000000000000000000600082015250565b600061107f600d83611038565b915061108a82611049565b602082019050919050565b600060208201905081810360008301526110ae81611072565b9050919050565b7f4e487b7100000000000000000000000000000000000000000000000000000000600052601160045260246000fd5b60006110ef82610e76565b91506110fa83610e76565b925082820261110881610e76565b9150828204841483151761111f5761111e6110b5565b5b5092915050565b7f4e487b7100000000000000000000000000000000000000000000000000000000600052601260045260246000fd5b600061116082610e76565b915061116b83610e76565b92508261117b5761117a611126565b5b828204905092915050565b600061119182610e76565b915061119c83610e76565b92508282019050808211156111b4576111b36110b5565b5b92915050565b7f576f756c6420657863656564206d6178204d584e42207065722077616c6c657460008201527f206c696d69740000000000000000000000000000000000000000000000000000602082015250565b6000611216602683611038565b9150611221826111ba565b604082019050919050565b6000602082019050818103600083015261124581611209565b9050919050565b60008151905061125b81610ee8565b92915050565b60006020828403121561127757611276610de6565b5b60006112858482850161124c565b91505092915050565b7f4661756365742068617320696e73756666696369656e74204d584e4200000000600082015250565b60006112c4601c83611038565b91506112cf8261128e565b602082019050919050565b600060208201905081810360008301526112f3816112b7565b9050919050565b600060408201905061130f600083018561100e565b61131c6020830184610e80565b9392505050565b60008115159050919050565b61133881611323565b811461134357600080fd5b50565b6000815190506113558161132f565b92915050565b60006020828403121561137157611370610de6565b5b600061137f84828501611346565b91505092915050565b7f4d584e42207472616e73666572206661696c6564000000000000000000000000600082015250565b60006113be601483611038565b91506113c982611388565b602082019050919050565b600060208201905081810360008301526113ed816113b1565b9050919050565b60006040820190506114096000830185610e80565b6114166020830184610e80565b9392505050565b600061142882610e76565b915061143383610e76565b925082820390508181111561144b5761144a6110b5565b5b92915050565b7f496e76616c696420726563697069656e74000000000000000000000000000000600082015250565b6000611487601183611038565b915061149282611451565b602082019050919050565b600060208201905081810360008301526114b68161147a565b9050919050565b7f496e73756666696369656e74204554482062616c616e63650000000000000000600082015250565b60006114f3601883611038565b91506114fe826114bd565b602082019050919050565b60006020820190508181036000830152611522816114e6565b9050919050565b600081905092915050565b50565b6000611544600083611529565b915061154f82611534565b600082019050919050565b600061156582611537565b9150819050919050565b7f455448207472616e73666572206661696c656400000000000000000000000000600082015250565b60006115a5601383611038565b91506115b08261156f565b602082019050919050565b600060208201905081810360008301526115d481611598565b9050919050565b7f496e73756666696369656e74204d584e422062616c616e636500000000000000600082015250565b6000611611601983611038565b915061161c826115db565b602082019050919050565b6000602082019050818103600083015261164081611604565b905091905056fea2646970667358221220f841cf5f1b88451f7db356bbbf79c49289717ae2d7b26c3080b2c8adf6afd5d364736f6c63430008140033",
  "linkReferences": {},
  "deployedLinkReferences": {}
}